{
	"data": {
		"bytecode": {
			"linkReferences": {},
			"object": "608060405234801561000f575f80fd5b5060eb8061001c5f395ff3fe6080604052348015600e575f80fd5b50600436106026575f3560e01c8063f215f9d614602a575b5f80fd5b60396035366004608a565b603b565b005b806001600160a01b031663371303c06040518163ffffffff1660e01b81526004015f604051808303815f87803b1580156072575f80fd5b505af11580156083573d5f803e3d5ffd5b5050505050565b5f602082840312156099575f80fd5b81356001600160a01b038116811460ae575f80fd5b939250505056fea26469706673582212209a1c27ccdea2e0e6d0b5c9f324efce7a083ce4220cbb4ccb66598a165415bf9564736f6c63430008160033",
			"opcodes": "PUSH1 0x80 PUSH1 0x40 MSTORE CALLVALUE DUP1 ISZERO PUSH2 0xF JUMPI PUSH0 DUP1 REVERT JUMPDEST POP PUSH1 0xEB DUP1 PUSH2 0x1C PUSH0 CODECOPY PUSH0 RETURN INVALID PUSH1 0x80 PUSH1 0x40 MSTORE CALLVALUE DUP1 ISZERO PUSH1 0xE JUMPI PUSH0 DUP1 REVERT JUMPDEST POP PUSH1 0x4 CALLDATASIZE LT PUSH1 0x26 JUMPI PUSH0 CALLDATALOAD PUSH1 0xE0 SHR DUP1 PUSH4 0xF215F9D6 EQ PUSH1 0x2A JUMPI JUMPDEST PUSH0 DUP1 REVERT JUMPDEST PUSH1 0x39 PUSH1 0x35 CALLDATASIZE PUSH1 0x4 PUSH1 0x8A JUMP JUMPDEST PUSH1 0x3B JUMP JUMPDEST STOP JUMPDEST DUP1 PUSH1 0x1 PUSH1 0x1 PUSH1 0xA0 SHL SUB AND PUSH4 0x371303C0 PUSH1 0x40 MLOAD DUP2 PUSH4 0xFFFFFFFF AND PUSH1 0xE0 SHL DUP2 MSTORE PUSH1 0x4 ADD PUSH0 PUSH1 0x40 MLOAD DUP1 DUP4 SUB DUP2 PUSH0 DUP8 DUP1 EXTCODESIZE ISZERO DUP1 ISZERO PUSH1 0x72 JUMPI PUSH0 DUP1 REVERT JUMPDEST POP GAS CALL ISZERO DUP1 ISZERO PUSH1 0x83 JUMPI RETURNDATASIZE PUSH0 DUP1 RETURNDATACOPY RETURNDATASIZE PUSH0 REVERT JUMPDEST POP POP POP POP POP JUMP JUMPDEST PUSH0 PUSH1 0x20 DUP3 DUP5 SUB SLT ISZERO PUSH1 0x99 JUMPI PUSH0 DUP1 REVERT JUMPDEST DUP2 CALLDATALOAD PUSH1 0x1 PUSH1 0x1 PUSH1 0xA0 SHL SUB DUP2 AND DUP2 EQ PUSH1 0xAE JUMPI PUSH0 DUP1 REVERT JUMPDEST SWAP4 SWAP3 POP POP POP JUMP INVALID LOG2 PUSH5 0x6970667358 0x22 SLT KECCAK256 SWAP11 SHR 0x27 0xCC 0xDE LOG2 0xE0 0xE6 0xD0 0xB5 0xC9 RETURN 0x24 0xEF 0xCE PUSH27 0x83CE4220CBB4CCB66598A165415BF9564736F6C63430008160033 "
		},
		"gasEstimates": {
			"creation": {
				"codeDepositCost": "47000",
				"executionCost": "97",
				"totalCost": "47097"
			},
			"external": {
				"examples(address)": "infinite"
			}
		},
		"methodIdentifiers": {
			"examples(address)": "f215f9d6"
		}
	},
	"abi": [
		{
			"inputs": [
				{
					"internalType": "address",
					"name": "_counter",
					"type": "address"
				}
			],
			"name": "examples",
			"outputs": [],
			"stateMutability": "nonpayable",
			"type": "function"
		}
	]
}