{
	"data": {
		"bytecode": {
			"linkReferences": {},
			"object": "608060405234801561000f575f80fd5b506102f68061001d5f395ff3fe608060405234801561000f575f80fd5b506004361061003f575f3560e01c8063a730b53c14610043578063f0851c501461005d578063fe2d69f914610065575b5f80fd5b61004b610096565b60405190815260200160405180910390f35b61004b61017d565b6100946100733660046101bc565b5f80546001600160a01b0319166001600160a01b0392909216919091179055565b005b5f806040516100a4906101b0565b604051809103905ff0801580156100bd573d5f803e3d5ffd5b506040516376c5838360e11b8152600a60048201529091506001600160a01b0382169063ed8b0706906024015b5f604051808303815f87803b158015610101575f80fd5b505af1158015610113573d5f803e3d5ffd5b50505050806001600160a01b031663725f4fa76040518163ffffffff1660e01b8152600401602060405180830381865afa158015610153573d5f803e3d5ffd5b505050506040513d601f19601f8201168201806040525081019061017791906101e9565b91505090565b5f80546040516376c5838360e11b8152600a60048201526001600160a01b0390911690819063ed8b0706906024016100ea565b60c08061020183390190565b5f602082840312156101cc575f80fd5b81356001600160a01b03811681146101e2575f80fd5b9392505050565b5f602082840312156101f9575f80fd5b505191905056fe6080604052348015600e575f80fd5b5060a58061001b5f395ff3fe6080604052348015600e575f80fd5b50600436106030575f3560e01c8063725f4fa7146034578063ed8b0706146048575b5f80fd5b5f5460405190815260200160405180910390f35b605760533660046059565b5f55565b005b5f602082840312156068575f80fd5b503591905056fea2646970667358221220d260d7a9cd838b5690743175b352cabdcbc1b5d3295cb6ee7e6aaf1f8c4e1c1364736f6c63430008170033a2646970667358221220e1f24d54e1e9f0cb87dc991a9929fc5a1d4dd590d42db8b5eff3ba3d8544681e64736f6c63430008170033",
			"opcodes": "PUSH1 0x80 PUSH1 0x40 MSTORE CALLVALUE DUP1 ISZERO PUSH2 0xF JUMPI PUSH0 DUP1 REVERT JUMPDEST POP PUSH2 0x2F6 DUP1 PUSH2 0x1D PUSH0 CODECOPY PUSH0 RETURN INVALID PUSH1 0x80 PUSH1 0x40 MSTORE CALLVALUE DUP1 ISZERO PUSH2 0xF JUMPI PUSH0 DUP1 REVERT JUMPDEST POP PUSH1 0x4 CALLDATASIZE LT PUSH2 0x3F JUMPI PUSH0 CALLDATALOAD PUSH1 0xE0 SHR DUP1 PUSH4 0xA730B53C EQ PUSH2 0x43 JUMPI DUP1 PUSH4 0xF0851C50 EQ PUSH2 0x5D JUMPI DUP1 PUSH4 0xFE2D69F9 EQ PUSH2 0x65 JUMPI JUMPDEST PUSH0 DUP1 REVERT JUMPDEST PUSH2 0x4B PUSH2 0x96 JUMP JUMPDEST PUSH1 0x40 MLOAD SWAP1 DUP2 MSTORE PUSH1 0x20 ADD PUSH1 0x40 MLOAD DUP1 SWAP2 SUB SWAP1 RETURN JUMPDEST PUSH2 0x4B PUSH2 0x17D JUMP JUMPDEST PUSH2 0x94 PUSH2 0x73 CALLDATASIZE PUSH1 0x4 PUSH2 0x1BC JUMP JUMPDEST PUSH0 DUP1 SLOAD PUSH1 0x1 PUSH1 0x1 PUSH1 0xA0 SHL SUB NOT AND PUSH1 0x1 PUSH1 0x1 PUSH1 0xA0 SHL SUB SWAP3 SWAP1 SWAP3 AND SWAP2 SWAP1 SWAP2 OR SWAP1 SSTORE JUMP JUMPDEST STOP JUMPDEST PUSH0 DUP1 PUSH1 0x40 MLOAD PUSH2 0xA4 SWAP1 PUSH2 0x1B0 JUMP JUMPDEST PUSH1 0x40 MLOAD DUP1 SWAP2 SUB SWAP1 PUSH0 CREATE DUP1 ISZERO DUP1 ISZERO PUSH2 0xBD JUMPI RETURNDATASIZE PUSH0 DUP1 RETURNDATACOPY RETURNDATASIZE PUSH0 REVERT JUMPDEST POP PUSH1 0x40 MLOAD PUSH4 0x76C58383 PUSH1 0xE1 SHL DUP2 MSTORE PUSH1 0xA PUSH1 0x4 DUP3 ADD MSTORE SWAP1 SWAP2 POP PUSH1 0x1 PUSH1 0x1 PUSH1 0xA0 SHL SUB DUP3 AND SWAP1 PUSH4 0xED8B0706 SWAP1 PUSH1 0x24 ADD JUMPDEST PUSH0 PUSH1 0x40 MLOAD DUP1 DUP4 SUB DUP2 PUSH0 DUP8 DUP1 EXTCODESIZE ISZERO DUP1 ISZERO PUSH2 0x101 JUMPI PUSH0 DUP1 REVERT JUMPDEST POP GAS CALL ISZERO DUP1 ISZERO PUSH2 0x113 JUMPI RETURNDATASIZE PUSH0 DUP1 RETURNDATACOPY RETURNDATASIZE PUSH0 REVERT JUMPDEST POP POP POP POP DUP1 PUSH1 0x1 PUSH1 0x1 PUSH1 0xA0 SHL SUB AND PUSH4 0x725F4FA7 PUSH1 0x40 MLOAD DUP2 PUSH4 0xFFFFFFFF AND PUSH1 0xE0 SHL DUP2 MSTORE PUSH1 0x4 ADD PUSH1 0x20 PUSH1 0x40 MLOAD DUP1 DUP4 SUB DUP2 DUP7 GAS STATICCALL ISZERO DUP1 ISZERO PUSH2 0x153 JUMPI RETURNDATASIZE PUSH0 DUP1 RETURNDATACOPY RETURNDATASIZE PUSH0 REVERT JUMPDEST POP POP POP POP PUSH1 0x40 MLOAD RETURNDATASIZE PUSH1 0x1F NOT PUSH1 0x1F DUP3 ADD AND DUP3 ADD DUP1 PUSH1 0x40 MSTORE POP DUP2 ADD SWAP1 PUSH2 0x177 SWAP2 SWAP1 PUSH2 0x1E9 JUMP JUMPDEST SWAP2 POP POP SWAP1 JUMP JUMPDEST PUSH0 DUP1 SLOAD PUSH1 0x40 MLOAD PUSH4 0x76C58383 PUSH1 0xE1 SHL DUP2 MSTORE PUSH1 0xA PUSH1 0x4 DUP3 ADD MSTORE PUSH1 0x1 PUSH1 0x1 PUSH1 0xA0 SHL SUB SWAP1 SWAP2 AND SWAP1 DUP2 SWAP1 PUSH4 0xED8B0706 SWAP1 PUSH1 0x24 ADD PUSH2 0xEA JUMP JUMPDEST PUSH1 0xC0 DUP1 PUSH2 0x201 DUP4 CODECOPY ADD SWAP1 JUMP JUMPDEST PUSH0 PUSH1 0x20 DUP3 DUP5 SUB SLT ISZERO PUSH2 0x1CC JUMPI PUSH0 DUP1 REVERT JUMPDEST DUP2 CALLDATALOAD PUSH1 0x1 PUSH1 0x1 PUSH1 0xA0 SHL SUB DUP2 AND DUP2 EQ PUSH2 0x1E2 JUMPI PUSH0 DUP1 REVERT JUMPDEST SWAP4 SWAP3 POP POP POP JUMP JUMPDEST PUSH0 PUSH1 0x20 DUP3 DUP5 SUB SLT ISZERO PUSH2 0x1F9 JUMPI PUSH0 DUP1 REVERT JUMPDEST POP MLOAD SWAP2 SWAP1 POP JUMP INVALID PUSH1 0x80 PUSH1 0x40 MSTORE CALLVALUE DUP1 ISZERO PUSH1 0xE JUMPI PUSH0 DUP1 REVERT JUMPDEST POP PUSH1 0xA5 DUP1 PUSH2 0x1B PUSH0 CODECOPY PUSH0 RETURN INVALID PUSH1 0x80 PUSH1 0x40 MSTORE CALLVALUE DUP1 ISZERO PUSH1 0xE JUMPI PUSH0 DUP1 REVERT JUMPDEST POP PUSH1 0x4 CALLDATASIZE LT PUSH1 0x30 JUMPI PUSH0 CALLDATALOAD PUSH1 0xE0 SHR DUP1 PUSH4 0x725F4FA7 EQ PUSH1 0x34 JUMPI DUP1 PUSH4 0xED8B0706 EQ PUSH1 0x48 JUMPI JUMPDEST PUSH0 DUP1 REVERT JUMPDEST PUSH0 SLOAD PUSH1 0x40 MLOAD SWAP1 DUP2 MSTORE PUSH1 0x20 ADD PUSH1 0x40 MLOAD DUP1 SWAP2 SUB SWAP1 RETURN JUMPDEST PUSH1 0x57 PUSH1 0x53 CALLDATASIZE PUSH1 0x4 PUSH1 0x59 JUMP JUMPDEST PUSH0 SSTORE JUMP JUMPDEST STOP JUMPDEST PUSH0 PUSH1 0x20 DUP3 DUP5 SUB SLT ISZERO PUSH1 0x68 JUMPI PUSH0 DUP1 REVERT JUMPDEST POP CALLDATALOAD SWAP2 SWAP1 POP JUMP INVALID LOG2 PUSH5 0x6970667358 0x22 SLT KECCAK256 0xD2 PUSH1 0xD7 0xA9 0xCD DUP4 DUP12 JUMP SWAP1 PUSH21 0x3175B352CABDCBC1B5D3295CB6EE7E6AAF1F8C4E1C SGT PUSH5 0x736F6C6343 STOP ADDMOD OR STOP CALLER LOG2 PUSH5 0x6970667358 0x22 SLT KECCAK256 0xE1 CALLCODE 0x4D SLOAD 0xE1 0xE9 CREATE 0xCB DUP8 0xDC SWAP10 BYTE SWAP10 0x29 0xFC GAS SAR 0x4D 0xD5 SWAP1 0xD4 0x2D 0xB8 0xB5 0xEF RETURN 0xBA RETURNDATASIZE DUP6 PREVRANDAO PUSH9 0x1E64736F6C63430008 OR STOP CALLER "
		},
		"gasEstimates": {
			"creation": {
				"codeDepositCost": "151600",
				"executionCost": "194",
				"totalCost": "151794"
			},
			"external": {
				"setObject(address)": "24543",
				"useExistingAddressOfContract()": "infinite",
				"useTheNewKeyWord()": "infinite"
			}
		},
		"methodIdentifiers": {
			"setObject(address)": "fe2d69f9",
			"useExistingAddressOfContract()": "f0851c50",
			"useTheNewKeyWord()": "a730b53c"
		}
	},
	"abi": [
		{
			"inputs": [
				{
					"internalType": "address",
					"name": "_obj",
					"type": "address"
				}
			],
			"name": "setObject",
			"outputs": [],
			"stateMutability": "nonpayable",
			"type": "function"
		},
		{
			"inputs": [],
			"name": "useExistingAddressOfContract",
			"outputs": [
				{
					"internalType": "uint256",
					"name": "",
					"type": "uint256"
				}
			],
			"stateMutability": "nonpayable",
			"type": "function"
		},
		{
			"inputs": [],
			"name": "useTheNewKeyWord",
			"outputs": [
				{
					"internalType": "uint256",
					"name": "",
					"type": "uint256"
				}
			],
			"stateMutability": "nonpayable",
			"type": "function"
		}
	]
}