{
	"data": {
		"bytecode": {
			"linkReferences": {},
			"object": "6080604052607b600155348015610014575f80fd5b5061029f806100225f395ff3fe608060405234801561000f575f80fd5b5060043610610090575f3560e01c8063371303c011610063578063371303c0146100de5780634e70b1dc146100e657806375f7286c146100ef578063b3bcfa8214610102578063b8bd717f146100c1575f80fd5b806306661abd14610094578063188b85b4146100ae57806320987767146100c15780632b813bc0146100d6575b5f80fd5b61009c5f5481565b60405190815260200160405180910390f35b61009c6100bc3660046101e6565b61010a565b6100d46100cf3660046101e6565b61013c565b005b6100d461017e565b6100d4610192565b61009c60015481565b6100d46100fd3660046101e6565b6101aa565b6100d46101d5565b5f8060015b83811161013557610121600183610211565b91508061012d8161022a565b91505061010f565b5092915050565b600a81111561017b5760405162461bcd60e51b8152602060048201526006602482015265069203e2031360d41b60448201526064015b60405180910390fd5b50565b600154607b1461019057610190610242565b565b60015f808282546101a39190610211565b9091555050565b600a81111561017b57604051631c47337760e31b815233600482015260248101829052604401610172565b60015f808282546101a39190610256565b5f602082840312156101f6575f80fd5b5035919050565b634e487b7160e01b5f52601160045260245ffd5b80820180821115610224576102246101fd565b92915050565b5f6001820161023b5761023b6101fd565b5060010190565b634e487b7160e01b5f52600160045260245ffd5b81810381811115610224576102246101fd56fea2646970667358221220d58b6a555d704f207321540bcb040dca622353325aba39d5c39d18afae78e84964736f6c63430008160033",
			"opcodes": "PUSH1 0x80 PUSH1 0x40 MSTORE PUSH1 0x7B PUSH1 0x1 SSTORE CALLVALUE DUP1 ISZERO PUSH2 0x14 JUMPI PUSH0 DUP1 REVERT JUMPDEST POP PUSH2 0x29F DUP1 PUSH2 0x22 PUSH0 CODECOPY PUSH0 RETURN INVALID PUSH1 0x80 PUSH1 0x40 MSTORE CALLVALUE DUP1 ISZERO PUSH2 0xF JUMPI PUSH0 DUP1 REVERT JUMPDEST POP PUSH1 0x4 CALLDATASIZE LT PUSH2 0x90 JUMPI PUSH0 CALLDATALOAD PUSH1 0xE0 SHR DUP1 PUSH4 0x371303C0 GT PUSH2 0x63 JUMPI DUP1 PUSH4 0x371303C0 EQ PUSH2 0xDE JUMPI DUP1 PUSH4 0x4E70B1DC EQ PUSH2 0xE6 JUMPI DUP1 PUSH4 0x75F7286C EQ PUSH2 0xEF JUMPI DUP1 PUSH4 0xB3BCFA82 EQ PUSH2 0x102 JUMPI DUP1 PUSH4 0xB8BD717F EQ PUSH2 0xC1 JUMPI PUSH0 DUP1 REVERT JUMPDEST DUP1 PUSH4 0x6661ABD EQ PUSH2 0x94 JUMPI DUP1 PUSH4 0x188B85B4 EQ PUSH2 0xAE JUMPI DUP1 PUSH4 0x20987767 EQ PUSH2 0xC1 JUMPI DUP1 PUSH4 0x2B813BC0 EQ PUSH2 0xD6 JUMPI JUMPDEST PUSH0 DUP1 REVERT JUMPDEST PUSH2 0x9C PUSH0 SLOAD DUP2 JUMP JUMPDEST PUSH1 0x40 MLOAD SWAP1 DUP2 MSTORE PUSH1 0x20 ADD PUSH1 0x40 MLOAD DUP1 SWAP2 SUB SWAP1 RETURN JUMPDEST PUSH2 0x9C PUSH2 0xBC CALLDATASIZE PUSH1 0x4 PUSH2 0x1E6 JUMP JUMPDEST PUSH2 0x10A JUMP JUMPDEST PUSH2 0xD4 PUSH2 0xCF CALLDATASIZE PUSH1 0x4 PUSH2 0x1E6 JUMP JUMPDEST PUSH2 0x13C JUMP JUMPDEST STOP JUMPDEST PUSH2 0xD4 PUSH2 0x17E JUMP JUMPDEST PUSH2 0xD4 PUSH2 0x192 JUMP JUMPDEST PUSH2 0x9C PUSH1 0x1 SLOAD DUP2 JUMP JUMPDEST PUSH2 0xD4 PUSH2 0xFD CALLDATASIZE PUSH1 0x4 PUSH2 0x1E6 JUMP JUMPDEST PUSH2 0x1AA JUMP JUMPDEST PUSH2 0xD4 PUSH2 0x1D5 JUMP JUMPDEST PUSH0 DUP1 PUSH1 0x1 JUMPDEST DUP4 DUP2 GT PUSH2 0x135 JUMPI PUSH2 0x121 PUSH1 0x1 DUP4 PUSH2 0x211 JUMP JUMPDEST SWAP2 POP DUP1 PUSH2 0x12D DUP2 PUSH2 0x22A JUMP JUMPDEST SWAP2 POP POP PUSH2 0x10F JUMP JUMPDEST POP SWAP3 SWAP2 POP POP JUMP JUMPDEST PUSH1 0xA DUP2 GT ISZERO PUSH2 0x17B JUMPI PUSH1 0x40 MLOAD PUSH3 0x461BCD PUSH1 0xE5 SHL DUP2 MSTORE PUSH1 0x20 PUSH1 0x4 DUP3 ADD MSTORE PUSH1 0x6 PUSH1 0x24 DUP3 ADD MSTORE PUSH6 0x69203E20313 PUSH1 0xD4 SHL PUSH1 0x44 DUP3 ADD MSTORE PUSH1 0x64 ADD JUMPDEST PUSH1 0x40 MLOAD DUP1 SWAP2 SUB SWAP1 REVERT JUMPDEST POP JUMP JUMPDEST PUSH1 0x1 SLOAD PUSH1 0x7B EQ PUSH2 0x190 JUMPI PUSH2 0x190 PUSH2 0x242 JUMP JUMPDEST JUMP JUMPDEST PUSH1 0x1 PUSH0 DUP1 DUP3 DUP3 SLOAD PUSH2 0x1A3 SWAP2 SWAP1 PUSH2 0x211 JUMP JUMPDEST SWAP1 SWAP2 SSTORE POP POP JUMP JUMPDEST PUSH1 0xA DUP2 GT ISZERO PUSH2 0x17B JUMPI PUSH1 0x40 MLOAD PUSH4 0x1C473377 PUSH1 0xE3 SHL DUP2 MSTORE CALLER PUSH1 0x4 DUP3 ADD MSTORE PUSH1 0x24 DUP2 ADD DUP3 SWAP1 MSTORE PUSH1 0x44 ADD PUSH2 0x172 JUMP JUMPDEST PUSH1 0x1 PUSH0 DUP1 DUP3 DUP3 SLOAD PUSH2 0x1A3 SWAP2 SWAP1 PUSH2 0x256 JUMP JUMPDEST PUSH0 PUSH1 0x20 DUP3 DUP5 SUB SLT ISZERO PUSH2 0x1F6 JUMPI PUSH0 DUP1 REVERT JUMPDEST POP CALLDATALOAD SWAP2 SWAP1 POP JUMP JUMPDEST PUSH4 0x4E487B71 PUSH1 0xE0 SHL PUSH0 MSTORE PUSH1 0x11 PUSH1 0x4 MSTORE PUSH1 0x24 PUSH0 REVERT JUMPDEST DUP1 DUP3 ADD DUP1 DUP3 GT ISZERO PUSH2 0x224 JUMPI PUSH2 0x224 PUSH2 0x1FD JUMP JUMPDEST SWAP3 SWAP2 POP POP JUMP JUMPDEST PUSH0 PUSH1 0x1 DUP3 ADD PUSH2 0x23B JUMPI PUSH2 0x23B PUSH2 0x1FD JUMP JUMPDEST POP PUSH1 0x1 ADD SWAP1 JUMP JUMPDEST PUSH4 0x4E487B71 PUSH1 0xE0 SHL PUSH0 MSTORE PUSH1 0x1 PUSH1 0x4 MSTORE PUSH1 0x24 PUSH0 REVERT JUMPDEST DUP2 DUP2 SUB DUP2 DUP2 GT ISZERO PUSH2 0x224 JUMPI PUSH2 0x224 PUSH2 0x1FD JUMP INVALID LOG2 PUSH5 0x6970667358 0x22 SLT KECCAK256 0xD5 DUP12 PUSH11 0x555D704F207321540BCB04 0xD 0xCA PUSH3 0x235332 GAS 0xBA CODECOPY 0xD5 0xC3 SWAP14 XOR 0xAF 0xAE PUSH25 0xE84964736F6C63430008160033000000000000000000000000 "
		},
		"gasEstimates": {
			"creation": {
				"codeDepositCost": "134200",
				"executionCost": "22281",
				"totalCost": "156481"
			},
			"external": {
				"count()": "2282",
				"dec()": "24508",
				"inc()": "24442",
				"num()": "2304",
				"sum(uint256)": "infinite",
				"testAssert()": "2366",
				"testCustomError(uint256)": "380",
				"testRequire(uint256)": "435",
				"testRevert(uint256)": "392"
			}
		},
		"methodIdentifiers": {
			"count()": "06661abd",
			"dec()": "b3bcfa82",
			"inc()": "371303c0",
			"num()": "4e70b1dc",
			"sum(uint256)": "188b85b4",
			"testAssert()": "2b813bc0",
			"testCustomError(uint256)": "75f7286c",
			"testRequire(uint256)": "b8bd717f",
			"testRevert(uint256)": "20987767"
		}
	},
	"abi": [
		{
			"inputs": [
				{
					"internalType": "address",
					"name": "caller",
					"type": "address"
				},
				{
					"internalType": "uint256",
					"name": "i",
					"type": "uint256"
				}
			],
			"name": "MyError",
			"type": "error"
		},
		{
			"inputs": [],
			"name": "count",
			"outputs": [
				{
					"internalType": "uint256",
					"name": "",
					"type": "uint256"
				}
			],
			"stateMutability": "view",
			"type": "function"
		},
		{
			"inputs": [],
			"name": "dec",
			"outputs": [],
			"stateMutability": "nonpayable",
			"type": "function"
		},
		{
			"inputs": [],
			"name": "inc",
			"outputs": [],
			"stateMutability": "nonpayable",
			"type": "function"
		},
		{
			"inputs": [],
			"name": "num",
			"outputs": [
				{
					"internalType": "uint256",
					"name": "",
					"type": "uint256"
				}
			],
			"stateMutability": "view",
			"type": "function"
		},
		{
			"inputs": [
				{
					"internalType": "uint256",
					"name": "n",
					"type": "uint256"
				}
			],
			"name": "sum",
			"outputs": [
				{
					"internalType": "uint256",
					"name": "",
					"type": "uint256"
				}
			],
			"stateMutability": "pure",
			"type": "function"
		},
		{
			"inputs": [],
			"name": "testAssert",
			"outputs": [],
			"stateMutability": "view",
			"type": "function"
		},
		{
			"inputs": [
				{
					"internalType": "uint256",
					"name": "e",
					"type": "uint256"
				}
			],
			"name": "testCustomError",
			"outputs": [],
			"stateMutability": "view",
			"type": "function"
		},
		{
			"inputs": [
				{
					"internalType": "uint256",
					"name": "i",
					"type": "uint256"
				}
			],
			"name": "testRequire",
			"outputs": [],
			"stateMutability": "pure",
			"type": "function"
		},
		{
			"inputs": [
				{
					"internalType": "uint256",
					"name": "i",
					"type": "uint256"
				}
			],
			"name": "testRevert",
			"outputs": [],
			"stateMutability": "pure",
			"type": "function"
		}
	]
}