{
	"data": {
		"bytecode": {
			"linkReferences": {},
			"object": "6080604052348015600e575f80fd5b5060a58061001b5f395ff3fe6080604052348015600e575f80fd5b50600436106030575f3560e01c8063725f4fa7146034578063ed8b0706146048575b5f80fd5b5f5460405190815260200160405180910390f35b605760533660046059565b5f55565b005b5f602082840312156068575f80fd5b503591905056fea26469706673582212200845184d2a82fc942a32186ed2867a0252c2b51db03a733588d4bce80c4842b964736f6c63430008160033",
			"opcodes": "PUSH1 0x80 PUSH1 0x40 MSTORE CALLVALUE DUP1 ISZERO PUSH1 0xE JUMPI PUSH0 DUP1 REVERT JUMPDEST POP PUSH1 0xA5 DUP1 PUSH2 0x1B PUSH0 CODECOPY PUSH0 RETURN INVALID PUSH1 0x80 PUSH1 0x40 MSTORE CALLVALUE DUP1 ISZERO PUSH1 0xE JUMPI PUSH0 DUP1 REVERT JUMPDEST POP PUSH1 0x4 CALLDATASIZE LT PUSH1 0x30 JUMPI PUSH0 CALLDATALOAD PUSH1 0xE0 SHR DUP1 PUSH4 0x725F4FA7 EQ PUSH1 0x34 JUMPI DUP1 PUSH4 0xED8B0706 EQ PUSH1 0x48 JUMPI JUMPDEST PUSH0 DUP1 REVERT JUMPDEST PUSH0 SLOAD PUSH1 0x40 MLOAD SWAP1 DUP2 MSTORE PUSH1 0x20 ADD PUSH1 0x40 MLOAD DUP1 SWAP2 SUB SWAP1 RETURN JUMPDEST PUSH1 0x57 PUSH1 0x53 CALLDATASIZE PUSH1 0x4 PUSH1 0x59 JUMP JUMPDEST PUSH0 SSTORE JUMP JUMPDEST STOP JUMPDEST PUSH0 PUSH1 0x20 DUP3 DUP5 SUB SLT ISZERO PUSH1 0x68 JUMPI PUSH0 DUP1 REVERT JUMPDEST POP CALLDATALOAD SWAP2 SWAP1 POP JUMP INVALID LOG2 PUSH5 0x6970667358 0x22 SLT KECCAK256 ADDMOD GASLIMIT XOR 0x4D 0x2A DUP3 0xFC SWAP5 0x2A ORIGIN XOR PUSH15 0xD2867A0252C2B51DB03A733588D4BC 0xE8 0xC BASEFEE TIMESTAMP 0xB9 PUSH5 0x736F6C6343 STOP ADDMOD AND STOP CALLER "
		},
		"gasEstimates": {
			"creation": {
				"codeDepositCost": "33000",
				"executionCost": "85",
				"totalCost": "33085"
			},
			"external": {
				"GetValue()": "2244",
				"SetValue(uint256)": "22309"
			}
		},
		"methodIdentifiers": {
			"GetValue()": "725f4fa7",
			"SetValue(uint256)": "ed8b0706"
		}
	},
	"abi": [
		{
			"inputs": [],
			"name": "GetValue",
			"outputs": [
				{
					"internalType": "uint256",
					"name": "",
					"type": "uint256"
				}
			],
			"stateMutability": "view",
			"type": "function"
		},
		{
			"inputs": [
				{
					"internalType": "uint256",
					"name": "_value",
					"type": "uint256"
				}
			],
			"name": "SetValue",
			"outputs": [],
			"stateMutability": "nonpayable",
			"type": "function"
		}
	]
}