{
	"data": {
		"bytecode": {
			"linkReferences": {},
			"object": "608060405234801561000f575f80fd5b5061060d8061001d5f395ff3fe608060405234801561000f575f80fd5b506004361061003f575f3560e01c8063335d00c214610043578063ee26fac31461004d578063f7746e361461006d575b5f80fd5b61004b610080565b005b610055610312565b604051610064939291906103e5565b60405180910390f35b61005561007b366004610448565b6103b7565b6040805160a080820183526006606080840191825265546f796f746160d01b60808086019190915291845261076c6020808601919091523385870181905286519485018752600b8584019081526a4c616d626f726768696e6960a81b948601949094529284526107bc8482015283860192909252845180820186529081525f91810182905293840152909160408051808201825260058152645465736c6160d81b6020808301919091529083526107d0908301523390820152600380546001810182555f82905284518592919091025f805160206105b88339815191520190819061016b90826104f7565b506020820151600180830191909155604090920151600290910180546001600160a01b039092166001600160a01b03199092169190911790556003805491820181555f819052835184929091025f805160206105b8833981519152019081906101d490826104f7565b506020820151600180830191909155604090920151600290910180546001600160a01b039092166001600160a01b03199092169190911790556003805491820181555f819052825183929091025f805160206105b88339815191520190819061023d90826104f7565b50602082810151600180840191909155604093840151600290930180546001600160a01b039094166001600160a01b031990941693909317909255825160a081018452600760608201908152664665727261726960c81b608083015281526107e49181019190915233928101929092526003805491820181555f819052825191025f805160206105b8833981519152019081906102da90826104f7565b5060208201516001820155604090910151600290910180546001600160a01b0319166001600160a01b03909216919091179055505050565b5f8054819061032090610473565b80601f016020809104026020016040519081016040528092919081815260200182805461034c90610473565b80156103975780601f1061036e57610100808354040283529160200191610397565b820191905f5260205f20905b81548152906001019060200180831161037a57829003601f168201915b5050505060018301546002909301549192916001600160a01b0316905083565b600381815481106103c6575f80fd5b905f5260205f2090600302015f91509050805f01805461032090610473565b606081525f84518060608401525f5b8181101561041157602081880181015160808684010152016103f4565b505f608082850181019190915260208401959095526001600160a01b0393909316604083015250601f909101601f19160101919050565b5f60208284031215610458575f80fd5b5035919050565b634e487b7160e01b5f52604160045260245ffd5b600181811c9082168061048757607f821691505b6020821081036104a557634e487b7160e01b5f52602260045260245ffd5b50919050565b601f8211156104f257805f5260205f20601f840160051c810160208510156104d05750805b601f840160051c820191505b818110156104ef575f81556001016104dc565b50505b505050565b815167ffffffffffffffff8111156105115761051161045f565b6105258161051f8454610473565b846104ab565b602080601f831160018114610558575f84156105415750858301515b5f19600386901b1c1916600185901b1785556105af565b5f85815260208120601f198616915b8281101561058657888601518255948401946001909101908401610567565b50858210156105a357878501515f19600388901b60f8161c191681555b505060018460011b0185555b50505050505056fec2575a0e9e593c00f959f8c92f12db2869c3395a3b0502d05e2516446f71f85ba26469706673582212203f9361eb2342823f7045aa94d153eb43f1f5b9a0be5a6acbadcc8dd0309c80e064736f6c63430008170033",
			"opcodes": "PUSH1 0x80 PUSH1 0x40 MSTORE CALLVALUE DUP1 ISZERO PUSH2 0xF JUMPI PUSH0 DUP1 REVERT JUMPDEST POP PUSH2 0x60D DUP1 PUSH2 0x1D PUSH0 CODECOPY PUSH0 RETURN INVALID PUSH1 0x80 PUSH1 0x40 MSTORE CALLVALUE DUP1 ISZERO PUSH2 0xF JUMPI PUSH0 DUP1 REVERT JUMPDEST POP PUSH1 0x4 CALLDATASIZE LT PUSH2 0x3F JUMPI PUSH0 CALLDATALOAD PUSH1 0xE0 SHR DUP1 PUSH4 0x335D00C2 EQ PUSH2 0x43 JUMPI DUP1 PUSH4 0xEE26FAC3 EQ PUSH2 0x4D JUMPI DUP1 PUSH4 0xF7746E36 EQ PUSH2 0x6D JUMPI JUMPDEST PUSH0 DUP1 REVERT JUMPDEST PUSH2 0x4B PUSH2 0x80 JUMP JUMPDEST STOP JUMPDEST PUSH2 0x55 PUSH2 0x312 JUMP JUMPDEST PUSH1 0x40 MLOAD PUSH2 0x64 SWAP4 SWAP3 SWAP2 SWAP1 PUSH2 0x3E5 JUMP JUMPDEST PUSH1 0x40 MLOAD DUP1 SWAP2 SUB SWAP1 RETURN JUMPDEST PUSH2 0x55 PUSH2 0x7B CALLDATASIZE PUSH1 0x4 PUSH2 0x448 JUMP JUMPDEST PUSH2 0x3B7 JUMP JUMPDEST PUSH1 0x40 DUP1 MLOAD PUSH1 0xA0 DUP1 DUP3 ADD DUP4 MSTORE PUSH1 0x6 PUSH1 0x60 DUP1 DUP5 ADD SWAP2 DUP3 MSTORE PUSH6 0x546F796F7461 PUSH1 0xD0 SHL PUSH1 0x80 DUP1 DUP7 ADD SWAP2 SWAP1 SWAP2 MSTORE SWAP2 DUP5 MSTORE PUSH2 0x76C PUSH1 0x20 DUP1 DUP7 ADD SWAP2 SWAP1 SWAP2 MSTORE CALLER DUP6 DUP8 ADD DUP2 SWAP1 MSTORE DUP7 MLOAD SWAP5 DUP6 ADD DUP8 MSTORE PUSH1 0xB DUP6 DUP5 ADD SWAP1 DUP2 MSTORE PUSH11 0x4C616D626F726768696E69 PUSH1 0xA8 SHL SWAP5 DUP7 ADD SWAP5 SWAP1 SWAP5 MSTORE SWAP3 DUP5 MSTORE PUSH2 0x7BC DUP5 DUP3 ADD MSTORE DUP4 DUP7 ADD SWAP3 SWAP1 SWAP3 MSTORE DUP5 MLOAD DUP1 DUP3 ADD DUP7 MSTORE SWAP1 DUP2 MSTORE PUSH0 SWAP2 DUP2 ADD DUP3 SWAP1 MSTORE SWAP4 DUP5 ADD MSTORE SWAP1 SWAP2 PUSH1 0x40 DUP1 MLOAD DUP1 DUP3 ADD DUP3 MSTORE PUSH1 0x5 DUP2 MSTORE PUSH5 0x5465736C61 PUSH1 0xD8 SHL PUSH1 0x20 DUP1 DUP4 ADD SWAP2 SWAP1 SWAP2 MSTORE SWAP1 DUP4 MSTORE PUSH2 0x7D0 SWAP1 DUP4 ADD MSTORE CALLER SWAP1 DUP3 ADD MSTORE PUSH1 0x3 DUP1 SLOAD PUSH1 0x1 DUP2 ADD DUP3 SSTORE PUSH0 DUP3 SWAP1 MSTORE DUP5 MLOAD DUP6 SWAP3 SWAP2 SWAP1 SWAP2 MUL PUSH0 DUP1 MLOAD PUSH1 0x20 PUSH2 0x5B8 DUP4 CODECOPY DUP2 MLOAD SWAP2 MSTORE ADD SWAP1 DUP2 SWAP1 PUSH2 0x16B SWAP1 DUP3 PUSH2 0x4F7 JUMP JUMPDEST POP PUSH1 0x20 DUP3 ADD MLOAD PUSH1 0x1 DUP1 DUP4 ADD SWAP2 SWAP1 SWAP2 SSTORE PUSH1 0x40 SWAP1 SWAP3 ADD MLOAD PUSH1 0x2 SWAP1 SWAP2 ADD DUP1 SLOAD PUSH1 0x1 PUSH1 0x1 PUSH1 0xA0 SHL SUB SWAP1 SWAP3 AND PUSH1 0x1 PUSH1 0x1 PUSH1 0xA0 SHL SUB NOT SWAP1 SWAP3 AND SWAP2 SWAP1 SWAP2 OR SWAP1 SSTORE PUSH1 0x3 DUP1 SLOAD SWAP2 DUP3 ADD DUP2 SSTORE PUSH0 DUP2 SWAP1 MSTORE DUP4 MLOAD DUP5 SWAP3 SWAP1 SWAP2 MUL PUSH0 DUP1 MLOAD PUSH1 0x20 PUSH2 0x5B8 DUP4 CODECOPY DUP2 MLOAD SWAP2 MSTORE ADD SWAP1 DUP2 SWAP1 PUSH2 0x1D4 SWAP1 DUP3 PUSH2 0x4F7 JUMP JUMPDEST POP PUSH1 0x20 DUP3 ADD MLOAD PUSH1 0x1 DUP1 DUP4 ADD SWAP2 SWAP1 SWAP2 SSTORE PUSH1 0x40 SWAP1 SWAP3 ADD MLOAD PUSH1 0x2 SWAP1 SWAP2 ADD DUP1 SLOAD PUSH1 0x1 PUSH1 0x1 PUSH1 0xA0 SHL SUB SWAP1 SWAP3 AND PUSH1 0x1 PUSH1 0x1 PUSH1 0xA0 SHL SUB NOT SWAP1 SWAP3 AND SWAP2 SWAP1 SWAP2 OR SWAP1 SSTORE PUSH1 0x3 DUP1 SLOAD SWAP2 DUP3 ADD DUP2 SSTORE PUSH0 DUP2 SWAP1 MSTORE DUP3 MLOAD DUP4 SWAP3 SWAP1 SWAP2 MUL PUSH0 DUP1 MLOAD PUSH1 0x20 PUSH2 0x5B8 DUP4 CODECOPY DUP2 MLOAD SWAP2 MSTORE ADD SWAP1 DUP2 SWAP1 PUSH2 0x23D SWAP1 DUP3 PUSH2 0x4F7 JUMP JUMPDEST POP PUSH1 0x20 DUP3 DUP2 ADD MLOAD PUSH1 0x1 DUP1 DUP5 ADD SWAP2 SWAP1 SWAP2 SSTORE PUSH1 0x40 SWAP4 DUP5 ADD MLOAD PUSH1 0x2 SWAP1 SWAP4 ADD DUP1 SLOAD PUSH1 0x1 PUSH1 0x1 PUSH1 0xA0 SHL SUB SWAP1 SWAP5 AND PUSH1 0x1 PUSH1 0x1 PUSH1 0xA0 SHL SUB NOT SWAP1 SWAP5 AND SWAP4 SWAP1 SWAP4 OR SWAP1 SWAP3 SSTORE DUP3 MLOAD PUSH1 0xA0 DUP2 ADD DUP5 MSTORE PUSH1 0x7 PUSH1 0x60 DUP3 ADD SWAP1 DUP2 MSTORE PUSH7 0x46657272617269 PUSH1 0xC8 SHL PUSH1 0x80 DUP4 ADD MSTORE DUP2 MSTORE PUSH2 0x7E4 SWAP2 DUP2 ADD SWAP2 SWAP1 SWAP2 MSTORE CALLER SWAP3 DUP2 ADD SWAP3 SWAP1 SWAP3 MSTORE PUSH1 0x3 DUP1 SLOAD SWAP2 DUP3 ADD DUP2 SSTORE PUSH0 DUP2 SWAP1 MSTORE DUP3 MLOAD SWAP2 MUL PUSH0 DUP1 MLOAD PUSH1 0x20 PUSH2 0x5B8 DUP4 CODECOPY DUP2 MLOAD SWAP2 MSTORE ADD SWAP1 DUP2 SWAP1 PUSH2 0x2DA SWAP1 DUP3 PUSH2 0x4F7 JUMP JUMPDEST POP PUSH1 0x20 DUP3 ADD MLOAD PUSH1 0x1 DUP3 ADD SSTORE PUSH1 0x40 SWAP1 SWAP2 ADD MLOAD PUSH1 0x2 SWAP1 SWAP2 ADD DUP1 SLOAD PUSH1 0x1 PUSH1 0x1 PUSH1 0xA0 SHL SUB NOT AND PUSH1 0x1 PUSH1 0x1 PUSH1 0xA0 SHL SUB SWAP1 SWAP3 AND SWAP2 SWAP1 SWAP2 OR SWAP1 SSTORE POP POP POP JUMP JUMPDEST PUSH0 DUP1 SLOAD DUP2 SWAP1 PUSH2 0x320 SWAP1 PUSH2 0x473 JUMP JUMPDEST DUP1 PUSH1 0x1F ADD PUSH1 0x20 DUP1 SWAP2 DIV MUL PUSH1 0x20 ADD PUSH1 0x40 MLOAD SWAP1 DUP2 ADD PUSH1 0x40 MSTORE DUP1 SWAP3 SWAP2 SWAP1 DUP2 DUP2 MSTORE PUSH1 0x20 ADD DUP3 DUP1 SLOAD PUSH2 0x34C SWAP1 PUSH2 0x473 JUMP JUMPDEST DUP1 ISZERO PUSH2 0x397 JUMPI DUP1 PUSH1 0x1F LT PUSH2 0x36E JUMPI PUSH2 0x100 DUP1 DUP4 SLOAD DIV MUL DUP4 MSTORE SWAP2 PUSH1 0x20 ADD SWAP2 PUSH2 0x397 JUMP JUMPDEST DUP3 ADD SWAP2 SWAP1 PUSH0 MSTORE PUSH1 0x20 PUSH0 KECCAK256 SWAP1 JUMPDEST DUP2 SLOAD DUP2 MSTORE SWAP1 PUSH1 0x1 ADD SWAP1 PUSH1 0x20 ADD DUP1 DUP4 GT PUSH2 0x37A JUMPI DUP3 SWAP1 SUB PUSH1 0x1F AND DUP3 ADD SWAP2 JUMPDEST POP POP POP POP PUSH1 0x1 DUP4 ADD SLOAD PUSH1 0x2 SWAP1 SWAP4 ADD SLOAD SWAP2 SWAP3 SWAP2 PUSH1 0x1 PUSH1 0x1 PUSH1 0xA0 SHL SUB AND SWAP1 POP DUP4 JUMP JUMPDEST PUSH1 0x3 DUP2 DUP2 SLOAD DUP2 LT PUSH2 0x3C6 JUMPI PUSH0 DUP1 REVERT JUMPDEST SWAP1 PUSH0 MSTORE PUSH1 0x20 PUSH0 KECCAK256 SWAP1 PUSH1 0x3 MUL ADD PUSH0 SWAP2 POP SWAP1 POP DUP1 PUSH0 ADD DUP1 SLOAD PUSH2 0x320 SWAP1 PUSH2 0x473 JUMP JUMPDEST PUSH1 0x60 DUP2 MSTORE PUSH0 DUP5 MLOAD DUP1 PUSH1 0x60 DUP5 ADD MSTORE PUSH0 JUMPDEST DUP2 DUP2 LT ISZERO PUSH2 0x411 JUMPI PUSH1 0x20 DUP2 DUP9 ADD DUP2 ADD MLOAD PUSH1 0x80 DUP7 DUP5 ADD ADD MSTORE ADD PUSH2 0x3F4 JUMP JUMPDEST POP PUSH0 PUSH1 0x80 DUP3 DUP6 ADD DUP2 ADD SWAP2 SWAP1 SWAP2 MSTORE PUSH1 0x20 DUP5 ADD SWAP6 SWAP1 SWAP6 MSTORE PUSH1 0x1 PUSH1 0x1 PUSH1 0xA0 SHL SUB SWAP4 SWAP1 SWAP4 AND PUSH1 0x40 DUP4 ADD MSTORE POP PUSH1 0x1F SWAP1 SWAP2 ADD PUSH1 0x1F NOT AND ADD ADD SWAP2 SWAP1 POP JUMP JUMPDEST PUSH0 PUSH1 0x20 DUP3 DUP5 SUB SLT ISZERO PUSH2 0x458 JUMPI PUSH0 DUP1 REVERT JUMPDEST POP CALLDATALOAD SWAP2 SWAP1 POP JUMP JUMPDEST PUSH4 0x4E487B71 PUSH1 0xE0 SHL PUSH0 MSTORE PUSH1 0x41 PUSH1 0x4 MSTORE PUSH1 0x24 PUSH0 REVERT JUMPDEST PUSH1 0x1 DUP2 DUP2 SHR SWAP1 DUP3 AND DUP1 PUSH2 0x487 JUMPI PUSH1 0x7F DUP3 AND SWAP2 POP JUMPDEST PUSH1 0x20 DUP3 LT DUP2 SUB PUSH2 0x4A5 JUMPI PUSH4 0x4E487B71 PUSH1 0xE0 SHL PUSH0 MSTORE PUSH1 0x22 PUSH1 0x4 MSTORE PUSH1 0x24 PUSH0 REVERT JUMPDEST POP SWAP2 SWAP1 POP JUMP JUMPDEST PUSH1 0x1F DUP3 GT ISZERO PUSH2 0x4F2 JUMPI DUP1 PUSH0 MSTORE PUSH1 0x20 PUSH0 KECCAK256 PUSH1 0x1F DUP5 ADD PUSH1 0x5 SHR DUP2 ADD PUSH1 0x20 DUP6 LT ISZERO PUSH2 0x4D0 JUMPI POP DUP1 JUMPDEST PUSH1 0x1F DUP5 ADD PUSH1 0x5 SHR DUP3 ADD SWAP2 POP JUMPDEST DUP2 DUP2 LT ISZERO PUSH2 0x4EF JUMPI PUSH0 DUP2 SSTORE PUSH1 0x1 ADD PUSH2 0x4DC JUMP JUMPDEST POP POP JUMPDEST POP POP POP JUMP JUMPDEST DUP2 MLOAD PUSH8 0xFFFFFFFFFFFFFFFF DUP2 GT ISZERO PUSH2 0x511 JUMPI PUSH2 0x511 PUSH2 0x45F JUMP JUMPDEST PUSH2 0x525 DUP2 PUSH2 0x51F DUP5 SLOAD PUSH2 0x473 JUMP JUMPDEST DUP5 PUSH2 0x4AB JUMP JUMPDEST PUSH1 0x20 DUP1 PUSH1 0x1F DUP4 GT PUSH1 0x1 DUP2 EQ PUSH2 0x558 JUMPI PUSH0 DUP5 ISZERO PUSH2 0x541 JUMPI POP DUP6 DUP4 ADD MLOAD JUMPDEST PUSH0 NOT PUSH1 0x3 DUP7 SWAP1 SHL SHR NOT AND PUSH1 0x1 DUP6 SWAP1 SHL OR DUP6 SSTORE PUSH2 0x5AF JUMP JUMPDEST PUSH0 DUP6 DUP2 MSTORE PUSH1 0x20 DUP2 KECCAK256 PUSH1 0x1F NOT DUP7 AND SWAP2 JUMPDEST DUP3 DUP2 LT ISZERO PUSH2 0x586 JUMPI DUP9 DUP7 ADD MLOAD DUP3 SSTORE SWAP5 DUP5 ADD SWAP5 PUSH1 0x1 SWAP1 SWAP2 ADD SWAP1 DUP5 ADD PUSH2 0x567 JUMP JUMPDEST POP DUP6 DUP3 LT ISZERO PUSH2 0x5A3 JUMPI DUP8 DUP6 ADD MLOAD PUSH0 NOT PUSH1 0x3 DUP9 SWAP1 SHL PUSH1 0xF8 AND SHR NOT AND DUP2 SSTORE JUMPDEST POP POP PUSH1 0x1 DUP5 PUSH1 0x1 SHL ADD DUP6 SSTORE JUMPDEST POP POP POP POP POP POP JUMP INVALID 0xC2 JUMPI GAS 0xE SWAP15 MSIZE EXTCODECOPY STOP 0xF9 MSIZE 0xF8 0xC9 0x2F SLT 0xDB 0x28 PUSH10 0xC3395A3B0502D05E2516 PREVRANDAO PUSH16 0x71F85BA26469706673582212203F9361 0xEB 0x23 TIMESTAMP DUP3 EXTCODEHASH PUSH17 0x45AA94D153EB43F1F5B9A0BE5A6ACBADCC DUP14 0xD0 ADDRESS SWAP13 DUP1 0xE0 PUSH5 0x736F6C6343 STOP ADDMOD OR STOP CALLER "
		},
		"gasEstimates": {
			"creation": {
				"codeDepositCost": "309800",
				"executionCost": "347",
				"totalCost": "310147"
			},
			"external": {
				"car()": "infinite",
				"cars(uint256)": "infinite",
				"examples()": "infinite"
			}
		},
		"methodIdentifiers": {
			"car()": "ee26fac3",
			"cars(uint256)": "f7746e36",
			"examples()": "335d00c2"
		}
	},
	"abi": [
		{
			"inputs": [],
			"name": "car",
			"outputs": [
				{
					"internalType": "string",
					"name": "model",
					"type": "string"
				},
				{
					"internalType": "uint256",
					"name": "year",
					"type": "uint256"
				},
				{
					"internalType": "address",
					"name": "owner",
					"type": "address"
				}
			],
			"stateMutability": "view",
			"type": "function"
		},
		{
			"inputs": [
				{
					"internalType": "uint256",
					"name": "",
					"type": "uint256"
				}
			],
			"name": "cars",
			"outputs": [
				{
					"internalType": "string",
					"name": "model",
					"type": "string"
				},
				{
					"internalType": "uint256",
					"name": "year",
					"type": "uint256"
				},
				{
					"internalType": "address",
					"name": "owner",
					"type": "address"
				}
			],
			"stateMutability": "view",
			"type": "function"
		},
		{
			"inputs": [],
			"name": "examples",
			"outputs": [],
			"stateMutability": "nonpayable",
			"type": "function"
		}
	]
}