{
	"data": {
		"bytecode": {
			"linkReferences": {},
			"object": "608060405234801561000f575f80fd5b5061011c8061001d5f395ff3fe6080604052600436106039575f3560e01c80633fa4f24514603d5780634e70b1dc1460635780636466414b14607557806367e404ce14609c575b5f80fd5b3480156047575f80fd5b50605060025481565b6040519081526020015b60405180910390f35b348015606d575f80fd5b5060505f5481565b609a608036600460d0565b5f55600180546001600160a01b0319163317905534600255565b005b34801560a6575f80fd5b5060015460b9906001600160a01b031681565b6040516001600160a01b039091168152602001605a565b5f6020828403121560df575f80fd5b503591905056fea26469706673582212208831f69e07ac6b1acc70c6636de36350ae9af4ccf90c3c8ea97a242e7606548164736f6c63430008170033",
			"opcodes": "PUSH1 0x80 PUSH1 0x40 MSTORE CALLVALUE DUP1 ISZERO PUSH2 0xF JUMPI PUSH0 DUP1 REVERT JUMPDEST POP PUSH2 0x11C DUP1 PUSH2 0x1D PUSH0 CODECOPY PUSH0 RETURN INVALID PUSH1 0x80 PUSH1 0x40 MSTORE PUSH1 0x4 CALLDATASIZE LT PUSH1 0x39 JUMPI PUSH0 CALLDATALOAD PUSH1 0xE0 SHR DUP1 PUSH4 0x3FA4F245 EQ PUSH1 0x3D JUMPI DUP1 PUSH4 0x4E70B1DC EQ PUSH1 0x63 JUMPI DUP1 PUSH4 0x6466414B EQ PUSH1 0x75 JUMPI DUP1 PUSH4 0x67E404CE EQ PUSH1 0x9C JUMPI JUMPDEST PUSH0 DUP1 REVERT JUMPDEST CALLVALUE DUP1 ISZERO PUSH1 0x47 JUMPI PUSH0 DUP1 REVERT JUMPDEST POP PUSH1 0x50 PUSH1 0x2 SLOAD DUP2 JUMP JUMPDEST PUSH1 0x40 MLOAD SWAP1 DUP2 MSTORE PUSH1 0x20 ADD JUMPDEST PUSH1 0x40 MLOAD DUP1 SWAP2 SUB SWAP1 RETURN JUMPDEST CALLVALUE DUP1 ISZERO PUSH1 0x6D JUMPI PUSH0 DUP1 REVERT JUMPDEST POP PUSH1 0x50 PUSH0 SLOAD DUP2 JUMP JUMPDEST PUSH1 0x9A PUSH1 0x80 CALLDATASIZE PUSH1 0x4 PUSH1 0xD0 JUMP JUMPDEST PUSH0 SSTORE PUSH1 0x1 DUP1 SLOAD PUSH1 0x1 PUSH1 0x1 PUSH1 0xA0 SHL SUB NOT AND CALLER OR SWAP1 SSTORE CALLVALUE PUSH1 0x2 SSTORE JUMP JUMPDEST STOP JUMPDEST CALLVALUE DUP1 ISZERO PUSH1 0xA6 JUMPI PUSH0 DUP1 REVERT JUMPDEST POP PUSH1 0x1 SLOAD PUSH1 0xB9 SWAP1 PUSH1 0x1 PUSH1 0x1 PUSH1 0xA0 SHL SUB AND DUP2 JUMP JUMPDEST PUSH1 0x40 MLOAD PUSH1 0x1 PUSH1 0x1 PUSH1 0xA0 SHL SUB SWAP1 SWAP2 AND DUP2 MSTORE PUSH1 0x20 ADD PUSH1 0x5A JUMP JUMPDEST PUSH0 PUSH1 0x20 DUP3 DUP5 SUB SLT ISZERO PUSH1 0xDF JUMPI PUSH0 DUP1 REVERT JUMPDEST POP CALLDATALOAD SWAP2 SWAP1 POP JUMP INVALID LOG2 PUSH5 0x6970667358 0x22 SLT KECCAK256 DUP9 BALANCE 0xF6 SWAP15 SMOD 0xAC PUSH12 0x1ACC70C6636DE36350AE9AF4 0xCC 0xF9 0xC EXTCODECOPY DUP15 0xA9 PUSH27 0x242E7606548164736F6C6343000817003300000000000000000000 "
		},
		"gasEstimates": {
			"creation": {
				"codeDepositCost": "56800",
				"executionCost": "103",
				"totalCost": "56903"
			},
			"external": {
				"num()": "2282",
				"sender()": "2380",
				"setVars(uint256)": "68647",
				"value()": "2261"
			}
		},
		"methodIdentifiers": {
			"num()": "4e70b1dc",
			"sender()": "67e404ce",
			"setVars(uint256)": "6466414b",
			"value()": "3fa4f245"
		}
	},
	"abi": [
		{
			"inputs": [],
			"name": "num",
			"outputs": [
				{
					"internalType": "uint256",
					"name": "",
					"type": "uint256"
				}
			],
			"stateMutability": "view",
			"type": "function"
		},
		{
			"inputs": [],
			"name": "sender",
			"outputs": [
				{
					"internalType": "address",
					"name": "",
					"type": "address"
				}
			],
			"stateMutability": "view",
			"type": "function"
		},
		{
			"inputs": [
				{
					"internalType": "uint256",
					"name": "_num",
					"type": "uint256"
				}
			],
			"name": "setVars",
			"outputs": [],
			"stateMutability": "payable",
			"type": "function"
		},
		{
			"inputs": [],
			"name": "value",
			"outputs": [
				{
					"internalType": "uint256",
					"name": "",
					"type": "uint256"
				}
			],
			"stateMutability": "view",
			"type": "function"
		}
	]
}