{
	"data": {
		"bytecode": {
			"linkReferences": {},
			"object": "6080604052607b600155348015610014575f80fd5b50610150806100225f395ff3fe608060405260043610610054575f3560e01c80630c55699c146100585780633fa4f2451461007f5780634018d9aa146100945780635197c7aa146100b4578063ae9ad8dd146100c7578063b5cb8fd2146100dd575b5f80fd5b348015610063575f80fd5b5061006c5f5481565b6040519081526020015b60405180910390f35b34801561008a575f80fd5b5061006c60015481565b34801561009f575f80fd5b506100b26100ae366004610103565b5f55565b005b3480156100bf575f80fd5b505f5461006c565b6100b26100d5366004610103565b5f5534600155565b3480156100e8575f80fd5b505f5460015460408051928352602083019190915201610076565b5f60208284031215610113575f80fd5b503591905056fea26469706673582212207177180777e80322e4926b58baebf319aee4f21e062262c576e24bd75a771b1664736f6c63430008170033",
			"opcodes": "PUSH1 0x80 PUSH1 0x40 MSTORE PUSH1 0x7B PUSH1 0x1 SSTORE CALLVALUE DUP1 ISZERO PUSH2 0x14 JUMPI PUSH0 DUP1 REVERT JUMPDEST POP PUSH2 0x150 DUP1 PUSH2 0x22 PUSH0 CODECOPY PUSH0 RETURN INVALID PUSH1 0x80 PUSH1 0x40 MSTORE PUSH1 0x4 CALLDATASIZE LT PUSH2 0x54 JUMPI PUSH0 CALLDATALOAD PUSH1 0xE0 SHR DUP1 PUSH4 0xC55699C EQ PUSH2 0x58 JUMPI DUP1 PUSH4 0x3FA4F245 EQ PUSH2 0x7F JUMPI DUP1 PUSH4 0x4018D9AA EQ PUSH2 0x94 JUMPI DUP1 PUSH4 0x5197C7AA EQ PUSH2 0xB4 JUMPI DUP1 PUSH4 0xAE9AD8DD EQ PUSH2 0xC7 JUMPI DUP1 PUSH4 0xB5CB8FD2 EQ PUSH2 0xDD JUMPI JUMPDEST PUSH0 DUP1 REVERT JUMPDEST CALLVALUE DUP1 ISZERO PUSH2 0x63 JUMPI PUSH0 DUP1 REVERT JUMPDEST POP PUSH2 0x6C PUSH0 SLOAD DUP2 JUMP JUMPDEST PUSH1 0x40 MLOAD SWAP1 DUP2 MSTORE PUSH1 0x20 ADD JUMPDEST PUSH1 0x40 MLOAD DUP1 SWAP2 SUB SWAP1 RETURN JUMPDEST CALLVALUE DUP1 ISZERO PUSH2 0x8A JUMPI PUSH0 DUP1 REVERT JUMPDEST POP PUSH2 0x6C PUSH1 0x1 SLOAD DUP2 JUMP JUMPDEST CALLVALUE DUP1 ISZERO PUSH2 0x9F JUMPI PUSH0 DUP1 REVERT JUMPDEST POP PUSH2 0xB2 PUSH2 0xAE CALLDATASIZE PUSH1 0x4 PUSH2 0x103 JUMP JUMPDEST PUSH0 SSTORE JUMP JUMPDEST STOP JUMPDEST CALLVALUE DUP1 ISZERO PUSH2 0xBF JUMPI PUSH0 DUP1 REVERT JUMPDEST POP PUSH0 SLOAD PUSH2 0x6C JUMP JUMPDEST PUSH2 0xB2 PUSH2 0xD5 CALLDATASIZE PUSH1 0x4 PUSH2 0x103 JUMP JUMPDEST PUSH0 SSTORE CALLVALUE PUSH1 0x1 SSTORE JUMP JUMPDEST CALLVALUE DUP1 ISZERO PUSH2 0xE8 JUMPI PUSH0 DUP1 REVERT JUMPDEST POP PUSH0 SLOAD PUSH1 0x1 SLOAD PUSH1 0x40 DUP1 MLOAD SWAP3 DUP4 MSTORE PUSH1 0x20 DUP4 ADD SWAP2 SWAP1 SWAP2 MSTORE ADD PUSH2 0x76 JUMP JUMPDEST PUSH0 PUSH1 0x20 DUP3 DUP5 SUB SLT ISZERO PUSH2 0x113 JUMPI PUSH0 DUP1 REVERT JUMPDEST POP CALLDATALOAD SWAP2 SWAP1 POP JUMP INVALID LOG2 PUSH5 0x6970667358 0x22 SLT KECCAK256 PUSH18 0x77180777E80322E4926B58BAEBF319AEE4F2 0x1E MOD 0x22 PUSH3 0xC576E2 0x4B 0xD7 GAS PUSH24 0x1B1664736F6C634300081700330000000000000000000000 "
		},
		"gasEstimates": {
			"creation": {
				"codeDepositCost": "67200",
				"executionCost": "22221",
				"totalCost": "89421"
			},
			"external": {
				"getX()": "2323",
				"getXandRecieveValue()": "4493",
				"setX(uint256)": "22331",
				"setXandRecieveEther(uint256)": "44456",
				"value()": "2283",
				"x()": "2260"
			}
		},
		"methodIdentifiers": {
			"getX()": "5197c7aa",
			"getXandRecieveValue()": "b5cb8fd2",
			"setX(uint256)": "4018d9aa",
			"setXandRecieveEther(uint256)": "ae9ad8dd",
			"value()": "3fa4f245",
			"x()": "0c55699c"
		}
	},
	"abi": [
		{
			"inputs": [],
			"name": "getX",
			"outputs": [
				{
					"internalType": "uint256",
					"name": "",
					"type": "uint256"
				}
			],
			"stateMutability": "view",
			"type": "function"
		},
		{
			"inputs": [],
			"name": "getXandRecieveValue",
			"outputs": [
				{
					"internalType": "uint256",
					"name": "",
					"type": "uint256"
				},
				{
					"internalType": "uint256",
					"name": "",
					"type": "uint256"
				}
			],
			"stateMutability": "view",
			"type": "function"
		},
		{
			"inputs": [
				{
					"internalType": "uint256",
					"name": "_x",
					"type": "uint256"
				}
			],
			"name": "setX",
			"outputs": [],
			"stateMutability": "nonpayable",
			"type": "function"
		},
		{
			"inputs": [
				{
					"internalType": "uint256",
					"name": "_x",
					"type": "uint256"
				}
			],
			"name": "setXandRecieveEther",
			"outputs": [],
			"stateMutability": "payable",
			"type": "function"
		},
		{
			"inputs": [],
			"name": "value",
			"outputs": [
				{
					"internalType": "uint256",
					"name": "",
					"type": "uint256"
				}
			],
			"stateMutability": "view",
			"type": "function"
		},
		{
			"inputs": [],
			"name": "x",
			"outputs": [
				{
					"internalType": "uint256",
					"name": "",
					"type": "uint256"
				}
			],
			"stateMutability": "view",
			"type": "function"
		}
	]
}