{
	"data": {
		"bytecode": {
			"linkReferences": {},
			"object": "608060408190525f80546001600160a01b03191633179055346001556101443881900390819083398101604081905261003791610045565b600291909155600355610067565b5f8060408385031215610056575f80fd5b505080516020909101519092909150565b60d1806100735f395ff3fe6080604052348015600e575f80fd5b50600436106044575f3560e01c80630c55699c1460485780633fa4f2451460635780638da5cb5b14606b578063a56dfe4a146093575b5f80fd5b605060025481565b6040519081526020015b60405180910390f35b605060015481565b5f54607c906001600160a01b031681565b6040516001600160a01b039091168152602001605a565b60506003548156fea2646970667358221220bfb48d5af6faa9f4eb377218727753a676bdd6613518563f3c67a697201e70d964736f6c63430008160033",
			"opcodes": "PUSH1 0x80 PUSH1 0x40 DUP2 SWAP1 MSTORE PUSH0 DUP1 SLOAD PUSH1 0x1 PUSH1 0x1 PUSH1 0xA0 SHL SUB NOT AND CALLER OR SWAP1 SSTORE CALLVALUE PUSH1 0x1 SSTORE PUSH2 0x144 CODESIZE DUP2 SWAP1 SUB SWAP1 DUP2 SWAP1 DUP4 CODECOPY DUP2 ADD PUSH1 0x40 DUP2 SWAP1 MSTORE PUSH2 0x37 SWAP2 PUSH2 0x45 JUMP JUMPDEST PUSH1 0x2 SWAP2 SWAP1 SWAP2 SSTORE PUSH1 0x3 SSTORE PUSH2 0x67 JUMP JUMPDEST PUSH0 DUP1 PUSH1 0x40 DUP4 DUP6 SUB SLT ISZERO PUSH2 0x56 JUMPI PUSH0 DUP1 REVERT JUMPDEST POP POP DUP1 MLOAD PUSH1 0x20 SWAP1 SWAP2 ADD MLOAD SWAP1 SWAP3 SWAP1 SWAP2 POP JUMP JUMPDEST PUSH1 0xD1 DUP1 PUSH2 0x73 PUSH0 CODECOPY PUSH0 RETURN INVALID PUSH1 0x80 PUSH1 0x40 MSTORE CALLVALUE DUP1 ISZERO PUSH1 0xE JUMPI PUSH0 DUP1 REVERT JUMPDEST POP PUSH1 0x4 CALLDATASIZE LT PUSH1 0x44 JUMPI PUSH0 CALLDATALOAD PUSH1 0xE0 SHR DUP1 PUSH4 0xC55699C EQ PUSH1 0x48 JUMPI DUP1 PUSH4 0x3FA4F245 EQ PUSH1 0x63 JUMPI DUP1 PUSH4 0x8DA5CB5B EQ PUSH1 0x6B JUMPI DUP1 PUSH4 0xA56DFE4A EQ PUSH1 0x93 JUMPI JUMPDEST PUSH0 DUP1 REVERT JUMPDEST PUSH1 0x50 PUSH1 0x2 SLOAD DUP2 JUMP JUMPDEST PUSH1 0x40 MLOAD SWAP1 DUP2 MSTORE PUSH1 0x20 ADD JUMPDEST PUSH1 0x40 MLOAD DUP1 SWAP2 SUB SWAP1 RETURN JUMPDEST PUSH1 0x50 PUSH1 0x1 SLOAD DUP2 JUMP JUMPDEST PUSH0 SLOAD PUSH1 0x7C SWAP1 PUSH1 0x1 PUSH1 0x1 PUSH1 0xA0 SHL SUB AND DUP2 JUMP JUMPDEST PUSH1 0x40 MLOAD PUSH1 0x1 PUSH1 0x1 PUSH1 0xA0 SHL SUB SWAP1 SWAP2 AND DUP2 MSTORE PUSH1 0x20 ADD PUSH1 0x5A JUMP JUMPDEST PUSH1 0x50 PUSH1 0x3 SLOAD DUP2 JUMP INVALID LOG2 PUSH5 0x6970667358 0x22 SLT KECCAK256 0xBF 0xB4 DUP14 GAS 0xF6 STATICCALL 0xA9 DELEGATECALL 0xEB CALLDATACOPY PUSH19 0x18727753A676BDD6613518563F3C67A697201E PUSH17 0xD964736F6C634300081600330000000000 "
		},
		"gasEstimates": {
			"creation": {
				"codeDepositCost": "41800",
				"executionCost": "infinite",
				"totalCost": "infinite"
			},
			"external": {
				"owner()": "2357",
				"value()": "2283",
				"x()": "2261",
				"y()": "2327"
			}
		},
		"methodIdentifiers": {
			"owner()": "8da5cb5b",
			"value()": "3fa4f245",
			"x()": "0c55699c",
			"y()": "a56dfe4a"
		}
	},
	"abi": [
		{
			"inputs": [
				{
					"internalType": "uint256",
					"name": "_x",
					"type": "uint256"
				},
				{
					"internalType": "uint256",
					"name": "_y",
					"type": "uint256"
				}
			],
			"stateMutability": "payable",
			"type": "constructor"
		},
		{
			"inputs": [],
			"name": "owner",
			"outputs": [
				{
					"internalType": "address",
					"name": "",
					"type": "address"
				}
			],
			"stateMutability": "view",
			"type": "function"
		},
		{
			"inputs": [],
			"name": "value",
			"outputs": [
				{
					"internalType": "uint256",
					"name": "",
					"type": "uint256"
				}
			],
			"stateMutability": "view",
			"type": "function"
		},
		{
			"inputs": [],
			"name": "x",
			"outputs": [
				{
					"internalType": "uint256",
					"name": "",
					"type": "uint256"
				}
			],
			"stateMutability": "view",
			"type": "function"
		},
		{
			"inputs": [],
			"name": "y",
			"outputs": [
				{
					"internalType": "uint256",
					"name": "",
					"type": "uint256"
				}
			],
			"stateMutability": "view",
			"type": "function"
		}
	]
}