{
	"contracts/solidity.series/first.sol": {
		"FunctionIntro": {
			"abi": [
				{
					"inputs": [
						{
							"internalType": "uint256",
							"name": "x",
							"type": "uint256"
						},
						{
							"internalType": "uint256",
							"name": "y",
							"type": "uint256"
						}
					],
					"name": "add",
					"outputs": [
						{
							"internalType": "uint256",
							"name": "",
							"type": "uint256"
						}
					],
					"stateMutability": "pure",
					"type": "function"
				},
				{
					"inputs": [
						{
							"internalType": "uint256",
							"name": "x",
							"type": "uint256"
						},
						{
							"internalType": "uint256",
							"name": "y",
							"type": "uint256"
						}
					],
					"name": "pureFunctionsNeitherReadNorWrite",
					"outputs": [
						{
							"internalType": "uint256",
							"name": "",
							"type": "uint256"
						}
					],
					"stateMutability": "pure",
					"type": "function"
				},
				{
					"inputs": [],
					"name": "state",
					"outputs": [
						{
							"internalType": "uint256",
							"name": "",
							"type": "uint256"
						}
					],
					"stateMutability": "view",
					"type": "function"
				},
				{
					"inputs": [
						{
							"internalType": "uint256",
							"name": "x",
							"type": "uint256"
						},
						{
							"internalType": "uint256",
							"name": "y",
							"type": "uint256"
						}
					],
					"name": "sub",
					"outputs": [
						{
							"internalType": "uint256",
							"name": "",
							"type": "uint256"
						}
					],
					"stateMutability": "pure",
					"type": "function"
				},
				{
					"inputs": [],
					"name": "viewFunctionsView",
					"outputs": [
						{
							"internalType": "uint256",
							"name": "",
							"type": "uint256"
						}
					],
					"stateMutability": "view",
					"type": "function"
				}
			],
			"devdoc": {
				"kind": "dev",
				"methods": {},
				"version": 1
			},
			"evm": {
				"assembly": "    /* \"contracts/solidity.series/first.sol\":57:515  contract FunctionIntro {... */\n  mstore(0x40, 0x80)\n    /* \"contracts/solidity.series/first.sol\":106:108  12 */\n  0x0c\n    /* \"contracts/solidity.series/first.sol\":86:108  uint public state = 12 */\n  0x00\n  sstore\n    /* \"contracts/solidity.series/first.sol\":57:515  contract FunctionIntro {... */\n  callvalue\n  dup1\n  iszero\n  tag_1\n  jumpi\n  0x00\n  dup1\n  revert\ntag_1:\n  pop\n  dataSize(sub_0)\n  dup1\n  dataOffset(sub_0)\n  0x00\n  codecopy\n  0x00\n  return\nstop\n\nsub_0: assembly {\n        /* \"contracts/solidity.series/first.sol\":57:515  contract FunctionIntro {... */\n      mstore(0x40, 0x80)\n      callvalue\n      dup1\n      iszero\n      tag_1\n      jumpi\n      0x00\n      dup1\n      revert\n    tag_1:\n      pop\n      jumpi(tag_2, lt(calldatasize, 0x04))\n      shr(0xe0, calldataload(0x00))\n      dup1\n      0x771602f7\n      eq\n      tag_3\n      jumpi\n      dup1\n      0xb67d77c5\n      eq\n      tag_4\n      jumpi\n      dup1\n      0xc19d93fb\n      eq\n      tag_5\n      jumpi\n      dup1\n      0xe7fc7896\n      eq\n      tag_3\n      jumpi\n      dup1\n      0xed87da3b\n      eq\n      tag_7\n      jumpi\n    tag_2:\n      0x00\n      dup1\n      revert\n        /* \"contracts/solidity.series/first.sol\":114:199  function add (uint x,uint y) external pure returns (uint){... */\n    tag_3:\n      tag_8\n      tag_9\n      calldatasize\n      0x04\n      tag_10\n      jump\t// in\n    tag_9:\n      tag_11\n      jump\t// in\n    tag_8:\n      mload(0x40)\n        /* \"#utility.yul\":413:438   */\n      swap1\n      dup2\n      mstore\n        /* \"#utility.yul\":401:403   */\n      0x20\n        /* \"#utility.yul\":386:404   */\n      add\n        /* \"contracts/solidity.series/first.sol\":114:199  function add (uint x,uint y) external pure returns (uint){... */\n      mload(0x40)\n      dup1\n      swap2\n      sub\n      swap1\n      return\n        /* \"contracts/solidity.series/first.sol\":206:294  function sub(uint x,uint y) external  pure  returns (uint){... */\n    tag_4:\n      tag_8\n      tag_15\n      calldatasize\n      0x04\n      tag_10\n      jump\t// in\n    tag_15:\n      tag_16\n      jump\t// in\n        /* \"contracts/solidity.series/first.sol\":86:108  uint public state = 12 */\n    tag_5:\n      tag_8\n      sload(0x00)\n      dup2\n      jump\n        /* \"contracts/solidity.series/first.sol\":301:388  function viewFunctionsView() external  view returns (uint){... */\n    tag_7:\n        /* \"contracts/solidity.series/first.sol\":354:358  uint */\n      0x00\n        /* \"contracts/solidity.series/first.sol\":376:381  state */\n      sload\n        /* \"contracts/solidity.series/first.sol\":301:388  function viewFunctionsView() external  view returns (uint){... */\n      jump(tag_8)\n        /* \"contracts/solidity.series/first.sol\":114:199  function add (uint x,uint y) external pure returns (uint){... */\n    tag_11:\n        /* \"contracts/solidity.series/first.sol\":166:170  uint */\n      0x00\n        /* \"contracts/solidity.series/first.sol\":188:192  x+ y */\n      tag_29\n        /* \"contracts/solidity.series/first.sol\":191:192  y */\n      dup3\n        /* \"contracts/solidity.series/first.sol\":188:189  x */\n      dup5\n        /* \"contracts/solidity.series/first.sol\":188:192  x+ y */\n      tag_30\n      jump\t// in\n    tag_29:\n        /* \"contracts/solidity.series/first.sol\":181:192  return x+ y */\n      swap1\n      pop\n        /* \"contracts/solidity.series/first.sol\":114:199  function add (uint x,uint y) external pure returns (uint){... */\n    tag_28:\n      swap3\n      swap2\n      pop\n      pop\n      jump\t// out\n        /* \"contracts/solidity.series/first.sol\":206:294  function sub(uint x,uint y) external  pure  returns (uint){... */\n    tag_16:\n        /* \"contracts/solidity.series/first.sol\":259:263  uint */\n      0x00\n        /* \"contracts/solidity.series/first.sol\":282:287  x - y */\n      tag_29\n        /* \"contracts/solidity.series/first.sol\":286:287  y */\n      dup3\n        /* \"contracts/solidity.series/first.sol\":282:283  x */\n      dup5\n        /* \"contracts/solidity.series/first.sol\":282:287  x - y */\n      tag_33\n      jump\t// in\n        /* \"#utility.yul\":14:262   */\n    tag_10:\n        /* \"#utility.yul\":82:88   */\n      0x00\n        /* \"#utility.yul\":90:96   */\n      dup1\n        /* \"#utility.yul\":143:145   */\n      0x40\n        /* \"#utility.yul\":131:140   */\n      dup4\n        /* \"#utility.yul\":122:129   */\n      dup6\n        /* \"#utility.yul\":118:141   */\n      sub\n        /* \"#utility.yul\":114:146   */\n      slt\n        /* \"#utility.yul\":111:163   */\n      iszero\n      tag_40\n      jumpi\n        /* \"#utility.yul\":159:160   */\n      0x00\n        /* \"#utility.yul\":156:157   */\n      dup1\n        /* \"#utility.yul\":149:161   */\n      revert\n        /* \"#utility.yul\":111:163   */\n    tag_40:\n      pop\n      pop\n        /* \"#utility.yul\":182:205   */\n      dup1\n      calldataload\n      swap3\n        /* \"#utility.yul\":252:254   */\n      0x20\n        /* \"#utility.yul\":237:255   */\n      swap1\n      swap2\n      add\n        /* \"#utility.yul\":224:256   */\n      calldataload\n      swap2\n      pop\n        /* \"#utility.yul\":14:262   */\n      jump\t// out\n        /* \"#utility.yul\":449:576   */\n    tag_37:\n        /* \"#utility.yul\":510:520   */\n      0x4e487b71\n        /* \"#utility.yul\":505:508   */\n      0xe0\n        /* \"#utility.yul\":501:521   */\n      shl\n        /* \"#utility.yul\":498:499   */\n      0x00\n        /* \"#utility.yul\":491:522   */\n      mstore\n        /* \"#utility.yul\":541:545   */\n      0x11\n        /* \"#utility.yul\":538:539   */\n      0x04\n        /* \"#utility.yul\":531:546   */\n      mstore\n        /* \"#utility.yul\":565:569   */\n      0x24\n        /* \"#utility.yul\":562:563   */\n      0x00\n        /* \"#utility.yul\":555:570   */\n      revert\n        /* \"#utility.yul\":581:706   */\n    tag_30:\n        /* \"#utility.yul\":646:655   */\n      dup1\n      dup3\n      add\n        /* \"#utility.yul\":667:677   */\n      dup1\n      dup3\n      gt\n        /* \"#utility.yul\":664:700   */\n      iszero\n      tag_28\n      jumpi\n        /* \"#utility.yul\":680:698   */\n      tag_28\n      tag_37\n      jump\t// in\n        /* \"#utility.yul\":711:839   */\n    tag_33:\n        /* \"#utility.yul\":778:787   */\n      dup2\n      dup2\n      sub\n        /* \"#utility.yul\":799:810   */\n      dup2\n      dup2\n      gt\n        /* \"#utility.yul\":796:833   */\n      iszero\n      tag_28\n      jumpi\n        /* \"#utility.yul\":813:831   */\n      tag_28\n      tag_37\n      jump\t// in\n\n    auxdata: 0xa264697066735822122085883cfd4d94e6477a8c4ee95c62cbdec69eff41db0741a9902b463c2cc40b5264736f6c63430008160033\n}\n",
				"bytecode": {
					"linkReferences": {},
					"object": "6080604052600c5f55348015610013575f80fd5b5061014f806100215f395ff3fe608060405234801561000f575f80fd5b5060043610610055575f3560e01c8063771602f714610059578063b67d77c51461007e578063c19d93fb14610091578063e7fc789614610059578063ed87da3b14610099575b5f80fd5b61006c6100673660046100bf565b6100a0565b60405190815260200160405180910390f35b61006c61008c3660046100bf565b6100b4565b61006c5f5481565b5f5461006c565b5f6100ab82846100f3565b90505b92915050565b5f6100ab8284610106565b5f80604083850312156100d0575f80fd5b50508035926020909101359150565b634e487b7160e01b5f52601160045260245ffd5b808201808211156100ae576100ae6100df565b818103818111156100ae576100ae6100df56fea264697066735822122085883cfd4d94e6477a8c4ee95c62cbdec69eff41db0741a9902b463c2cc40b5264736f6c63430008160033",
					"opcodes": "PUSH1 0x80 PUSH1 0x40 MSTORE PUSH1 0xC PUSH0 SSTORE CALLVALUE DUP1 ISZERO PUSH2 0x13 JUMPI PUSH0 DUP1 REVERT JUMPDEST POP PUSH2 0x14F DUP1 PUSH2 0x21 PUSH0 CODECOPY PUSH0 RETURN INVALID PUSH1 0x80 PUSH1 0x40 MSTORE CALLVALUE DUP1 ISZERO PUSH2 0xF JUMPI PUSH0 DUP1 REVERT JUMPDEST POP PUSH1 0x4 CALLDATASIZE LT PUSH2 0x55 JUMPI PUSH0 CALLDATALOAD PUSH1 0xE0 SHR DUP1 PUSH4 0x771602F7 EQ PUSH2 0x59 JUMPI DUP1 PUSH4 0xB67D77C5 EQ PUSH2 0x7E JUMPI DUP1 PUSH4 0xC19D93FB EQ PUSH2 0x91 JUMPI DUP1 PUSH4 0xE7FC7896 EQ PUSH2 0x59 JUMPI DUP1 PUSH4 0xED87DA3B EQ PUSH2 0x99 JUMPI JUMPDEST PUSH0 DUP1 REVERT JUMPDEST PUSH2 0x6C PUSH2 0x67 CALLDATASIZE PUSH1 0x4 PUSH2 0xBF JUMP JUMPDEST PUSH2 0xA0 JUMP JUMPDEST PUSH1 0x40 MLOAD SWAP1 DUP2 MSTORE PUSH1 0x20 ADD PUSH1 0x40 MLOAD DUP1 SWAP2 SUB SWAP1 RETURN JUMPDEST PUSH2 0x6C PUSH2 0x8C CALLDATASIZE PUSH1 0x4 PUSH2 0xBF JUMP JUMPDEST PUSH2 0xB4 JUMP JUMPDEST PUSH2 0x6C PUSH0 SLOAD DUP2 JUMP JUMPDEST PUSH0 SLOAD PUSH2 0x6C JUMP JUMPDEST PUSH0 PUSH2 0xAB DUP3 DUP5 PUSH2 0xF3 JUMP JUMPDEST SWAP1 POP JUMPDEST SWAP3 SWAP2 POP POP JUMP JUMPDEST PUSH0 PUSH2 0xAB DUP3 DUP5 PUSH2 0x106 JUMP JUMPDEST PUSH0 DUP1 PUSH1 0x40 DUP4 DUP6 SUB SLT ISZERO PUSH2 0xD0 JUMPI PUSH0 DUP1 REVERT JUMPDEST POP POP DUP1 CALLDATALOAD SWAP3 PUSH1 0x20 SWAP1 SWAP2 ADD CALLDATALOAD SWAP2 POP JUMP JUMPDEST PUSH4 0x4E487B71 PUSH1 0xE0 SHL PUSH0 MSTORE PUSH1 0x11 PUSH1 0x4 MSTORE PUSH1 0x24 PUSH0 REVERT JUMPDEST DUP1 DUP3 ADD DUP1 DUP3 GT ISZERO PUSH2 0xAE JUMPI PUSH2 0xAE PUSH2 0xDF JUMP JUMPDEST DUP2 DUP2 SUB DUP2 DUP2 GT ISZERO PUSH2 0xAE JUMPI PUSH2 0xAE PUSH2 0xDF JUMP INVALID LOG2 PUSH5 0x6970667358 0x22 SLT KECCAK256 DUP6 DUP9 EXTCODECOPY REVERT 0x4D SWAP5 0xE6 SELFBALANCE PUSH27 0x8C4EE95C62CBDEC69EFF41DB0741A9902B463C2CC40B5264736F6C PUSH4 0x43000816 STOP CALLER "
				},
				"gasEstimates": {
					"creation": {
						"codeDepositCost": "67000",
						"executionCost": "22220",
						"totalCost": "89220"
					},
					"external": {
						"add(uint256,uint256)": "infinite",
						"pureFunctionsNeitherReadNorWrite(uint256,uint256)": "infinite",
						"state()": "2303",
						"sub(uint256,uint256)": "infinite",
						"viewFunctionsView()": "2344"
					}
				},
				"methodIdentifiers": {
					"add(uint256,uint256)": "771602f7",
					"pureFunctionsNeitherReadNorWrite(uint256,uint256)": "e7fc7896",
					"state()": "c19d93fb",
					"sub(uint256,uint256)": "b67d77c5",
					"viewFunctionsView()": "ed87da3b"
				}
			},
			"storageLayout": {
				"storage": [
					{
						"astId": 4,
						"contract": "contracts/solidity.series/first.sol:FunctionIntro",
						"label": "state",
						"offset": 0,
						"slot": "0",
						"type": "t_uint256"
					}
				],
				"types": {
					"t_uint256": {
						"encoding": "inplace",
						"label": "uint256",
						"numberOfBytes": "32"
					}
				}
			},
			"userdoc": {
				"kind": "user",
				"methods": {},
				"version": 1
			}
		}
	}
}