{
	"contracts/solidity.series/deploy.sol": {
		"TestContract2": {
			"abi": [
				{
					"inputs": [
						{
							"internalType": "uint256",
							"name": "_x",
							"type": "uint256"
						},
						{
							"internalType": "uint256",
							"name": "_y",
							"type": "uint256"
						}
					],
					"stateMutability": "payable",
					"type": "constructor"
				},
				{
					"inputs": [],
					"name": "owner",
					"outputs": [
						{
							"internalType": "address",
							"name": "",
							"type": "address"
						}
					],
					"stateMutability": "view",
					"type": "function"
				},
				{
					"inputs": [],
					"name": "value",
					"outputs": [
						{
							"internalType": "uint256",
							"name": "",
							"type": "uint256"
						}
					],
					"stateMutability": "view",
					"type": "function"
				},
				{
					"inputs": [],
					"name": "x",
					"outputs": [
						{
							"internalType": "uint256",
							"name": "",
							"type": "uint256"
						}
					],
					"stateMutability": "view",
					"type": "function"
				},
				{
					"inputs": [],
					"name": "y",
					"outputs": [
						{
							"internalType": "uint256",
							"name": "",
							"type": "uint256"
						}
					],
					"stateMutability": "view",
					"type": "function"
				}
			],
			"devdoc": {
				"kind": "dev",
				"methods": {},
				"version": 1
			},
			"evm": {
				"assembly": "    /* \"contracts/solidity.series/deploy.sol\":254:490  contract TestContract2 {... */\n  0x80\n  0x40\n  dup2\n  swap1\n  mstore\n    /* \"contracts/solidity.series/deploy.sol\":283:316  address public owner = msg.sender */\n  0x00\n  dup1\n  sload\n  not(sub(shl(0xa0, 0x01), 0x01))\n  and\n    /* \"contracts/solidity.series/deploy.sol\":306:316  msg.sender */\n  caller\n    /* \"contracts/solidity.series/deploy.sol\":283:316  address public owner = msg.sender */\n  or\n  swap1\n  sstore\n    /* \"contracts/solidity.series/deploy.sol\":345:354  msg.value */\n  callvalue\n    /* \"contracts/solidity.series/deploy.sol\":283:316  address public owner = msg.sender */\n  0x01\n    /* \"contracts/solidity.series/deploy.sol\":322:354  uint256 public value = msg.value */\n  sstore\n    /* \"contracts/solidity.series/deploy.sol\":405:488  constructor(uint256 _x, uint256 _y) payable {... */\n  bytecodeSize\n  codesize\n  dup2\n  swap1\n  sub\n  swap1\n  dup2\n  swap1\n    /* \"contracts/solidity.series/deploy.sol\":254:490  contract TestContract2 {... */\n  dup4\n    /* \"contracts/solidity.series/deploy.sol\":405:488  constructor(uint256 _x, uint256 _y) payable {... */\n  codecopy\n  dup2\n  add\n  0x40\n  dup2\n  swap1\n  mstore\n  tag_1\n  swap2\n  tag_2\n  jump\t// in\ntag_1:\n    /* \"contracts/solidity.series/deploy.sol\":459:460  x */\n  0x02\n    /* \"contracts/solidity.series/deploy.sol\":459:465  x = _x */\n  swap2\n  swap1\n  swap2\n  sstore\n    /* \"contracts/solidity.series/deploy.sol\":475:476  y */\n  0x03\n    /* \"contracts/solidity.series/deploy.sol\":475:481  y = _y */\n  sstore\n    /* \"contracts/solidity.series/deploy.sol\":254:490  contract TestContract2 {... */\n  jump(tag_6)\n    /* \"#utility.yul\":14:259   */\ntag_2:\n    /* \"#utility.yul\":93:99   */\n  0x00\n    /* \"#utility.yul\":101:107   */\n  dup1\n    /* \"#utility.yul\":154:156   */\n  0x40\n    /* \"#utility.yul\":142:151   */\n  dup4\n    /* \"#utility.yul\":133:140   */\n  dup6\n    /* \"#utility.yul\":129:152   */\n  sub\n    /* \"#utility.yul\":125:157   */\n  slt\n    /* \"#utility.yul\":122:174   */\n  iszero\n  tag_8\n  jumpi\n    /* \"#utility.yul\":170:171   */\n  0x00\n    /* \"#utility.yul\":167:168   */\n  dup1\n    /* \"#utility.yul\":160:172   */\n  revert\n    /* \"#utility.yul\":122:174   */\ntag_8:\n  pop\n  pop\n    /* \"#utility.yul\":193:209   */\n  dup1\n  mload\n    /* \"#utility.yul\":249:251   */\n  0x20\n    /* \"#utility.yul\":234:252   */\n  swap1\n  swap2\n  add\n    /* \"#utility.yul\":228:253   */\n  mload\n    /* \"#utility.yul\":193:209   */\n  swap1\n  swap3\n    /* \"#utility.yul\":228:253   */\n  swap1\n  swap2\n  pop\n    /* \"#utility.yul\":14:259   */\n  jump\t// out\ntag_6:\n    /* \"contracts/solidity.series/deploy.sol\":254:490  contract TestContract2 {... */\n  dataSize(sub_0)\n  dup1\n  dataOffset(sub_0)\n  0x00\n  codecopy\n  0x00\n  return\nstop\n\nsub_0: assembly {\n        /* \"contracts/solidity.series/deploy.sol\":254:490  contract TestContract2 {... */\n      mstore(0x40, 0x80)\n      callvalue\n      dup1\n      iszero\n      tag_1\n      jumpi\n      0x00\n      dup1\n      revert\n    tag_1:\n      pop\n      jumpi(tag_2, lt(calldatasize, 0x04))\n      shr(0xe0, calldataload(0x00))\n      dup1\n      0x0c55699c\n      eq\n      tag_3\n      jumpi\n      dup1\n      0x3fa4f245\n      eq\n      tag_4\n      jumpi\n      dup1\n      0x8da5cb5b\n      eq\n      tag_5\n      jumpi\n      dup1\n      0xa56dfe4a\n      eq\n      tag_6\n      jumpi\n    tag_2:\n      0x00\n      dup1\n      revert\n        /* \"contracts/solidity.series/deploy.sol\":360:376  uint256 public x */\n    tag_3:\n      tag_7\n      sload(0x02)\n      dup2\n      jump\n    tag_7:\n      mload(0x40)\n        /* \"#utility.yul\":160:185   */\n      swap1\n      dup2\n      mstore\n        /* \"#utility.yul\":148:150   */\n      0x20\n        /* \"#utility.yul\":133:151   */\n      add\n        /* \"contracts/solidity.series/deploy.sol\":360:376  uint256 public x */\n    tag_9:\n      mload(0x40)\n      dup1\n      swap2\n      sub\n      swap1\n      return\n        /* \"contracts/solidity.series/deploy.sol\":322:354  uint256 public value = msg.value */\n    tag_4:\n      tag_7\n      sload(0x01)\n      dup2\n      jump\n        /* \"contracts/solidity.series/deploy.sol\":283:316  address public owner = msg.sender */\n    tag_5:\n      sload(0x00)\n      tag_14\n      swap1\n      sub(shl(0xa0, 0x01), 0x01)\n      and\n      dup2\n      jump\n    tag_14:\n      mload(0x40)\n      sub(shl(0xa0, 0x01), 0x01)\n        /* \"#utility.yul\":360:392   */\n      swap1\n      swap2\n      and\n        /* \"#utility.yul\":342:393   */\n      dup2\n      mstore\n        /* \"#utility.yul\":330:332   */\n      0x20\n        /* \"#utility.yul\":315:333   */\n      add\n        /* \"contracts/solidity.series/deploy.sol\":283:316  address public owner = msg.sender */\n      tag_9\n        /* \"#utility.yul\":196:399   */\n      jump\n        /* \"contracts/solidity.series/deploy.sol\":382:398  uint256 public y */\n    tag_6:\n      tag_7\n      sload(0x03)\n      dup2\n      jump\n\n    auxdata: 0xa2646970667358221220b1b94707e3f4a11e3810b6bc24268030efe988a3149bd18fcaeb29508899458d64736f6c63430008160033\n}\n",
				"bytecode": {
					"linkReferences": {},
					"object": "608060408190525f80546001600160a01b03191633179055346001556101443881900390819083398101604081905261003791610045565b600291909155600355610067565b5f8060408385031215610056575f80fd5b505080516020909101519092909150565b60d1806100735f395ff3fe6080604052348015600e575f80fd5b50600436106044575f3560e01c80630c55699c1460485780633fa4f2451460635780638da5cb5b14606b578063a56dfe4a146093575b5f80fd5b605060025481565b6040519081526020015b60405180910390f35b605060015481565b5f54607c906001600160a01b031681565b6040516001600160a01b039091168152602001605a565b60506003548156fea2646970667358221220b1b94707e3f4a11e3810b6bc24268030efe988a3149bd18fcaeb29508899458d64736f6c63430008160033",
					"opcodes": "PUSH1 0x80 PUSH1 0x40 DUP2 SWAP1 MSTORE PUSH0 DUP1 SLOAD PUSH1 0x1 PUSH1 0x1 PUSH1 0xA0 SHL SUB NOT AND CALLER OR SWAP1 SSTORE CALLVALUE PUSH1 0x1 SSTORE PUSH2 0x144 CODESIZE DUP2 SWAP1 SUB SWAP1 DUP2 SWAP1 DUP4 CODECOPY DUP2 ADD PUSH1 0x40 DUP2 SWAP1 MSTORE PUSH2 0x37 SWAP2 PUSH2 0x45 JUMP JUMPDEST PUSH1 0x2 SWAP2 SWAP1 SWAP2 SSTORE PUSH1 0x3 SSTORE PUSH2 0x67 JUMP JUMPDEST PUSH0 DUP1 PUSH1 0x40 DUP4 DUP6 SUB SLT ISZERO PUSH2 0x56 JUMPI PUSH0 DUP1 REVERT JUMPDEST POP POP DUP1 MLOAD PUSH1 0x20 SWAP1 SWAP2 ADD MLOAD SWAP1 SWAP3 SWAP1 SWAP2 POP JUMP JUMPDEST PUSH1 0xD1 DUP1 PUSH2 0x73 PUSH0 CODECOPY PUSH0 RETURN INVALID PUSH1 0x80 PUSH1 0x40 MSTORE CALLVALUE DUP1 ISZERO PUSH1 0xE JUMPI PUSH0 DUP1 REVERT JUMPDEST POP PUSH1 0x4 CALLDATASIZE LT PUSH1 0x44 JUMPI PUSH0 CALLDATALOAD PUSH1 0xE0 SHR DUP1 PUSH4 0xC55699C EQ PUSH1 0x48 JUMPI DUP1 PUSH4 0x3FA4F245 EQ PUSH1 0x63 JUMPI DUP1 PUSH4 0x8DA5CB5B EQ PUSH1 0x6B JUMPI DUP1 PUSH4 0xA56DFE4A EQ PUSH1 0x93 JUMPI JUMPDEST PUSH0 DUP1 REVERT JUMPDEST PUSH1 0x50 PUSH1 0x2 SLOAD DUP2 JUMP JUMPDEST PUSH1 0x40 MLOAD SWAP1 DUP2 MSTORE PUSH1 0x20 ADD JUMPDEST PUSH1 0x40 MLOAD DUP1 SWAP2 SUB SWAP1 RETURN JUMPDEST PUSH1 0x50 PUSH1 0x1 SLOAD DUP2 JUMP JUMPDEST PUSH0 SLOAD PUSH1 0x7C SWAP1 PUSH1 0x1 PUSH1 0x1 PUSH1 0xA0 SHL SUB AND DUP2 JUMP JUMPDEST PUSH1 0x40 MLOAD PUSH1 0x1 PUSH1 0x1 PUSH1 0xA0 SHL SUB SWAP1 SWAP2 AND DUP2 MSTORE PUSH1 0x20 ADD PUSH1 0x5A JUMP JUMPDEST PUSH1 0x50 PUSH1 0x3 SLOAD DUP2 JUMP INVALID LOG2 PUSH5 0x6970667358 0x22 SLT KECCAK256 0xB1 0xB9 SELFBALANCE SMOD 0xE3 DELEGATECALL LOG1 0x1E CODESIZE LT 0xB6 0xBC 0x24 0x26 DUP1 ADDRESS 0xEF 0xE9 DUP9 LOG3 EQ SWAP12 0xD1 DUP16 0xCA 0xEB 0x29 POP DUP9 SWAP10 GASLIMIT DUP14 PUSH5 0x736F6C6343 STOP ADDMOD AND STOP CALLER "
				},
				"gasEstimates": {
					"creation": {
						"codeDepositCost": "41800",
						"executionCost": "infinite",
						"totalCost": "infinite"
					},
					"external": {
						"owner()": "2357",
						"value()": "2283",
						"x()": "2261",
						"y()": "2327"
					}
				},
				"methodIdentifiers": {
					"owner()": "8da5cb5b",
					"value()": "3fa4f245",
					"x()": "0c55699c",
					"y()": "a56dfe4a"
				}
			},
			"storageLayout": {
				"storage": [
					{
						"astId": 28,
						"contract": "contracts/solidity.series/deploy.sol:TestContract2",
						"label": "owner",
						"offset": 0,
						"slot": "0",
						"type": "t_address"
					},
					{
						"astId": 32,
						"contract": "contracts/solidity.series/deploy.sol:TestContract2",
						"label": "value",
						"offset": 0,
						"slot": "1",
						"type": "t_uint256"
					},
					{
						"astId": 34,
						"contract": "contracts/solidity.series/deploy.sol:TestContract2",
						"label": "x",
						"offset": 0,
						"slot": "2",
						"type": "t_uint256"
					},
					{
						"astId": 36,
						"contract": "contracts/solidity.series/deploy.sol:TestContract2",
						"label": "y",
						"offset": 0,
						"slot": "3",
						"type": "t_uint256"
					}
				],
				"types": {
					"t_address": {
						"encoding": "inplace",
						"label": "address",
						"numberOfBytes": "20"
					},
					"t_uint256": {
						"encoding": "inplace",
						"label": "uint256",
						"numberOfBytes": "32"
					}
				}
			},
			"userdoc": {
				"kind": "user",
				"methods": {},
				"version": 1
			}
		}
	}
}