{
	"contracts/solidity.series/TodoList.sol": {
		"TodoList": {
			"abi": [
				{
					"inputs": [
						{
							"internalType": "string",
							"name": "_text",
							"type": "string"
						}
					],
					"name": "create",
					"outputs": [],
					"stateMutability": "nonpayable",
					"type": "function"
				},
				{
					"inputs": [
						{
							"internalType": "uint256",
							"name": "_index",
							"type": "uint256"
						}
					],
					"name": "get",
					"outputs": [
						{
							"internalType": "string",
							"name": "",
							"type": "string"
						},
						{
							"internalType": "bool",
							"name": "",
							"type": "bool"
						}
					],
					"stateMutability": "view",
					"type": "function"
				},
				{
					"inputs": [
						{
							"internalType": "uint256",
							"name": "",
							"type": "uint256"
						}
					],
					"name": "todos",
					"outputs": [
						{
							"internalType": "string",
							"name": "text",
							"type": "string"
						},
						{
							"internalType": "bool",
							"name": "completed",
							"type": "bool"
						}
					],
					"stateMutability": "view",
					"type": "function"
				},
				{
					"inputs": [
						{
							"internalType": "uint256",
							"name": "_index",
							"type": "uint256"
						}
					],
					"name": "toggle",
					"outputs": [],
					"stateMutability": "nonpayable",
					"type": "function"
				},
				{
					"inputs": [
						{
							"internalType": "uint256",
							"name": "_index",
							"type": "uint256"
						},
						{
							"internalType": "string",
							"name": "_text",
							"type": "string"
						}
					],
					"name": "updateText",
					"outputs": [],
					"stateMutability": "nonpayable",
					"type": "function"
				}
			],
			"devdoc": {
				"kind": "dev",
				"methods": {},
				"version": 1
			},
			"evm": {
				"assembly": "    /* \"contracts/solidity.series/TodoList.sol\":105:979  contract TodoList {... */\n  mstore(0x40, 0x80)\n  callvalue\n  dup1\n  iszero\n  tag_1\n  jumpi\n  0x00\n  dup1\n  revert\ntag_1:\n  pop\n  dataSize(sub_0)\n  dup1\n  dataOffset(sub_0)\n  0x00\n  codecopy\n  0x00\n  return\nstop\n\nsub_0: assembly {\n        /* \"contracts/solidity.series/TodoList.sol\":105:979  contract TodoList {... */\n      mstore(0x40, 0x80)\n      callvalue\n      dup1\n      iszero\n      tag_1\n      jumpi\n      0x00\n      dup1\n      revert\n    tag_1:\n      pop\n      jumpi(tag_2, lt(calldatasize, 0x04))\n      shr(0xe0, calldataload(0x00))\n      dup1\n      0x751ef753\n      eq\n      tag_3\n      jumpi\n      dup1\n      0x9507d39a\n      eq\n      tag_4\n      jumpi\n      dup1\n      0xb6a46b3b\n      eq\n      tag_5\n      jumpi\n      dup1\n      0xbc8bc2b4\n      eq\n      tag_6\n      jumpi\n      dup1\n      0xcd111614\n      eq\n      tag_7\n      jumpi\n    tag_2:\n      0x00\n      dup1\n      revert\n        /* \"contracts/solidity.series/TodoList.sol\":871:976  function toggle(uint _index) external {... */\n    tag_3:\n      tag_8\n      tag_9\n      calldatasize\n      0x04\n      tag_10\n      jump\t// in\n    tag_9:\n      tag_11\n      jump\t// in\n    tag_8:\n      stop\n        /* \"contracts/solidity.series/TodoList.sol\":702:863  function get(uint _index) external view returns(string memory,bool) {... */\n    tag_4:\n      tag_12\n      tag_13\n      calldatasize\n      0x04\n      tag_10\n      jump\t// in\n    tag_13:\n      tag_14\n      jump\t// in\n    tag_12:\n      mload(0x40)\n      tag_15\n      swap3\n      swap2\n      swap1\n      tag_16\n      jump\t// in\n    tag_15:\n      mload(0x40)\n      dup1\n      swap2\n      sub\n      swap1\n      return\n        /* \"contracts/solidity.series/TodoList.sol\":239:386  function create(string calldata _text) external {... */\n    tag_5:\n      tag_8\n      tag_18\n      calldatasize\n      0x04\n      tag_19\n      jump\t// in\n    tag_18:\n      tag_20\n      jump\t// in\n        /* \"contracts/solidity.series/TodoList.sol\":213:233  Todo[] public  todos */\n    tag_6:\n      tag_12\n      tag_22\n      calldatasize\n      0x04\n      tag_10\n      jump\t// in\n    tag_22:\n      tag_23\n      jump\t// in\n        /* \"contracts/solidity.series/TodoList.sol\":395:695  function updateText(uint _index,string calldata _text) external {... */\n    tag_7:\n      tag_8\n      tag_26\n      calldatasize\n      0x04\n      tag_27\n      jump\t// in\n    tag_26:\n      tag_28\n      jump\t// in\n        /* \"contracts/solidity.series/TodoList.sol\":871:976  function toggle(uint _index) external {... */\n    tag_11:\n        /* \"contracts/solidity.series/TodoList.sol\":946:951  todos */\n      0x00\n        /* \"contracts/solidity.series/TodoList.sol\":952:958  _index */\n      dup2\n        /* \"contracts/solidity.series/TodoList.sol\":946:959  todos[_index] */\n      dup2\n      sload\n      dup2\n      lt\n      tag_31\n      jumpi\n      tag_31\n      tag_32\n      jump\t// in\n    tag_31:\n      0x00\n      swap2\n      dup3\n      mstore\n      0x20\n      dup3\n      keccak256\n        /* \"contracts/solidity.series/TodoList.sol\":946:969  todos[_index].completed */\n      0x01\n        /* \"contracts/solidity.series/TodoList.sol\":946:959  todos[_index] */\n      0x02\n      swap1\n      swap3\n      mul\n      add\n        /* \"contracts/solidity.series/TodoList.sol\":946:969  todos[_index].completed */\n      add\n      sload\n        /* \"contracts/solidity.series/TodoList.sol\":919:932  todos[_index] */\n      dup2\n      sload\n        /* \"contracts/solidity.series/TodoList.sol\":946:969  todos[_index].completed */\n      0xff\n      swap1\n      swap2\n      and\n        /* \"contracts/solidity.series/TodoList.sol\":945:969  !todos[_index].completed */\n      iszero\n      swap2\n        /* \"contracts/solidity.series/TodoList.sol\":946:959  todos[_index] */\n      swap1\n        /* \"contracts/solidity.series/TodoList.sol\":925:931  _index */\n      dup4\n      swap1\n        /* \"contracts/solidity.series/TodoList.sol\":919:932  todos[_index] */\n      dup2\n      lt\n      tag_35\n      jumpi\n      tag_35\n      tag_32\n      jump\t// in\n    tag_35:\n      0x00\n      swap2\n      dup3\n      mstore\n      0x20\n      swap1\n      swap2\n      keccak256\n      0x02\n      swap1\n      swap2\n      mul\n      add\n        /* \"contracts/solidity.series/TodoList.sol\":919:942  todos[_index].completed */\n      0x01\n      add\n        /* \"contracts/solidity.series/TodoList.sol\":919:969  todos[_index].completed = !todos[_index].completed */\n      dup1\n      sload\n      not(0xff)\n      and\n      swap2\n      iszero\n      iszero\n      swap2\n      swap1\n      swap2\n      or\n      swap1\n      sstore\n      pop\n        /* \"contracts/solidity.series/TodoList.sol\":871:976  function toggle(uint _index) external {... */\n      jump\t// out\n        /* \"contracts/solidity.series/TodoList.sol\":702:863  function get(uint _index) external view returns(string memory,bool) {... */\n    tag_14:\n        /* \"contracts/solidity.series/TodoList.sol\":750:763  string memory */\n      0x60\n        /* \"contracts/solidity.series/TodoList.sol\":764:768  bool */\n      0x00\n        /* \"contracts/solidity.series/TodoList.sol\":780:797  Todo storage todo */\n      dup1\n        /* \"contracts/solidity.series/TodoList.sol\":800:805  todos */\n      0x00\n        /* \"contracts/solidity.series/TodoList.sol\":806:812  _index */\n      dup5\n        /* \"contracts/solidity.series/TodoList.sol\":800:813  todos[_index] */\n      dup2\n      sload\n      dup2\n      lt\n      tag_39\n      jumpi\n      tag_39\n      tag_32\n      jump\t// in\n    tag_39:\n      swap1\n      0x00\n      mstore\n      keccak256(0x00, 0x20)\n      swap1\n      0x02\n      mul\n      add\n        /* \"contracts/solidity.series/TodoList.sol\":780:813  Todo storage todo = todos[_index] */\n      swap1\n      pop\n        /* \"contracts/solidity.series/TodoList.sol\":831:835  todo */\n      dup1\n        /* \"contracts/solidity.series/TodoList.sol\":831:840  todo.text */\n      0x00\n      add\n        /* \"contracts/solidity.series/TodoList.sol\":841:845  todo */\n      dup2\n        /* \"contracts/solidity.series/TodoList.sol\":841:855  todo.completed */\n      0x01\n      add\n      0x00\n      swap1\n      sload\n      swap1\n      0x0100\n      exp\n      swap1\n      div\n      0xff\n      and\n        /* \"contracts/solidity.series/TodoList.sol\":823:856  return (todo.text,todo.completed) */\n      dup2\n      dup1\n      sload\n      tag_41\n      swap1\n      tag_42\n      jump\t// in\n    tag_41:\n      dup1\n      0x1f\n      add\n      0x20\n      dup1\n      swap2\n      div\n      mul\n      0x20\n      add\n      mload(0x40)\n      swap1\n      dup2\n      add\n      0x40\n      mstore\n      dup1\n      swap3\n      swap2\n      swap1\n      dup2\n      dup2\n      mstore\n      0x20\n      add\n      dup3\n      dup1\n      sload\n      tag_43\n      swap1\n      tag_42\n      jump\t// in\n    tag_43:\n      dup1\n      iszero\n      tag_44\n      jumpi\n      dup1\n      0x1f\n      lt\n      tag_45\n      jumpi\n      0x0100\n      dup1\n      dup4\n      sload\n      div\n      mul\n      dup4\n      mstore\n      swap2\n      0x20\n      add\n      swap2\n      jump(tag_44)\n    tag_45:\n      dup3\n      add\n      swap2\n      swap1\n      0x00\n      mstore\n      keccak256(0x00, 0x20)\n      swap1\n    tag_46:\n      dup2\n      sload\n      dup2\n      mstore\n      swap1\n      0x01\n      add\n      swap1\n      0x20\n      add\n      dup1\n      dup4\n      gt\n      tag_46\n      jumpi\n      dup3\n      swap1\n      sub\n      0x1f\n      and\n      dup3\n      add\n      swap2\n    tag_44:\n      pop\n      pop\n      pop\n      pop\n      pop\n      swap2\n      pop\n      swap3\n      pop\n      swap3\n      pop\n      pop\n        /* \"contracts/solidity.series/TodoList.sol\":702:863  function get(uint _index) external view returns(string memory,bool) {... */\n      swap2\n      pop\n      swap2\n      jump\t// out\n        /* \"contracts/solidity.series/TodoList.sol\":239:386  function create(string calldata _text) external {... */\n    tag_20:\n        /* \"contracts/solidity.series/TodoList.sol\":308:377  Todo({... */\n      0x40\n      dup1\n      mload\n      0x60\n      0x20\n      0x1f\n      dup6\n      add\n      dup2\n      swap1\n      div\n      mul\n      dup3\n      add\n      dup2\n      add\n      dup4\n      mstore\n      swap2\n      dup2\n      add\n      dup4\n      dup2\n      mstore\n        /* \"contracts/solidity.series/TodoList.sol\":297:302  todos */\n      0x00\n      swap3\n        /* \"contracts/solidity.series/TodoList.sol\":308:377  Todo({... */\n      dup3\n      swap2\n      swap1\n        /* \"contracts/solidity.series/TodoList.sol\":332:337  _text */\n      dup7\n      swap1\n      dup7\n      swap1\n      dup2\n      swap1\n        /* \"contracts/solidity.series/TodoList.sol\":308:377  Todo({... */\n      dup6\n      add\n        /* \"contracts/solidity.series/TodoList.sol\":332:337  _text */\n      dup4\n      dup3\n      dup1\n      dup3\n        /* \"contracts/solidity.series/TodoList.sol\":308:377  Todo({... */\n      dup5\n      calldatacopy\n      0x00\n      swap3\n      add\n      dup3\n      swap1\n      mstore\n      pop\n      swap4\n      dup6\n      mstore\n      pop\n      pop\n      pop\n      0x20\n      swap2\n      dup3\n      add\n      dup2\n      swap1\n      mstore\n        /* \"contracts/solidity.series/TodoList.sol\":297:378  todos.push(Todo({... */\n      dup4\n      sload\n        /* \"contracts/solidity.series/TodoList.sol\":308:377  Todo({... */\n      0x01\n        /* \"contracts/solidity.series/TodoList.sol\":297:378  todos.push(Todo({... */\n      dup2\n      add\n      dup6\n      sstore\n      swap4\n      dup2\n      mstore\n      keccak256\n      dup2\n      mload\n      swap2\n      swap3\n      0x02\n      mul\n      add\n      swap1\n      dup2\n      swap1\n      tag_49\n      swap1\n      dup3\n      tag_50\n      jump\t// in\n    tag_49:\n      pop\n      0x20\n      swap2\n      swap1\n      swap2\n      add\n      mload\n      0x01\n      swap1\n      swap2\n      add\n      dup1\n      sload\n      not(0xff)\n      and\n      swap2\n      iszero\n      iszero\n      swap2\n      swap1\n      swap2\n      or\n      swap1\n      sstore\n      pop\n      pop\n        /* \"contracts/solidity.series/TodoList.sol\":239:386  function create(string calldata _text) external {... */\n      jump\t// out\n        /* \"contracts/solidity.series/TodoList.sol\":213:233  Todo[] public  todos */\n    tag_23:\n      0x00\n      dup2\n      dup2\n      sload\n      dup2\n      lt\n      tag_51\n      jumpi\n      0x00\n      dup1\n      revert\n    tag_51:\n      swap1\n      0x00\n      mstore\n      keccak256(0x00, 0x20)\n      swap1\n      0x02\n      mul\n      add\n      0x00\n      swap2\n      pop\n      swap1\n      pop\n      dup1\n      0x00\n      add\n      dup1\n      sload\n      tag_53\n      swap1\n      tag_42\n      jump\t// in\n    tag_53:\n      dup1\n      0x1f\n      add\n      0x20\n      dup1\n      swap2\n      div\n      mul\n      0x20\n      add\n      mload(0x40)\n      swap1\n      dup2\n      add\n      0x40\n      mstore\n      dup1\n      swap3\n      swap2\n      swap1\n      dup2\n      dup2\n      mstore\n      0x20\n      add\n      dup3\n      dup1\n      sload\n      tag_54\n      swap1\n      tag_42\n      jump\t// in\n    tag_54:\n      dup1\n      iszero\n      tag_55\n      jumpi\n      dup1\n      0x1f\n      lt\n      tag_56\n      jumpi\n      0x0100\n      dup1\n      dup4\n      sload\n      div\n      mul\n      dup4\n      mstore\n      swap2\n      0x20\n      add\n      swap2\n      jump(tag_55)\n    tag_56:\n      dup3\n      add\n      swap2\n      swap1\n      0x00\n      mstore\n      keccak256(0x00, 0x20)\n      swap1\n    tag_57:\n      dup2\n      sload\n      dup2\n      mstore\n      swap1\n      0x01\n      add\n      swap1\n      0x20\n      add\n      dup1\n      dup4\n      gt\n      tag_57\n      jumpi\n      dup3\n      swap1\n      sub\n      0x1f\n      and\n      dup3\n      add\n      swap2\n    tag_55:\n      pop\n      pop\n      pop\n      0x01\n      swap1\n      swap4\n      add\n      sload\n      swap2\n      swap3\n      pop\n      pop\n      0xff\n      and\n      dup3\n      jump\t// out\n        /* \"contracts/solidity.series/TodoList.sol\":395:695  function updateText(uint _index,string calldata _text) external {... */\n    tag_28:\n        /* \"contracts/solidity.series/TodoList.sol\":490:495  _text */\n      dup2\n      dup2\n        /* \"contracts/solidity.series/TodoList.sol\":469:474  todos */\n      0x00\n        /* \"contracts/solidity.series/TodoList.sol\":475:481  _index */\n      dup6\n        /* \"contracts/solidity.series/TodoList.sol\":469:482  todos[_index] */\n      dup2\n      sload\n      dup2\n      lt\n      tag_60\n      jumpi\n      tag_60\n      tag_32\n      jump\t// in\n    tag_60:\n      swap1\n      0x00\n      mstore\n      keccak256(0x00, 0x20)\n      swap1\n      0x02\n      mul\n      add\n        /* \"contracts/solidity.series/TodoList.sol\":469:487  todos[_index].text */\n      0x00\n      add\n        /* \"contracts/solidity.series/TodoList.sol\":469:495  todos[_index].text = _text */\n      swap2\n      dup3\n      tag_62\n      swap3\n      swap2\n      swap1\n      tag_63\n      jump\t// in\n    tag_62:\n      pop\n        /* \"contracts/solidity.series/TodoList.sol\":395:695  function updateText(uint _index,string calldata _text) external {... */\n      pop\n      pop\n      pop\n      jump\t// out\n        /* \"#utility.yul\":14:194   */\n    tag_10:\n        /* \"#utility.yul\":73:79   */\n      0x00\n        /* \"#utility.yul\":126:128   */\n      0x20\n        /* \"#utility.yul\":114:123   */\n      dup3\n        /* \"#utility.yul\":105:112   */\n      dup5\n        /* \"#utility.yul\":101:124   */\n      sub\n        /* \"#utility.yul\":97:129   */\n      slt\n        /* \"#utility.yul\":94:146   */\n      iszero\n      tag_71\n      jumpi\n        /* \"#utility.yul\":142:143   */\n      0x00\n        /* \"#utility.yul\":139:140   */\n      dup1\n        /* \"#utility.yul\":132:144   */\n      revert\n        /* \"#utility.yul\":94:146   */\n    tag_71:\n      pop\n        /* \"#utility.yul\":165:188   */\n      calldataload\n      swap2\n        /* \"#utility.yul\":14:194   */\n      swap1\n      pop\n      jump\t// out\n        /* \"#utility.yul\":199:813   */\n    tag_16:\n        /* \"#utility.yul\":370:372   */\n      0x40\n        /* \"#utility.yul\":359:368   */\n      dup2\n        /* \"#utility.yul\":352:373   */\n      mstore\n        /* \"#utility.yul\":333:337   */\n      0x00\n        /* \"#utility.yul\":402:408   */\n      dup4\n        /* \"#utility.yul\":396:409   */\n      mload\n        /* \"#utility.yul\":445:451   */\n      dup1\n        /* \"#utility.yul\":440:442   */\n      0x40\n        /* \"#utility.yul\":429:438   */\n      dup5\n        /* \"#utility.yul\":425:443   */\n      add\n        /* \"#utility.yul\":418:452   */\n      mstore\n        /* \"#utility.yul\":470:471   */\n      0x00\n        /* \"#utility.yul\":480:624   */\n    tag_73:\n        /* \"#utility.yul\":494:500   */\n      dup2\n        /* \"#utility.yul\":491:492   */\n      dup2\n        /* \"#utility.yul\":488:501   */\n      lt\n        /* \"#utility.yul\":480:624   */\n      iszero\n      tag_75\n      jumpi\n        /* \"#utility.yul\":607:611   */\n      0x20\n        /* \"#utility.yul\":591:605   */\n      dup2\n      dup8\n      add\n        /* \"#utility.yul\":587:612   */\n      dup2\n      add\n        /* \"#utility.yul\":581:613   */\n      mload\n        /* \"#utility.yul\":576:578   */\n      0x60\n        /* \"#utility.yul\":557:574   */\n      dup7\n      dup5\n      add\n        /* \"#utility.yul\":553:579   */\n      add\n        /* \"#utility.yul\":546:614   */\n      mstore\n        /* \"#utility.yul\":509:521   */\n      add\n        /* \"#utility.yul\":480:624   */\n      jump(tag_73)\n    tag_75:\n        /* \"#utility.yul\":484:487   */\n      pop\n        /* \"#utility.yul\":673:674   */\n      0x00\n        /* \"#utility.yul\":668:670   */\n      0x60\n        /* \"#utility.yul\":659:665   */\n      dup3\n        /* \"#utility.yul\":648:657   */\n      dup6\n        /* \"#utility.yul\":644:666   */\n      add\n        /* \"#utility.yul\":640:671   */\n      add\n        /* \"#utility.yul\":633:675   */\n      mstore\n        /* \"#utility.yul\":743:745   */\n      0x60\n        /* \"#utility.yul\":736:738   */\n      0x1f\n        /* \"#utility.yul\":732:739   */\n      not\n        /* \"#utility.yul\":727:729   */\n      0x1f\n        /* \"#utility.yul\":719:725   */\n      dup4\n        /* \"#utility.yul\":715:730   */\n      add\n        /* \"#utility.yul\":711:740   */\n      and\n        /* \"#utility.yul\":700:709   */\n      dup5\n        /* \"#utility.yul\":696:741   */\n      add\n        /* \"#utility.yul\":692:746   */\n      add\n        /* \"#utility.yul\":684:746   */\n      swap2\n      pop\n      pop\n        /* \"#utility.yul\":798:804   */\n      dup3\n        /* \"#utility.yul\":791:805   */\n      iszero\n        /* \"#utility.yul\":784:806   */\n      iszero\n        /* \"#utility.yul\":777:781   */\n      0x20\n        /* \"#utility.yul\":766:775   */\n      dup4\n        /* \"#utility.yul\":762:782   */\n      add\n        /* \"#utility.yul\":755:807   */\n      mstore\n        /* \"#utility.yul\":199:813   */\n      swap4\n      swap3\n      pop\n      pop\n      pop\n      jump\t// out\n        /* \"#utility.yul\":818:1166   */\n    tag_64:\n        /* \"#utility.yul\":870:878   */\n      0x00\n        /* \"#utility.yul\":880:886   */\n      dup1\n        /* \"#utility.yul\":934:937   */\n      dup4\n        /* \"#utility.yul\":927:931   */\n      0x1f\n        /* \"#utility.yul\":919:925   */\n      dup5\n        /* \"#utility.yul\":915:932   */\n      add\n        /* \"#utility.yul\":911:938   */\n      slt\n        /* \"#utility.yul\":901:956   */\n      tag_77\n      jumpi\n        /* \"#utility.yul\":952:953   */\n      0x00\n        /* \"#utility.yul\":949:950   */\n      dup1\n        /* \"#utility.yul\":942:954   */\n      revert\n        /* \"#utility.yul\":901:956   */\n    tag_77:\n      pop\n        /* \"#utility.yul\":975:995   */\n      dup2\n      calldataload\n        /* \"#utility.yul\":1018:1036   */\n      0xffffffffffffffff\n        /* \"#utility.yul\":1007:1037   */\n      dup2\n      gt\n        /* \"#utility.yul\":1004:1054   */\n      iszero\n      tag_78\n      jumpi\n        /* \"#utility.yul\":1050:1051   */\n      0x00\n        /* \"#utility.yul\":1047:1048   */\n      dup1\n        /* \"#utility.yul\":1040:1052   */\n      revert\n        /* \"#utility.yul\":1004:1054   */\n    tag_78:\n        /* \"#utility.yul\":1087:1091   */\n      0x20\n        /* \"#utility.yul\":1079:1085   */\n      dup4\n        /* \"#utility.yul\":1075:1092   */\n      add\n        /* \"#utility.yul\":1063:1092   */\n      swap2\n      pop\n        /* \"#utility.yul\":1139:1142   */\n      dup4\n        /* \"#utility.yul\":1132:1136   */\n      0x20\n        /* \"#utility.yul\":1123:1129   */\n      dup3\n        /* \"#utility.yul\":1115:1121   */\n      dup6\n        /* \"#utility.yul\":1111:1130   */\n      add\n        /* \"#utility.yul\":1107:1137   */\n      add\n        /* \"#utility.yul\":1104:1143   */\n      gt\n        /* \"#utility.yul\":1101:1160   */\n      iszero\n      tag_79\n      jumpi\n        /* \"#utility.yul\":1156:1157   */\n      0x00\n        /* \"#utility.yul\":1153:1154   */\n      dup1\n        /* \"#utility.yul\":1146:1158   */\n      revert\n        /* \"#utility.yul\":1101:1160   */\n    tag_79:\n        /* \"#utility.yul\":818:1166   */\n      swap3\n      pop\n      swap3\n      swap1\n      pop\n      jump\t// out\n        /* \"#utility.yul\":1171:1582   */\n    tag_19:\n        /* \"#utility.yul\":1242:1248   */\n      0x00\n        /* \"#utility.yul\":1250:1256   */\n      dup1\n        /* \"#utility.yul\":1303:1305   */\n      0x20\n        /* \"#utility.yul\":1291:1300   */\n      dup4\n        /* \"#utility.yul\":1282:1289   */\n      dup6\n        /* \"#utility.yul\":1278:1301   */\n      sub\n        /* \"#utility.yul\":1274:1306   */\n      slt\n        /* \"#utility.yul\":1271:1323   */\n      iszero\n      tag_81\n      jumpi\n        /* \"#utility.yul\":1319:1320   */\n      0x00\n        /* \"#utility.yul\":1316:1317   */\n      dup1\n        /* \"#utility.yul\":1309:1321   */\n      revert\n        /* \"#utility.yul\":1271:1323   */\n    tag_81:\n        /* \"#utility.yul\":1359:1368   */\n      dup3\n        /* \"#utility.yul\":1346:1369   */\n      calldataload\n        /* \"#utility.yul\":1392:1410   */\n      0xffffffffffffffff\n        /* \"#utility.yul\":1384:1390   */\n      dup2\n        /* \"#utility.yul\":1381:1411   */\n      gt\n        /* \"#utility.yul\":1378:1428   */\n      iszero\n      tag_82\n      jumpi\n        /* \"#utility.yul\":1424:1425   */\n      0x00\n        /* \"#utility.yul\":1421:1422   */\n      dup1\n        /* \"#utility.yul\":1414:1426   */\n      revert\n        /* \"#utility.yul\":1378:1428   */\n    tag_82:\n        /* \"#utility.yul\":1463:1522   */\n      tag_83\n        /* \"#utility.yul\":1514:1521   */\n      dup6\n        /* \"#utility.yul\":1505:1511   */\n      dup3\n        /* \"#utility.yul\":1494:1503   */\n      dup7\n        /* \"#utility.yul\":1490:1512   */\n      add\n        /* \"#utility.yul\":1463:1522   */\n      tag_64\n      jump\t// in\n    tag_83:\n        /* \"#utility.yul\":1541:1549   */\n      swap1\n      swap7\n        /* \"#utility.yul\":1437:1522   */\n      swap1\n      swap6\n      pop\n        /* \"#utility.yul\":1171:1582   */\n      swap4\n      pop\n      pop\n      pop\n      pop\n      jump\t// out\n        /* \"#utility.yul\":1587:2066   */\n    tag_27:\n        /* \"#utility.yul\":1667:1673   */\n      0x00\n        /* \"#utility.yul\":1675:1681   */\n      dup1\n        /* \"#utility.yul\":1683:1689   */\n      0x00\n        /* \"#utility.yul\":1736:1738   */\n      0x40\n        /* \"#utility.yul\":1724:1733   */\n      dup5\n        /* \"#utility.yul\":1715:1722   */\n      dup7\n        /* \"#utility.yul\":1711:1734   */\n      sub\n        /* \"#utility.yul\":1707:1739   */\n      slt\n        /* \"#utility.yul\":1704:1756   */\n      iszero\n      tag_85\n      jumpi\n        /* \"#utility.yul\":1752:1753   */\n      0x00\n        /* \"#utility.yul\":1749:1750   */\n      dup1\n        /* \"#utility.yul\":1742:1754   */\n      revert\n        /* \"#utility.yul\":1704:1756   */\n    tag_85:\n        /* \"#utility.yul\":1788:1797   */\n      dup4\n        /* \"#utility.yul\":1775:1798   */\n      calldataload\n        /* \"#utility.yul\":1765:1798   */\n      swap3\n      pop\n        /* \"#utility.yul\":1849:1851   */\n      0x20\n        /* \"#utility.yul\":1838:1847   */\n      dup5\n        /* \"#utility.yul\":1834:1852   */\n      add\n        /* \"#utility.yul\":1821:1853   */\n      calldataload\n        /* \"#utility.yul\":1876:1894   */\n      0xffffffffffffffff\n        /* \"#utility.yul\":1868:1874   */\n      dup2\n        /* \"#utility.yul\":1865:1895   */\n      gt\n        /* \"#utility.yul\":1862:1912   */\n      iszero\n      tag_86\n      jumpi\n        /* \"#utility.yul\":1908:1909   */\n      0x00\n        /* \"#utility.yul\":1905:1906   */\n      dup1\n        /* \"#utility.yul\":1898:1910   */\n      revert\n        /* \"#utility.yul\":1862:1912   */\n    tag_86:\n        /* \"#utility.yul\":1947:2006   */\n      tag_87\n        /* \"#utility.yul\":1998:2005   */\n      dup7\n        /* \"#utility.yul\":1989:1995   */\n      dup3\n        /* \"#utility.yul\":1978:1987   */\n      dup8\n        /* \"#utility.yul\":1974:1996   */\n      add\n        /* \"#utility.yul\":1947:2006   */\n      tag_64\n      jump\t// in\n    tag_87:\n        /* \"#utility.yul\":1587:2066   */\n      swap5\n      swap8\n        /* \"#utility.yul\":2025:2033   */\n      swap1\n      swap7\n      pop\n        /* \"#utility.yul\":1921:2006   */\n      swap4\n      swap5\n      pop\n      pop\n      pop\n      pop\n        /* \"#utility.yul\":1587:2066   */\n      jump\t// out\n        /* \"#utility.yul\":2071:2198   */\n    tag_32:\n        /* \"#utility.yul\":2132:2142   */\n      0x4e487b71\n        /* \"#utility.yul\":2127:2130   */\n      0xe0\n        /* \"#utility.yul\":2123:2143   */\n      shl\n        /* \"#utility.yul\":2120:2121   */\n      0x00\n        /* \"#utility.yul\":2113:2144   */\n      mstore\n        /* \"#utility.yul\":2163:2167   */\n      0x32\n        /* \"#utility.yul\":2160:2161   */\n      0x04\n        /* \"#utility.yul\":2153:2168   */\n      mstore\n        /* \"#utility.yul\":2187:2191   */\n      0x24\n        /* \"#utility.yul\":2184:2185   */\n      0x00\n        /* \"#utility.yul\":2177:2192   */\n      revert\n        /* \"#utility.yul\":2203:2583   */\n    tag_42:\n        /* \"#utility.yul\":2282:2283   */\n      0x01\n        /* \"#utility.yul\":2278:2290   */\n      dup2\n      dup2\n      shr\n      swap1\n        /* \"#utility.yul\":2325:2337   */\n      dup3\n      and\n      dup1\n        /* \"#utility.yul\":2346:2407   */\n      tag_90\n      jumpi\n        /* \"#utility.yul\":2400:2404   */\n      0x7f\n        /* \"#utility.yul\":2392:2398   */\n      dup3\n        /* \"#utility.yul\":2388:2405   */\n      and\n        /* \"#utility.yul\":2378:2405   */\n      swap2\n      pop\n        /* \"#utility.yul\":2346:2407   */\n    tag_90:\n        /* \"#utility.yul\":2453:2455   */\n      0x20\n        /* \"#utility.yul\":2445:2451   */\n      dup3\n        /* \"#utility.yul\":2442:2456   */\n      lt\n        /* \"#utility.yul\":2422:2440   */\n      dup2\n        /* \"#utility.yul\":2419:2457   */\n      sub\n        /* \"#utility.yul\":2416:2577   */\n      tag_91\n      jumpi\n        /* \"#utility.yul\":2499:2509   */\n      0x4e487b71\n        /* \"#utility.yul\":2494:2497   */\n      0xe0\n        /* \"#utility.yul\":2490:2510   */\n      shl\n        /* \"#utility.yul\":2487:2488   */\n      0x00\n        /* \"#utility.yul\":2480:2511   */\n      mstore\n        /* \"#utility.yul\":2534:2538   */\n      0x22\n        /* \"#utility.yul\":2531:2532   */\n      0x04\n        /* \"#utility.yul\":2524:2539   */\n      mstore\n        /* \"#utility.yul\":2562:2566   */\n      0x24\n        /* \"#utility.yul\":2559:2560   */\n      0x00\n        /* \"#utility.yul\":2552:2567   */\n      revert\n        /* \"#utility.yul\":2416:2577   */\n    tag_91:\n      pop\n        /* \"#utility.yul\":2203:2583   */\n      swap2\n      swap1\n      pop\n      jump\t// out\n        /* \"#utility.yul\":2588:2715   */\n    tag_65:\n        /* \"#utility.yul\":2649:2659   */\n      0x4e487b71\n        /* \"#utility.yul\":2644:2647   */\n      0xe0\n        /* \"#utility.yul\":2640:2660   */\n      shl\n        /* \"#utility.yul\":2637:2638   */\n      0x00\n        /* \"#utility.yul\":2630:2661   */\n      mstore\n        /* \"#utility.yul\":2680:2684   */\n      0x41\n        /* \"#utility.yul\":2677:2678   */\n      0x04\n        /* \"#utility.yul\":2670:2685   */\n      mstore\n        /* \"#utility.yul\":2704:2708   */\n      0x24\n        /* \"#utility.yul\":2701:2702   */\n      0x00\n        /* \"#utility.yul\":2694:2709   */\n      revert\n        /* \"#utility.yul\":2846:3364   */\n    tag_67:\n        /* \"#utility.yul\":2948:2950   */\n      0x1f\n        /* \"#utility.yul\":2943:2946   */\n      dup3\n        /* \"#utility.yul\":2940:2951   */\n      gt\n        /* \"#utility.yul\":2937:3358   */\n      iszero\n      tag_95\n      jumpi\n        /* \"#utility.yul\":2984:2989   */\n      dup1\n        /* \"#utility.yul\":2981:2982   */\n      0x00\n        /* \"#utility.yul\":2974:2990   */\n      mstore\n        /* \"#utility.yul\":3028:3032   */\n      0x20\n        /* \"#utility.yul\":3025:3026   */\n      0x00\n        /* \"#utility.yul\":3015:3033   */\n      keccak256\n        /* \"#utility.yul\":3098:3100   */\n      0x1f\n        /* \"#utility.yul\":3086:3096   */\n      dup5\n        /* \"#utility.yul\":3082:3101   */\n      add\n        /* \"#utility.yul\":3079:3080   */\n      0x05\n        /* \"#utility.yul\":3075:3102   */\n      shr\n        /* \"#utility.yul\":3069:3073   */\n      dup2\n        /* \"#utility.yul\":3065:3103   */\n      add\n        /* \"#utility.yul\":3134:3138   */\n      0x20\n        /* \"#utility.yul\":3122:3132   */\n      dup6\n        /* \"#utility.yul\":3119:3139   */\n      lt\n        /* \"#utility.yul\":3116:3163   */\n      iszero\n      tag_96\n      jumpi\n      pop\n        /* \"#utility.yul\":3157:3161   */\n      dup1\n        /* \"#utility.yul\":3116:3163   */\n    tag_96:\n        /* \"#utility.yul\":3212:3214   */\n      0x1f\n        /* \"#utility.yul\":3207:3210   */\n      dup5\n        /* \"#utility.yul\":3203:3215   */\n      add\n        /* \"#utility.yul\":3200:3201   */\n      0x05\n        /* \"#utility.yul\":3196:3216   */\n      shr\n        /* \"#utility.yul\":3190:3194   */\n      dup3\n        /* \"#utility.yul\":3186:3217   */\n      add\n        /* \"#utility.yul\":3176:3217   */\n      swap2\n      pop\n        /* \"#utility.yul\":3267:3348   */\n    tag_97:\n        /* \"#utility.yul\":3285:3287   */\n      dup2\n        /* \"#utility.yul\":3278:3283   */\n      dup2\n        /* \"#utility.yul\":3275:3288   */\n      lt\n        /* \"#utility.yul\":3267:3348   */\n      iszero\n      tag_99\n      jumpi\n        /* \"#utility.yul\":3344:3345   */\n      0x00\n        /* \"#utility.yul\":3330:3346   */\n      dup2\n      sstore\n        /* \"#utility.yul\":3311:3312   */\n      0x01\n        /* \"#utility.yul\":3300:3313   */\n      add\n        /* \"#utility.yul\":3267:3348   */\n      jump(tag_97)\n    tag_99:\n        /* \"#utility.yul\":3271:3274   */\n      pop\n      pop\n        /* \"#utility.yul\":2937:3358   */\n    tag_95:\n        /* \"#utility.yul\":2846:3364   */\n      pop\n      pop\n      pop\n      jump\t// out\n        /* \"#utility.yul\":3540:4885   */\n    tag_50:\n        /* \"#utility.yul\":3666:3669   */\n      dup2\n        /* \"#utility.yul\":3660:3670   */\n      mload\n        /* \"#utility.yul\":3693:3711   */\n      0xffffffffffffffff\n        /* \"#utility.yul\":3685:3691   */\n      dup2\n        /* \"#utility.yul\":3682:3712   */\n      gt\n        /* \"#utility.yul\":3679:3735   */\n      iszero\n      tag_103\n      jumpi\n        /* \"#utility.yul\":3715:3733   */\n      tag_103\n      tag_65\n      jump\t// in\n    tag_103:\n        /* \"#utility.yul\":3744:3841   */\n      tag_104\n        /* \"#utility.yul\":3834:3840   */\n      dup2\n        /* \"#utility.yul\":3794:3832   */\n      tag_105\n        /* \"#utility.yul\":3826:3830   */\n      dup5\n        /* \"#utility.yul\":3820:3831   */\n      sload\n        /* \"#utility.yul\":3794:3832   */\n      tag_42\n      jump\t// in\n    tag_105:\n        /* \"#utility.yul\":3788:3792   */\n      dup5\n        /* \"#utility.yul\":3744:3841   */\n      tag_67\n      jump\t// in\n    tag_104:\n        /* \"#utility.yul\":3896:3900   */\n      0x20\n      dup1\n        /* \"#utility.yul\":3953:3955   */\n      0x1f\n        /* \"#utility.yul\":3942:3956   */\n      dup4\n      gt\n        /* \"#utility.yul\":3970:3971   */\n      0x01\n        /* \"#utility.yul\":3965:4628   */\n      dup2\n      eq\n      tag_107\n      jumpi\n        /* \"#utility.yul\":4672:4673   */\n      0x00\n        /* \"#utility.yul\":4689:4695   */\n      dup5\n        /* \"#utility.yul\":4686:4775   */\n      iszero\n      tag_108\n      jumpi\n      pop\n        /* \"#utility.yul\":4741:4760   */\n      dup6\n      dup4\n      add\n        /* \"#utility.yul\":4735:4761   */\n      mload\n        /* \"#utility.yul\":4686:4775   */\n    tag_108:\n      not(0x00)\n        /* \"#utility.yul\":3497:3498   */\n      0x03\n        /* \"#utility.yul\":3493:3504   */\n      dup7\n      swap1\n      shl\n        /* \"#utility.yul\":3489:3513   */\n      shr\n        /* \"#utility.yul\":3485:3514   */\n      not\n        /* \"#utility.yul\":3475:3515   */\n      and\n        /* \"#utility.yul\":3521:3522   */\n      0x01\n        /* \"#utility.yul\":3517:3528   */\n      dup6\n      swap1\n      shl\n        /* \"#utility.yul\":3472:3529   */\n      or\n        /* \"#utility.yul\":4788:4869   */\n      dup6\n      sstore\n        /* \"#utility.yul\":3935:4879   */\n      jump(tag_106)\n        /* \"#utility.yul\":3965:4628   */\n    tag_107:\n        /* \"#utility.yul\":2793:2794   */\n      0x00\n        /* \"#utility.yul\":2786:2800   */\n      dup6\n      dup2\n      mstore\n        /* \"#utility.yul\":2830:2834   */\n      0x20\n        /* \"#utility.yul\":2817:2835   */\n      dup2\n      keccak256\n      not(0x1f)\n        /* \"#utility.yul\":4001:4021   */\n      dup7\n      and\n      swap2\n        /* \"#utility.yul\":4119:4355   */\n    tag_111:\n        /* \"#utility.yul\":4133:4140   */\n      dup3\n        /* \"#utility.yul\":4130:4131   */\n      dup2\n        /* \"#utility.yul\":4127:4141   */\n      lt\n        /* \"#utility.yul\":4119:4355   */\n      iszero\n      tag_113\n      jumpi\n        /* \"#utility.yul\":4222:4241   */\n      dup9\n      dup7\n      add\n        /* \"#utility.yul\":4216:4242   */\n      mload\n        /* \"#utility.yul\":4201:4243   */\n      dup3\n      sstore\n        /* \"#utility.yul\":4314:4341   */\n      swap5\n      dup5\n      add\n      swap5\n        /* \"#utility.yul\":4282:4283   */\n      0x01\n        /* \"#utility.yul\":4270:4284   */\n      swap1\n      swap2\n      add\n      swap1\n        /* \"#utility.yul\":4149:4168   */\n      dup5\n      add\n        /* \"#utility.yul\":4119:4355   */\n      jump(tag_111)\n    tag_113:\n        /* \"#utility.yul\":4123:4126   */\n      pop\n        /* \"#utility.yul\":4383:4389   */\n      dup6\n        /* \"#utility.yul\":4374:4381   */\n      dup3\n        /* \"#utility.yul\":4371:4390   */\n      lt\n        /* \"#utility.yul\":4368:4569   */\n      iszero\n      tag_114\n      jumpi\n        /* \"#utility.yul\":4444:4463   */\n      dup8\n      dup6\n      add\n        /* \"#utility.yul\":4438:4464   */\n      mload\n      not(0x00)\n        /* \"#utility.yul\":4527:4528   */\n      0x03\n        /* \"#utility.yul\":4523:4537   */\n      dup9\n      swap1\n      shl\n        /* \"#utility.yul\":4539:4542   */\n      0xf8\n        /* \"#utility.yul\":4519:4543   */\n      and\n        /* \"#utility.yul\":4515:4552   */\n      shr\n        /* \"#utility.yul\":4511:4553   */\n      not\n        /* \"#utility.yul\":4496:4554   */\n      and\n        /* \"#utility.yul\":4481:4555   */\n      dup2\n      sstore\n        /* \"#utility.yul\":4368:4569   */\n    tag_114:\n      pop\n      pop\n        /* \"#utility.yul\":4615:4616   */\n      0x01\n        /* \"#utility.yul\":4606:4612   */\n      dup5\n        /* \"#utility.yul\":4603:4604   */\n      0x01\n        /* \"#utility.yul\":4599:4613   */\n      shl\n        /* \"#utility.yul\":4595:4617   */\n      add\n        /* \"#utility.yul\":4589:4593   */\n      dup6\n        /* \"#utility.yul\":4582:4618   */\n      sstore\n        /* \"#utility.yul\":3935:4879   */\n    tag_106:\n      pop\n      pop\n      pop\n      pop\n        /* \"#utility.yul\":3540:4885   */\n      pop\n      pop\n      jump\t// out\n        /* \"#utility.yul\":4890:6088   */\n    tag_63:\n        /* \"#utility.yul\":5014:5032   */\n      0xffffffffffffffff\n        /* \"#utility.yul\":5009:5012   */\n      dup4\n        /* \"#utility.yul\":5006:5033   */\n      gt\n        /* \"#utility.yul\":5003:5056   */\n      iszero\n      tag_117\n      jumpi\n        /* \"#utility.yul\":5036:5054   */\n      tag_117\n      tag_65\n      jump\t// in\n    tag_117:\n        /* \"#utility.yul\":5065:5159   */\n      tag_118\n        /* \"#utility.yul\":5155:5158   */\n      dup4\n        /* \"#utility.yul\":5115:5153   */\n      tag_119\n        /* \"#utility.yul\":5147:5151   */\n      dup4\n        /* \"#utility.yul\":5141:5152   */\n      sload\n        /* \"#utility.yul\":5115:5153   */\n      tag_42\n      jump\t// in\n    tag_119:\n        /* \"#utility.yul\":5109:5113   */\n      dup4\n        /* \"#utility.yul\":5065:5159   */\n      tag_67\n      jump\t// in\n    tag_118:\n        /* \"#utility.yul\":5185:5186   */\n      0x00\n        /* \"#utility.yul\":5210:5212   */\n      0x1f\n        /* \"#utility.yul\":5205:5208   */\n      dup5\n        /* \"#utility.yul\":5202:5213   */\n      gt\n        /* \"#utility.yul\":5227:5228   */\n      0x01\n        /* \"#utility.yul\":5222:5830   */\n      dup2\n      eq\n      tag_121\n      jumpi\n        /* \"#utility.yul\":5874:5875   */\n      0x00\n        /* \"#utility.yul\":5891:5894   */\n      dup6\n        /* \"#utility.yul\":5888:5981   */\n      iszero\n      tag_122\n      jumpi\n      pop\n        /* \"#utility.yul\":5947:5966   */\n      dup4\n      dup3\n      add\n        /* \"#utility.yul\":5934:5967   */\n      calldataload\n        /* \"#utility.yul\":5888:5981   */\n    tag_122:\n      not(0x00)\n        /* \"#utility.yul\":3497:3498   */\n      0x03\n        /* \"#utility.yul\":3493:3504   */\n      dup8\n      swap1\n      shl\n        /* \"#utility.yul\":3489:3513   */\n      shr\n        /* \"#utility.yul\":3485:3514   */\n      not\n        /* \"#utility.yul\":3475:3515   */\n      and\n        /* \"#utility.yul\":3521:3522   */\n      0x01\n        /* \"#utility.yul\":3517:3528   */\n      dup7\n      swap1\n      shl\n        /* \"#utility.yul\":3472:3529   */\n      or\n        /* \"#utility.yul\":5994:6072   */\n      dup4\n      sstore\n        /* \"#utility.yul\":5195:6082   */\n      jump(tag_99)\n        /* \"#utility.yul\":5222:5830   */\n    tag_121:\n        /* \"#utility.yul\":2793:2794   */\n      0x00\n        /* \"#utility.yul\":2786:2800   */\n      dup4\n      dup2\n      mstore\n        /* \"#utility.yul\":2830:2834   */\n      0x20\n        /* \"#utility.yul\":2817:2835   */\n      dup2\n      keccak256\n      not(0x1f)\n        /* \"#utility.yul\":5258:5275   */\n      dup8\n      and\n      swap2\n        /* \"#utility.yul\":5373:5602   */\n    tag_125:\n        /* \"#utility.yul\":5387:5394   */\n      dup3\n        /* \"#utility.yul\":5384:5385   */\n      dup2\n        /* \"#utility.yul\":5381:5395   */\n      lt\n        /* \"#utility.yul\":5373:5602   */\n      iszero\n      tag_127\n      jumpi\n        /* \"#utility.yul\":5476:5495   */\n      dup7\n      dup6\n      add\n        /* \"#utility.yul\":5463:5496   */\n      calldataload\n        /* \"#utility.yul\":5448:5497   */\n      dup3\n      sstore\n        /* \"#utility.yul\":5583:5587   */\n      0x20\n        /* \"#utility.yul\":5568:5588   */\n      swap5\n      dup6\n      add\n      swap5\n        /* \"#utility.yul\":5536:5537   */\n      0x01\n        /* \"#utility.yul\":5524:5538   */\n      swap1\n      swap3\n      add\n      swap2\n        /* \"#utility.yul\":5403:5415   */\n      add\n        /* \"#utility.yul\":5373:5602   */\n      jump(tag_125)\n    tag_127:\n        /* \"#utility.yul\":5377:5380   */\n      pop\n        /* \"#utility.yul\":5630:5633   */\n      dup7\n        /* \"#utility.yul\":5621:5628   */\n      dup3\n        /* \"#utility.yul\":5618:5634   */\n      lt\n        /* \"#utility.yul\":5615:5774   */\n      iszero\n      tag_128\n      jumpi\n        /* \"#utility.yul\":5754:5755   */\n      0x00\n        /* \"#utility.yul\":5750:5756   */\n      not\n        /* \"#utility.yul\":5744:5747   */\n      0xf8\n        /* \"#utility.yul\":5738:5741   */\n      dup9\n        /* \"#utility.yul\":5735:5736   */\n      0x03\n        /* \"#utility.yul\":5731:5742   */\n      shl\n        /* \"#utility.yul\":5727:5748   */\n      and\n        /* \"#utility.yul\":5723:5757   */\n      shr\n        /* \"#utility.yul\":5719:5758   */\n      not\n        /* \"#utility.yul\":5706:5715   */\n      dup5\n        /* \"#utility.yul\":5701:5704   */\n      dup8\n        /* \"#utility.yul\":5697:5716   */\n      add\n        /* \"#utility.yul\":5684:5717   */\n      calldataload\n        /* \"#utility.yul\":5680:5759   */\n      and\n        /* \"#utility.yul\":5672:5678   */\n      dup2\n        /* \"#utility.yul\":5665:5760   */\n      sstore\n        /* \"#utility.yul\":5615:5774   */\n    tag_128:\n      pop\n      pop\n        /* \"#utility.yul\":5817:5818   */\n      0x01\n        /* \"#utility.yul\":5811:5814   */\n      dup6\n        /* \"#utility.yul\":5808:5809   */\n      0x01\n        /* \"#utility.yul\":5804:5815   */\n      shl\n        /* \"#utility.yul\":5800:5819   */\n      add\n        /* \"#utility.yul\":5794:5798   */\n      dup4\n        /* \"#utility.yul\":5787:5820   */\n      sstore\n        /* \"#utility.yul\":5195:6082   */\n      pop\n      pop\n        /* \"#utility.yul\":4890:6088   */\n      pop\n      pop\n      pop\n      jump\t// out\n\n    auxdata: 0xa2646970667358221220a74f7ec39d39e63875db03c84142f41857f79566b53c70d977dcc0243c3c746664736f6c63430008160033\n}\n",
				"bytecode": {
					"linkReferences": {},
					"object": "608060405234801561000f575f80fd5b506107038061001d5f395ff3fe608060405234801561000f575f80fd5b5060043610610055575f3560e01c8063751ef753146100595780639507d39a1461006e578063b6a46b3b14610098578063bc8bc2b4146100ab578063cd111614146100be575b5f80fd5b61006c610067366004610370565b6100d1565b005b61008161007c366004610370565b610133565b60405161008f929190610387565b60405180910390f35b61006c6100a6366004610420565b6101ff565b6100816100b9366004610370565b610284565b61006c6100cc36600461045f565b61033b565b5f81815481106100e3576100e36104a7565b5f9182526020822060016002909202010154815460ff9091161591908390811061010f5761010f6104a7565b5f9182526020909120600290910201600101805460ff191691151591909117905550565b60605f805f8481548110610149576101496104a7565b905f5260205f2090600202019050805f01816001015f9054906101000a900460ff16818054610177906104bb565b80601f01602080910402602001604051908101604052809291908181526020018280546101a3906104bb565b80156101ee5780601f106101c5576101008083540402835291602001916101ee565b820191905f5260205f20905b8154815290600101906020018083116101d157829003601f168201915b505050505091509250925050915091565b6040805160606020601f8501819004028201810183529181018381525f9282919086908690819085018382808284375f920182905250938552505050602091820181905283546001810185559381522081519192600202019081906102649082610553565b50602091909101516001909101805460ff19169115159190911790555050565b5f8181548110610292575f80fd5b905f5260205f2090600202015f91509050805f0180546102b1906104bb565b80601f01602080910402602001604051908101604052809291908181526020018280546102dd906104bb565b80156103285780601f106102ff57610100808354040283529160200191610328565b820191905f5260205f20905b81548152906001019060200180831161030b57829003601f168201915b5050506001909301549192505060ff1682565b81815f858154811061034f5761034f6104a7565b905f5260205f2090600202015f01918261036a929190610613565b50505050565b5f60208284031215610380575f80fd5b5035919050565b604081525f83518060408401525f5b818110156103b35760208187018101516060868401015201610396565b505f606082850101526060601f19601f83011684010191505082151560208301529392505050565b5f8083601f8401126103eb575f80fd5b50813567ffffffffffffffff811115610402575f80fd5b602083019150836020828501011115610419575f80fd5b9250929050565b5f8060208385031215610431575f80fd5b823567ffffffffffffffff811115610447575f80fd5b610453858286016103db565b90969095509350505050565b5f805f60408486031215610471575f80fd5b83359250602084013567ffffffffffffffff81111561048e575f80fd5b61049a868287016103db565b9497909650939450505050565b634e487b7160e01b5f52603260045260245ffd5b600181811c908216806104cf57607f821691505b6020821081036104ed57634e487b7160e01b5f52602260045260245ffd5b50919050565b634e487b7160e01b5f52604160045260245ffd5b601f82111561054e57805f5260205f20601f840160051c8101602085101561052c5750805b601f840160051c820191505b8181101561054b575f8155600101610538565b50505b505050565b815167ffffffffffffffff81111561056d5761056d6104f3565b6105818161057b84546104bb565b84610507565b602080601f8311600181146105b4575f841561059d5750858301515b5f19600386901b1c1916600185901b17855561060b565b5f85815260208120601f198616915b828110156105e2578886015182559484019460019091019084016105c3565b50858210156105ff57878501515f19600388901b60f8161c191681555b505060018460011b0185555b505050505050565b67ffffffffffffffff83111561062b5761062b6104f3565b61063f8361063983546104bb565b83610507565b5f601f841160018114610670575f85156106595750838201355b5f19600387901b1c1916600186901b17835561054b565b5f83815260208120601f198716915b8281101561069f578685013582556020948501946001909201910161067f565b50868210156106bb575f1960f88860031b161c19848701351681555b505060018560011b018355505050505056fea2646970667358221220a74f7ec39d39e63875db03c84142f41857f79566b53c70d977dcc0243c3c746664736f6c63430008160033",
					"opcodes": "PUSH1 0x80 PUSH1 0x40 MSTORE CALLVALUE DUP1 ISZERO PUSH2 0xF JUMPI PUSH0 DUP1 REVERT JUMPDEST POP PUSH2 0x703 DUP1 PUSH2 0x1D PUSH0 CODECOPY PUSH0 RETURN INVALID PUSH1 0x80 PUSH1 0x40 MSTORE CALLVALUE DUP1 ISZERO PUSH2 0xF JUMPI PUSH0 DUP1 REVERT JUMPDEST POP PUSH1 0x4 CALLDATASIZE LT PUSH2 0x55 JUMPI PUSH0 CALLDATALOAD PUSH1 0xE0 SHR DUP1 PUSH4 0x751EF753 EQ PUSH2 0x59 JUMPI DUP1 PUSH4 0x9507D39A EQ PUSH2 0x6E JUMPI DUP1 PUSH4 0xB6A46B3B EQ PUSH2 0x98 JUMPI DUP1 PUSH4 0xBC8BC2B4 EQ PUSH2 0xAB JUMPI DUP1 PUSH4 0xCD111614 EQ PUSH2 0xBE JUMPI JUMPDEST PUSH0 DUP1 REVERT JUMPDEST PUSH2 0x6C PUSH2 0x67 CALLDATASIZE PUSH1 0x4 PUSH2 0x370 JUMP JUMPDEST PUSH2 0xD1 JUMP JUMPDEST STOP JUMPDEST PUSH2 0x81 PUSH2 0x7C CALLDATASIZE PUSH1 0x4 PUSH2 0x370 JUMP JUMPDEST PUSH2 0x133 JUMP JUMPDEST PUSH1 0x40 MLOAD PUSH2 0x8F SWAP3 SWAP2 SWAP1 PUSH2 0x387 JUMP JUMPDEST PUSH1 0x40 MLOAD DUP1 SWAP2 SUB SWAP1 RETURN JUMPDEST PUSH2 0x6C PUSH2 0xA6 CALLDATASIZE PUSH1 0x4 PUSH2 0x420 JUMP JUMPDEST PUSH2 0x1FF JUMP JUMPDEST PUSH2 0x81 PUSH2 0xB9 CALLDATASIZE PUSH1 0x4 PUSH2 0x370 JUMP JUMPDEST PUSH2 0x284 JUMP JUMPDEST PUSH2 0x6C PUSH2 0xCC CALLDATASIZE PUSH1 0x4 PUSH2 0x45F JUMP JUMPDEST PUSH2 0x33B JUMP JUMPDEST PUSH0 DUP2 DUP2 SLOAD DUP2 LT PUSH2 0xE3 JUMPI PUSH2 0xE3 PUSH2 0x4A7 JUMP JUMPDEST PUSH0 SWAP2 DUP3 MSTORE PUSH1 0x20 DUP3 KECCAK256 PUSH1 0x1 PUSH1 0x2 SWAP1 SWAP3 MUL ADD ADD SLOAD DUP2 SLOAD PUSH1 0xFF SWAP1 SWAP2 AND ISZERO SWAP2 SWAP1 DUP4 SWAP1 DUP2 LT PUSH2 0x10F JUMPI PUSH2 0x10F PUSH2 0x4A7 JUMP JUMPDEST PUSH0 SWAP2 DUP3 MSTORE PUSH1 0x20 SWAP1 SWAP2 KECCAK256 PUSH1 0x2 SWAP1 SWAP2 MUL ADD PUSH1 0x1 ADD DUP1 SLOAD PUSH1 0xFF NOT AND SWAP2 ISZERO ISZERO SWAP2 SWAP1 SWAP2 OR SWAP1 SSTORE POP JUMP JUMPDEST PUSH1 0x60 PUSH0 DUP1 PUSH0 DUP5 DUP2 SLOAD DUP2 LT PUSH2 0x149 JUMPI PUSH2 0x149 PUSH2 0x4A7 JUMP JUMPDEST SWAP1 PUSH0 MSTORE PUSH1 0x20 PUSH0 KECCAK256 SWAP1 PUSH1 0x2 MUL ADD SWAP1 POP DUP1 PUSH0 ADD DUP2 PUSH1 0x1 ADD PUSH0 SWAP1 SLOAD SWAP1 PUSH2 0x100 EXP SWAP1 DIV PUSH1 0xFF AND DUP2 DUP1 SLOAD PUSH2 0x177 SWAP1 PUSH2 0x4BB JUMP JUMPDEST DUP1 PUSH1 0x1F ADD PUSH1 0x20 DUP1 SWAP2 DIV MUL PUSH1 0x20 ADD PUSH1 0x40 MLOAD SWAP1 DUP2 ADD PUSH1 0x40 MSTORE DUP1 SWAP3 SWAP2 SWAP1 DUP2 DUP2 MSTORE PUSH1 0x20 ADD DUP3 DUP1 SLOAD PUSH2 0x1A3 SWAP1 PUSH2 0x4BB JUMP JUMPDEST DUP1 ISZERO PUSH2 0x1EE JUMPI DUP1 PUSH1 0x1F LT PUSH2 0x1C5 JUMPI PUSH2 0x100 DUP1 DUP4 SLOAD DIV MUL DUP4 MSTORE SWAP2 PUSH1 0x20 ADD SWAP2 PUSH2 0x1EE JUMP JUMPDEST DUP3 ADD SWAP2 SWAP1 PUSH0 MSTORE PUSH1 0x20 PUSH0 KECCAK256 SWAP1 JUMPDEST DUP2 SLOAD DUP2 MSTORE SWAP1 PUSH1 0x1 ADD SWAP1 PUSH1 0x20 ADD DUP1 DUP4 GT PUSH2 0x1D1 JUMPI DUP3 SWAP1 SUB PUSH1 0x1F AND DUP3 ADD SWAP2 JUMPDEST POP POP POP POP POP SWAP2 POP SWAP3 POP SWAP3 POP POP SWAP2 POP SWAP2 JUMP JUMPDEST PUSH1 0x40 DUP1 MLOAD PUSH1 0x60 PUSH1 0x20 PUSH1 0x1F DUP6 ADD DUP2 SWAP1 DIV MUL DUP3 ADD DUP2 ADD DUP4 MSTORE SWAP2 DUP2 ADD DUP4 DUP2 MSTORE PUSH0 SWAP3 DUP3 SWAP2 SWAP1 DUP7 SWAP1 DUP7 SWAP1 DUP2 SWAP1 DUP6 ADD DUP4 DUP3 DUP1 DUP3 DUP5 CALLDATACOPY PUSH0 SWAP3 ADD DUP3 SWAP1 MSTORE POP SWAP4 DUP6 MSTORE POP POP POP PUSH1 0x20 SWAP2 DUP3 ADD DUP2 SWAP1 MSTORE DUP4 SLOAD PUSH1 0x1 DUP2 ADD DUP6 SSTORE SWAP4 DUP2 MSTORE KECCAK256 DUP2 MLOAD SWAP2 SWAP3 PUSH1 0x2 MUL ADD SWAP1 DUP2 SWAP1 PUSH2 0x264 SWAP1 DUP3 PUSH2 0x553 JUMP JUMPDEST POP PUSH1 0x20 SWAP2 SWAP1 SWAP2 ADD MLOAD PUSH1 0x1 SWAP1 SWAP2 ADD DUP1 SLOAD PUSH1 0xFF NOT AND SWAP2 ISZERO ISZERO SWAP2 SWAP1 SWAP2 OR SWAP1 SSTORE POP POP JUMP JUMPDEST PUSH0 DUP2 DUP2 SLOAD DUP2 LT PUSH2 0x292 JUMPI PUSH0 DUP1 REVERT JUMPDEST SWAP1 PUSH0 MSTORE PUSH1 0x20 PUSH0 KECCAK256 SWAP1 PUSH1 0x2 MUL ADD PUSH0 SWAP2 POP SWAP1 POP DUP1 PUSH0 ADD DUP1 SLOAD PUSH2 0x2B1 SWAP1 PUSH2 0x4BB JUMP JUMPDEST DUP1 PUSH1 0x1F ADD PUSH1 0x20 DUP1 SWAP2 DIV MUL PUSH1 0x20 ADD PUSH1 0x40 MLOAD SWAP1 DUP2 ADD PUSH1 0x40 MSTORE DUP1 SWAP3 SWAP2 SWAP1 DUP2 DUP2 MSTORE PUSH1 0x20 ADD DUP3 DUP1 SLOAD PUSH2 0x2DD SWAP1 PUSH2 0x4BB JUMP JUMPDEST DUP1 ISZERO PUSH2 0x328 JUMPI DUP1 PUSH1 0x1F LT PUSH2 0x2FF JUMPI PUSH2 0x100 DUP1 DUP4 SLOAD DIV MUL DUP4 MSTORE SWAP2 PUSH1 0x20 ADD SWAP2 PUSH2 0x328 JUMP JUMPDEST DUP3 ADD SWAP2 SWAP1 PUSH0 MSTORE PUSH1 0x20 PUSH0 KECCAK256 SWAP1 JUMPDEST DUP2 SLOAD DUP2 MSTORE SWAP1 PUSH1 0x1 ADD SWAP1 PUSH1 0x20 ADD DUP1 DUP4 GT PUSH2 0x30B JUMPI DUP3 SWAP1 SUB PUSH1 0x1F AND DUP3 ADD SWAP2 JUMPDEST POP POP POP PUSH1 0x1 SWAP1 SWAP4 ADD SLOAD SWAP2 SWAP3 POP POP PUSH1 0xFF AND DUP3 JUMP JUMPDEST DUP2 DUP2 PUSH0 DUP6 DUP2 SLOAD DUP2 LT PUSH2 0x34F JUMPI PUSH2 0x34F PUSH2 0x4A7 JUMP JUMPDEST SWAP1 PUSH0 MSTORE PUSH1 0x20 PUSH0 KECCAK256 SWAP1 PUSH1 0x2 MUL ADD PUSH0 ADD SWAP2 DUP3 PUSH2 0x36A SWAP3 SWAP2 SWAP1 PUSH2 0x613 JUMP JUMPDEST POP POP POP POP JUMP JUMPDEST PUSH0 PUSH1 0x20 DUP3 DUP5 SUB SLT ISZERO PUSH2 0x380 JUMPI PUSH0 DUP1 REVERT JUMPDEST POP CALLDATALOAD SWAP2 SWAP1 POP JUMP JUMPDEST PUSH1 0x40 DUP2 MSTORE PUSH0 DUP4 MLOAD DUP1 PUSH1 0x40 DUP5 ADD MSTORE PUSH0 JUMPDEST DUP2 DUP2 LT ISZERO PUSH2 0x3B3 JUMPI PUSH1 0x20 DUP2 DUP8 ADD DUP2 ADD MLOAD PUSH1 0x60 DUP7 DUP5 ADD ADD MSTORE ADD PUSH2 0x396 JUMP JUMPDEST POP PUSH0 PUSH1 0x60 DUP3 DUP6 ADD ADD MSTORE PUSH1 0x60 PUSH1 0x1F NOT PUSH1 0x1F DUP4 ADD AND DUP5 ADD ADD SWAP2 POP POP DUP3 ISZERO ISZERO PUSH1 0x20 DUP4 ADD MSTORE SWAP4 SWAP3 POP POP POP JUMP JUMPDEST PUSH0 DUP1 DUP4 PUSH1 0x1F DUP5 ADD SLT PUSH2 0x3EB JUMPI PUSH0 DUP1 REVERT JUMPDEST POP DUP2 CALLDATALOAD PUSH8 0xFFFFFFFFFFFFFFFF DUP2 GT ISZERO PUSH2 0x402 JUMPI PUSH0 DUP1 REVERT JUMPDEST PUSH1 0x20 DUP4 ADD SWAP2 POP DUP4 PUSH1 0x20 DUP3 DUP6 ADD ADD GT ISZERO PUSH2 0x419 JUMPI PUSH0 DUP1 REVERT JUMPDEST SWAP3 POP SWAP3 SWAP1 POP JUMP JUMPDEST PUSH0 DUP1 PUSH1 0x20 DUP4 DUP6 SUB SLT ISZERO PUSH2 0x431 JUMPI PUSH0 DUP1 REVERT JUMPDEST DUP3 CALLDATALOAD PUSH8 0xFFFFFFFFFFFFFFFF DUP2 GT ISZERO PUSH2 0x447 JUMPI PUSH0 DUP1 REVERT JUMPDEST PUSH2 0x453 DUP6 DUP3 DUP7 ADD PUSH2 0x3DB JUMP JUMPDEST SWAP1 SWAP7 SWAP1 SWAP6 POP SWAP4 POP POP POP POP JUMP JUMPDEST PUSH0 DUP1 PUSH0 PUSH1 0x40 DUP5 DUP7 SUB SLT ISZERO PUSH2 0x471 JUMPI PUSH0 DUP1 REVERT JUMPDEST DUP4 CALLDATALOAD SWAP3 POP PUSH1 0x20 DUP5 ADD CALLDATALOAD PUSH8 0xFFFFFFFFFFFFFFFF DUP2 GT ISZERO PUSH2 0x48E JUMPI PUSH0 DUP1 REVERT JUMPDEST PUSH2 0x49A DUP7 DUP3 DUP8 ADD PUSH2 0x3DB JUMP JUMPDEST SWAP5 SWAP8 SWAP1 SWAP7 POP SWAP4 SWAP5 POP POP POP POP JUMP JUMPDEST PUSH4 0x4E487B71 PUSH1 0xE0 SHL PUSH0 MSTORE PUSH1 0x32 PUSH1 0x4 MSTORE PUSH1 0x24 PUSH0 REVERT JUMPDEST PUSH1 0x1 DUP2 DUP2 SHR SWAP1 DUP3 AND DUP1 PUSH2 0x4CF JUMPI PUSH1 0x7F DUP3 AND SWAP2 POP JUMPDEST PUSH1 0x20 DUP3 LT DUP2 SUB PUSH2 0x4ED JUMPI PUSH4 0x4E487B71 PUSH1 0xE0 SHL PUSH0 MSTORE PUSH1 0x22 PUSH1 0x4 MSTORE PUSH1 0x24 PUSH0 REVERT JUMPDEST POP SWAP2 SWAP1 POP JUMP JUMPDEST PUSH4 0x4E487B71 PUSH1 0xE0 SHL PUSH0 MSTORE PUSH1 0x41 PUSH1 0x4 MSTORE PUSH1 0x24 PUSH0 REVERT JUMPDEST PUSH1 0x1F DUP3 GT ISZERO PUSH2 0x54E JUMPI DUP1 PUSH0 MSTORE PUSH1 0x20 PUSH0 KECCAK256 PUSH1 0x1F DUP5 ADD PUSH1 0x5 SHR DUP2 ADD PUSH1 0x20 DUP6 LT ISZERO PUSH2 0x52C JUMPI POP DUP1 JUMPDEST PUSH1 0x1F DUP5 ADD PUSH1 0x5 SHR DUP3 ADD SWAP2 POP JUMPDEST DUP2 DUP2 LT ISZERO PUSH2 0x54B JUMPI PUSH0 DUP2 SSTORE PUSH1 0x1 ADD PUSH2 0x538 JUMP JUMPDEST POP POP JUMPDEST POP POP POP JUMP JUMPDEST DUP2 MLOAD PUSH8 0xFFFFFFFFFFFFFFFF DUP2 GT ISZERO PUSH2 0x56D JUMPI PUSH2 0x56D PUSH2 0x4F3 JUMP JUMPDEST PUSH2 0x581 DUP2 PUSH2 0x57B DUP5 SLOAD PUSH2 0x4BB JUMP JUMPDEST DUP5 PUSH2 0x507 JUMP JUMPDEST PUSH1 0x20 DUP1 PUSH1 0x1F DUP4 GT PUSH1 0x1 DUP2 EQ PUSH2 0x5B4 JUMPI PUSH0 DUP5 ISZERO PUSH2 0x59D JUMPI POP DUP6 DUP4 ADD MLOAD JUMPDEST PUSH0 NOT PUSH1 0x3 DUP7 SWAP1 SHL SHR NOT AND PUSH1 0x1 DUP6 SWAP1 SHL OR DUP6 SSTORE PUSH2 0x60B JUMP JUMPDEST PUSH0 DUP6 DUP2 MSTORE PUSH1 0x20 DUP2 KECCAK256 PUSH1 0x1F NOT DUP7 AND SWAP2 JUMPDEST DUP3 DUP2 LT ISZERO PUSH2 0x5E2 JUMPI DUP9 DUP7 ADD MLOAD DUP3 SSTORE SWAP5 DUP5 ADD SWAP5 PUSH1 0x1 SWAP1 SWAP2 ADD SWAP1 DUP5 ADD PUSH2 0x5C3 JUMP JUMPDEST POP DUP6 DUP3 LT ISZERO PUSH2 0x5FF JUMPI DUP8 DUP6 ADD MLOAD PUSH0 NOT PUSH1 0x3 DUP9 SWAP1 SHL PUSH1 0xF8 AND SHR NOT AND DUP2 SSTORE JUMPDEST POP POP PUSH1 0x1 DUP5 PUSH1 0x1 SHL ADD DUP6 SSTORE JUMPDEST POP POP POP POP POP POP JUMP JUMPDEST PUSH8 0xFFFFFFFFFFFFFFFF DUP4 GT ISZERO PUSH2 0x62B JUMPI PUSH2 0x62B PUSH2 0x4F3 JUMP JUMPDEST PUSH2 0x63F DUP4 PUSH2 0x639 DUP4 SLOAD PUSH2 0x4BB JUMP JUMPDEST DUP4 PUSH2 0x507 JUMP JUMPDEST PUSH0 PUSH1 0x1F DUP5 GT PUSH1 0x1 DUP2 EQ PUSH2 0x670 JUMPI PUSH0 DUP6 ISZERO PUSH2 0x659 JUMPI POP DUP4 DUP3 ADD CALLDATALOAD JUMPDEST PUSH0 NOT PUSH1 0x3 DUP8 SWAP1 SHL SHR NOT AND PUSH1 0x1 DUP7 SWAP1 SHL OR DUP4 SSTORE PUSH2 0x54B JUMP JUMPDEST PUSH0 DUP4 DUP2 MSTORE PUSH1 0x20 DUP2 KECCAK256 PUSH1 0x1F NOT DUP8 AND SWAP2 JUMPDEST DUP3 DUP2 LT ISZERO PUSH2 0x69F JUMPI DUP7 DUP6 ADD CALLDATALOAD DUP3 SSTORE PUSH1 0x20 SWAP5 DUP6 ADD SWAP5 PUSH1 0x1 SWAP1 SWAP3 ADD SWAP2 ADD PUSH2 0x67F JUMP JUMPDEST POP DUP7 DUP3 LT ISZERO PUSH2 0x6BB JUMPI PUSH0 NOT PUSH1 0xF8 DUP9 PUSH1 0x3 SHL AND SHR NOT DUP5 DUP8 ADD CALLDATALOAD AND DUP2 SSTORE JUMPDEST POP POP PUSH1 0x1 DUP6 PUSH1 0x1 SHL ADD DUP4 SSTORE POP POP POP POP POP JUMP INVALID LOG2 PUSH5 0x6970667358 0x22 SLT KECCAK256 0xA7 0x4F PUSH31 0xC39D39E63875DB03C84142F41857F79566B53C70D977DCC0243C3C74666473 PUSH16 0x6C634300081600330000000000000000 "
				},
				"gasEstimates": {
					"creation": {
						"codeDepositCost": "359000",
						"executionCost": "397",
						"totalCost": "359397"
					},
					"external": {
						"create(string)": "infinite",
						"get(uint256)": "infinite",
						"todos(uint256)": "infinite",
						"toggle(uint256)": "30968",
						"updateText(uint256,string)": "infinite"
					}
				},
				"methodIdentifiers": {
					"create(string)": "b6a46b3b",
					"get(uint256)": "9507d39a",
					"todos(uint256)": "bc8bc2b4",
					"toggle(uint256)": "751ef753",
					"updateText(uint256,string)": "cd111614"
				}
			},
			"storageLayout": {
				"storage": [
					{
						"astId": 10,
						"contract": "contracts/solidity.series/TodoList.sol:TodoList",
						"label": "todos",
						"offset": 0,
						"slot": "0",
						"type": "t_array(t_struct(Todo)6_storage)dyn_storage"
					}
				],
				"types": {
					"t_array(t_struct(Todo)6_storage)dyn_storage": {
						"base": "t_struct(Todo)6_storage",
						"encoding": "dynamic_array",
						"label": "struct TodoList.Todo[]",
						"numberOfBytes": "32"
					},
					"t_bool": {
						"encoding": "inplace",
						"label": "bool",
						"numberOfBytes": "1"
					},
					"t_string_storage": {
						"encoding": "bytes",
						"label": "string",
						"numberOfBytes": "32"
					},
					"t_struct(Todo)6_storage": {
						"encoding": "inplace",
						"label": "struct TodoList.Todo",
						"members": [
							{
								"astId": 3,
								"contract": "contracts/solidity.series/TodoList.sol:TodoList",
								"label": "text",
								"offset": 0,
								"slot": "0",
								"type": "t_string_storage"
							},
							{
								"astId": 5,
								"contract": "contracts/solidity.series/TodoList.sol:TodoList",
								"label": "completed",
								"offset": 0,
								"slot": "1",
								"type": "t_bool"
							}
						],
						"numberOfBytes": "64"
					}
				}
			},
			"userdoc": {
				"kind": "user",
				"methods": {},
				"version": 1
			}
		}
	}
}