{
	"contracts/solidity.series/simple.sol": {
		"T": {
			"abi": [
				{
					"inputs": [
						{
							"internalType": "string",
							"name": "_text",
							"type": "string"
						}
					],
					"stateMutability": "nonpayable",
					"type": "constructor"
				},
				{
					"inputs": [],
					"name": "text",
					"outputs": [
						{
							"internalType": "string",
							"name": "",
							"type": "string"
						}
					],
					"stateMutability": "view",
					"type": "function"
				}
			],
			"devdoc": {
				"kind": "dev",
				"methods": {},
				"version": 1
			},
			"evm": {
				"assembly": "    /* \"contracts/solidity.series/simple.sol\":1444:1549  contract T {... */\n  mstore(0x40, 0x80)\n    /* \"contracts/solidity.series/simple.sol\":1486:1547  constructor(string memory _text){... */\n  callvalue\n  dup1\n  iszero\n  tag_1\n  jumpi\n  0x00\n  dup1\n  revert\ntag_1:\n  pop\n  mload(0x40)\n  sub(codesize, bytecodeSize)\n  dup1\n  bytecodeSize\n  dup4\n  codecopy\n  dup2\n  add\n  0x40\n  dup2\n  swap1\n  mstore\n  tag_2\n  swap2\n  tag_3\n  jump\t// in\ntag_2:\n    /* \"contracts/solidity.series/simple.sol\":1528:1532  text */\n  0x00\n    /* \"contracts/solidity.series/simple.sol\":1528:1540  text = _text */\n  tag_6\n    /* \"contracts/solidity.series/simple.sol\":1535:1540  _text */\n  dup3\n    /* \"contracts/solidity.series/simple.sol\":1528:1532  text */\n  dup3\n    /* \"contracts/solidity.series/simple.sol\":1528:1540  text = _text */\n  tag_7\n  jump\t// in\ntag_6:\n  pop\n    /* \"contracts/solidity.series/simple.sol\":1486:1547  constructor(string memory _text){... */\n  pop\n    /* \"contracts/solidity.series/simple.sol\":1444:1549  contract T {... */\n  jump(tag_14)\n    /* \"#utility.yul\":14:141   */\ntag_9:\n    /* \"#utility.yul\":75:85   */\n  0x4e487b71\n    /* \"#utility.yul\":70:73   */\n  0xe0\n    /* \"#utility.yul\":66:86   */\n  shl\n    /* \"#utility.yul\":63:64   */\n  0x00\n    /* \"#utility.yul\":56:87   */\n  mstore\n    /* \"#utility.yul\":106:110   */\n  0x41\n    /* \"#utility.yul\":103:104   */\n  0x04\n    /* \"#utility.yul\":96:111   */\n  mstore\n    /* \"#utility.yul\":130:134   */\n  0x24\n    /* \"#utility.yul\":127:128   */\n  0x00\n    /* \"#utility.yul\":120:135   */\n  revert\n    /* \"#utility.yul\":146:1188   */\ntag_3:\n    /* \"#utility.yul\":226:232   */\n  0x00\n    /* \"#utility.yul\":257:259   */\n  0x20\n    /* \"#utility.yul\":300:302   */\n  dup1\n    /* \"#utility.yul\":288:297   */\n  dup4\n    /* \"#utility.yul\":279:286   */\n  dup6\n    /* \"#utility.yul\":275:298   */\n  sub\n    /* \"#utility.yul\":271:303   */\n  slt\n    /* \"#utility.yul\":268:320   */\n  iszero\n  tag_17\n  jumpi\n    /* \"#utility.yul\":316:317   */\n  0x00\n    /* \"#utility.yul\":313:314   */\n  dup1\n    /* \"#utility.yul\":306:318   */\n  revert\n    /* \"#utility.yul\":268:320   */\ntag_17:\n    /* \"#utility.yul\":343:359   */\n  dup3\n  mload\n  sub(shl(0x40, 0x01), 0x01)\n    /* \"#utility.yul\":408:422   */\n  dup1\n  dup3\n  gt\n    /* \"#utility.yul\":405:439   */\n  iszero\n  tag_18\n  jumpi\n    /* \"#utility.yul\":435:436   */\n  0x00\n    /* \"#utility.yul\":432:433   */\n  dup1\n    /* \"#utility.yul\":425:437   */\n  revert\n    /* \"#utility.yul\":405:439   */\ntag_18:\n    /* \"#utility.yul\":473:479   */\n  dup2\n    /* \"#utility.yul\":462:471   */\n  dup6\n    /* \"#utility.yul\":458:480   */\n  add\n    /* \"#utility.yul\":448:480   */\n  swap2\n  pop\n    /* \"#utility.yul\":518:525   */\n  dup6\n    /* \"#utility.yul\":511:515   */\n  0x1f\n    /* \"#utility.yul\":507:509   */\n  dup4\n    /* \"#utility.yul\":503:516   */\n  add\n    /* \"#utility.yul\":499:526   */\n  slt\n    /* \"#utility.yul\":489:544   */\n  tag_19\n  jumpi\n    /* \"#utility.yul\":540:541   */\n  0x00\n    /* \"#utility.yul\":537:538   */\n  dup1\n    /* \"#utility.yul\":530:542   */\n  revert\n    /* \"#utility.yul\":489:544   */\ntag_19:\n    /* \"#utility.yul\":569:571   */\n  dup2\n    /* \"#utility.yul\":563:572   */\n  mload\n    /* \"#utility.yul\":591:593   */\n  dup2\n    /* \"#utility.yul\":587:589   */\n  dup2\n    /* \"#utility.yul\":584:594   */\n  gt\n    /* \"#utility.yul\":581:617   */\n  iszero\n  tag_21\n  jumpi\n    /* \"#utility.yul\":597:615   */\n  tag_21\n  tag_9\n  jump\t// in\ntag_21:\n    /* \"#utility.yul\":672:674   */\n  0x40\n    /* \"#utility.yul\":666:675   */\n  mload\n    /* \"#utility.yul\":640:642   */\n  0x1f\n    /* \"#utility.yul\":726:739   */\n  dup3\n  add\n  not(0x1f)\n    /* \"#utility.yul\":722:744   */\n  swap1\n  dup2\n  and\n    /* \"#utility.yul\":746:748   */\n  0x3f\n    /* \"#utility.yul\":718:749   */\n  add\n    /* \"#utility.yul\":714:754   */\n  and\n    /* \"#utility.yul\":702:755   */\n  dup2\n  add\n  swap1\n    /* \"#utility.yul\":770:788   */\n  dup4\n  dup3\n  gt\n    /* \"#utility.yul\":790:812   */\n  dup2\n  dup4\n  lt\n    /* \"#utility.yul\":767:813   */\n  or\n    /* \"#utility.yul\":764:836   */\n  iszero\n  tag_23\n  jumpi\n    /* \"#utility.yul\":816:834   */\n  tag_23\n  tag_9\n  jump\t// in\ntag_23:\n    /* \"#utility.yul\":856:866   */\n  dup2\n    /* \"#utility.yul\":852:854   */\n  0x40\n    /* \"#utility.yul\":845:867   */\n  mstore\n    /* \"#utility.yul\":891:893   */\n  dup3\n    /* \"#utility.yul\":883:889   */\n  dup2\n    /* \"#utility.yul\":876:894   */\n  mstore\n    /* \"#utility.yul\":931:938   */\n  dup9\n    /* \"#utility.yul\":926:928   */\n  dup7\n    /* \"#utility.yul\":921:923   */\n  dup5\n    /* \"#utility.yul\":917:919   */\n  dup8\n    /* \"#utility.yul\":913:924   */\n  add\n    /* \"#utility.yul\":909:929   */\n  add\n    /* \"#utility.yul\":906:939   */\n  gt\n    /* \"#utility.yul\":903:956   */\n  iszero\n  tag_24\n  jumpi\n    /* \"#utility.yul\":952:953   */\n  0x00\n    /* \"#utility.yul\":949:950   */\n  dup1\n    /* \"#utility.yul\":942:954   */\n  revert\n    /* \"#utility.yul\":903:956   */\ntag_24:\n    /* \"#utility.yul\":974:975   */\n  0x00\n    /* \"#utility.yul\":965:975   */\n  swap4\n  pop\n    /* \"#utility.yul\":984:1113   */\ntag_25:\n    /* \"#utility.yul\":998:1000   */\n  dup3\n    /* \"#utility.yul\":995:996   */\n  dup5\n    /* \"#utility.yul\":992:1001   */\n  lt\n    /* \"#utility.yul\":984:1113   */\n  iszero\n  tag_27\n  jumpi\n    /* \"#utility.yul\":1086:1096   */\n  dup5\n  dup5\n  add\n    /* \"#utility.yul\":1082:1101   */\n  dup7\n  add\n    /* \"#utility.yul\":1076:1102   */\n  mload\n    /* \"#utility.yul\":1055:1069   */\n  dup2\n  dup6\n  add\n    /* \"#utility.yul\":1051:1074   */\n  dup8\n  add\n    /* \"#utility.yul\":1044:1103   */\n  mstore\n    /* \"#utility.yul\":1009:1019   */\n  swap3\n  dup6\n  add\n  swap3\n    /* \"#utility.yul\":984:1113   */\n  jump(tag_25)\ntag_27:\n    /* \"#utility.yul\":1155:1156   */\n  0x00\n    /* \"#utility.yul\":1150:1152   */\n  dup7\n    /* \"#utility.yul\":1145:1147   */\n  dup5\n    /* \"#utility.yul\":1137:1143   */\n  dup4\n    /* \"#utility.yul\":1133:1148   */\n  add\n    /* \"#utility.yul\":1129:1153   */\n  add\n    /* \"#utility.yul\":1122:1157   */\n  mstore\n    /* \"#utility.yul\":1176:1182   */\n  dup1\n    /* \"#utility.yul\":1166:1182   */\n  swap7\n  pop\n  pop\n  pop\n  pop\n  pop\n  pop\n  pop\n    /* \"#utility.yul\":146:1188   */\n  swap3\n  swap2\n  pop\n  pop\n  jump\t// out\n    /* \"#utility.yul\":1193:1573   */\ntag_10:\n    /* \"#utility.yul\":1272:1273   */\n  0x01\n    /* \"#utility.yul\":1268:1280   */\n  dup2\n  dup2\n  shr\n  swap1\n    /* \"#utility.yul\":1315:1327   */\n  dup3\n  and\n  dup1\n    /* \"#utility.yul\":1336:1397   */\n  tag_29\n  jumpi\n    /* \"#utility.yul\":1390:1394   */\n  0x7f\n    /* \"#utility.yul\":1382:1388   */\n  dup3\n    /* \"#utility.yul\":1378:1395   */\n  and\n    /* \"#utility.yul\":1368:1395   */\n  swap2\n  pop\n    /* \"#utility.yul\":1336:1397   */\ntag_29:\n    /* \"#utility.yul\":1443:1445   */\n  0x20\n    /* \"#utility.yul\":1435:1441   */\n  dup3\n    /* \"#utility.yul\":1432:1446   */\n  lt\n    /* \"#utility.yul\":1412:1430   */\n  dup2\n    /* \"#utility.yul\":1409:1447   */\n  sub\n    /* \"#utility.yul\":1406:1567   */\n  tag_30\n  jumpi\n    /* \"#utility.yul\":1489:1499   */\n  0x4e487b71\n    /* \"#utility.yul\":1484:1487   */\n  0xe0\n    /* \"#utility.yul\":1480:1500   */\n  shl\n    /* \"#utility.yul\":1477:1478   */\n  0x00\n    /* \"#utility.yul\":1470:1501   */\n  mstore\n    /* \"#utility.yul\":1524:1528   */\n  0x22\n    /* \"#utility.yul\":1521:1522   */\n  0x04\n    /* \"#utility.yul\":1514:1529   */\n  mstore\n    /* \"#utility.yul\":1552:1556   */\n  0x24\n    /* \"#utility.yul\":1549:1550   */\n  0x00\n    /* \"#utility.yul\":1542:1557   */\n  revert\n    /* \"#utility.yul\":1406:1567   */\ntag_30:\n  pop\n    /* \"#utility.yul\":1193:1573   */\n  swap2\n  swap1\n  pop\n  jump\t// out\n    /* \"#utility.yul\":1704:2222   */\ntag_12:\n    /* \"#utility.yul\":1806:1808   */\n  0x1f\n    /* \"#utility.yul\":1801:1804   */\n  dup3\n    /* \"#utility.yul\":1798:1809   */\n  gt\n    /* \"#utility.yul\":1795:2216   */\n  iszero\n  tag_33\n  jumpi\n    /* \"#utility.yul\":1842:1847   */\n  dup1\n    /* \"#utility.yul\":1839:1840   */\n  0x00\n    /* \"#utility.yul\":1832:1848   */\n  mstore\n    /* \"#utility.yul\":1886:1890   */\n  0x20\n    /* \"#utility.yul\":1883:1884   */\n  0x00\n    /* \"#utility.yul\":1873:1891   */\n  keccak256\n    /* \"#utility.yul\":1956:1958   */\n  0x1f\n    /* \"#utility.yul\":1944:1954   */\n  dup5\n    /* \"#utility.yul\":1940:1959   */\n  add\n    /* \"#utility.yul\":1937:1938   */\n  0x05\n    /* \"#utility.yul\":1933:1960   */\n  shr\n    /* \"#utility.yul\":1927:1931   */\n  dup2\n    /* \"#utility.yul\":1923:1961   */\n  add\n    /* \"#utility.yul\":1992:1996   */\n  0x20\n    /* \"#utility.yul\":1980:1990   */\n  dup6\n    /* \"#utility.yul\":1977:1997   */\n  lt\n    /* \"#utility.yul\":1974:2021   */\n  iszero\n  tag_34\n  jumpi\n  pop\n    /* \"#utility.yul\":2015:2019   */\n  dup1\n    /* \"#utility.yul\":1974:2021   */\ntag_34:\n    /* \"#utility.yul\":2070:2072   */\n  0x1f\n    /* \"#utility.yul\":2065:2068   */\n  dup5\n    /* \"#utility.yul\":2061:2073   */\n  add\n    /* \"#utility.yul\":2058:2059   */\n  0x05\n    /* \"#utility.yul\":2054:2074   */\n  shr\n    /* \"#utility.yul\":2048:2052   */\n  dup3\n    /* \"#utility.yul\":2044:2075   */\n  add\n    /* \"#utility.yul\":2034:2075   */\n  swap2\n  pop\n    /* \"#utility.yul\":2125:2206   */\ntag_35:\n    /* \"#utility.yul\":2143:2145   */\n  dup2\n    /* \"#utility.yul\":2136:2141   */\n  dup2\n    /* \"#utility.yul\":2133:2146   */\n  lt\n    /* \"#utility.yul\":2125:2206   */\n  iszero\n  tag_37\n  jumpi\n    /* \"#utility.yul\":2202:2203   */\n  0x00\n    /* \"#utility.yul\":2188:2204   */\n  dup2\n  sstore\n    /* \"#utility.yul\":2169:2170   */\n  0x01\n    /* \"#utility.yul\":2158:2171   */\n  add\n    /* \"#utility.yul\":2125:2206   */\n  jump(tag_35)\ntag_37:\n    /* \"#utility.yul\":2129:2132   */\n  pop\n  pop\n    /* \"#utility.yul\":1795:2216   */\ntag_33:\n    /* \"#utility.yul\":1704:2222   */\n  pop\n  pop\n  pop\n  jump\t// out\n    /* \"#utility.yul\":2398:3743   */\ntag_7:\n    /* \"#utility.yul\":2518:2528   */\n  dup2\n  mload\n  sub(shl(0x40, 0x01), 0x01)\n    /* \"#utility.yul\":2540:2570   */\n  dup2\n  gt\n    /* \"#utility.yul\":2537:2593   */\n  iszero\n  tag_41\n  jumpi\n    /* \"#utility.yul\":2573:2591   */\n  tag_41\n  tag_9\n  jump\t// in\ntag_41:\n    /* \"#utility.yul\":2602:2699   */\n  tag_42\n    /* \"#utility.yul\":2692:2698   */\n  dup2\n    /* \"#utility.yul\":2652:2690   */\n  tag_43\n    /* \"#utility.yul\":2684:2688   */\n  dup5\n    /* \"#utility.yul\":2678:2689   */\n  sload\n    /* \"#utility.yul\":2652:2690   */\n  tag_10\n  jump\t// in\ntag_43:\n    /* \"#utility.yul\":2646:2650   */\n  dup5\n    /* \"#utility.yul\":2602:2699   */\n  tag_12\n  jump\t// in\ntag_42:\n    /* \"#utility.yul\":2754:2758   */\n  0x20\n  dup1\n    /* \"#utility.yul\":2811:2813   */\n  0x1f\n    /* \"#utility.yul\":2800:2814   */\n  dup4\n  gt\n    /* \"#utility.yul\":2828:2829   */\n  0x01\n    /* \"#utility.yul\":2823:3486   */\n  dup2\n  eq\n  tag_45\n  jumpi\n    /* \"#utility.yul\":3530:3531   */\n  0x00\n    /* \"#utility.yul\":3547:3553   */\n  dup5\n    /* \"#utility.yul\":3544:3633   */\n  iszero\n  tag_46\n  jumpi\n  pop\n    /* \"#utility.yul\":3599:3618   */\n  dup6\n  dup4\n  add\n    /* \"#utility.yul\":3593:3619   */\n  mload\n    /* \"#utility.yul\":3544:3633   */\ntag_46:\n  not(0x00)\n    /* \"#utility.yul\":2355:2356   */\n  0x03\n    /* \"#utility.yul\":2351:2362   */\n  dup7\n  swap1\n  shl\n    /* \"#utility.yul\":2347:2371   */\n  shr\n    /* \"#utility.yul\":2343:2372   */\n  not\n    /* \"#utility.yul\":2333:2373   */\n  and\n    /* \"#utility.yul\":2379:2380   */\n  0x01\n    /* \"#utility.yul\":2375:2386   */\n  dup6\n  swap1\n  shl\n    /* \"#utility.yul\":2330:2387   */\n  or\n    /* \"#utility.yul\":3646:3727   */\n  dup6\n  sstore\n    /* \"#utility.yul\":2793:3737   */\n  jump(tag_44)\n    /* \"#utility.yul\":2823:3486   */\ntag_45:\n    /* \"#utility.yul\":1651:1652   */\n  0x00\n    /* \"#utility.yul\":1644:1658   */\n  dup6\n  dup2\n  mstore\n    /* \"#utility.yul\":1688:1692   */\n  0x20\n    /* \"#utility.yul\":1675:1693   */\n  dup2\n  keccak256\n  not(0x1f)\n    /* \"#utility.yul\":2859:2879   */\n  dup7\n  and\n  swap2\n    /* \"#utility.yul\":2977:3213   */\ntag_49:\n    /* \"#utility.yul\":2991:2998   */\n  dup3\n    /* \"#utility.yul\":2988:2989   */\n  dup2\n    /* \"#utility.yul\":2985:2999   */\n  lt\n    /* \"#utility.yul\":2977:3213   */\n  iszero\n  tag_51\n  jumpi\n    /* \"#utility.yul\":3080:3099   */\n  dup9\n  dup7\n  add\n    /* \"#utility.yul\":3074:3100   */\n  mload\n    /* \"#utility.yul\":3059:3101   */\n  dup3\n  sstore\n    /* \"#utility.yul\":3172:3199   */\n  swap5\n  dup5\n  add\n  swap5\n    /* \"#utility.yul\":3140:3141   */\n  0x01\n    /* \"#utility.yul\":3128:3142   */\n  swap1\n  swap2\n  add\n  swap1\n    /* \"#utility.yul\":3007:3026   */\n  dup5\n  add\n    /* \"#utility.yul\":2977:3213   */\n  jump(tag_49)\ntag_51:\n    /* \"#utility.yul\":2981:2984   */\n  pop\n    /* \"#utility.yul\":3241:3247   */\n  dup6\n    /* \"#utility.yul\":3232:3239   */\n  dup3\n    /* \"#utility.yul\":3229:3248   */\n  lt\n    /* \"#utility.yul\":3226:3427   */\n  iszero\n  tag_52\n  jumpi\n    /* \"#utility.yul\":3302:3321   */\n  dup8\n  dup6\n  add\n    /* \"#utility.yul\":3296:3322   */\n  mload\n  not(0x00)\n    /* \"#utility.yul\":3385:3386   */\n  0x03\n    /* \"#utility.yul\":3381:3395   */\n  dup9\n  swap1\n  shl\n    /* \"#utility.yul\":3397:3400   */\n  0xf8\n    /* \"#utility.yul\":3377:3401   */\n  and\n    /* \"#utility.yul\":3373:3410   */\n  shr\n    /* \"#utility.yul\":3369:3411   */\n  not\n    /* \"#utility.yul\":3354:3412   */\n  and\n    /* \"#utility.yul\":3339:3413   */\n  dup2\n  sstore\n    /* \"#utility.yul\":3226:3427   */\ntag_52:\n  pop\n  pop\n    /* \"#utility.yul\":3473:3474   */\n  0x01\n    /* \"#utility.yul\":3464:3470   */\n  dup5\n    /* \"#utility.yul\":3461:3462   */\n  0x01\n    /* \"#utility.yul\":3457:3471   */\n  shl\n    /* \"#utility.yul\":3453:3475   */\n  add\n    /* \"#utility.yul\":3447:3451   */\n  dup6\n    /* \"#utility.yul\":3440:3476   */\n  sstore\n    /* \"#utility.yul\":2793:3737   */\ntag_44:\n  pop\n  pop\n  pop\n  pop\n    /* \"#utility.yul\":2398:3743   */\n  pop\n  pop\n  jump\t// out\ntag_14:\n    /* \"contracts/solidity.series/simple.sol\":1444:1549  contract T {... */\n  dataSize(sub_0)\n  dup1\n  dataOffset(sub_0)\n  0x00\n  codecopy\n  0x00\n  return\nstop\n\nsub_0: assembly {\n        /* \"contracts/solidity.series/simple.sol\":1444:1549  contract T {... */\n      mstore(0x40, 0x80)\n      callvalue\n      dup1\n      iszero\n      tag_1\n      jumpi\n      0x00\n      dup1\n      revert\n    tag_1:\n      pop\n      jumpi(tag_2, lt(calldatasize, 0x04))\n      shr(0xe0, calldataload(0x00))\n      dup1\n      0x1f1bd692\n      eq\n      tag_3\n      jumpi\n    tag_2:\n      0x00\n      dup1\n      revert\n        /* \"contracts/solidity.series/simple.sol\":1461:1479  string public text */\n    tag_3:\n      tag_4\n      tag_5\n      jump\t// in\n    tag_4:\n      mload(0x40)\n      tag_6\n      swap2\n      swap1\n      tag_7\n      jump\t// in\n    tag_6:\n      mload(0x40)\n      dup1\n      swap2\n      sub\n      swap1\n      return\n    tag_5:\n      0x00\n      dup1\n      sload\n      tag_8\n      swap1\n      tag_9\n      jump\t// in\n    tag_8:\n      dup1\n      0x1f\n      add\n      0x20\n      dup1\n      swap2\n      div\n      mul\n      0x20\n      add\n      mload(0x40)\n      swap1\n      dup2\n      add\n      0x40\n      mstore\n      dup1\n      swap3\n      swap2\n      swap1\n      dup2\n      dup2\n      mstore\n      0x20\n      add\n      dup3\n      dup1\n      sload\n      tag_10\n      swap1\n      tag_9\n      jump\t// in\n    tag_10:\n      dup1\n      iszero\n      tag_11\n      jumpi\n      dup1\n      0x1f\n      lt\n      tag_12\n      jumpi\n      0x0100\n      dup1\n      dup4\n      sload\n      div\n      mul\n      dup4\n      mstore\n      swap2\n      0x20\n      add\n      swap2\n      jump(tag_11)\n    tag_12:\n      dup3\n      add\n      swap2\n      swap1\n      0x00\n      mstore\n      keccak256(0x00, 0x20)\n      swap1\n    tag_13:\n      dup2\n      sload\n      dup2\n      mstore\n      swap1\n      0x01\n      add\n      swap1\n      0x20\n      add\n      dup1\n      dup4\n      gt\n      tag_13\n      jumpi\n      dup3\n      swap1\n      sub\n      0x1f\n      and\n      dup3\n      add\n      swap2\n    tag_11:\n      pop\n      pop\n      pop\n      pop\n      pop\n      dup2\n      jump\t// out\n        /* \"#utility.yul\":14:562   */\n    tag_7:\n        /* \"#utility.yul\":126:130   */\n      0x00\n        /* \"#utility.yul\":155:157   */\n      0x20\n        /* \"#utility.yul\":184:186   */\n      dup1\n        /* \"#utility.yul\":173:182   */\n      dup4\n        /* \"#utility.yul\":166:187   */\n      mstore\n        /* \"#utility.yul\":216:222   */\n      dup4\n        /* \"#utility.yul\":210:223   */\n      mload\n        /* \"#utility.yul\":259:265   */\n      dup1\n        /* \"#utility.yul\":254:256   */\n      0x20\n        /* \"#utility.yul\":243:252   */\n      dup6\n        /* \"#utility.yul\":239:257   */\n      add\n        /* \"#utility.yul\":232:266   */\n      mstore\n        /* \"#utility.yul\":284:285   */\n      0x00\n        /* \"#utility.yul\":294:434   */\n    tag_16:\n        /* \"#utility.yul\":308:314   */\n      dup2\n        /* \"#utility.yul\":305:306   */\n      dup2\n        /* \"#utility.yul\":302:315   */\n      lt\n        /* \"#utility.yul\":294:434   */\n      iszero\n      tag_18\n      jumpi\n        /* \"#utility.yul\":403:417   */\n      dup6\n      dup2\n      add\n        /* \"#utility.yul\":399:422   */\n      dup4\n      add\n        /* \"#utility.yul\":393:423   */\n      mload\n        /* \"#utility.yul\":369:386   */\n      dup6\n      dup3\n      add\n        /* \"#utility.yul\":388:390   */\n      0x40\n        /* \"#utility.yul\":365:391   */\n      add\n        /* \"#utility.yul\":358:424   */\n      mstore\n        /* \"#utility.yul\":323:333   */\n      dup3\n      add\n        /* \"#utility.yul\":294:434   */\n      jump(tag_16)\n    tag_18:\n        /* \"#utility.yul\":298:301   */\n      pop\n        /* \"#utility.yul\":483:484   */\n      0x00\n        /* \"#utility.yul\":478:480   */\n      0x40\n        /* \"#utility.yul\":469:475   */\n      dup3\n        /* \"#utility.yul\":458:467   */\n      dup7\n        /* \"#utility.yul\":454:476   */\n      add\n        /* \"#utility.yul\":450:481   */\n      add\n        /* \"#utility.yul\":443:485   */\n      mstore\n        /* \"#utility.yul\":553:555   */\n      0x40\n        /* \"#utility.yul\":546:548   */\n      0x1f\n        /* \"#utility.yul\":542:549   */\n      not\n        /* \"#utility.yul\":537:539   */\n      0x1f\n        /* \"#utility.yul\":529:535   */\n      dup4\n        /* \"#utility.yul\":525:540   */\n      add\n        /* \"#utility.yul\":521:550   */\n      and\n        /* \"#utility.yul\":510:519   */\n      dup6\n        /* \"#utility.yul\":506:551   */\n      add\n        /* \"#utility.yul\":502:556   */\n      add\n        /* \"#utility.yul\":494:556   */\n      swap3\n      pop\n      pop\n      pop\n        /* \"#utility.yul\":14:562   */\n      swap3\n      swap2\n      pop\n      pop\n      jump\t// out\n        /* \"#utility.yul\":567:947   */\n    tag_9:\n        /* \"#utility.yul\":646:647   */\n      0x01\n        /* \"#utility.yul\":642:654   */\n      dup2\n      dup2\n      shr\n      swap1\n        /* \"#utility.yul\":689:701   */\n      dup3\n      and\n      dup1\n        /* \"#utility.yul\":710:771   */\n      tag_20\n      jumpi\n        /* \"#utility.yul\":764:768   */\n      0x7f\n        /* \"#utility.yul\":756:762   */\n      dup3\n        /* \"#utility.yul\":752:769   */\n      and\n        /* \"#utility.yul\":742:769   */\n      swap2\n      pop\n        /* \"#utility.yul\":710:771   */\n    tag_20:\n        /* \"#utility.yul\":817:819   */\n      0x20\n        /* \"#utility.yul\":809:815   */\n      dup3\n        /* \"#utility.yul\":806:820   */\n      lt\n        /* \"#utility.yul\":786:804   */\n      dup2\n        /* \"#utility.yul\":783:821   */\n      sub\n        /* \"#utility.yul\":780:941   */\n      tag_21\n      jumpi\n        /* \"#utility.yul\":863:873   */\n      0x4e487b71\n        /* \"#utility.yul\":858:861   */\n      0xe0\n        /* \"#utility.yul\":854:874   */\n      shl\n        /* \"#utility.yul\":851:852   */\n      0x00\n        /* \"#utility.yul\":844:875   */\n      mstore\n        /* \"#utility.yul\":898:902   */\n      0x22\n        /* \"#utility.yul\":895:896   */\n      0x04\n        /* \"#utility.yul\":888:903   */\n      mstore\n        /* \"#utility.yul\":926:930   */\n      0x24\n        /* \"#utility.yul\":923:924   */\n      0x00\n        /* \"#utility.yul\":916:931   */\n      revert\n        /* \"#utility.yul\":780:941   */\n    tag_21:\n      pop\n        /* \"#utility.yul\":567:947   */\n      swap2\n      swap1\n      pop\n      jump\t// out\n\n    auxdata: 0xa2646970667358221220ba461b948d4d7ae05dfdb142ee269f83b6049ce4af0412063ddcb780776d630364736f6c63430008160033\n}\n",
				"bytecode": {
					"linkReferences": {},
					"object": "608060405234801561000f575f80fd5b506040516103f63803806103f683398101604081905261002e91610054565b5f610039828261019a565b5050610259565b634e487b7160e01b5f52604160045260245ffd5b5f6020808385031215610065575f80fd5b82516001600160401b038082111561007b575f80fd5b818501915085601f83011261008e575f80fd5b8151818111156100a0576100a0610040565b604051601f8201601f19908116603f011681019083821181831017156100c8576100c8610040565b8160405282815288868487010111156100df575f80fd5b5f93505b8284101561010057848401860151818501870152928501926100e3565b5f86848301015280965050505050505092915050565b600181811c9082168061012a57607f821691505b60208210810361014857634e487b7160e01b5f52602260045260245ffd5b50919050565b601f82111561019557805f5260205f20601f840160051c810160208510156101735750805b601f840160051c820191505b81811015610192575f815560010161017f565b50505b505050565b81516001600160401b038111156101b3576101b3610040565b6101c7816101c18454610116565b8461014e565b602080601f8311600181146101fa575f84156101e35750858301515b5f19600386901b1c1916600185901b178555610251565b5f85815260208120601f198616915b8281101561022857888601518255948401946001909101908401610209565b508582101561024557878501515f19600388901b60f8161c191681555b505060018460011b0185555b505050505050565b610190806102665f395ff3fe608060405234801561000f575f80fd5b5060043610610029575f3560e01c80631f1bd6921461002d575b5f80fd5b61003561004b565b60405161004291906100d6565b60405180910390f35b5f805461005790610122565b80601f016020809104026020016040519081016040528092919081815260200182805461008390610122565b80156100ce5780601f106100a5576101008083540402835291602001916100ce565b820191905f5260205f20905b8154815290600101906020018083116100b157829003601f168201915b505050505081565b5f602080835283518060208501525f5b81811015610102578581018301518582016040015282016100e6565b505f604082860101526040601f19601f8301168501019250505092915050565b600181811c9082168061013657607f821691505b60208210810361015457634e487b7160e01b5f52602260045260245ffd5b5091905056fea2646970667358221220ba461b948d4d7ae05dfdb142ee269f83b6049ce4af0412063ddcb780776d630364736f6c63430008160033",
					"opcodes": "PUSH1 0x80 PUSH1 0x40 MSTORE CALLVALUE DUP1 ISZERO PUSH2 0xF JUMPI PUSH0 DUP1 REVERT JUMPDEST POP PUSH1 0x40 MLOAD PUSH2 0x3F6 CODESIZE SUB DUP1 PUSH2 0x3F6 DUP4 CODECOPY DUP2 ADD PUSH1 0x40 DUP2 SWAP1 MSTORE PUSH2 0x2E SWAP2 PUSH2 0x54 JUMP JUMPDEST PUSH0 PUSH2 0x39 DUP3 DUP3 PUSH2 0x19A JUMP JUMPDEST POP POP PUSH2 0x259 JUMP JUMPDEST PUSH4 0x4E487B71 PUSH1 0xE0 SHL PUSH0 MSTORE PUSH1 0x41 PUSH1 0x4 MSTORE PUSH1 0x24 PUSH0 REVERT JUMPDEST PUSH0 PUSH1 0x20 DUP1 DUP4 DUP6 SUB SLT ISZERO PUSH2 0x65 JUMPI PUSH0 DUP1 REVERT JUMPDEST DUP3 MLOAD PUSH1 0x1 PUSH1 0x1 PUSH1 0x40 SHL SUB DUP1 DUP3 GT ISZERO PUSH2 0x7B JUMPI PUSH0 DUP1 REVERT JUMPDEST DUP2 DUP6 ADD SWAP2 POP DUP6 PUSH1 0x1F DUP4 ADD SLT PUSH2 0x8E JUMPI PUSH0 DUP1 REVERT JUMPDEST DUP2 MLOAD DUP2 DUP2 GT ISZERO PUSH2 0xA0 JUMPI PUSH2 0xA0 PUSH2 0x40 JUMP JUMPDEST PUSH1 0x40 MLOAD PUSH1 0x1F DUP3 ADD PUSH1 0x1F NOT SWAP1 DUP2 AND PUSH1 0x3F ADD AND DUP2 ADD SWAP1 DUP4 DUP3 GT DUP2 DUP4 LT OR ISZERO PUSH2 0xC8 JUMPI PUSH2 0xC8 PUSH2 0x40 JUMP JUMPDEST DUP2 PUSH1 0x40 MSTORE DUP3 DUP2 MSTORE DUP9 DUP7 DUP5 DUP8 ADD ADD GT ISZERO PUSH2 0xDF JUMPI PUSH0 DUP1 REVERT JUMPDEST PUSH0 SWAP4 POP JUMPDEST DUP3 DUP5 LT ISZERO PUSH2 0x100 JUMPI DUP5 DUP5 ADD DUP7 ADD MLOAD DUP2 DUP6 ADD DUP8 ADD MSTORE SWAP3 DUP6 ADD SWAP3 PUSH2 0xE3 JUMP JUMPDEST PUSH0 DUP7 DUP5 DUP4 ADD ADD MSTORE DUP1 SWAP7 POP POP POP POP POP POP POP SWAP3 SWAP2 POP POP JUMP JUMPDEST PUSH1 0x1 DUP2 DUP2 SHR SWAP1 DUP3 AND DUP1 PUSH2 0x12A JUMPI PUSH1 0x7F DUP3 AND SWAP2 POP JUMPDEST PUSH1 0x20 DUP3 LT DUP2 SUB PUSH2 0x148 JUMPI PUSH4 0x4E487B71 PUSH1 0xE0 SHL PUSH0 MSTORE PUSH1 0x22 PUSH1 0x4 MSTORE PUSH1 0x24 PUSH0 REVERT JUMPDEST POP SWAP2 SWAP1 POP JUMP JUMPDEST PUSH1 0x1F DUP3 GT ISZERO PUSH2 0x195 JUMPI DUP1 PUSH0 MSTORE PUSH1 0x20 PUSH0 KECCAK256 PUSH1 0x1F DUP5 ADD PUSH1 0x5 SHR DUP2 ADD PUSH1 0x20 DUP6 LT ISZERO PUSH2 0x173 JUMPI POP DUP1 JUMPDEST PUSH1 0x1F DUP5 ADD PUSH1 0x5 SHR DUP3 ADD SWAP2 POP JUMPDEST DUP2 DUP2 LT ISZERO PUSH2 0x192 JUMPI PUSH0 DUP2 SSTORE PUSH1 0x1 ADD PUSH2 0x17F JUMP JUMPDEST POP POP JUMPDEST POP POP POP JUMP JUMPDEST DUP2 MLOAD PUSH1 0x1 PUSH1 0x1 PUSH1 0x40 SHL SUB DUP2 GT ISZERO PUSH2 0x1B3 JUMPI PUSH2 0x1B3 PUSH2 0x40 JUMP JUMPDEST PUSH2 0x1C7 DUP2 PUSH2 0x1C1 DUP5 SLOAD PUSH2 0x116 JUMP JUMPDEST DUP5 PUSH2 0x14E JUMP JUMPDEST PUSH1 0x20 DUP1 PUSH1 0x1F DUP4 GT PUSH1 0x1 DUP2 EQ PUSH2 0x1FA JUMPI PUSH0 DUP5 ISZERO PUSH2 0x1E3 JUMPI POP DUP6 DUP4 ADD MLOAD JUMPDEST PUSH0 NOT PUSH1 0x3 DUP7 SWAP1 SHL SHR NOT AND PUSH1 0x1 DUP6 SWAP1 SHL OR DUP6 SSTORE PUSH2 0x251 JUMP JUMPDEST PUSH0 DUP6 DUP2 MSTORE PUSH1 0x20 DUP2 KECCAK256 PUSH1 0x1F NOT DUP7 AND SWAP2 JUMPDEST DUP3 DUP2 LT ISZERO PUSH2 0x228 JUMPI DUP9 DUP7 ADD MLOAD DUP3 SSTORE SWAP5 DUP5 ADD SWAP5 PUSH1 0x1 SWAP1 SWAP2 ADD SWAP1 DUP5 ADD PUSH2 0x209 JUMP JUMPDEST POP DUP6 DUP3 LT ISZERO PUSH2 0x245 JUMPI DUP8 DUP6 ADD MLOAD PUSH0 NOT PUSH1 0x3 DUP9 SWAP1 SHL PUSH1 0xF8 AND SHR NOT AND DUP2 SSTORE JUMPDEST POP POP PUSH1 0x1 DUP5 PUSH1 0x1 SHL ADD DUP6 SSTORE JUMPDEST POP POP POP POP POP POP JUMP JUMPDEST PUSH2 0x190 DUP1 PUSH2 0x266 PUSH0 CODECOPY PUSH0 RETURN INVALID PUSH1 0x80 PUSH1 0x40 MSTORE CALLVALUE DUP1 ISZERO PUSH2 0xF JUMPI PUSH0 DUP1 REVERT JUMPDEST POP PUSH1 0x4 CALLDATASIZE LT PUSH2 0x29 JUMPI PUSH0 CALLDATALOAD PUSH1 0xE0 SHR DUP1 PUSH4 0x1F1BD692 EQ PUSH2 0x2D JUMPI JUMPDEST PUSH0 DUP1 REVERT JUMPDEST PUSH2 0x35 PUSH2 0x4B JUMP JUMPDEST PUSH1 0x40 MLOAD PUSH2 0x42 SWAP2 SWAP1 PUSH2 0xD6 JUMP JUMPDEST PUSH1 0x40 MLOAD DUP1 SWAP2 SUB SWAP1 RETURN JUMPDEST PUSH0 DUP1 SLOAD PUSH2 0x57 SWAP1 PUSH2 0x122 JUMP JUMPDEST DUP1 PUSH1 0x1F ADD PUSH1 0x20 DUP1 SWAP2 DIV MUL PUSH1 0x20 ADD PUSH1 0x40 MLOAD SWAP1 DUP2 ADD PUSH1 0x40 MSTORE DUP1 SWAP3 SWAP2 SWAP1 DUP2 DUP2 MSTORE PUSH1 0x20 ADD DUP3 DUP1 SLOAD PUSH2 0x83 SWAP1 PUSH2 0x122 JUMP JUMPDEST DUP1 ISZERO PUSH2 0xCE JUMPI DUP1 PUSH1 0x1F LT PUSH2 0xA5 JUMPI PUSH2 0x100 DUP1 DUP4 SLOAD DIV MUL DUP4 MSTORE SWAP2 PUSH1 0x20 ADD SWAP2 PUSH2 0xCE JUMP JUMPDEST DUP3 ADD SWAP2 SWAP1 PUSH0 MSTORE PUSH1 0x20 PUSH0 KECCAK256 SWAP1 JUMPDEST DUP2 SLOAD DUP2 MSTORE SWAP1 PUSH1 0x1 ADD SWAP1 PUSH1 0x20 ADD DUP1 DUP4 GT PUSH2 0xB1 JUMPI DUP3 SWAP1 SUB PUSH1 0x1F AND DUP3 ADD SWAP2 JUMPDEST POP POP POP POP POP DUP2 JUMP JUMPDEST PUSH0 PUSH1 0x20 DUP1 DUP4 MSTORE DUP4 MLOAD DUP1 PUSH1 0x20 DUP6 ADD MSTORE PUSH0 JUMPDEST DUP2 DUP2 LT ISZERO PUSH2 0x102 JUMPI DUP6 DUP2 ADD DUP4 ADD MLOAD DUP6 DUP3 ADD PUSH1 0x40 ADD MSTORE DUP3 ADD PUSH2 0xE6 JUMP JUMPDEST POP PUSH0 PUSH1 0x40 DUP3 DUP7 ADD ADD MSTORE PUSH1 0x40 PUSH1 0x1F NOT PUSH1 0x1F DUP4 ADD AND DUP6 ADD ADD SWAP3 POP POP POP SWAP3 SWAP2 POP POP JUMP JUMPDEST PUSH1 0x1 DUP2 DUP2 SHR SWAP1 DUP3 AND DUP1 PUSH2 0x136 JUMPI PUSH1 0x7F DUP3 AND SWAP2 POP JUMPDEST PUSH1 0x20 DUP3 LT DUP2 SUB PUSH2 0x154 JUMPI PUSH4 0x4E487B71 PUSH1 0xE0 SHL PUSH0 MSTORE PUSH1 0x22 PUSH1 0x4 MSTORE PUSH1 0x24 PUSH0 REVERT JUMPDEST POP SWAP2 SWAP1 POP JUMP INVALID LOG2 PUSH5 0x6970667358 0x22 SLT KECCAK256 0xBA CHAINID SHL SWAP5 DUP14 0x4D PUSH27 0xE05DFDB142EE269F83B6049CE4AF0412063DDCB780776D63036473 PUSH16 0x6C634300081600330000000000000000 "
				},
				"gasEstimates": {
					"creation": {
						"codeDepositCost": "80000",
						"executionCost": "infinite",
						"totalCost": "infinite"
					},
					"external": {
						"text()": "infinite"
					}
				},
				"methodIdentifiers": {
					"text()": "1f1bd692"
				}
			},
			"storageLayout": {
				"storage": [
					{
						"astId": 133,
						"contract": "contracts/solidity.series/simple.sol:T",
						"label": "text",
						"offset": 0,
						"slot": "0",
						"type": "t_string_storage"
					}
				],
				"types": {
					"t_string_storage": {
						"encoding": "bytes",
						"label": "string",
						"numberOfBytes": "32"
					}
				}
			},
			"userdoc": {
				"kind": "user",
				"methods": {},
				"version": 1
			}
		}
	}
}