{
	"contracts/solidity.series/simple.sol": {
		"V": {
			"abi": [
				{
					"inputs": [
						{
							"internalType": "string",
							"name": "_name",
							"type": "string"
						},
						{
							"internalType": "string",
							"name": "_text",
							"type": "string"
						}
					],
					"stateMutability": "nonpayable",
					"type": "constructor"
				},
				{
					"inputs": [],
					"name": "name",
					"outputs": [
						{
							"internalType": "string",
							"name": "",
							"type": "string"
						}
					],
					"stateMutability": "view",
					"type": "function"
				},
				{
					"inputs": [],
					"name": "text",
					"outputs": [
						{
							"internalType": "string",
							"name": "",
							"type": "string"
						}
					],
					"stateMutability": "view",
					"type": "function"
				}
			],
			"devdoc": {
				"kind": "dev",
				"methods": {},
				"version": 1
			},
			"evm": {
				"assembly": "    /* \"contracts/solidity.series/simple.sol\":1781:1885  contract V is S,T{... */\n  mstore(0x40, 0x80)\n    /* \"contracts/solidity.series/simple.sol\":1804:1883  constructor(string memory _name,string memory _text) S(_name) T(_text) {... */\n  callvalue\n  dup1\n  iszero\n  tag_1\n  jumpi\n  0x00\n  dup1\n  revert\ntag_1:\n  pop\n  mload(0x40)\n  sub(codesize, bytecodeSize)\n  dup1\n  bytecodeSize\n  dup4\n  codecopy\n  dup2\n  add\n  0x40\n  dup2\n  swap1\n  mstore\n  tag_2\n  swap2\n  tag_3\n  jump\t// in\ntag_2:\n    /* \"contracts/solidity.series/simple.sol\":1868:1873  _text */\n  dup1\n    /* \"contracts/solidity.series/simple.sol\":1859:1864  _name */\n  dup3\n    /* \"contracts/solidity.series/simple.sol\":1421:1425  name */\n  0x00\n    /* \"contracts/solidity.series/simple.sol\":1421:1433  name = _name */\n  tag_8\n    /* \"contracts/solidity.series/simple.sol\":1859:1864  _name */\n  dup3\n    /* \"contracts/solidity.series/simple.sol\":1421:1425  name */\n  dup3\n    /* \"contracts/solidity.series/simple.sol\":1421:1433  name = _name */\n  tag_9\n  jump\t// in\ntag_8:\n  pop\n    /* \"contracts/solidity.series/simple.sol\":1528:1532  text */\n  0x01\n  swap1\n  pop\n    /* \"contracts/solidity.series/simple.sol\":1528:1540  text = _text */\n  tag_11\n    /* \"contracts/solidity.series/simple.sol\":1535:1540  _text */\n  dup3\n    /* \"contracts/solidity.series/simple.sol\":1528:1532  text */\n  dup3\n    /* \"contracts/solidity.series/simple.sol\":1528:1540  text = _text */\n  tag_9\n  jump\t// in\ntag_11:\n  pop\n    /* \"contracts/solidity.series/simple.sol\":1486:1547  constructor(string memory _text){... */\n  pop\n    /* \"contracts/solidity.series/simple.sol\":1804:1883  constructor(string memory _name,string memory _text) S(_name) T(_text) {... */\n  pop\n  pop\n    /* \"contracts/solidity.series/simple.sol\":1781:1885  contract V is S,T{... */\n  jump(tag_20)\n    /* \"#utility.yul\":14:141   */\ntag_14:\n    /* \"#utility.yul\":75:85   */\n  0x4e487b71\n    /* \"#utility.yul\":70:73   */\n  0xe0\n    /* \"#utility.yul\":66:86   */\n  shl\n    /* \"#utility.yul\":63:64   */\n  0x00\n    /* \"#utility.yul\":56:87   */\n  mstore\n    /* \"#utility.yul\":106:110   */\n  0x41\n    /* \"#utility.yul\":103:104   */\n  0x04\n    /* \"#utility.yul\":96:111   */\n  mstore\n    /* \"#utility.yul\":130:134   */\n  0x24\n    /* \"#utility.yul\":127:128   */\n  0x00\n    /* \"#utility.yul\":120:135   */\n  revert\n    /* \"#utility.yul\":146:990   */\ntag_15:\n    /* \"#utility.yul\":200:205   */\n  0x00\n    /* \"#utility.yul\":253:256   */\n  dup3\n    /* \"#utility.yul\":246:250   */\n  0x1f\n    /* \"#utility.yul\":238:244   */\n  dup4\n    /* \"#utility.yul\":234:251   */\n  add\n    /* \"#utility.yul\":230:257   */\n  slt\n    /* \"#utility.yul\":220:275   */\n  tag_23\n  jumpi\n    /* \"#utility.yul\":271:272   */\n  0x00\n    /* \"#utility.yul\":268:269   */\n  dup1\n    /* \"#utility.yul\":261:273   */\n  revert\n    /* \"#utility.yul\":220:275   */\ntag_23:\n    /* \"#utility.yul\":294:307   */\n  dup2\n  mload\n  sub(shl(0x40, 0x01), 0x01)\n    /* \"#utility.yul\":356:366   */\n  dup1\n  dup3\n  gt\n    /* \"#utility.yul\":353:389   */\n  iszero\n  tag_25\n  jumpi\n    /* \"#utility.yul\":369:387   */\n  tag_25\n  tag_14\n  jump\t// in\ntag_25:\n    /* \"#utility.yul\":444:446   */\n  0x40\n    /* \"#utility.yul\":438:447   */\n  mload\n    /* \"#utility.yul\":412:414   */\n  0x1f\n    /* \"#utility.yul\":498:511   */\n  dup4\n  add\n  not(0x1f)\n    /* \"#utility.yul\":494:516   */\n  swap1\n  dup2\n  and\n    /* \"#utility.yul\":518:520   */\n  0x3f\n    /* \"#utility.yul\":490:521   */\n  add\n    /* \"#utility.yul\":486:526   */\n  and\n    /* \"#utility.yul\":474:527   */\n  dup2\n  add\n  swap1\n    /* \"#utility.yul\":542:560   */\n  dup3\n  dup3\n  gt\n    /* \"#utility.yul\":562:584   */\n  dup2\n  dup4\n  lt\n    /* \"#utility.yul\":539:585   */\n  or\n    /* \"#utility.yul\":536:608   */\n  iszero\n  tag_27\n  jumpi\n    /* \"#utility.yul\":588:606   */\n  tag_27\n  tag_14\n  jump\t// in\ntag_27:\n    /* \"#utility.yul\":628:638   */\n  dup2\n    /* \"#utility.yul\":624:626   */\n  0x40\n    /* \"#utility.yul\":617:639   */\n  mstore\n    /* \"#utility.yul\":663:665   */\n  dup4\n    /* \"#utility.yul\":655:661   */\n  dup2\n    /* \"#utility.yul\":648:666   */\n  mstore\n    /* \"#utility.yul\":685:689   */\n  0x20\n    /* \"#utility.yul\":675:689   */\n  swap3\n  pop\n    /* \"#utility.yul\":732:735   */\n  dup7\n    /* \"#utility.yul\":725:729   */\n  0x20\n    /* \"#utility.yul\":720:722   */\n  dup6\n    /* \"#utility.yul\":712:718   */\n  dup9\n    /* \"#utility.yul\":708:723   */\n  add\n    /* \"#utility.yul\":704:730   */\n  add\n    /* \"#utility.yul\":701:736   */\n  gt\n    /* \"#utility.yul\":698:753   */\n  iszero\n  tag_28\n  jumpi\n    /* \"#utility.yul\":749:750   */\n  0x00\n    /* \"#utility.yul\":746:747   */\n  dup1\n    /* \"#utility.yul\":739:751   */\n  revert\n    /* \"#utility.yul\":698:753   */\ntag_28:\n    /* \"#utility.yul\":771:772   */\n  0x00\n    /* \"#utility.yul\":762:772   */\n  swap2\n  pop\n    /* \"#utility.yul\":781:914   */\ntag_29:\n    /* \"#utility.yul\":795:797   */\n  dup4\n    /* \"#utility.yul\":792:793   */\n  dup3\n    /* \"#utility.yul\":789:798   */\n  lt\n    /* \"#utility.yul\":781:914   */\n  iszero\n  tag_31\n  jumpi\n    /* \"#utility.yul\":883:897   */\n  dup6\n  dup3\n  add\n    /* \"#utility.yul\":879:902   */\n  dup4\n  add\n    /* \"#utility.yul\":873:903   */\n  mload\n    /* \"#utility.yul\":852:866   */\n  dup2\n  dup4\n  add\n    /* \"#utility.yul\":848:871   */\n  dup5\n  add\n    /* \"#utility.yul\":841:904   */\n  mstore\n    /* \"#utility.yul\":806:816   */\n  swap1\n  dup3\n  add\n  swap1\n    /* \"#utility.yul\":781:914   */\n  jump(tag_29)\ntag_31:\n    /* \"#utility.yul\":958:959   */\n  0x00\n    /* \"#utility.yul\":951:955   */\n  0x20\n    /* \"#utility.yul\":946:948   */\n  dup6\n    /* \"#utility.yul\":938:944   */\n  dup4\n    /* \"#utility.yul\":934:949   */\n  add\n    /* \"#utility.yul\":930:956   */\n  add\n    /* \"#utility.yul\":923:960   */\n  mstore\n    /* \"#utility.yul\":978:984   */\n  dup1\n    /* \"#utility.yul\":969:984   */\n  swap5\n  pop\n  pop\n  pop\n  pop\n  pop\n    /* \"#utility.yul\":146:990   */\n  swap3\n  swap2\n  pop\n  pop\n  jump\t// out\n    /* \"#utility.yul\":995:1557   */\ntag_3:\n    /* \"#utility.yul\":1094:1100   */\n  0x00\n    /* \"#utility.yul\":1102:1108   */\n  dup1\n    /* \"#utility.yul\":1155:1157   */\n  0x40\n    /* \"#utility.yul\":1143:1152   */\n  dup4\n    /* \"#utility.yul\":1134:1141   */\n  dup6\n    /* \"#utility.yul\":1130:1153   */\n  sub\n    /* \"#utility.yul\":1126:1158   */\n  slt\n    /* \"#utility.yul\":1123:1175   */\n  iszero\n  tag_33\n  jumpi\n    /* \"#utility.yul\":1171:1172   */\n  0x00\n    /* \"#utility.yul\":1168:1169   */\n  dup1\n    /* \"#utility.yul\":1161:1173   */\n  revert\n    /* \"#utility.yul\":1123:1175   */\ntag_33:\n    /* \"#utility.yul\":1198:1214   */\n  dup3\n  mload\n  sub(shl(0x40, 0x01), 0x01)\n    /* \"#utility.yul\":1263:1277   */\n  dup1\n  dup3\n  gt\n    /* \"#utility.yul\":1260:1294   */\n  iszero\n  tag_34\n  jumpi\n    /* \"#utility.yul\":1290:1291   */\n  0x00\n    /* \"#utility.yul\":1287:1288   */\n  dup1\n    /* \"#utility.yul\":1280:1292   */\n  revert\n    /* \"#utility.yul\":1260:1294   */\ntag_34:\n    /* \"#utility.yul\":1313:1374   */\n  tag_35\n    /* \"#utility.yul\":1366:1373   */\n  dup7\n    /* \"#utility.yul\":1357:1363   */\n  dup4\n    /* \"#utility.yul\":1346:1355   */\n  dup8\n    /* \"#utility.yul\":1342:1364   */\n  add\n    /* \"#utility.yul\":1313:1374   */\n  tag_15\n  jump\t// in\ntag_35:\n    /* \"#utility.yul\":1303:1374   */\n  swap4\n  pop\n    /* \"#utility.yul\":1420:1422   */\n  0x20\n    /* \"#utility.yul\":1409:1418   */\n  dup6\n    /* \"#utility.yul\":1405:1423   */\n  add\n    /* \"#utility.yul\":1399:1424   */\n  mload\n    /* \"#utility.yul\":1383:1424   */\n  swap2\n  pop\n    /* \"#utility.yul\":1449:1451   */\n  dup1\n    /* \"#utility.yul\":1439:1447   */\n  dup3\n    /* \"#utility.yul\":1436:1452   */\n  gt\n    /* \"#utility.yul\":1433:1469   */\n  iszero\n  tag_36\n  jumpi\n    /* \"#utility.yul\":1465:1466   */\n  0x00\n    /* \"#utility.yul\":1462:1463   */\n  dup1\n    /* \"#utility.yul\":1455:1467   */\n  revert\n    /* \"#utility.yul\":1433:1469   */\ntag_36:\n  pop\n    /* \"#utility.yul\":1488:1551   */\n  tag_37\n    /* \"#utility.yul\":1543:1550   */\n  dup6\n    /* \"#utility.yul\":1532:1540   */\n  dup3\n    /* \"#utility.yul\":1521:1530   */\n  dup7\n    /* \"#utility.yul\":1517:1541   */\n  add\n    /* \"#utility.yul\":1488:1551   */\n  tag_15\n  jump\t// in\ntag_37:\n    /* \"#utility.yul\":1478:1551   */\n  swap2\n  pop\n  pop\n    /* \"#utility.yul\":995:1557   */\n  swap3\n  pop\n  swap3\n  swap1\n  pop\n  jump\t// out\n    /* \"#utility.yul\":1562:1942   */\ntag_16:\n    /* \"#utility.yul\":1641:1642   */\n  0x01\n    /* \"#utility.yul\":1637:1649   */\n  dup2\n  dup2\n  shr\n  swap1\n    /* \"#utility.yul\":1684:1696   */\n  dup3\n  and\n  dup1\n    /* \"#utility.yul\":1705:1766   */\n  tag_39\n  jumpi\n    /* \"#utility.yul\":1759:1763   */\n  0x7f\n    /* \"#utility.yul\":1751:1757   */\n  dup3\n    /* \"#utility.yul\":1747:1764   */\n  and\n    /* \"#utility.yul\":1737:1764   */\n  swap2\n  pop\n    /* \"#utility.yul\":1705:1766   */\ntag_39:\n    /* \"#utility.yul\":1812:1814   */\n  0x20\n    /* \"#utility.yul\":1804:1810   */\n  dup3\n    /* \"#utility.yul\":1801:1815   */\n  lt\n    /* \"#utility.yul\":1781:1799   */\n  dup2\n    /* \"#utility.yul\":1778:1816   */\n  sub\n    /* \"#utility.yul\":1775:1936   */\n  tag_40\n  jumpi\n    /* \"#utility.yul\":1858:1868   */\n  0x4e487b71\n    /* \"#utility.yul\":1853:1856   */\n  0xe0\n    /* \"#utility.yul\":1849:1869   */\n  shl\n    /* \"#utility.yul\":1846:1847   */\n  0x00\n    /* \"#utility.yul\":1839:1870   */\n  mstore\n    /* \"#utility.yul\":1893:1897   */\n  0x22\n    /* \"#utility.yul\":1890:1891   */\n  0x04\n    /* \"#utility.yul\":1883:1898   */\n  mstore\n    /* \"#utility.yul\":1921:1925   */\n  0x24\n    /* \"#utility.yul\":1918:1919   */\n  0x00\n    /* \"#utility.yul\":1911:1926   */\n  revert\n    /* \"#utility.yul\":1775:1936   */\ntag_40:\n  pop\n    /* \"#utility.yul\":1562:1942   */\n  swap2\n  swap1\n  pop\n  jump\t// out\n    /* \"#utility.yul\":2073:2591   */\ntag_18:\n    /* \"#utility.yul\":2175:2177   */\n  0x1f\n    /* \"#utility.yul\":2170:2173   */\n  dup3\n    /* \"#utility.yul\":2167:2178   */\n  gt\n    /* \"#utility.yul\":2164:2585   */\n  iszero\n  tag_43\n  jumpi\n    /* \"#utility.yul\":2211:2216   */\n  dup1\n    /* \"#utility.yul\":2208:2209   */\n  0x00\n    /* \"#utility.yul\":2201:2217   */\n  mstore\n    /* \"#utility.yul\":2255:2259   */\n  0x20\n    /* \"#utility.yul\":2252:2253   */\n  0x00\n    /* \"#utility.yul\":2242:2260   */\n  keccak256\n    /* \"#utility.yul\":2325:2327   */\n  0x1f\n    /* \"#utility.yul\":2313:2323   */\n  dup5\n    /* \"#utility.yul\":2309:2328   */\n  add\n    /* \"#utility.yul\":2306:2307   */\n  0x05\n    /* \"#utility.yul\":2302:2329   */\n  shr\n    /* \"#utility.yul\":2296:2300   */\n  dup2\n    /* \"#utility.yul\":2292:2330   */\n  add\n    /* \"#utility.yul\":2361:2365   */\n  0x20\n    /* \"#utility.yul\":2349:2359   */\n  dup6\n    /* \"#utility.yul\":2346:2366   */\n  lt\n    /* \"#utility.yul\":2343:2390   */\n  iszero\n  tag_44\n  jumpi\n  pop\n    /* \"#utility.yul\":2384:2388   */\n  dup1\n    /* \"#utility.yul\":2343:2390   */\ntag_44:\n    /* \"#utility.yul\":2439:2441   */\n  0x1f\n    /* \"#utility.yul\":2434:2437   */\n  dup5\n    /* \"#utility.yul\":2430:2442   */\n  add\n    /* \"#utility.yul\":2427:2428   */\n  0x05\n    /* \"#utility.yul\":2423:2443   */\n  shr\n    /* \"#utility.yul\":2417:2421   */\n  dup3\n    /* \"#utility.yul\":2413:2444   */\n  add\n    /* \"#utility.yul\":2403:2444   */\n  swap2\n  pop\n    /* \"#utility.yul\":2494:2575   */\ntag_45:\n    /* \"#utility.yul\":2512:2514   */\n  dup2\n    /* \"#utility.yul\":2505:2510   */\n  dup2\n    /* \"#utility.yul\":2502:2515   */\n  lt\n    /* \"#utility.yul\":2494:2575   */\n  iszero\n  tag_47\n  jumpi\n    /* \"#utility.yul\":2571:2572   */\n  0x00\n    /* \"#utility.yul\":2557:2573   */\n  dup2\n  sstore\n    /* \"#utility.yul\":2538:2539   */\n  0x01\n    /* \"#utility.yul\":2527:2540   */\n  add\n    /* \"#utility.yul\":2494:2575   */\n  jump(tag_45)\ntag_47:\n    /* \"#utility.yul\":2498:2501   */\n  pop\n  pop\n    /* \"#utility.yul\":2164:2585   */\ntag_43:\n    /* \"#utility.yul\":2073:2591   */\n  pop\n  pop\n  pop\n  jump\t// out\n    /* \"#utility.yul\":2767:4112   */\ntag_9:\n    /* \"#utility.yul\":2887:2897   */\n  dup2\n  mload\n  sub(shl(0x40, 0x01), 0x01)\n    /* \"#utility.yul\":2909:2939   */\n  dup2\n  gt\n    /* \"#utility.yul\":2906:2962   */\n  iszero\n  tag_51\n  jumpi\n    /* \"#utility.yul\":2942:2960   */\n  tag_51\n  tag_14\n  jump\t// in\ntag_51:\n    /* \"#utility.yul\":2971:3068   */\n  tag_52\n    /* \"#utility.yul\":3061:3067   */\n  dup2\n    /* \"#utility.yul\":3021:3059   */\n  tag_53\n    /* \"#utility.yul\":3053:3057   */\n  dup5\n    /* \"#utility.yul\":3047:3058   */\n  sload\n    /* \"#utility.yul\":3021:3059   */\n  tag_16\n  jump\t// in\ntag_53:\n    /* \"#utility.yul\":3015:3019   */\n  dup5\n    /* \"#utility.yul\":2971:3068   */\n  tag_18\n  jump\t// in\ntag_52:\n    /* \"#utility.yul\":3123:3127   */\n  0x20\n  dup1\n    /* \"#utility.yul\":3180:3182   */\n  0x1f\n    /* \"#utility.yul\":3169:3183   */\n  dup4\n  gt\n    /* \"#utility.yul\":3197:3198   */\n  0x01\n    /* \"#utility.yul\":3192:3855   */\n  dup2\n  eq\n  tag_55\n  jumpi\n    /* \"#utility.yul\":3899:3900   */\n  0x00\n    /* \"#utility.yul\":3916:3922   */\n  dup5\n    /* \"#utility.yul\":3913:4002   */\n  iszero\n  tag_56\n  jumpi\n  pop\n    /* \"#utility.yul\":3968:3987   */\n  dup6\n  dup4\n  add\n    /* \"#utility.yul\":3962:3988   */\n  mload\n    /* \"#utility.yul\":3913:4002   */\ntag_56:\n  not(0x00)\n    /* \"#utility.yul\":2724:2725   */\n  0x03\n    /* \"#utility.yul\":2720:2731   */\n  dup7\n  swap1\n  shl\n    /* \"#utility.yul\":2716:2740   */\n  shr\n    /* \"#utility.yul\":2712:2741   */\n  not\n    /* \"#utility.yul\":2702:2742   */\n  and\n    /* \"#utility.yul\":2748:2749   */\n  0x01\n    /* \"#utility.yul\":2744:2755   */\n  dup6\n  swap1\n  shl\n    /* \"#utility.yul\":2699:2756   */\n  or\n    /* \"#utility.yul\":4015:4096   */\n  dup6\n  sstore\n    /* \"#utility.yul\":3162:4106   */\n  jump(tag_54)\n    /* \"#utility.yul\":3192:3855   */\ntag_55:\n    /* \"#utility.yul\":2020:2021   */\n  0x00\n    /* \"#utility.yul\":2013:2027   */\n  dup6\n  dup2\n  mstore\n    /* \"#utility.yul\":2057:2061   */\n  0x20\n    /* \"#utility.yul\":2044:2062   */\n  dup2\n  keccak256\n  not(0x1f)\n    /* \"#utility.yul\":3228:3248   */\n  dup7\n  and\n  swap2\n    /* \"#utility.yul\":3346:3582   */\ntag_59:\n    /* \"#utility.yul\":3360:3367   */\n  dup3\n    /* \"#utility.yul\":3357:3358   */\n  dup2\n    /* \"#utility.yul\":3354:3368   */\n  lt\n    /* \"#utility.yul\":3346:3582   */\n  iszero\n  tag_61\n  jumpi\n    /* \"#utility.yul\":3449:3468   */\n  dup9\n  dup7\n  add\n    /* \"#utility.yul\":3443:3469   */\n  mload\n    /* \"#utility.yul\":3428:3470   */\n  dup3\n  sstore\n    /* \"#utility.yul\":3541:3568   */\n  swap5\n  dup5\n  add\n  swap5\n    /* \"#utility.yul\":3509:3510   */\n  0x01\n    /* \"#utility.yul\":3497:3511   */\n  swap1\n  swap2\n  add\n  swap1\n    /* \"#utility.yul\":3376:3395   */\n  dup5\n  add\n    /* \"#utility.yul\":3346:3582   */\n  jump(tag_59)\ntag_61:\n    /* \"#utility.yul\":3350:3353   */\n  pop\n    /* \"#utility.yul\":3610:3616   */\n  dup6\n    /* \"#utility.yul\":3601:3608   */\n  dup3\n    /* \"#utility.yul\":3598:3617   */\n  lt\n    /* \"#utility.yul\":3595:3796   */\n  iszero\n  tag_62\n  jumpi\n    /* \"#utility.yul\":3671:3690   */\n  dup8\n  dup6\n  add\n    /* \"#utility.yul\":3665:3691   */\n  mload\n  not(0x00)\n    /* \"#utility.yul\":3754:3755   */\n  0x03\n    /* \"#utility.yul\":3750:3764   */\n  dup9\n  swap1\n  shl\n    /* \"#utility.yul\":3766:3769   */\n  0xf8\n    /* \"#utility.yul\":3746:3770   */\n  and\n    /* \"#utility.yul\":3742:3779   */\n  shr\n    /* \"#utility.yul\":3738:3780   */\n  not\n    /* \"#utility.yul\":3723:3781   */\n  and\n    /* \"#utility.yul\":3708:3782   */\n  dup2\n  sstore\n    /* \"#utility.yul\":3595:3796   */\ntag_62:\n  pop\n  pop\n    /* \"#utility.yul\":3842:3843   */\n  0x01\n    /* \"#utility.yul\":3833:3839   */\n  dup5\n    /* \"#utility.yul\":3830:3831   */\n  0x01\n    /* \"#utility.yul\":3826:3840   */\n  shl\n    /* \"#utility.yul\":3822:3844   */\n  add\n    /* \"#utility.yul\":3816:3820   */\n  dup6\n    /* \"#utility.yul\":3809:3845   */\n  sstore\n    /* \"#utility.yul\":3162:4106   */\ntag_54:\n  pop\n  pop\n  pop\n  pop\n    /* \"#utility.yul\":2767:4112   */\n  pop\n  pop\n  jump\t// out\ntag_20:\n    /* \"contracts/solidity.series/simple.sol\":1781:1885  contract V is S,T{... */\n  dataSize(sub_0)\n  dup1\n  dataOffset(sub_0)\n  0x00\n  codecopy\n  0x00\n  return\nstop\n\nsub_0: assembly {\n        /* \"contracts/solidity.series/simple.sol\":1781:1885  contract V is S,T{... */\n      mstore(0x40, 0x80)\n      callvalue\n      dup1\n      iszero\n      tag_1\n      jumpi\n      0x00\n      dup1\n      revert\n    tag_1:\n      pop\n      jumpi(tag_2, lt(calldatasize, 0x04))\n      shr(0xe0, calldataload(0x00))\n      dup1\n      0x06fdde03\n      eq\n      tag_3\n      jumpi\n      dup1\n      0x1f1bd692\n      eq\n      tag_4\n      jumpi\n    tag_2:\n      0x00\n      dup1\n      revert\n        /* \"contracts/solidity.series/simple.sol\":1354:1372  string public name */\n    tag_3:\n      tag_5\n      tag_6\n      jump\t// in\n    tag_5:\n      mload(0x40)\n      tag_7\n      swap2\n      swap1\n      tag_8\n      jump\t// in\n    tag_7:\n      mload(0x40)\n      dup1\n      swap2\n      sub\n      swap1\n      return\n        /* \"contracts/solidity.series/simple.sol\":1461:1479  string public text */\n    tag_4:\n      tag_5\n      tag_10\n      jump\t// in\n        /* \"contracts/solidity.series/simple.sol\":1354:1372  string public name */\n    tag_6:\n      0x00\n      dup1\n      sload\n      tag_12\n      swap1\n      tag_13\n      jump\t// in\n    tag_12:\n      dup1\n      0x1f\n      add\n      0x20\n      dup1\n      swap2\n      div\n      mul\n      0x20\n      add\n      mload(0x40)\n      swap1\n      dup2\n      add\n      0x40\n      mstore\n      dup1\n      swap3\n      swap2\n      swap1\n      dup2\n      dup2\n      mstore\n      0x20\n      add\n      dup3\n      dup1\n      sload\n      tag_14\n      swap1\n      tag_13\n      jump\t// in\n    tag_14:\n      dup1\n      iszero\n      tag_15\n      jumpi\n      dup1\n      0x1f\n      lt\n      tag_16\n      jumpi\n      0x0100\n      dup1\n      dup4\n      sload\n      div\n      mul\n      dup4\n      mstore\n      swap2\n      0x20\n      add\n      swap2\n      jump(tag_15)\n    tag_16:\n      dup3\n      add\n      swap2\n      swap1\n      0x00\n      mstore\n      keccak256(0x00, 0x20)\n      swap1\n    tag_17:\n      dup2\n      sload\n      dup2\n      mstore\n      swap1\n      0x01\n      add\n      swap1\n      0x20\n      add\n      dup1\n      dup4\n      gt\n      tag_17\n      jumpi\n      dup3\n      swap1\n      sub\n      0x1f\n      and\n      dup3\n      add\n      swap2\n    tag_15:\n      pop\n      pop\n      pop\n      pop\n      pop\n      dup2\n      jump\t// out\n        /* \"contracts/solidity.series/simple.sol\":1461:1479  string public text */\n    tag_10:\n      0x01\n      dup1\n      sload\n      tag_12\n      swap1\n      tag_13\n      jump\t// in\n        /* \"#utility.yul\":14:562   */\n    tag_8:\n        /* \"#utility.yul\":126:130   */\n      0x00\n        /* \"#utility.yul\":155:157   */\n      0x20\n        /* \"#utility.yul\":184:186   */\n      dup1\n        /* \"#utility.yul\":173:182   */\n      dup4\n        /* \"#utility.yul\":166:187   */\n      mstore\n        /* \"#utility.yul\":216:222   */\n      dup4\n        /* \"#utility.yul\":210:223   */\n      mload\n        /* \"#utility.yul\":259:265   */\n      dup1\n        /* \"#utility.yul\":254:256   */\n      0x20\n        /* \"#utility.yul\":243:252   */\n      dup6\n        /* \"#utility.yul\":239:257   */\n      add\n        /* \"#utility.yul\":232:266   */\n      mstore\n        /* \"#utility.yul\":284:285   */\n      0x00\n        /* \"#utility.yul\":294:434   */\n    tag_25:\n        /* \"#utility.yul\":308:314   */\n      dup2\n        /* \"#utility.yul\":305:306   */\n      dup2\n        /* \"#utility.yul\":302:315   */\n      lt\n        /* \"#utility.yul\":294:434   */\n      iszero\n      tag_27\n      jumpi\n        /* \"#utility.yul\":403:417   */\n      dup6\n      dup2\n      add\n        /* \"#utility.yul\":399:422   */\n      dup4\n      add\n        /* \"#utility.yul\":393:423   */\n      mload\n        /* \"#utility.yul\":369:386   */\n      dup6\n      dup3\n      add\n        /* \"#utility.yul\":388:390   */\n      0x40\n        /* \"#utility.yul\":365:391   */\n      add\n        /* \"#utility.yul\":358:424   */\n      mstore\n        /* \"#utility.yul\":323:333   */\n      dup3\n      add\n        /* \"#utility.yul\":294:434   */\n      jump(tag_25)\n    tag_27:\n        /* \"#utility.yul\":298:301   */\n      pop\n        /* \"#utility.yul\":483:484   */\n      0x00\n        /* \"#utility.yul\":478:480   */\n      0x40\n        /* \"#utility.yul\":469:475   */\n      dup3\n        /* \"#utility.yul\":458:467   */\n      dup7\n        /* \"#utility.yul\":454:476   */\n      add\n        /* \"#utility.yul\":450:481   */\n      add\n        /* \"#utility.yul\":443:485   */\n      mstore\n        /* \"#utility.yul\":553:555   */\n      0x40\n        /* \"#utility.yul\":546:548   */\n      0x1f\n        /* \"#utility.yul\":542:549   */\n      not\n        /* \"#utility.yul\":537:539   */\n      0x1f\n        /* \"#utility.yul\":529:535   */\n      dup4\n        /* \"#utility.yul\":525:540   */\n      add\n        /* \"#utility.yul\":521:550   */\n      and\n        /* \"#utility.yul\":510:519   */\n      dup6\n        /* \"#utility.yul\":506:551   */\n      add\n        /* \"#utility.yul\":502:556   */\n      add\n        /* \"#utility.yul\":494:556   */\n      swap3\n      pop\n      pop\n      pop\n        /* \"#utility.yul\":14:562   */\n      swap3\n      swap2\n      pop\n      pop\n      jump\t// out\n        /* \"#utility.yul\":567:947   */\n    tag_13:\n        /* \"#utility.yul\":646:647   */\n      0x01\n        /* \"#utility.yul\":642:654   */\n      dup2\n      dup2\n      shr\n      swap1\n        /* \"#utility.yul\":689:701   */\n      dup3\n      and\n      dup1\n        /* \"#utility.yul\":710:771   */\n      tag_29\n      jumpi\n        /* \"#utility.yul\":764:768   */\n      0x7f\n        /* \"#utility.yul\":756:762   */\n      dup3\n        /* \"#utility.yul\":752:769   */\n      and\n        /* \"#utility.yul\":742:769   */\n      swap2\n      pop\n        /* \"#utility.yul\":710:771   */\n    tag_29:\n        /* \"#utility.yul\":817:819   */\n      0x20\n        /* \"#utility.yul\":809:815   */\n      dup3\n        /* \"#utility.yul\":806:820   */\n      lt\n        /* \"#utility.yul\":786:804   */\n      dup2\n        /* \"#utility.yul\":783:821   */\n      sub\n        /* \"#utility.yul\":780:941   */\n      tag_30\n      jumpi\n        /* \"#utility.yul\":863:873   */\n      0x4e487b71\n        /* \"#utility.yul\":858:861   */\n      0xe0\n        /* \"#utility.yul\":854:874   */\n      shl\n        /* \"#utility.yul\":851:852   */\n      0x00\n        /* \"#utility.yul\":844:875   */\n      mstore\n        /* \"#utility.yul\":898:902   */\n      0x22\n        /* \"#utility.yul\":895:896   */\n      0x04\n        /* \"#utility.yul\":888:903   */\n      mstore\n        /* \"#utility.yul\":926:930   */\n      0x24\n        /* \"#utility.yul\":923:924   */\n      0x00\n        /* \"#utility.yul\":916:931   */\n      revert\n        /* \"#utility.yul\":780:941   */\n    tag_30:\n      pop\n        /* \"#utility.yul\":567:947   */\n      swap2\n      swap1\n      pop\n      jump\t// out\n\n    auxdata: 0xa26469706673582212208f32aeb07324236a8398980d5c67cc24ffafb8a509f1cf992ec23188f9ec9a1964736f6c63430008160033\n}\n",
				"bytecode": {
					"linkReferences": {},
					"object": "608060405234801561000f575f80fd5b5060405161046938038061046983398101604081905261002e9161010a565b80825f61003b82826101ed565b506001905061004a82826101ed565b505050506102ac565b634e487b7160e01b5f52604160045260245ffd5b5f82601f830112610076575f80fd5b81516001600160401b038082111561009057610090610053565b604051601f8301601f19908116603f011681019082821181831017156100b8576100b8610053565b81604052838152602092508660208588010111156100d4575f80fd5b5f91505b838210156100f557858201830151818301840152908201906100d8565b5f602085830101528094505050505092915050565b5f806040838503121561011b575f80fd5b82516001600160401b0380821115610131575f80fd5b61013d86838701610067565b93506020850151915080821115610152575f80fd5b5061015f85828601610067565b9150509250929050565b600181811c9082168061017d57607f821691505b60208210810361019b57634e487b7160e01b5f52602260045260245ffd5b50919050565b601f8211156101e857805f5260205f20601f840160051c810160208510156101c65750805b601f840160051c820191505b818110156101e5575f81556001016101d2565b50505b505050565b81516001600160401b0381111561020657610206610053565b61021a816102148454610169565b846101a1565b602080601f83116001811461024d575f84156102365750858301515b5f19600386901b1c1916600185901b1785556102a4565b5f85815260208120601f198616915b8281101561027b5788860151825594840194600190910190840161025c565b508582101561029857878501515f19600388901b60f8161c191681555b505060018460011b0185555b505050505050565b6101b0806102b95f395ff3fe608060405234801561000f575f80fd5b5060043610610034575f3560e01c806306fdde03146100385780631f1bd69214610056575b5f80fd5b61004061005e565b60405161004d91906100f6565b60405180910390f35b6100406100e9565b5f805461006a90610142565b80601f016020809104026020016040519081016040528092919081815260200182805461009690610142565b80156100e15780601f106100b8576101008083540402835291602001916100e1565b820191905f5260205f20905b8154815290600101906020018083116100c457829003601f168201915b505050505081565b6001805461006a90610142565b5f602080835283518060208501525f5b8181101561012257858101830151858201604001528201610106565b505f604082860101526040601f19601f8301168501019250505092915050565b600181811c9082168061015657607f821691505b60208210810361017457634e487b7160e01b5f52602260045260245ffd5b5091905056fea26469706673582212208f32aeb07324236a8398980d5c67cc24ffafb8a509f1cf992ec23188f9ec9a1964736f6c63430008160033",
					"opcodes": "PUSH1 0x80 PUSH1 0x40 MSTORE CALLVALUE DUP1 ISZERO PUSH2 0xF JUMPI PUSH0 DUP1 REVERT JUMPDEST POP PUSH1 0x40 MLOAD PUSH2 0x469 CODESIZE SUB DUP1 PUSH2 0x469 DUP4 CODECOPY DUP2 ADD PUSH1 0x40 DUP2 SWAP1 MSTORE PUSH2 0x2E SWAP2 PUSH2 0x10A JUMP JUMPDEST DUP1 DUP3 PUSH0 PUSH2 0x3B DUP3 DUP3 PUSH2 0x1ED JUMP JUMPDEST POP PUSH1 0x1 SWAP1 POP PUSH2 0x4A DUP3 DUP3 PUSH2 0x1ED JUMP JUMPDEST POP POP POP POP PUSH2 0x2AC JUMP JUMPDEST PUSH4 0x4E487B71 PUSH1 0xE0 SHL PUSH0 MSTORE PUSH1 0x41 PUSH1 0x4 MSTORE PUSH1 0x24 PUSH0 REVERT JUMPDEST PUSH0 DUP3 PUSH1 0x1F DUP4 ADD SLT PUSH2 0x76 JUMPI PUSH0 DUP1 REVERT JUMPDEST DUP2 MLOAD PUSH1 0x1 PUSH1 0x1 PUSH1 0x40 SHL SUB DUP1 DUP3 GT ISZERO PUSH2 0x90 JUMPI PUSH2 0x90 PUSH2 0x53 JUMP JUMPDEST PUSH1 0x40 MLOAD PUSH1 0x1F DUP4 ADD PUSH1 0x1F NOT SWAP1 DUP2 AND PUSH1 0x3F ADD AND DUP2 ADD SWAP1 DUP3 DUP3 GT DUP2 DUP4 LT OR ISZERO PUSH2 0xB8 JUMPI PUSH2 0xB8 PUSH2 0x53 JUMP JUMPDEST DUP2 PUSH1 0x40 MSTORE DUP4 DUP2 MSTORE PUSH1 0x20 SWAP3 POP DUP7 PUSH1 0x20 DUP6 DUP9 ADD ADD GT ISZERO PUSH2 0xD4 JUMPI PUSH0 DUP1 REVERT JUMPDEST PUSH0 SWAP2 POP JUMPDEST DUP4 DUP3 LT ISZERO PUSH2 0xF5 JUMPI DUP6 DUP3 ADD DUP4 ADD MLOAD DUP2 DUP4 ADD DUP5 ADD MSTORE SWAP1 DUP3 ADD SWAP1 PUSH2 0xD8 JUMP JUMPDEST PUSH0 PUSH1 0x20 DUP6 DUP4 ADD ADD MSTORE DUP1 SWAP5 POP POP POP POP POP SWAP3 SWAP2 POP POP JUMP JUMPDEST PUSH0 DUP1 PUSH1 0x40 DUP4 DUP6 SUB SLT ISZERO PUSH2 0x11B JUMPI PUSH0 DUP1 REVERT JUMPDEST DUP3 MLOAD PUSH1 0x1 PUSH1 0x1 PUSH1 0x40 SHL SUB DUP1 DUP3 GT ISZERO PUSH2 0x131 JUMPI PUSH0 DUP1 REVERT JUMPDEST PUSH2 0x13D DUP7 DUP4 DUP8 ADD PUSH2 0x67 JUMP JUMPDEST SWAP4 POP PUSH1 0x20 DUP6 ADD MLOAD SWAP2 POP DUP1 DUP3 GT ISZERO PUSH2 0x152 JUMPI PUSH0 DUP1 REVERT JUMPDEST POP PUSH2 0x15F DUP6 DUP3 DUP7 ADD PUSH2 0x67 JUMP JUMPDEST SWAP2 POP POP SWAP3 POP SWAP3 SWAP1 POP JUMP JUMPDEST PUSH1 0x1 DUP2 DUP2 SHR SWAP1 DUP3 AND DUP1 PUSH2 0x17D JUMPI PUSH1 0x7F DUP3 AND SWAP2 POP JUMPDEST PUSH1 0x20 DUP3 LT DUP2 SUB PUSH2 0x19B JUMPI PUSH4 0x4E487B71 PUSH1 0xE0 SHL PUSH0 MSTORE PUSH1 0x22 PUSH1 0x4 MSTORE PUSH1 0x24 PUSH0 REVERT JUMPDEST POP SWAP2 SWAP1 POP JUMP JUMPDEST PUSH1 0x1F DUP3 GT ISZERO PUSH2 0x1E8 JUMPI DUP1 PUSH0 MSTORE PUSH1 0x20 PUSH0 KECCAK256 PUSH1 0x1F DUP5 ADD PUSH1 0x5 SHR DUP2 ADD PUSH1 0x20 DUP6 LT ISZERO PUSH2 0x1C6 JUMPI POP DUP1 JUMPDEST PUSH1 0x1F DUP5 ADD PUSH1 0x5 SHR DUP3 ADD SWAP2 POP JUMPDEST DUP2 DUP2 LT ISZERO PUSH2 0x1E5 JUMPI PUSH0 DUP2 SSTORE PUSH1 0x1 ADD PUSH2 0x1D2 JUMP JUMPDEST POP POP JUMPDEST POP POP POP JUMP JUMPDEST DUP2 MLOAD PUSH1 0x1 PUSH1 0x1 PUSH1 0x40 SHL SUB DUP2 GT ISZERO PUSH2 0x206 JUMPI PUSH2 0x206 PUSH2 0x53 JUMP JUMPDEST PUSH2 0x21A DUP2 PUSH2 0x214 DUP5 SLOAD PUSH2 0x169 JUMP JUMPDEST DUP5 PUSH2 0x1A1 JUMP JUMPDEST PUSH1 0x20 DUP1 PUSH1 0x1F DUP4 GT PUSH1 0x1 DUP2 EQ PUSH2 0x24D JUMPI PUSH0 DUP5 ISZERO PUSH2 0x236 JUMPI POP DUP6 DUP4 ADD MLOAD JUMPDEST PUSH0 NOT PUSH1 0x3 DUP7 SWAP1 SHL SHR NOT AND PUSH1 0x1 DUP6 SWAP1 SHL OR DUP6 SSTORE PUSH2 0x2A4 JUMP JUMPDEST PUSH0 DUP6 DUP2 MSTORE PUSH1 0x20 DUP2 KECCAK256 PUSH1 0x1F NOT DUP7 AND SWAP2 JUMPDEST DUP3 DUP2 LT ISZERO PUSH2 0x27B JUMPI DUP9 DUP7 ADD MLOAD DUP3 SSTORE SWAP5 DUP5 ADD SWAP5 PUSH1 0x1 SWAP1 SWAP2 ADD SWAP1 DUP5 ADD PUSH2 0x25C JUMP JUMPDEST POP DUP6 DUP3 LT ISZERO PUSH2 0x298 JUMPI DUP8 DUP6 ADD MLOAD PUSH0 NOT PUSH1 0x3 DUP9 SWAP1 SHL PUSH1 0xF8 AND SHR NOT AND DUP2 SSTORE JUMPDEST POP POP PUSH1 0x1 DUP5 PUSH1 0x1 SHL ADD DUP6 SSTORE JUMPDEST POP POP POP POP POP POP JUMP JUMPDEST PUSH2 0x1B0 DUP1 PUSH2 0x2B9 PUSH0 CODECOPY PUSH0 RETURN INVALID PUSH1 0x80 PUSH1 0x40 MSTORE CALLVALUE DUP1 ISZERO PUSH2 0xF JUMPI PUSH0 DUP1 REVERT JUMPDEST POP PUSH1 0x4 CALLDATASIZE LT PUSH2 0x34 JUMPI PUSH0 CALLDATALOAD PUSH1 0xE0 SHR DUP1 PUSH4 0x6FDDE03 EQ PUSH2 0x38 JUMPI DUP1 PUSH4 0x1F1BD692 EQ PUSH2 0x56 JUMPI JUMPDEST PUSH0 DUP1 REVERT JUMPDEST PUSH2 0x40 PUSH2 0x5E JUMP JUMPDEST PUSH1 0x40 MLOAD PUSH2 0x4D SWAP2 SWAP1 PUSH2 0xF6 JUMP JUMPDEST PUSH1 0x40 MLOAD DUP1 SWAP2 SUB SWAP1 RETURN JUMPDEST PUSH2 0x40 PUSH2 0xE9 JUMP JUMPDEST PUSH0 DUP1 SLOAD PUSH2 0x6A SWAP1 PUSH2 0x142 JUMP JUMPDEST DUP1 PUSH1 0x1F ADD PUSH1 0x20 DUP1 SWAP2 DIV MUL PUSH1 0x20 ADD PUSH1 0x40 MLOAD SWAP1 DUP2 ADD PUSH1 0x40 MSTORE DUP1 SWAP3 SWAP2 SWAP1 DUP2 DUP2 MSTORE PUSH1 0x20 ADD DUP3 DUP1 SLOAD PUSH2 0x96 SWAP1 PUSH2 0x142 JUMP JUMPDEST DUP1 ISZERO PUSH2 0xE1 JUMPI DUP1 PUSH1 0x1F LT PUSH2 0xB8 JUMPI PUSH2 0x100 DUP1 DUP4 SLOAD DIV MUL DUP4 MSTORE SWAP2 PUSH1 0x20 ADD SWAP2 PUSH2 0xE1 JUMP JUMPDEST DUP3 ADD SWAP2 SWAP1 PUSH0 MSTORE PUSH1 0x20 PUSH0 KECCAK256 SWAP1 JUMPDEST DUP2 SLOAD DUP2 MSTORE SWAP1 PUSH1 0x1 ADD SWAP1 PUSH1 0x20 ADD DUP1 DUP4 GT PUSH2 0xC4 JUMPI DUP3 SWAP1 SUB PUSH1 0x1F AND DUP3 ADD SWAP2 JUMPDEST POP POP POP POP POP DUP2 JUMP JUMPDEST PUSH1 0x1 DUP1 SLOAD PUSH2 0x6A SWAP1 PUSH2 0x142 JUMP JUMPDEST PUSH0 PUSH1 0x20 DUP1 DUP4 MSTORE DUP4 MLOAD DUP1 PUSH1 0x20 DUP6 ADD MSTORE PUSH0 JUMPDEST DUP2 DUP2 LT ISZERO PUSH2 0x122 JUMPI DUP6 DUP2 ADD DUP4 ADD MLOAD DUP6 DUP3 ADD PUSH1 0x40 ADD MSTORE DUP3 ADD PUSH2 0x106 JUMP JUMPDEST POP PUSH0 PUSH1 0x40 DUP3 DUP7 ADD ADD MSTORE PUSH1 0x40 PUSH1 0x1F NOT PUSH1 0x1F DUP4 ADD AND DUP6 ADD ADD SWAP3 POP POP POP SWAP3 SWAP2 POP POP JUMP JUMPDEST PUSH1 0x1 DUP2 DUP2 SHR SWAP1 DUP3 AND DUP1 PUSH2 0x156 JUMPI PUSH1 0x7F DUP3 AND SWAP2 POP JUMPDEST PUSH1 0x20 DUP3 LT DUP2 SUB PUSH2 0x174 JUMPI PUSH4 0x4E487B71 PUSH1 0xE0 SHL PUSH0 MSTORE PUSH1 0x22 PUSH1 0x4 MSTORE PUSH1 0x24 PUSH0 REVERT JUMPDEST POP SWAP2 SWAP1 POP JUMP INVALID LOG2 PUSH5 0x6970667358 0x22 SLT KECCAK256 DUP16 ORIGIN 0xAE 0xB0 PUSH20 0x24236A8398980D5C67CC24FFAFB8A509F1CF992E 0xC2 BALANCE DUP9 0xF9 0xEC SWAP11 NOT PUSH5 0x736F6C6343 STOP ADDMOD AND STOP CALLER "
				},
				"gasEstimates": {
					"creation": {
						"codeDepositCost": "86400",
						"executionCost": "infinite",
						"totalCost": "infinite"
					},
					"external": {
						"name()": "infinite",
						"text()": "infinite"
					}
				},
				"methodIdentifiers": {
					"name()": "06fdde03",
					"text()": "1f1bd692"
				}
			},
			"storageLayout": {
				"storage": [
					{
						"astId": 120,
						"contract": "contracts/solidity.series/simple.sol:V",
						"label": "name",
						"offset": 0,
						"slot": "0",
						"type": "t_string_storage"
					},
					{
						"astId": 133,
						"contract": "contracts/solidity.series/simple.sol:V",
						"label": "text",
						"offset": 0,
						"slot": "1",
						"type": "t_string_storage"
					}
				],
				"types": {
					"t_string_storage": {
						"encoding": "bytes",
						"label": "string",
						"numberOfBytes": "32"
					}
				}
			},
			"userdoc": {
				"kind": "user",
				"methods": {},
				"version": 1
			}
		}
	}
}