{
	"contracts/solidity.series/deploy.sol": {
		"TestContract": {
			"abi": [
				{
					"inputs": [],
					"name": "getX",
					"outputs": [
						{
							"internalType": "uint256",
							"name": "",
							"type": "uint256"
						}
					],
					"stateMutability": "view",
					"type": "function"
				},
				{
					"inputs": [],
					"name": "getXandRecieveValue",
					"outputs": [
						{
							"internalType": "uint256",
							"name": "",
							"type": "uint256"
						},
						{
							"internalType": "uint256",
							"name": "",
							"type": "uint256"
						}
					],
					"stateMutability": "view",
					"type": "function"
				},
				{
					"inputs": [
						{
							"internalType": "uint256",
							"name": "_x",
							"type": "uint256"
						}
					],
					"name": "setX",
					"outputs": [],
					"stateMutability": "nonpayable",
					"type": "function"
				},
				{
					"inputs": [
						{
							"internalType": "uint256",
							"name": "_x",
							"type": "uint256"
						}
					],
					"name": "setXandRecieveEther",
					"outputs": [],
					"stateMutability": "payable",
					"type": "function"
				},
				{
					"inputs": [],
					"name": "value",
					"outputs": [
						{
							"internalType": "uint256",
							"name": "",
							"type": "uint256"
						}
					],
					"stateMutability": "view",
					"type": "function"
				},
				{
					"inputs": [],
					"name": "x",
					"outputs": [
						{
							"internalType": "uint256",
							"name": "",
							"type": "uint256"
						}
					],
					"stateMutability": "view",
					"type": "function"
				}
			],
			"devdoc": {
				"kind": "dev",
				"methods": {},
				"version": 1
			},
			"evm": {
				"assembly": "    /* \"contracts/solidity.series/deploy.sol\":3475:3922  contract TestContract {... */\n  mstore(0x40, 0x80)\n    /* \"contracts/solidity.series/deploy.sol\":3548:3551  123 */\n  0x7b\n    /* \"contracts/solidity.series/deploy.sol\":3525:3551  uint256 public value = 123 */\n  0x01\n  sstore\n    /* \"contracts/solidity.series/deploy.sol\":3475:3922  contract TestContract {... */\n  callvalue\n  dup1\n  iszero\n  tag_1\n  jumpi\n  0x00\n  dup1\n  revert\ntag_1:\n  pop\n  dataSize(sub_0)\n  dup1\n  dataOffset(sub_0)\n  0x00\n  codecopy\n  0x00\n  return\nstop\n\nsub_0: assembly {\n        /* \"contracts/solidity.series/deploy.sol\":3475:3922  contract TestContract {... */\n      mstore(0x40, 0x80)\n      jumpi(tag_1, lt(calldatasize, 0x04))\n      shr(0xe0, calldataload(0x00))\n      dup1\n      0x0c55699c\n      eq\n      tag_2\n      jumpi\n      dup1\n      0x3fa4f245\n      eq\n      tag_3\n      jumpi\n      dup1\n      0x4018d9aa\n      eq\n      tag_4\n      jumpi\n      dup1\n      0x5197c7aa\n      eq\n      tag_5\n      jumpi\n      dup1\n      0xae9ad8dd\n      eq\n      tag_6\n      jumpi\n      dup1\n      0xb5cb8fd2\n      eq\n      tag_7\n      jumpi\n    tag_1:\n      0x00\n      dup1\n      revert\n        /* \"contracts/solidity.series/deploy.sol\":3503:3519  uint256 public x */\n    tag_2:\n      callvalue\n      dup1\n      iszero\n      tag_8\n      jumpi\n      0x00\n      dup1\n      revert\n    tag_8:\n      pop\n      tag_9\n      sload(0x00)\n      dup2\n      jump\n    tag_9:\n      mload(0x40)\n        /* \"#utility.yul\":160:185   */\n      swap1\n      dup2\n      mstore\n        /* \"#utility.yul\":148:150   */\n      0x20\n        /* \"#utility.yul\":133:151   */\n      add\n        /* \"contracts/solidity.series/deploy.sol\":3503:3519  uint256 public x */\n    tag_11:\n      mload(0x40)\n      dup1\n      swap2\n      sub\n      swap1\n      return\n        /* \"contracts/solidity.series/deploy.sol\":3525:3551  uint256 public value = 123 */\n    tag_3:\n      callvalue\n      dup1\n      iszero\n      tag_13\n      jumpi\n      0x00\n      dup1\n      revert\n    tag_13:\n      pop\n      tag_9\n      sload(0x01)\n      dup2\n      jump\n        /* \"contracts/solidity.series/deploy.sol\":3558:3615  function setX(uint256 _x) external {... */\n    tag_4:\n      callvalue\n      dup1\n      iszero\n      tag_17\n      jumpi\n      0x00\n      dup1\n      revert\n    tag_17:\n      pop\n      tag_18\n      tag_19\n      calldatasize\n      0x04\n      tag_20\n      jump\t// in\n    tag_19:\n        /* \"contracts/solidity.series/deploy.sol\":3602:3603  x */\n      0x00\n        /* \"contracts/solidity.series/deploy.sol\":3602:3608  x = _x */\n      sstore\n        /* \"contracts/solidity.series/deploy.sol\":3558:3615  function setX(uint256 _x) external {... */\n      jump\n    tag_18:\n      stop\n        /* \"contracts/solidity.series/deploy.sol\":3621:3694  function getX() external view returns (uint256) {... */\n    tag_5:\n      callvalue\n      dup1\n      iszero\n      tag_22\n      jumpi\n      0x00\n      dup1\n      revert\n    tag_22:\n      pop\n        /* \"contracts/solidity.series/deploy.sol\":3660:3667  uint256 */\n      0x00\n        /* \"contracts/solidity.series/deploy.sol\":3686:3687  x */\n      sload\n        /* \"contracts/solidity.series/deploy.sol\":3621:3694  function getX() external view returns (uint256) {... */\n      jump(tag_9)\n        /* \"contracts/solidity.series/deploy.sol\":3700:3808  function setXandRecieveEther(uint256 _x) external payable {... */\n    tag_6:\n      tag_18\n      tag_27\n      calldatasize\n      0x04\n      tag_20\n      jump\t// in\n    tag_27:\n        /* \"contracts/solidity.series/deploy.sol\":3768:3769  x */\n      0x00\n        /* \"contracts/solidity.series/deploy.sol\":3768:3774  x = _x */\n      sstore\n        /* \"contracts/solidity.series/deploy.sol\":3792:3801  msg.value */\n      callvalue\n        /* \"contracts/solidity.series/deploy.sol\":3784:3789  value */\n      0x01\n        /* \"contracts/solidity.series/deploy.sol\":3784:3801  value = msg.value */\n      sstore\n        /* \"contracts/solidity.series/deploy.sol\":3700:3808  function setXandRecieveEther(uint256 _x) external payable {... */\n      jump\n        /* \"contracts/solidity.series/deploy.sol\":3814:3920  function getXandRecieveValue() external view returns (uint256, uint256) {... */\n    tag_7:\n      callvalue\n      dup1\n      iszero\n      tag_29\n      jumpi\n      0x00\n      dup1\n      revert\n    tag_29:\n      pop\n        /* \"contracts/solidity.series/deploy.sol\":3868:3875  uint256 */\n      0x00\n        /* \"contracts/solidity.series/deploy.sol\":3904:3905  x */\n      sload\n        /* \"contracts/solidity.series/deploy.sol\":3907:3912  value */\n      sload(0x01)\n        /* \"contracts/solidity.series/deploy.sol\":3814:3920  function getXandRecieveValue() external view returns (uint256, uint256) {... */\n      0x40\n      dup1\n      mload\n        /* \"#utility.yul\":555:580   */\n      swap3\n      dup4\n      mstore\n        /* \"#utility.yul\":611:613   */\n      0x20\n        /* \"#utility.yul\":596:614   */\n      dup4\n      add\n        /* \"#utility.yul\":589:623   */\n      swap2\n      swap1\n      swap2\n      mstore\n        /* \"#utility.yul\":528:546   */\n      add\n        /* \"contracts/solidity.series/deploy.sol\":3814:3920  function getXandRecieveValue() external view returns (uint256, uint256) {... */\n      tag_11\n        /* \"#utility.yul\":381:629   */\n      jump\n        /* \"#utility.yul\":196:376   */\n    tag_20:\n        /* \"#utility.yul\":255:261   */\n      0x00\n        /* \"#utility.yul\":308:310   */\n      0x20\n        /* \"#utility.yul\":296:305   */\n      dup3\n        /* \"#utility.yul\":287:294   */\n      dup5\n        /* \"#utility.yul\":283:306   */\n      sub\n        /* \"#utility.yul\":279:311   */\n      slt\n        /* \"#utility.yul\":276:328   */\n      iszero\n      tag_41\n      jumpi\n        /* \"#utility.yul\":324:325   */\n      0x00\n        /* \"#utility.yul\":321:322   */\n      dup1\n        /* \"#utility.yul\":314:326   */\n      revert\n        /* \"#utility.yul\":276:328   */\n    tag_41:\n      pop\n        /* \"#utility.yul\":347:370   */\n      calldataload\n      swap2\n        /* \"#utility.yul\":196:376   */\n      swap1\n      pop\n      jump\t// out\n\n    auxdata: 0xa2646970667358221220f3423900d94a98d112db1060daffa79c9aa7ddbd2a3a0bc5d4bbeb2864c6db6364736f6c63430008160033\n}\n",
				"bytecode": {
					"linkReferences": {},
					"object": "6080604052607b600155348015610014575f80fd5b50610150806100225f395ff3fe608060405260043610610054575f3560e01c80630c55699c146100585780633fa4f2451461007f5780634018d9aa146100945780635197c7aa146100b4578063ae9ad8dd146100c7578063b5cb8fd2146100dd575b5f80fd5b348015610063575f80fd5b5061006c5f5481565b6040519081526020015b60405180910390f35b34801561008a575f80fd5b5061006c60015481565b34801561009f575f80fd5b506100b26100ae366004610103565b5f55565b005b3480156100bf575f80fd5b505f5461006c565b6100b26100d5366004610103565b5f5534600155565b3480156100e8575f80fd5b505f5460015460408051928352602083019190915201610076565b5f60208284031215610113575f80fd5b503591905056fea2646970667358221220f3423900d94a98d112db1060daffa79c9aa7ddbd2a3a0bc5d4bbeb2864c6db6364736f6c63430008160033",
					"opcodes": "PUSH1 0x80 PUSH1 0x40 MSTORE PUSH1 0x7B PUSH1 0x1 SSTORE CALLVALUE DUP1 ISZERO PUSH2 0x14 JUMPI PUSH0 DUP1 REVERT JUMPDEST POP PUSH2 0x150 DUP1 PUSH2 0x22 PUSH0 CODECOPY PUSH0 RETURN INVALID PUSH1 0x80 PUSH1 0x40 MSTORE PUSH1 0x4 CALLDATASIZE LT PUSH2 0x54 JUMPI PUSH0 CALLDATALOAD PUSH1 0xE0 SHR DUP1 PUSH4 0xC55699C EQ PUSH2 0x58 JUMPI DUP1 PUSH4 0x3FA4F245 EQ PUSH2 0x7F JUMPI DUP1 PUSH4 0x4018D9AA EQ PUSH2 0x94 JUMPI DUP1 PUSH4 0x5197C7AA EQ PUSH2 0xB4 JUMPI DUP1 PUSH4 0xAE9AD8DD EQ PUSH2 0xC7 JUMPI DUP1 PUSH4 0xB5CB8FD2 EQ PUSH2 0xDD JUMPI JUMPDEST PUSH0 DUP1 REVERT JUMPDEST CALLVALUE DUP1 ISZERO PUSH2 0x63 JUMPI PUSH0 DUP1 REVERT JUMPDEST POP PUSH2 0x6C PUSH0 SLOAD DUP2 JUMP JUMPDEST PUSH1 0x40 MLOAD SWAP1 DUP2 MSTORE PUSH1 0x20 ADD JUMPDEST PUSH1 0x40 MLOAD DUP1 SWAP2 SUB SWAP1 RETURN JUMPDEST CALLVALUE DUP1 ISZERO PUSH2 0x8A JUMPI PUSH0 DUP1 REVERT JUMPDEST POP PUSH2 0x6C PUSH1 0x1 SLOAD DUP2 JUMP JUMPDEST CALLVALUE DUP1 ISZERO PUSH2 0x9F JUMPI PUSH0 DUP1 REVERT JUMPDEST POP PUSH2 0xB2 PUSH2 0xAE CALLDATASIZE PUSH1 0x4 PUSH2 0x103 JUMP JUMPDEST PUSH0 SSTORE JUMP JUMPDEST STOP JUMPDEST CALLVALUE DUP1 ISZERO PUSH2 0xBF JUMPI PUSH0 DUP1 REVERT JUMPDEST POP PUSH0 SLOAD PUSH2 0x6C JUMP JUMPDEST PUSH2 0xB2 PUSH2 0xD5 CALLDATASIZE PUSH1 0x4 PUSH2 0x103 JUMP JUMPDEST PUSH0 SSTORE CALLVALUE PUSH1 0x1 SSTORE JUMP JUMPDEST CALLVALUE DUP1 ISZERO PUSH2 0xE8 JUMPI PUSH0 DUP1 REVERT JUMPDEST POP PUSH0 SLOAD PUSH1 0x1 SLOAD PUSH1 0x40 DUP1 MLOAD SWAP3 DUP4 MSTORE PUSH1 0x20 DUP4 ADD SWAP2 SWAP1 SWAP2 MSTORE ADD PUSH2 0x76 JUMP JUMPDEST PUSH0 PUSH1 0x20 DUP3 DUP5 SUB SLT ISZERO PUSH2 0x113 JUMPI PUSH0 DUP1 REVERT JUMPDEST POP CALLDATALOAD SWAP2 SWAP1 POP JUMP INVALID LOG2 PUSH5 0x6970667358 0x22 SLT KECCAK256 RETURN TIMESTAMP CODECOPY STOP 0xD9 0x4A SWAP9 0xD1 SLT 0xDB LT PUSH1 0xDA SELFDESTRUCT 0xA7 SWAP13 SWAP11 0xA7 0xDD 0xBD 0x2A GASPRICE SIGNEXTEND 0xC5 0xD4 0xBB 0xEB 0x28 PUSH5 0xC6DB636473 PUSH16 0x6C634300081600330000000000000000 "
				},
				"gasEstimates": {
					"creation": {
						"codeDepositCost": "67200",
						"executionCost": "22221",
						"totalCost": "89421"
					},
					"external": {
						"getX()": "2323",
						"getXandRecieveValue()": "4493",
						"setX(uint256)": "22331",
						"setXandRecieveEther(uint256)": "44456",
						"value()": "2283",
						"x()": "2260"
					}
				},
				"methodIdentifiers": {
					"getX()": "5197c7aa",
					"getXandRecieveValue()": "b5cb8fd2",
					"setX(uint256)": "4018d9aa",
					"setXandRecieveEther(uint256)": "ae9ad8dd",
					"value()": "3fa4f245",
					"x()": "0c55699c"
				}
			},
			"storageLayout": {
				"storage": [
					{
						"astId": 277,
						"contract": "contracts/solidity.series/deploy.sol:TestContract",
						"label": "x",
						"offset": 0,
						"slot": "0",
						"type": "t_uint256"
					},
					{
						"astId": 280,
						"contract": "contracts/solidity.series/deploy.sol:TestContract",
						"label": "value",
						"offset": 0,
						"slot": "1",
						"type": "t_uint256"
					}
				],
				"types": {
					"t_uint256": {
						"encoding": "inplace",
						"label": "uint256",
						"numberOfBytes": "32"
					}
				}
			},
			"userdoc": {
				"kind": "user",
				"methods": {},
				"version": 1
			}
		}
	}
}