{
	"contracts/solidity.series/deploy.sol": {
		"TestArray": {
			"abi": [
				{
					"inputs": [
						{
							"internalType": "uint256",
							"name": "",
							"type": "uint256"
						}
					],
					"name": "array",
					"outputs": [
						{
							"internalType": "uint256",
							"name": "",
							"type": "uint256"
						}
					],
					"stateMutability": "view",
					"type": "function"
				},
				{
					"inputs": [
						{
							"internalType": "uint256",
							"name": "i",
							"type": "uint256"
						}
					],
					"name": "testFind",
					"outputs": [
						{
							"internalType": "uint256",
							"name": "",
							"type": "uint256"
						}
					],
					"stateMutability": "view",
					"type": "function"
				}
			],
			"devdoc": {
				"kind": "dev",
				"methods": {},
				"version": 1
			},
			"evm": {
				"assembly": "    /* \"contracts/solidity.series/deploy.sol\":5954:5983  uint[] public array = [3,2,1] */\n  0xe0\n    /* \"contracts/solidity.series/deploy.sol\":5766:6197  contract TestArray{... */\n  0x40\n    /* \"contracts/solidity.series/deploy.sol\":5954:5983  uint[] public array = [3,2,1] */\n  mstore\n    /* \"contracts/solidity.series/deploy.sol\":5977:5978  3 */\n  0x03\n    /* \"contracts/solidity.series/deploy.sol\":5766:6197  contract TestArray{... */\n  0x80\n    /* \"contracts/solidity.series/deploy.sol\":5954:5983  uint[] public array = [3,2,1] */\n  dup2\n  dup2\n  mstore\n    /* \"contracts/solidity.series/deploy.sol\":5979:5980  2 */\n  0x02\n    /* \"contracts/solidity.series/deploy.sol\":5954:5983  uint[] public array = [3,2,1] */\n  0xa0\n  mstore\n    /* \"contracts/solidity.series/deploy.sol\":5981:5982  1 */\n  0x01\n    /* \"contracts/solidity.series/deploy.sol\":5954:5983  uint[] public array = [3,2,1] */\n  0xc0\n  mstore\n  tag_1\n  swap2\n  0x00\n  swap2\n    /* \"contracts/solidity.series/deploy.sol\":5766:6197  contract TestArray{... */\n  swap1\n    /* \"contracts/solidity.series/deploy.sol\":5954:5983  uint[] public array = [3,2,1] */\n  tag_2\n  jump\t// in\ntag_1:\n  pop\n    /* \"contracts/solidity.series/deploy.sol\":5766:6197  contract TestArray{... */\n  callvalue\n  dup1\n  iszero\n  tag_3\n  jumpi\n  0x00\n  dup1\n  revert\ntag_3:\n  pop\n  jump(tag_4)\ntag_2:\n  dup3\n  dup1\n  sload\n  dup3\n  dup3\n  sstore\n  swap1\n  0x00\n  mstore\n  keccak256(0x00, 0x20)\n  swap1\n  dup2\n  add\n  swap3\n  dup3\n  iszero\n  tag_7\n  jumpi\n  swap2\n  0x20\n  mul\n  dup3\n  add\ntag_6:\n  dup3\n  dup2\n  gt\n  iszero\n  tag_7\n  jumpi\n  dup3\n  mload\n  dup3\n  swap1\n  0xff\n  and\n  swap1\n  sstore\n  swap2\n  0x20\n  add\n  swap2\n  swap1\n  0x01\n  add\n  swap1\n  jump(tag_6)\ntag_7:\n  pop\n  tag_8\n  swap3\n  swap2\n  pop\n  tag_9\n  jump\t// in\ntag_8:\n  pop\n  swap1\n  jump\t// out\ntag_9:\ntag_10:\n  dup1\n  dup3\n  gt\n  iszero\n  tag_8\n  jumpi\n  0x00\n  dup2\n  sstore\n  0x01\n  add\n  jump(tag_10)\ntag_4:\n  dataSize(sub_0)\n  dup1\n  dataOffset(sub_0)\n  0x00\n  codecopy\n  0x00\n  return\nstop\n\nsub_0: assembly {\n        /* \"contracts/solidity.series/deploy.sol\":5766:6197  contract TestArray{... */\n      mstore(0x40, 0x80)\n      callvalue\n      dup1\n      iszero\n      tag_1\n      jumpi\n      0x00\n      dup1\n      revert\n    tag_1:\n      pop\n      jumpi(tag_2, lt(calldatasize, 0x04))\n      shr(0xe0, calldataload(0x00))\n      dup1\n      0x1ae1420c\n      eq\n      tag_3\n      jumpi\n      dup1\n      0x38d94193\n      eq\n      tag_4\n      jumpi\n    tag_2:\n      0x00\n      dup1\n      revert\n        /* \"contracts/solidity.series/deploy.sol\":5990:6195  function testFind(uint i) external  view returns(uint ){... */\n    tag_3:\n      tag_5\n      tag_6\n      calldatasize\n      0x04\n      tag_7\n      jump\t// in\n    tag_6:\n      tag_8\n      jump\t// in\n    tag_5:\n      mload(0x40)\n        /* \"#utility.yul\":345:370   */\n      swap1\n      dup2\n      mstore\n        /* \"#utility.yul\":333:335   */\n      0x20\n        /* \"#utility.yul\":318:336   */\n      add\n        /* \"contracts/solidity.series/deploy.sol\":5990:6195  function testFind(uint i) external  view returns(uint ){... */\n      mload(0x40)\n      dup1\n      swap2\n      sub\n      swap1\n      return\n        /* \"contracts/solidity.series/deploy.sol\":5954:5983  uint[] public array = [3,2,1] */\n    tag_4:\n      tag_5\n      tag_12\n      calldatasize\n      0x04\n      tag_7\n      jump\t// in\n    tag_12:\n      tag_13\n      jump\t// in\n        /* \"contracts/solidity.series/deploy.sol\":5990:6195  function testFind(uint i) external  view returns(uint ){... */\n    tag_8:\n        /* \"contracts/solidity.series/deploy.sol\":6039:6043  uint */\n      0x00\n        /* \"contracts/solidity.series/deploy.sol\":6175:6188  array.find(i) */\n      tag_16\n        /* \"contracts/solidity.series/deploy.sol\":6039:6043  uint */\n      dup2\n        /* \"contracts/solidity.series/deploy.sol\":6186:6187  i */\n      dup4\n        /* \"contracts/solidity.series/deploy.sol\":6175:6185  array.find */\n      tag_17\n        /* \"contracts/solidity.series/deploy.sol\":6175:6188  array.find(i) */\n      jump\t// in\n    tag_16:\n        /* \"contracts/solidity.series/deploy.sol\":6168:6188  return array.find(i) */\n      swap3\n        /* \"contracts/solidity.series/deploy.sol\":5990:6195  function testFind(uint i) external  view returns(uint ){... */\n      swap2\n      pop\n      pop\n      jump\t// out\n        /* \"contracts/solidity.series/deploy.sol\":5954:5983  uint[] public array = [3,2,1] */\n    tag_13:\n      0x00\n      dup2\n      dup2\n      sload\n      dup2\n      lt\n      tag_18\n      jumpi\n      0x00\n      dup1\n      revert\n    tag_18:\n      0x00\n      swap2\n      dup3\n      mstore\n      0x20\n      swap1\n      swap2\n      keccak256\n      add\n      sload\n      swap1\n      pop\n      dup2\n      jump\t// out\n        /* \"contracts/solidity.series/deploy.sol\":5530:5762  function find(uint[] storage unit,uint x) internal view returns(uint){... */\n    tag_17:\n        /* \"contracts/solidity.series/deploy.sol\":5594:5598  uint */\n      0x00\n      dup1\n        /* \"contracts/solidity.series/deploy.sol\":5609:5727  for(uint i = 0 ;i < unit.length; i++){... */\n    tag_21:\n        /* \"contracts/solidity.series/deploy.sol\":5629:5640  unit.length */\n      dup4\n      sload\n        /* \"contracts/solidity.series/deploy.sol\":5625:5640  i < unit.length */\n      dup2\n      lt\n        /* \"contracts/solidity.series/deploy.sol\":5609:5727  for(uint i = 0 ;i < unit.length; i++){... */\n      iszero\n      tag_22\n      jumpi\n        /* \"contracts/solidity.series/deploy.sol\":5674:5675  x */\n      dup3\n        /* \"contracts/solidity.series/deploy.sol\":5663:5667  unit */\n      dup5\n        /* \"contracts/solidity.series/deploy.sol\":5668:5669  i */\n      dup3\n        /* \"contracts/solidity.series/deploy.sol\":5663:5670  unit[i] */\n      dup2\n      sload\n      dup2\n      lt\n      tag_25\n      jumpi\n      tag_25\n      tag_26\n      jump\t// in\n    tag_25:\n      swap1\n      0x00\n      mstore\n      keccak256(0x00, 0x20)\n      add\n      sload\n        /* \"contracts/solidity.series/deploy.sol\":5663:5675  unit[i] == x */\n      sub\n        /* \"contracts/solidity.series/deploy.sol\":5660:5717  if(unit[i] == x){... */\n      tag_28\n      jumpi\n        /* \"contracts/solidity.series/deploy.sol\":5701:5702  i */\n      swap1\n      pop\n        /* \"contracts/solidity.series/deploy.sol\":5694:5702  return i */\n      jump(tag_16)\n        /* \"contracts/solidity.series/deploy.sol\":5660:5717  if(unit[i] == x){... */\n    tag_28:\n        /* \"contracts/solidity.series/deploy.sol\":5642:5645  i++ */\n      0x01\n      add\n        /* \"contracts/solidity.series/deploy.sol\":5609:5727  for(uint i = 0 ;i < unit.length; i++){... */\n      jump(tag_21)\n    tag_22:\n      pop\n        /* \"contracts/solidity.series/deploy.sol\":5736:5755  revert(\"Not found\") */\n      mload(0x40)\n      shl(0xe5, 0x461bcd)\n      dup2\n      mstore\n        /* \"#utility.yul\":715:717   */\n      0x20\n        /* \"contracts/solidity.series/deploy.sol\":5736:5755  revert(\"Not found\") */\n      0x04\n      dup3\n      add\n        /* \"#utility.yul\":697:718   */\n      mstore\n        /* \"#utility.yul\":754:755   */\n      0x09\n        /* \"#utility.yul\":734:752   */\n      0x24\n      dup3\n      add\n        /* \"#utility.yul\":727:756   */\n      mstore\n      shl(0xba, 0x139bdd08199bdd5b99)\n        /* \"#utility.yul\":772:790   */\n      0x44\n      dup3\n      add\n        /* \"#utility.yul\":765:804   */\n      mstore\n        /* \"#utility.yul\":821:839   */\n      0x64\n      add\n        /* \"contracts/solidity.series/deploy.sol\":5736:5755  revert(\"Not found\") */\n      mload(0x40)\n      dup1\n      swap2\n      sub\n      swap1\n      revert\n        /* \"#utility.yul\":14:194   */\n    tag_7:\n        /* \"#utility.yul\":73:79   */\n      0x00\n        /* \"#utility.yul\":126:128   */\n      0x20\n        /* \"#utility.yul\":114:123   */\n      dup3\n        /* \"#utility.yul\":105:112   */\n      dup5\n        /* \"#utility.yul\":101:124   */\n      sub\n        /* \"#utility.yul\":97:129   */\n      slt\n        /* \"#utility.yul\":94:146   */\n      iszero\n      tag_33\n      jumpi\n        /* \"#utility.yul\":142:143   */\n      0x00\n        /* \"#utility.yul\":139:140   */\n      dup1\n        /* \"#utility.yul\":132:144   */\n      revert\n        /* \"#utility.yul\":94:146   */\n    tag_33:\n      pop\n        /* \"#utility.yul\":165:188   */\n      calldataload\n      swap2\n        /* \"#utility.yul\":14:194   */\n      swap1\n      pop\n      jump\t// out\n        /* \"#utility.yul\":381:508   */\n    tag_26:\n        /* \"#utility.yul\":442:452   */\n      0x4e487b71\n        /* \"#utility.yul\":437:440   */\n      0xe0\n        /* \"#utility.yul\":433:453   */\n      shl\n        /* \"#utility.yul\":430:431   */\n      0x00\n        /* \"#utility.yul\":423:454   */\n      mstore\n        /* \"#utility.yul\":473:477   */\n      0x32\n        /* \"#utility.yul\":470:471   */\n      0x04\n        /* \"#utility.yul\":463:478   */\n      mstore\n        /* \"#utility.yul\":497:501   */\n      0x24\n        /* \"#utility.yul\":494:495   */\n      0x00\n        /* \"#utility.yul\":487:502   */\n      revert\n\n    auxdata: 0xa26469706673582212206addffe33656467d308e93378882afa245e435560d3ca845781663e58f15c84464736f6c63430008160033\n}\n",
				"bytecode": {
					"linkReferences": {},
					"object": "60e060405260036080818152600260a052600160c052610021915f9190610033565b5034801561002d575f80fd5b50610095565b828054828255905f5260205f20908101928215610071579160200282015b82811115610071578251829060ff16905591602001919060010190610051565b5061007d929150610081565b5090565b5b8082111561007d575f8155600101610082565b610175806100a25f395ff3fe608060405234801561000f575f80fd5b5060043610610034575f3560e01c80631ae1420c1461003857806338d941931461005d575b5f80fd5b61004b610046366004610114565b610070565b60405190815260200160405180910390f35b61004b61006b366004610114565b610081565b5f61007b818361009f565b92915050565b5f818154811061008f575f80fd5b5f91825260209091200154905081565b5f805b83548110156100db57828482815481106100be576100be61012b565b905f5260205f200154036100d357905061007b565b6001016100a2565b5060405162461bcd60e51b8152602060048201526009602482015268139bdd08199bdd5b9960ba1b604482015260640160405180910390fd5b5f60208284031215610124575f80fd5b5035919050565b634e487b7160e01b5f52603260045260245ffdfea26469706673582212206addffe33656467d308e93378882afa245e435560d3ca845781663e58f15c84464736f6c63430008160033",
					"opcodes": "PUSH1 0xE0 PUSH1 0x40 MSTORE PUSH1 0x3 PUSH1 0x80 DUP2 DUP2 MSTORE PUSH1 0x2 PUSH1 0xA0 MSTORE PUSH1 0x1 PUSH1 0xC0 MSTORE PUSH2 0x21 SWAP2 PUSH0 SWAP2 SWAP1 PUSH2 0x33 JUMP JUMPDEST POP CALLVALUE DUP1 ISZERO PUSH2 0x2D JUMPI PUSH0 DUP1 REVERT JUMPDEST POP PUSH2 0x95 JUMP JUMPDEST DUP3 DUP1 SLOAD DUP3 DUP3 SSTORE SWAP1 PUSH0 MSTORE PUSH1 0x20 PUSH0 KECCAK256 SWAP1 DUP2 ADD SWAP3 DUP3 ISZERO PUSH2 0x71 JUMPI SWAP2 PUSH1 0x20 MUL DUP3 ADD JUMPDEST DUP3 DUP2 GT ISZERO PUSH2 0x71 JUMPI DUP3 MLOAD DUP3 SWAP1 PUSH1 0xFF AND SWAP1 SSTORE SWAP2 PUSH1 0x20 ADD SWAP2 SWAP1 PUSH1 0x1 ADD SWAP1 PUSH2 0x51 JUMP JUMPDEST POP PUSH2 0x7D SWAP3 SWAP2 POP PUSH2 0x81 JUMP JUMPDEST POP SWAP1 JUMP JUMPDEST JUMPDEST DUP1 DUP3 GT ISZERO PUSH2 0x7D JUMPI PUSH0 DUP2 SSTORE PUSH1 0x1 ADD PUSH2 0x82 JUMP JUMPDEST PUSH2 0x175 DUP1 PUSH2 0xA2 PUSH0 CODECOPY PUSH0 RETURN INVALID PUSH1 0x80 PUSH1 0x40 MSTORE CALLVALUE DUP1 ISZERO PUSH2 0xF JUMPI PUSH0 DUP1 REVERT JUMPDEST POP PUSH1 0x4 CALLDATASIZE LT PUSH2 0x34 JUMPI PUSH0 CALLDATALOAD PUSH1 0xE0 SHR DUP1 PUSH4 0x1AE1420C EQ PUSH2 0x38 JUMPI DUP1 PUSH4 0x38D94193 EQ PUSH2 0x5D JUMPI JUMPDEST PUSH0 DUP1 REVERT JUMPDEST PUSH2 0x4B PUSH2 0x46 CALLDATASIZE PUSH1 0x4 PUSH2 0x114 JUMP JUMPDEST PUSH2 0x70 JUMP JUMPDEST PUSH1 0x40 MLOAD SWAP1 DUP2 MSTORE PUSH1 0x20 ADD PUSH1 0x40 MLOAD DUP1 SWAP2 SUB SWAP1 RETURN JUMPDEST PUSH2 0x4B PUSH2 0x6B CALLDATASIZE PUSH1 0x4 PUSH2 0x114 JUMP JUMPDEST PUSH2 0x81 JUMP JUMPDEST PUSH0 PUSH2 0x7B DUP2 DUP4 PUSH2 0x9F JUMP JUMPDEST SWAP3 SWAP2 POP POP JUMP JUMPDEST PUSH0 DUP2 DUP2 SLOAD DUP2 LT PUSH2 0x8F JUMPI PUSH0 DUP1 REVERT JUMPDEST PUSH0 SWAP2 DUP3 MSTORE PUSH1 0x20 SWAP1 SWAP2 KECCAK256 ADD SLOAD SWAP1 POP DUP2 JUMP JUMPDEST PUSH0 DUP1 JUMPDEST DUP4 SLOAD DUP2 LT ISZERO PUSH2 0xDB JUMPI DUP3 DUP5 DUP3 DUP2 SLOAD DUP2 LT PUSH2 0xBE JUMPI PUSH2 0xBE PUSH2 0x12B JUMP JUMPDEST SWAP1 PUSH0 MSTORE PUSH1 0x20 PUSH0 KECCAK256 ADD SLOAD SUB PUSH2 0xD3 JUMPI SWAP1 POP PUSH2 0x7B JUMP JUMPDEST PUSH1 0x1 ADD PUSH2 0xA2 JUMP JUMPDEST POP PUSH1 0x40 MLOAD PUSH3 0x461BCD PUSH1 0xE5 SHL DUP2 MSTORE PUSH1 0x20 PUSH1 0x4 DUP3 ADD MSTORE PUSH1 0x9 PUSH1 0x24 DUP3 ADD MSTORE PUSH9 0x139BDD08199BDD5B99 PUSH1 0xBA SHL PUSH1 0x44 DUP3 ADD MSTORE PUSH1 0x64 ADD PUSH1 0x40 MLOAD DUP1 SWAP2 SUB SWAP1 REVERT JUMPDEST PUSH0 PUSH1 0x20 DUP3 DUP5 SUB SLT ISZERO PUSH2 0x124 JUMPI PUSH0 DUP1 REVERT JUMPDEST POP CALLDATALOAD SWAP2 SWAP1 POP JUMP JUMPDEST PUSH4 0x4E487B71 PUSH1 0xE0 SHL PUSH0 MSTORE PUSH1 0x32 PUSH1 0x4 MSTORE PUSH1 0x24 PUSH0 REVERT INVALID LOG2 PUSH5 0x6970667358 0x22 SLT KECCAK256 PUSH11 0xDDFFE33656467D308E9337 DUP9 DUP3 0xAF LOG2 GASLIMIT 0xE4 CALLDATALOAD JUMP 0xD EXTCODECOPY 0xA8 GASLIMIT PUSH25 0x1663E58F15C84464736F6C6343000816003300000000000000 "
				},
				"gasEstimates": {
					"creation": {
						"codeDepositCost": "74600",
						"executionCost": "infinite",
						"totalCost": "infinite"
					},
					"external": {
						"array(uint256)": "4559",
						"testFind(uint256)": "infinite"
					}
				},
				"methodIdentifiers": {
					"array(uint256)": "38d94193",
					"testFind(uint256)": "1ae1420c"
				}
			},
			"storageLayout": {
				"storage": [
					{
						"astId": 520,
						"contract": "contracts/solidity.series/deploy.sol:TestArray",
						"label": "array",
						"offset": 0,
						"slot": "0",
						"type": "t_array(t_uint256)dyn_storage"
					}
				],
				"types": {
					"t_array(t_uint256)dyn_storage": {
						"base": "t_uint256",
						"encoding": "dynamic_array",
						"label": "uint256[]",
						"numberOfBytes": "32"
					},
					"t_uint256": {
						"encoding": "inplace",
						"label": "uint256",
						"numberOfBytes": "32"
					}
				}
			},
			"userdoc": {
				"kind": "user",
				"methods": {},
				"version": 1
			}
		}
	}
}