{
	"contracts/solidity.series/deploy.sol": {
		"TestDelegateCall": {
			"abi": [
				{
					"inputs": [],
					"name": "num",
					"outputs": [
						{
							"internalType": "uint256",
							"name": "",
							"type": "uint256"
						}
					],
					"stateMutability": "view",
					"type": "function"
				},
				{
					"inputs": [],
					"name": "sender",
					"outputs": [
						{
							"internalType": "address",
							"name": "",
							"type": "address"
						}
					],
					"stateMutability": "view",
					"type": "function"
				},
				{
					"inputs": [
						{
							"internalType": "uint256",
							"name": "_num",
							"type": "uint256"
						}
					],
					"name": "setVars",
					"outputs": [],
					"stateMutability": "payable",
					"type": "function"
				},
				{
					"inputs": [],
					"name": "value",
					"outputs": [
						{
							"internalType": "uint256",
							"name": "",
							"type": "uint256"
						}
					],
					"stateMutability": "view",
					"type": "function"
				}
			],
			"devdoc": {
				"kind": "dev",
				"methods": {},
				"version": 1
			},
			"evm": {
				"assembly": "    /* \"contracts/solidity.series/deploy.sol\":3927:4170  contract TestDelegateCall {... */\n  mstore(0x40, 0x80)\n  callvalue\n  dup1\n  iszero\n  tag_1\n  jumpi\n  0x00\n  dup1\n  revert\ntag_1:\n  pop\n  dataSize(sub_0)\n  dup1\n  dataOffset(sub_0)\n  0x00\n  codecopy\n  0x00\n  return\nstop\n\nsub_0: assembly {\n        /* \"contracts/solidity.series/deploy.sol\":3927:4170  contract TestDelegateCall {... */\n      mstore(0x40, 0x80)\n      jumpi(tag_1, lt(calldatasize, 0x04))\n      shr(0xe0, calldataload(0x00))\n      dup1\n      0x3fa4f245\n      eq\n      tag_2\n      jumpi\n      dup1\n      0x4e70b1dc\n      eq\n      tag_3\n      jumpi\n      dup1\n      0x6466414b\n      eq\n      tag_4\n      jumpi\n      dup1\n      0x67e404ce\n      eq\n      tag_5\n      jumpi\n    tag_1:\n      0x00\n      dup1\n      revert\n        /* \"contracts/solidity.series/deploy.sol\":4010:4030  uint256 public value */\n    tag_2:\n      callvalue\n      dup1\n      iszero\n      tag_6\n      jumpi\n      0x00\n      dup1\n      revert\n    tag_6:\n      pop\n      tag_7\n      sload(0x02)\n      dup2\n      jump\n    tag_7:\n      mload(0x40)\n        /* \"#utility.yul\":160:185   */\n      swap1\n      dup2\n      mstore\n        /* \"#utility.yul\":148:150   */\n      0x20\n        /* \"#utility.yul\":133:151   */\n      add\n        /* \"contracts/solidity.series/deploy.sol\":4010:4030  uint256 public value */\n    tag_9:\n      mload(0x40)\n      dup1\n      swap2\n      sub\n      swap1\n      return\n        /* \"contracts/solidity.series/deploy.sol\":3959:3977  uint256 public num */\n    tag_3:\n      callvalue\n      dup1\n      iszero\n      tag_11\n      jumpi\n      0x00\n      dup1\n      revert\n    tag_11:\n      pop\n      tag_7\n      sload(0x00)\n      dup2\n      jump\n        /* \"contracts/solidity.series/deploy.sol\":4037:4168  function setVars(uint256 _num) external payable {... */\n    tag_4:\n      tag_15\n      tag_16\n      calldatasize\n      0x04\n      tag_17\n      jump\t// in\n    tag_16:\n        /* \"contracts/solidity.series/deploy.sol\":4095:4098  num */\n      0x00\n        /* \"contracts/solidity.series/deploy.sol\":4095:4105  num = _num */\n      sstore\n        /* \"contracts/solidity.series/deploy.sol\":4115:4121  sender */\n      0x01\n        /* \"contracts/solidity.series/deploy.sol\":4115:4134  sender = msg.sender */\n      dup1\n      sload\n      not(sub(shl(0xa0, 0x01), 0x01))\n      and\n        /* \"contracts/solidity.series/deploy.sol\":4124:4134  msg.sender */\n      caller\n        /* \"contracts/solidity.series/deploy.sol\":4115:4134  sender = msg.sender */\n      or\n      swap1\n      sstore\n        /* \"contracts/solidity.series/deploy.sol\":4152:4161  msg.value */\n      callvalue\n        /* \"contracts/solidity.series/deploy.sol\":4144:4149  value */\n      0x02\n        /* \"contracts/solidity.series/deploy.sol\":4144:4161  value = msg.value */\n      sstore\n        /* \"contracts/solidity.series/deploy.sol\":4037:4168  function setVars(uint256 _num) external payable {... */\n      jump\n    tag_15:\n      stop\n        /* \"contracts/solidity.series/deploy.sol\":3983:4004  address public sender */\n    tag_5:\n      callvalue\n      dup1\n      iszero\n      tag_19\n      jumpi\n      0x00\n      dup1\n      revert\n    tag_19:\n      pop\n      sload(0x01)\n      tag_20\n      swap1\n      sub(shl(0xa0, 0x01), 0x01)\n      and\n      dup2\n      jump\n    tag_20:\n      mload(0x40)\n      sub(shl(0xa0, 0x01), 0x01)\n        /* \"#utility.yul\":545:577   */\n      swap1\n      swap2\n      and\n        /* \"#utility.yul\":527:578   */\n      dup2\n      mstore\n        /* \"#utility.yul\":515:517   */\n      0x20\n        /* \"#utility.yul\":500:518   */\n      add\n        /* \"contracts/solidity.series/deploy.sol\":3983:4004  address public sender */\n      tag_9\n        /* \"#utility.yul\":381:584   */\n      jump\n        /* \"#utility.yul\":196:376   */\n    tag_17:\n        /* \"#utility.yul\":255:261   */\n      0x00\n        /* \"#utility.yul\":308:310   */\n      0x20\n        /* \"#utility.yul\":296:305   */\n      dup3\n        /* \"#utility.yul\":287:294   */\n      dup5\n        /* \"#utility.yul\":283:306   */\n      sub\n        /* \"#utility.yul\":279:311   */\n      slt\n        /* \"#utility.yul\":276:328   */\n      iszero\n      tag_28\n      jumpi\n        /* \"#utility.yul\":324:325   */\n      0x00\n        /* \"#utility.yul\":321:322   */\n      dup1\n        /* \"#utility.yul\":314:326   */\n      revert\n        /* \"#utility.yul\":276:328   */\n    tag_28:\n      pop\n        /* \"#utility.yul\":347:370   */\n      calldataload\n      swap2\n        /* \"#utility.yul\":196:376   */\n      swap1\n      pop\n      jump\t// out\n\n    auxdata: 0xa26469706673582212200b6053809494df6a7eff81dfe7ef766529f4e64515d6238b9a8caa7b1c5572b464736f6c63430008160033\n}\n",
				"bytecode": {
					"linkReferences": {},
					"object": "608060405234801561000f575f80fd5b5061011c8061001d5f395ff3fe6080604052600436106039575f3560e01c80633fa4f24514603d5780634e70b1dc1460635780636466414b14607557806367e404ce14609c575b5f80fd5b3480156047575f80fd5b50605060025481565b6040519081526020015b60405180910390f35b348015606d575f80fd5b5060505f5481565b609a608036600460d0565b5f55600180546001600160a01b0319163317905534600255565b005b34801560a6575f80fd5b5060015460b9906001600160a01b031681565b6040516001600160a01b039091168152602001605a565b5f6020828403121560df575f80fd5b503591905056fea26469706673582212200b6053809494df6a7eff81dfe7ef766529f4e64515d6238b9a8caa7b1c5572b464736f6c63430008160033",
					"opcodes": "PUSH1 0x80 PUSH1 0x40 MSTORE CALLVALUE DUP1 ISZERO PUSH2 0xF JUMPI PUSH0 DUP1 REVERT JUMPDEST POP PUSH2 0x11C DUP1 PUSH2 0x1D PUSH0 CODECOPY PUSH0 RETURN INVALID PUSH1 0x80 PUSH1 0x40 MSTORE PUSH1 0x4 CALLDATASIZE LT PUSH1 0x39 JUMPI PUSH0 CALLDATALOAD PUSH1 0xE0 SHR DUP1 PUSH4 0x3FA4F245 EQ PUSH1 0x3D JUMPI DUP1 PUSH4 0x4E70B1DC EQ PUSH1 0x63 JUMPI DUP1 PUSH4 0x6466414B EQ PUSH1 0x75 JUMPI DUP1 PUSH4 0x67E404CE EQ PUSH1 0x9C JUMPI JUMPDEST PUSH0 DUP1 REVERT JUMPDEST CALLVALUE DUP1 ISZERO PUSH1 0x47 JUMPI PUSH0 DUP1 REVERT JUMPDEST POP PUSH1 0x50 PUSH1 0x2 SLOAD DUP2 JUMP JUMPDEST PUSH1 0x40 MLOAD SWAP1 DUP2 MSTORE PUSH1 0x20 ADD JUMPDEST PUSH1 0x40 MLOAD DUP1 SWAP2 SUB SWAP1 RETURN JUMPDEST CALLVALUE DUP1 ISZERO PUSH1 0x6D JUMPI PUSH0 DUP1 REVERT JUMPDEST POP PUSH1 0x50 PUSH0 SLOAD DUP2 JUMP JUMPDEST PUSH1 0x9A PUSH1 0x80 CALLDATASIZE PUSH1 0x4 PUSH1 0xD0 JUMP JUMPDEST PUSH0 SSTORE PUSH1 0x1 DUP1 SLOAD PUSH1 0x1 PUSH1 0x1 PUSH1 0xA0 SHL SUB NOT AND CALLER OR SWAP1 SSTORE CALLVALUE PUSH1 0x2 SSTORE JUMP JUMPDEST STOP JUMPDEST CALLVALUE DUP1 ISZERO PUSH1 0xA6 JUMPI PUSH0 DUP1 REVERT JUMPDEST POP PUSH1 0x1 SLOAD PUSH1 0xB9 SWAP1 PUSH1 0x1 PUSH1 0x1 PUSH1 0xA0 SHL SUB AND DUP2 JUMP JUMPDEST PUSH1 0x40 MLOAD PUSH1 0x1 PUSH1 0x1 PUSH1 0xA0 SHL SUB SWAP1 SWAP2 AND DUP2 MSTORE PUSH1 0x20 ADD PUSH1 0x5A JUMP JUMPDEST PUSH0 PUSH1 0x20 DUP3 DUP5 SUB SLT ISZERO PUSH1 0xDF JUMPI PUSH0 DUP1 REVERT JUMPDEST POP CALLDATALOAD SWAP2 SWAP1 POP JUMP INVALID LOG2 PUSH5 0x6970667358 0x22 SLT KECCAK256 SIGNEXTEND PUSH1 0x53 DUP1 SWAP5 SWAP5 0xDF PUSH11 0x7EFF81DFE7EF766529F4E6 GASLIMIT ISZERO 0xD6 0x23 DUP12 SWAP11 DUP13 0xAA PUSH28 0x1C5572B464736F6C6343000816003300000000000000000000000000 "
				},
				"gasEstimates": {
					"creation": {
						"codeDepositCost": "56800",
						"executionCost": "103",
						"totalCost": "56903"
					},
					"external": {
						"num()": "2282",
						"sender()": "2380",
						"setVars(uint256)": "68647",
						"value()": "2261"
					}
				},
				"methodIdentifiers": {
					"num()": "4e70b1dc",
					"sender()": "67e404ce",
					"setVars(uint256)": "6466414b",
					"value()": "3fa4f245"
				}
			},
			"storageLayout": {
				"storage": [
					{
						"astId": 328,
						"contract": "contracts/solidity.series/deploy.sol:TestDelegateCall",
						"label": "num",
						"offset": 0,
						"slot": "0",
						"type": "t_uint256"
					},
					{
						"astId": 330,
						"contract": "contracts/solidity.series/deploy.sol:TestDelegateCall",
						"label": "sender",
						"offset": 0,
						"slot": "1",
						"type": "t_address"
					},
					{
						"astId": 332,
						"contract": "contracts/solidity.series/deploy.sol:TestDelegateCall",
						"label": "value",
						"offset": 0,
						"slot": "2",
						"type": "t_uint256"
					}
				],
				"types": {
					"t_address": {
						"encoding": "inplace",
						"label": "address",
						"numberOfBytes": "20"
					},
					"t_uint256": {
						"encoding": "inplace",
						"label": "uint256",
						"numberOfBytes": "32"
					}
				}
			},
			"userdoc": {
				"kind": "user",
				"methods": {},
				"version": 1
			}
		}
	}
}