{
	"contracts/solidity.series/deploy.sol": {
		"SendEther": {
			"abi": [
				{
					"inputs": [],
					"stateMutability": "payable",
					"type": "constructor"
				},
				{
					"inputs": [
						{
							"internalType": "address payable",
							"name": "_to",
							"type": "address"
						}
					],
					"name": "sendViaCall",
					"outputs": [],
					"stateMutability": "payable",
					"type": "function"
				},
				{
					"inputs": [
						{
							"internalType": "address payable",
							"name": "_to",
							"type": "address"
						}
					],
					"name": "sendViaSend",
					"outputs": [],
					"stateMutability": "payable",
					"type": "function"
				},
				{
					"inputs": [
						{
							"internalType": "address payable",
							"name": "_to",
							"type": "address"
						}
					],
					"name": "sendViaTransfer",
					"outputs": [],
					"stateMutability": "payable",
					"type": "function"
				},
				{
					"stateMutability": "payable",
					"type": "receive"
				}
			],
			"devdoc": {
				"kind": "dev",
				"methods": {},
				"version": 1
			},
			"evm": {
				"assembly": "    /* \"contracts/solidity.series/deploy.sol\":1659:2163  contract SendEther {... */\n  mstore(0x40, 0x80)\n  dataSize(sub_0)\n  dup1\n  dataOffset(sub_0)\n  0x00\n  codecopy\n  0x00\n  return\nstop\n\nsub_0: assembly {\n        /* \"contracts/solidity.series/deploy.sol\":1659:2163  contract SendEther {... */\n      mstore(0x40, 0x80)\n      jumpi(tag_1, lt(calldatasize, 0x04))\n      shr(0xe0, calldataload(0x00))\n      dup1\n      0x636e082b\n      eq\n      tag_3\n      jumpi\n      dup1\n      0x74be4806\n      eq\n      tag_4\n      jumpi\n      dup1\n      0x830c29ae\n      eq\n      tag_5\n      jumpi\n      0x00\n      dup1\n      revert\n    tag_1:\n      jumpi(tag_2, calldatasize)\n      stop\n    tag_2:\n      0x00\n      dup1\n      revert\n        /* \"contracts/solidity.series/deploy.sol\":1749:1846  function sendViaTransfer(address payable _to) external payable {... */\n    tag_3:\n      tag_8\n      tag_9\n      calldatasize\n      0x04\n      tag_10\n      jump\t// in\n    tag_9:\n      tag_11\n      jump\t// in\n    tag_8:\n      stop\n        /* \"contracts/solidity.series/deploy.sol\":1852:2000  function sendViaSend(address payable _to) external payable {... */\n    tag_4:\n      tag_8\n      tag_13\n      calldatasize\n      0x04\n      tag_10\n      jump\t// in\n    tag_13:\n      tag_14\n      jump\t// in\n        /* \"contracts/solidity.series/deploy.sol\":2006:2161  function sendViaCall(address payable _to) external payable {... */\n    tag_5:\n      tag_8\n      tag_16\n      calldatasize\n      0x04\n      tag_10\n      jump\t// in\n    tag_16:\n      tag_17\n      jump\t// in\n        /* \"contracts/solidity.series/deploy.sol\":1749:1846  function sendViaTransfer(address payable _to) external payable {... */\n    tag_11:\n        /* \"contracts/solidity.series/deploy.sol\":1822:1839  _to.transfer(123) */\n      mload(0x40)\n      sub(shl(0xa0, 0x01), 0x01)\n        /* \"contracts/solidity.series/deploy.sol\":1822:1834  _to.transfer */\n      dup3\n      and\n      swap1\n        /* \"contracts/solidity.series/deploy.sol\":1822:1839  _to.transfer(123) */\n      0x00\n      swap1\n        /* \"contracts/solidity.series/deploy.sol\":1835:1838  123 */\n      0x7b\n      swap1\n        /* \"contracts/solidity.series/deploy.sol\":1822:1839  _to.transfer(123) */\n      dup3\n      dup2\n      dup2\n      dup2\n        /* \"contracts/solidity.series/deploy.sol\":1835:1838  123 */\n      dup6\n        /* \"contracts/solidity.series/deploy.sol\":1822:1834  _to.transfer */\n      dup9\n        /* \"contracts/solidity.series/deploy.sol\":1822:1839  _to.transfer(123) */\n      dup4\n      call\n      swap4\n      pop\n      pop\n      pop\n      pop\n      iszero\n      dup1\n      iszero\n      tag_20\n      jumpi\n      returndatasize\n      0x00\n      dup1\n      returndatacopy\n      revert(0x00, returndatasize)\n    tag_20:\n      pop\n        /* \"contracts/solidity.series/deploy.sol\":1749:1846  function sendViaTransfer(address payable _to) external payable {... */\n      pop\n      jump\t// out\n        /* \"contracts/solidity.series/deploy.sol\":1852:2000  function sendViaSend(address payable _to) external payable {... */\n    tag_14:\n        /* \"contracts/solidity.series/deploy.sol\":1933:1946  _to.send(123) */\n      mload(0x40)\n        /* \"contracts/solidity.series/deploy.sol\":1921:1930  bool sent */\n      0x00\n      swap1\n      sub(shl(0xa0, 0x01), 0x01)\n        /* \"contracts/solidity.series/deploy.sol\":1933:1941  _to.send */\n      dup4\n      and\n      swap1\n        /* \"contracts/solidity.series/deploy.sol\":1921:1930  bool sent */\n      dup3\n      swap1\n        /* \"contracts/solidity.series/deploy.sol\":1942:1945  123 */\n      0x7b\n      swap1\n        /* \"contracts/solidity.series/deploy.sol\":1921:1930  bool sent */\n      dup3\n        /* \"contracts/solidity.series/deploy.sol\":1933:1946  _to.send(123) */\n      dup2\n        /* \"contracts/solidity.series/deploy.sol\":1921:1930  bool sent */\n      dup2\n        /* \"contracts/solidity.series/deploy.sol\":1933:1946  _to.send(123) */\n      dup2\n        /* \"contracts/solidity.series/deploy.sol\":1942:1945  123 */\n      dup6\n        /* \"contracts/solidity.series/deploy.sol\":1933:1941  _to.send */\n      dup9\n        /* \"contracts/solidity.series/deploy.sol\":1921:1930  bool sent */\n      dup4\n        /* \"contracts/solidity.series/deploy.sol\":1933:1946  _to.send(123) */\n      call\n      swap4\n      pop\n      pop\n      pop\n      pop\n        /* \"contracts/solidity.series/deploy.sol\":1921:1946  bool sent = _to.send(123) */\n      swap1\n      pop\n        /* \"contracts/solidity.series/deploy.sol\":1964:1968  sent */\n      dup1\n        /* \"contracts/solidity.series/deploy.sol\":1956:1993  require(sent, \"Failed t0 send Ether\") */\n      tag_20\n      jumpi\n      mload(0x40)\n      shl(0xe5, 0x461bcd)\n      dup2\n      mstore\n        /* \"#utility.yul\":515:517   */\n      0x20\n        /* \"contracts/solidity.series/deploy.sol\":1956:1993  require(sent, \"Failed t0 send Ether\") */\n      0x04\n      dup3\n      add\n        /* \"#utility.yul\":497:518   */\n      mstore\n        /* \"#utility.yul\":554:556   */\n      0x14\n        /* \"#utility.yul\":534:552   */\n      0x24\n      dup3\n      add\n        /* \"#utility.yul\":527:557   */\n      mstore\n      shl(0x61, 0x2330b4b632b2103a181039b2b7321022ba3432b9)\n        /* \"#utility.yul\":573:591   */\n      0x44\n      dup3\n      add\n        /* \"#utility.yul\":566:616   */\n      mstore\n        /* \"#utility.yul\":633:651   */\n      0x64\n      add\n        /* \"contracts/solidity.series/deploy.sol\":1956:1993  require(sent, \"Failed t0 send Ether\") */\n    tag_24:\n      mload(0x40)\n      dup1\n      swap2\n      sub\n      swap1\n      revert\n        /* \"contracts/solidity.series/deploy.sol\":2006:2161  function sendViaCall(address payable _to) external payable {... */\n    tag_17:\n        /* \"contracts/solidity.series/deploy.sol\":2076:2088  bool success */\n      0x00\n        /* \"contracts/solidity.series/deploy.sol\":2094:2097  _to */\n      dup2\n      sub(shl(0xa0, 0x01), 0x01)\n        /* \"contracts/solidity.series/deploy.sol\":2094:2102  _to.call */\n      and\n        /* \"contracts/solidity.series/deploy.sol\":2110:2113  123 */\n      0x7b\n        /* \"contracts/solidity.series/deploy.sol\":2094:2118  _to.call{value: 123}(\"\") */\n      mload(0x40)\n      0x00\n      mload(0x40)\n      dup1\n      dup4\n      sub\n      dup2\n      dup6\n      dup8\n      gas\n      call\n      swap3\n      pop\n      pop\n      pop\n      returndatasize\n      dup1\n      0x00\n      dup2\n      eq\n      tag_31\n      jumpi\n      mload(0x40)\n      swap2\n      pop\n      and(add(returndatasize, 0x3f), not(0x1f))\n      dup3\n      add\n      0x40\n      mstore\n      returndatasize\n      dup3\n      mstore\n      returndatasize\n      0x00\n      0x20\n      dup5\n      add\n      returndatacopy\n      jump(tag_30)\n    tag_31:\n      0x60\n      swap2\n      pop\n    tag_30:\n      pop\n        /* \"contracts/solidity.series/deploy.sol\":2075:2118  (bool success, ) = _to.call{value: 123}(\"\") */\n      pop\n      swap1\n      pop\n        /* \"contracts/solidity.series/deploy.sol\":2136:2143  success */\n      dup1\n        /* \"contracts/solidity.series/deploy.sol\":2128:2154  require(success, \"Failed\") */\n      tag_20\n      jumpi\n      mload(0x40)\n      shl(0xe5, 0x461bcd)\n      dup2\n      mstore\n        /* \"#utility.yul\":1074:1076   */\n      0x20\n        /* \"contracts/solidity.series/deploy.sol\":2128:2154  require(success, \"Failed\") */\n      0x04\n      dup3\n      add\n        /* \"#utility.yul\":1056:1077   */\n      mstore\n        /* \"#utility.yul\":1113:1114   */\n      0x06\n        /* \"#utility.yul\":1093:1111   */\n      0x24\n      dup3\n      add\n        /* \"#utility.yul\":1086:1115   */\n      mstore\n      shl(0xd2, 0x11985a5b1959)\n        /* \"#utility.yul\":1131:1149   */\n      0x44\n      dup3\n      add\n        /* \"#utility.yul\":1124:1160   */\n      mstore\n        /* \"#utility.yul\":1177:1195   */\n      0x64\n      add\n        /* \"contracts/solidity.series/deploy.sol\":2128:2154  require(success, \"Failed\") */\n      tag_24\n        /* \"#utility.yul\":872:1201   */\n      jump\n        /* \"#utility.yul\":14:308   */\n    tag_10:\n        /* \"#utility.yul\":81:87   */\n      0x00\n        /* \"#utility.yul\":134:136   */\n      0x20\n        /* \"#utility.yul\":122:131   */\n      dup3\n        /* \"#utility.yul\":113:120   */\n      dup5\n        /* \"#utility.yul\":109:132   */\n      sub\n        /* \"#utility.yul\":105:137   */\n      slt\n        /* \"#utility.yul\":102:154   */\n      iszero\n      tag_37\n      jumpi\n        /* \"#utility.yul\":150:151   */\n      0x00\n        /* \"#utility.yul\":147:148   */\n      dup1\n        /* \"#utility.yul\":140:152   */\n      revert\n        /* \"#utility.yul\":102:154   */\n    tag_37:\n        /* \"#utility.yul\":176:199   */\n      dup2\n      calldataload\n      sub(shl(0xa0, 0x01), 0x01)\n        /* \"#utility.yul\":228:259   */\n      dup2\n      and\n        /* \"#utility.yul\":218:260   */\n      dup2\n      eq\n        /* \"#utility.yul\":208:278   */\n      tag_38\n      jumpi\n        /* \"#utility.yul\":274:275   */\n      0x00\n        /* \"#utility.yul\":271:272   */\n      dup1\n        /* \"#utility.yul\":264:276   */\n      revert\n        /* \"#utility.yul\":208:278   */\n    tag_38:\n        /* \"#utility.yul\":297:302   */\n      swap4\n        /* \"#utility.yul\":14:308   */\n      swap3\n      pop\n      pop\n      pop\n      jump\t// out\n\n    auxdata: 0xa26469706673582212208fb24c6e281eb5f35bb5662f0433a2e9d191e19c333e5a49d7c60dcac43df81d64736f6c63430008160033\n}\n",
				"bytecode": {
					"linkReferences": {},
					"object": "6080604052610208806100115f395ff3fe608060405260043610610036575f3560e01c8063636e082b1461004157806374be480614610056578063830c29ae14610069575f80fd5b3661003d57005b5f80fd5b61005461004f3660046101a5565b61007c565b005b6100546100643660046101a5565b6100af565b6100546100773660046101a5565b61011c565b6040516001600160a01b038216905f90607b9082818181858883f193505050501580156100ab573d5f803e3d5ffd5b5050565b6040515f906001600160a01b038316908290607b9082818181858883f193505050509050806100ab5760405162461bcd60e51b81526020600482015260146024820152732330b4b632b2103a181039b2b7321022ba3432b960611b60448201526064015b60405180910390fd5b5f816001600160a01b0316607b6040515f6040518083038185875af1925050503d805f8114610166576040519150601f19603f3d011682016040523d82523d5f602084013e61016b565b606091505b50509050806100ab5760405162461bcd60e51b815260206004820152600660248201526511985a5b195960d21b6044820152606401610113565b5f602082840312156101b5575f80fd5b81356001600160a01b03811681146101cb575f80fd5b939250505056fea26469706673582212208fb24c6e281eb5f35bb5662f0433a2e9d191e19c333e5a49d7c60dcac43df81d64736f6c63430008160033",
					"opcodes": "PUSH1 0x80 PUSH1 0x40 MSTORE PUSH2 0x208 DUP1 PUSH2 0x11 PUSH0 CODECOPY PUSH0 RETURN INVALID PUSH1 0x80 PUSH1 0x40 MSTORE PUSH1 0x4 CALLDATASIZE LT PUSH2 0x36 JUMPI PUSH0 CALLDATALOAD PUSH1 0xE0 SHR DUP1 PUSH4 0x636E082B EQ PUSH2 0x41 JUMPI DUP1 PUSH4 0x74BE4806 EQ PUSH2 0x56 JUMPI DUP1 PUSH4 0x830C29AE EQ PUSH2 0x69 JUMPI PUSH0 DUP1 REVERT JUMPDEST CALLDATASIZE PUSH2 0x3D JUMPI STOP JUMPDEST PUSH0 DUP1 REVERT JUMPDEST PUSH2 0x54 PUSH2 0x4F CALLDATASIZE PUSH1 0x4 PUSH2 0x1A5 JUMP JUMPDEST PUSH2 0x7C JUMP JUMPDEST STOP JUMPDEST PUSH2 0x54 PUSH2 0x64 CALLDATASIZE PUSH1 0x4 PUSH2 0x1A5 JUMP JUMPDEST PUSH2 0xAF JUMP JUMPDEST PUSH2 0x54 PUSH2 0x77 CALLDATASIZE PUSH1 0x4 PUSH2 0x1A5 JUMP JUMPDEST PUSH2 0x11C JUMP JUMPDEST PUSH1 0x40 MLOAD PUSH1 0x1 PUSH1 0x1 PUSH1 0xA0 SHL SUB DUP3 AND SWAP1 PUSH0 SWAP1 PUSH1 0x7B SWAP1 DUP3 DUP2 DUP2 DUP2 DUP6 DUP9 DUP4 CALL SWAP4 POP POP POP POP ISZERO DUP1 ISZERO PUSH2 0xAB JUMPI RETURNDATASIZE PUSH0 DUP1 RETURNDATACOPY RETURNDATASIZE PUSH0 REVERT JUMPDEST POP POP JUMP JUMPDEST PUSH1 0x40 MLOAD PUSH0 SWAP1 PUSH1 0x1 PUSH1 0x1 PUSH1 0xA0 SHL SUB DUP4 AND SWAP1 DUP3 SWAP1 PUSH1 0x7B SWAP1 DUP3 DUP2 DUP2 DUP2 DUP6 DUP9 DUP4 CALL SWAP4 POP POP POP POP SWAP1 POP DUP1 PUSH2 0xAB JUMPI PUSH1 0x40 MLOAD PUSH3 0x461BCD PUSH1 0xE5 SHL DUP2 MSTORE PUSH1 0x20 PUSH1 0x4 DUP3 ADD MSTORE PUSH1 0x14 PUSH1 0x24 DUP3 ADD MSTORE PUSH20 0x2330B4B632B2103A181039B2B7321022BA3432B9 PUSH1 0x61 SHL PUSH1 0x44 DUP3 ADD MSTORE PUSH1 0x64 ADD JUMPDEST PUSH1 0x40 MLOAD DUP1 SWAP2 SUB SWAP1 REVERT JUMPDEST PUSH0 DUP2 PUSH1 0x1 PUSH1 0x1 PUSH1 0xA0 SHL SUB AND PUSH1 0x7B PUSH1 0x40 MLOAD PUSH0 PUSH1 0x40 MLOAD DUP1 DUP4 SUB DUP2 DUP6 DUP8 GAS CALL SWAP3 POP POP POP RETURNDATASIZE DUP1 PUSH0 DUP2 EQ PUSH2 0x166 JUMPI PUSH1 0x40 MLOAD SWAP2 POP PUSH1 0x1F NOT PUSH1 0x3F RETURNDATASIZE ADD AND DUP3 ADD PUSH1 0x40 MSTORE RETURNDATASIZE DUP3 MSTORE RETURNDATASIZE PUSH0 PUSH1 0x20 DUP5 ADD RETURNDATACOPY PUSH2 0x16B JUMP JUMPDEST PUSH1 0x60 SWAP2 POP JUMPDEST POP POP SWAP1 POP DUP1 PUSH2 0xAB JUMPI PUSH1 0x40 MLOAD PUSH3 0x461BCD PUSH1 0xE5 SHL DUP2 MSTORE PUSH1 0x20 PUSH1 0x4 DUP3 ADD MSTORE PUSH1 0x6 PUSH1 0x24 DUP3 ADD MSTORE PUSH6 0x11985A5B1959 PUSH1 0xD2 SHL PUSH1 0x44 DUP3 ADD MSTORE PUSH1 0x64 ADD PUSH2 0x113 JUMP JUMPDEST PUSH0 PUSH1 0x20 DUP3 DUP5 SUB SLT ISZERO PUSH2 0x1B5 JUMPI PUSH0 DUP1 REVERT JUMPDEST DUP2 CALLDATALOAD PUSH1 0x1 PUSH1 0x1 PUSH1 0xA0 SHL SUB DUP2 AND DUP2 EQ PUSH2 0x1CB JUMPI PUSH0 DUP1 REVERT JUMPDEST SWAP4 SWAP3 POP POP POP JUMP INVALID LOG2 PUSH5 0x6970667358 0x22 SLT KECCAK256 DUP16 0xB2 0x4C PUSH15 0x281EB5F35BB5662F0433A2E9D191E1 SWAP13 CALLER RETURNDATACOPY GAS 0x49 0xD7 0xC6 0xD 0xCA 0xC4 RETURNDATASIZE 0xF8 SAR PUSH5 0x736F6C6343 STOP ADDMOD AND STOP CALLER "
				},
				"gasEstimates": {
					"creation": {
						"codeDepositCost": "104000",
						"executionCost": "127",
						"totalCost": "104127"
					},
					"external": {
						"sendViaCall(address)": "infinite",
						"sendViaSend(address)": "infinite",
						"sendViaTransfer(address)": "infinite"
					}
				},
				"methodIdentifiers": {
					"sendViaCall(address)": "830c29ae",
					"sendViaSend(address)": "74be4806",
					"sendViaTransfer(address)": "636e082b"
				}
			},
			"storageLayout": {
				"storage": [],
				"types": null
			},
			"userdoc": {
				"kind": "user",
				"methods": {},
				"version": 1
			}
		}
	}
}