{
	"contracts/solidity.series/deploy.sol": {
		"Test": {
			"abi": [
				{
					"inputs": [
						{
							"internalType": "uint256",
							"name": "x",
							"type": "uint256"
						},
						{
							"internalType": "uint256",
							"name": "y",
							"type": "uint256"
						}
					],
					"name": "testMax",
					"outputs": [
						{
							"internalType": "uint256",
							"name": "",
							"type": "uint256"
						}
					],
					"stateMutability": "pure",
					"type": "function"
				}
			],
			"devdoc": {
				"kind": "dev",
				"methods": {},
				"version": 1
			},
			"evm": {
				"assembly": "    /* \"contracts/solidity.series/deploy.sol\":5449:5580  contract Test {... */\n  mstore(0x40, 0x80)\n  callvalue\n  dup1\n  iszero\n  tag_1\n  jumpi\n  0x00\n  dup1\n  revert\ntag_1:\n  pop\n  dataSize(sub_0)\n  dup1\n  dataOffset(sub_0)\n  0x00\n  codecopy\n  0x00\n  return\nstop\n\nsub_0: assembly {\n        /* \"contracts/solidity.series/deploy.sol\":5449:5580  contract Test {... */\n      mstore(0x40, 0x80)\n      callvalue\n      dup1\n      iszero\n      tag_1\n      jumpi\n      0x00\n      dup1\n      revert\n    tag_1:\n      pop\n      jumpi(tag_2, lt(calldatasize, 0x04))\n      shr(0xe0, calldataload(0x00))\n      dup1\n      0x834db421\n      eq\n      tag_3\n      jumpi\n    tag_2:\n      0x00\n      dup1\n      revert\n        /* \"contracts/solidity.series/deploy.sol\":5469:5578  function testMax(uint256 x, uint256 y) external pure returns (uint256) {... */\n    tag_3:\n      tag_4\n      tag_5\n      calldatasize\n      0x04\n      tag_6\n      jump\t// in\n    tag_5:\n      tag_7\n      jump\t// in\n    tag_4:\n      mload(0x40)\n        /* \"#utility.yul\":413:438   */\n      swap1\n      dup2\n      mstore\n        /* \"#utility.yul\":401:403   */\n      0x20\n        /* \"#utility.yul\":386:404   */\n      add\n        /* \"contracts/solidity.series/deploy.sol\":5469:5578  function testMax(uint256 x, uint256 y) external pure returns (uint256) {... */\n      mload(0x40)\n      dup1\n      swap2\n      sub\n      swap1\n      return\n    tag_7:\n        /* \"contracts/solidity.series/deploy.sol\":5531:5538  uint256 */\n      0x00\n        /* \"contracts/solidity.series/deploy.sol\":5557:5571  Math.max(x, y) */\n      tag_11\n        /* \"contracts/solidity.series/deploy.sol\":5566:5567  x */\n      dup4\n        /* \"contracts/solidity.series/deploy.sol\":5569:5570  y */\n      dup4\n        /* \"contracts/solidity.series/deploy.sol\":5557:5565  Math.max */\n      tag_12\n        /* \"contracts/solidity.series/deploy.sol\":5557:5571  Math.max(x, y) */\n      jump\t// in\n    tag_11:\n        /* \"contracts/solidity.series/deploy.sol\":5550:5571  return Math.max(x, y) */\n      swap4\n        /* \"contracts/solidity.series/deploy.sol\":5469:5578  function testMax(uint256 x, uint256 y) external pure returns (uint256) {... */\n      swap3\n      pop\n      pop\n      pop\n      jump\t// out\n        /* \"contracts/solidity.series/deploy.sol\":5334:5445  function max(uint256 _x, uint256 _y) internal pure returns (uint256) {... */\n    tag_12:\n        /* \"contracts/solidity.series/deploy.sol\":5394:5401  uint256 */\n      0x00\n        /* \"contracts/solidity.series/deploy.sol\":5426:5428  _y */\n      dup2\n        /* \"contracts/solidity.series/deploy.sol\":5420:5422  _x */\n      dup4\n        /* \"contracts/solidity.series/deploy.sol\":5420:5428  _x >= _y */\n      lt\n      iszero\n        /* \"contracts/solidity.series/deploy.sol\":5420:5438  _x >= _y ? _x : _y */\n      tag_14\n      jumpi\n        /* \"contracts/solidity.series/deploy.sol\":5436:5438  _y */\n      dup2\n        /* \"contracts/solidity.series/deploy.sol\":5420:5438  _x >= _y ? _x : _y */\n      jump(tag_11)\n    tag_14:\n      pop\n        /* \"contracts/solidity.series/deploy.sol\":5431:5433  _x */\n      swap1\n      swap2\n        /* \"contracts/solidity.series/deploy.sol\":5334:5445  function max(uint256 _x, uint256 _y) internal pure returns (uint256) {... */\n      swap1\n      pop\n      jump\t// out\n        /* \"#utility.yul\":14:262   */\n    tag_6:\n        /* \"#utility.yul\":82:88   */\n      0x00\n        /* \"#utility.yul\":90:96   */\n      dup1\n        /* \"#utility.yul\":143:145   */\n      0x40\n        /* \"#utility.yul\":131:140   */\n      dup4\n        /* \"#utility.yul\":122:129   */\n      dup6\n        /* \"#utility.yul\":118:141   */\n      sub\n        /* \"#utility.yul\":114:146   */\n      slt\n        /* \"#utility.yul\":111:163   */\n      iszero\n      tag_18\n      jumpi\n        /* \"#utility.yul\":159:160   */\n      0x00\n        /* \"#utility.yul\":156:157   */\n      dup1\n        /* \"#utility.yul\":149:161   */\n      revert\n        /* \"#utility.yul\":111:163   */\n    tag_18:\n      pop\n      pop\n        /* \"#utility.yul\":182:205   */\n      dup1\n      calldataload\n      swap3\n        /* \"#utility.yul\":252:254   */\n      0x20\n        /* \"#utility.yul\":237:255   */\n      swap1\n      swap2\n      add\n        /* \"#utility.yul\":224:256   */\n      calldataload\n      swap2\n      pop\n        /* \"#utility.yul\":14:262   */\n      jump\t// out\n\n    auxdata: 0xa26469706673582212205440e6748991e465ad6c0993d9748c641a78513d38f309686ff90657243e74d964736f6c63430008160033\n}\n",
				"bytecode": {
					"linkReferences": {},
					"object": "608060405234801561000f575f80fd5b5060c48061001c5f395ff3fe6080604052348015600e575f80fd5b50600436106026575f3560e01c8063834db42114602a575b5f80fd5b60396035366004606f565b604b565b60405190815260200160405180910390f35b5f60548383605b565b9392505050565b5f81831015606857816054565b5090919050565b5f8060408385031215607f575f80fd5b5050803592602090910135915056fea26469706673582212205440e6748991e465ad6c0993d9748c641a78513d38f309686ff90657243e74d964736f6c63430008160033",
					"opcodes": "PUSH1 0x80 PUSH1 0x40 MSTORE CALLVALUE DUP1 ISZERO PUSH2 0xF JUMPI PUSH0 DUP1 REVERT JUMPDEST POP PUSH1 0xC4 DUP1 PUSH2 0x1C PUSH0 CODECOPY PUSH0 RETURN INVALID PUSH1 0x80 PUSH1 0x40 MSTORE CALLVALUE DUP1 ISZERO PUSH1 0xE JUMPI PUSH0 DUP1 REVERT JUMPDEST POP PUSH1 0x4 CALLDATASIZE LT PUSH1 0x26 JUMPI PUSH0 CALLDATALOAD PUSH1 0xE0 SHR DUP1 PUSH4 0x834DB421 EQ PUSH1 0x2A JUMPI JUMPDEST PUSH0 DUP1 REVERT JUMPDEST PUSH1 0x39 PUSH1 0x35 CALLDATASIZE PUSH1 0x4 PUSH1 0x6F JUMP JUMPDEST PUSH1 0x4B JUMP JUMPDEST PUSH1 0x40 MLOAD SWAP1 DUP2 MSTORE PUSH1 0x20 ADD PUSH1 0x40 MLOAD DUP1 SWAP2 SUB SWAP1 RETURN JUMPDEST PUSH0 PUSH1 0x54 DUP4 DUP4 PUSH1 0x5B JUMP JUMPDEST SWAP4 SWAP3 POP POP POP JUMP JUMPDEST PUSH0 DUP2 DUP4 LT ISZERO PUSH1 0x68 JUMPI DUP2 PUSH1 0x54 JUMP JUMPDEST POP SWAP1 SWAP2 SWAP1 POP JUMP JUMPDEST PUSH0 DUP1 PUSH1 0x40 DUP4 DUP6 SUB SLT ISZERO PUSH1 0x7F JUMPI PUSH0 DUP1 REVERT JUMPDEST POP POP DUP1 CALLDATALOAD SWAP3 PUSH1 0x20 SWAP1 SWAP2 ADD CALLDATALOAD SWAP2 POP JUMP INVALID LOG2 PUSH5 0x6970667358 0x22 SLT KECCAK256 SLOAD BLOCKHASH 0xE6 PUSH21 0x8991E465AD6C0993D9748C641A78513D38F309686F 0xF9 MOD JUMPI 0x24 RETURNDATACOPY PUSH21 0xD964736F6C63430008160033000000000000000000 "
				},
				"gasEstimates": {
					"creation": {
						"codeDepositCost": "39200",
						"executionCost": "91",
						"totalCost": "39291"
					},
					"external": {
						"testMax(uint256,uint256)": "350"
					}
				},
				"methodIdentifiers": {
					"testMax(uint256,uint256)": "834db421"
				}
			},
			"storageLayout": {
				"storage": [],
				"types": null
			},
			"userdoc": {
				"kind": "user",
				"methods": {},
				"version": 1
			}
		}
	}
}