{
	"contracts/solidity.series/deploy.sol": {
		"EtherWaller": {
			"abi": [
				{
					"inputs": [],
					"stateMutability": "nonpayable",
					"type": "constructor"
				},
				{
					"inputs": [],
					"name": "getBalance",
					"outputs": [
						{
							"internalType": "uint256",
							"name": "",
							"type": "uint256"
						}
					],
					"stateMutability": "view",
					"type": "function"
				},
				{
					"inputs": [],
					"name": "owner",
					"outputs": [
						{
							"internalType": "address payable",
							"name": "",
							"type": "address"
						}
					],
					"stateMutability": "view",
					"type": "function"
				},
				{
					"inputs": [
						{
							"internalType": "uint256",
							"name": "_amount",
							"type": "uint256"
						}
					],
					"name": "withdraw",
					"outputs": [],
					"stateMutability": "nonpayable",
					"type": "function"
				},
				{
					"stateMutability": "payable",
					"type": "receive"
				}
			],
			"devdoc": {
				"kind": "dev",
				"methods": {},
				"version": 1
			},
			"evm": {
				"assembly": "    /* \"contracts/solidity.series/deploy.sol\":2316:2743  contract EtherWaller {... */\n  mstore(0x40, 0x80)\n    /* \"contracts/solidity.series/deploy.sol\":2378:2436  constructor() {... */\n  callvalue\n  dup1\n  iszero\n  tag_1\n  jumpi\n  0x00\n  dup1\n  revert\ntag_1:\n  pop\n    /* \"contracts/solidity.series/deploy.sol\":2402:2407  owner */\n  0x00\n    /* \"contracts/solidity.series/deploy.sol\":2402:2429  owner = payable(msg.sender) */\n  dup1\n  sload\n  not(sub(shl(0xa0, 0x01), 0x01))\n  and\n    /* \"contracts/solidity.series/deploy.sol\":2418:2428  msg.sender */\n  caller\n    /* \"contracts/solidity.series/deploy.sol\":2402:2429  owner = payable(msg.sender) */\n  or\n  swap1\n  sstore\n    /* \"contracts/solidity.series/deploy.sol\":2316:2743  contract EtherWaller {... */\n  dataSize(sub_0)\n  dup1\n  dataOffset(sub_0)\n  0x00\n  codecopy\n  0x00\n  return\nstop\n\nsub_0: assembly {\n        /* \"contracts/solidity.series/deploy.sol\":2316:2743  contract EtherWaller {... */\n      mstore(0x40, 0x80)\n      jumpi(tag_1, lt(calldatasize, 0x04))\n      shr(0xe0, calldataload(0x00))\n      dup1\n      0x12065fe0\n      eq\n      tag_3\n      jumpi\n      dup1\n      0x2e1a7d4d\n      eq\n      tag_4\n      jumpi\n      dup1\n      0x8da5cb5b\n      eq\n      tag_5\n      jumpi\n      0x00\n      dup1\n      revert\n    tag_1:\n      jumpi(tag_2, calldatasize)\n      stop\n    tag_2:\n      0x00\n      dup1\n      revert\n        /* \"contracts/solidity.series/deploy.sol\":2642:2741  function getBalance() external view returns (uint256) {... */\n    tag_3:\n      callvalue\n      dup1\n      iszero\n      tag_8\n      jumpi\n      0x00\n      dup1\n      revert\n    tag_8:\n      pop\n      mload(0x40)\n        /* \"contracts/solidity.series/deploy.sol\":2713:2734  address(this).balance */\n      selfbalance\n        /* \"#utility.yul\":160:185   */\n      dup2\n      mstore\n        /* \"#utility.yul\":148:150   */\n      0x20\n        /* \"#utility.yul\":133:151   */\n      add\n        /* \"contracts/solidity.series/deploy.sol\":2642:2741  function getBalance() external view returns (uint256) {... */\n    tag_11:\n      mload(0x40)\n      dup1\n      swap2\n      sub\n      swap1\n      return\n        /* \"contracts/solidity.series/deploy.sol\":2477:2636  function withdraw(uint256 _amount) external {... */\n    tag_4:\n      callvalue\n      dup1\n      iszero\n      tag_13\n      jumpi\n      0x00\n      dup1\n      revert\n    tag_13:\n      pop\n      tag_14\n      tag_15\n      calldatasize\n      0x04\n      tag_16\n      jump\t// in\n    tag_15:\n      tag_17\n      jump\t// in\n    tag_14:\n      stop\n        /* \"contracts/solidity.series/deploy.sol\":2343:2371  address payable public owner */\n    tag_5:\n      callvalue\n      dup1\n      iszero\n      tag_18\n      jumpi\n      0x00\n      dup1\n      revert\n    tag_18:\n      pop\n      sload(0x00)\n      tag_19\n      swap1\n      sub(shl(0xa0, 0x01), 0x01)\n      and\n      dup2\n      jump\n    tag_19:\n      mload(0x40)\n      sub(shl(0xa0, 0x01), 0x01)\n        /* \"#utility.yul\":561:593   */\n      swap1\n      swap2\n      and\n        /* \"#utility.yul\":543:594   */\n      dup2\n      mstore\n        /* \"#utility.yul\":531:533   */\n      0x20\n        /* \"#utility.yul\":516:534   */\n      add\n        /* \"contracts/solidity.series/deploy.sol\":2343:2371  address payable public owner */\n      tag_11\n        /* \"#utility.yul\":381:600   */\n      jump\n        /* \"contracts/solidity.series/deploy.sol\":2477:2636  function withdraw(uint256 _amount) external {... */\n    tag_17:\n        /* \"contracts/solidity.series/deploy.sol\":2553:2558  owner */\n      and(sub(shl(0xa0, 0x01), 0x01), sload(0x00))\n        /* \"contracts/solidity.series/deploy.sol\":2539:2549  msg.sender */\n      caller\n        /* \"contracts/solidity.series/deploy.sol\":2539:2558  msg.sender == owner */\n      eq\n        /* \"contracts/solidity.series/deploy.sol\":2531:2582  require(msg.sender == owner, \"Caller is not owner\") */\n      tag_25\n      jumpi\n      mload(0x40)\n      shl(0xe5, 0x461bcd)\n      dup2\n      mstore\n        /* \"#utility.yul\":807:809   */\n      0x20\n        /* \"contracts/solidity.series/deploy.sol\":2531:2582  require(msg.sender == owner, \"Caller is not owner\") */\n      0x04\n      dup3\n      add\n        /* \"#utility.yul\":789:810   */\n      mstore\n        /* \"#utility.yul\":846:848   */\n      0x13\n        /* \"#utility.yul\":826:844   */\n      0x24\n      dup3\n      add\n        /* \"#utility.yul\":819:849   */\n      mstore\n      shl(0x69, 0x21b0b63632b91034b9903737ba1037bbb732b9)\n        /* \"#utility.yul\":865:883   */\n      0x44\n      dup3\n      add\n        /* \"#utility.yul\":858:907   */\n      mstore\n        /* \"#utility.yul\":924:942   */\n      0x64\n      add\n        /* \"contracts/solidity.series/deploy.sol\":2531:2582  require(msg.sender == owner, \"Caller is not owner\") */\n      mload(0x40)\n      dup1\n      swap2\n      sub\n      swap1\n      revert\n    tag_25:\n        /* \"contracts/solidity.series/deploy.sol\":2592:2629  payable(msg.sender).transfer(_amount) */\n      mload(0x40)\n        /* \"contracts/solidity.series/deploy.sol\":2600:2610  msg.sender */\n      caller\n      swap1\n        /* \"contracts/solidity.series/deploy.sol\":2592:2629  payable(msg.sender).transfer(_amount) */\n      dup3\n      iszero\n      0x08fc\n      mul\n      swap1\n        /* \"contracts/solidity.series/deploy.sol\":2621:2628  _amount */\n      dup4\n      swap1\n        /* \"contracts/solidity.series/deploy.sol\":2592:2629  payable(msg.sender).transfer(_amount) */\n      0x00\n      dup2\n      dup2\n      dup2\n        /* \"contracts/solidity.series/deploy.sol\":2621:2628  _amount */\n      dup6\n        /* \"contracts/solidity.series/deploy.sol\":2600:2610  msg.sender */\n      dup9\n        /* \"contracts/solidity.series/deploy.sol\":2592:2629  payable(msg.sender).transfer(_amount) */\n      dup9\n      call\n      swap4\n      pop\n      pop\n      pop\n      pop\n      iszero\n      dup1\n      iszero\n      tag_29\n      jumpi\n      returndatasize\n      0x00\n      dup1\n      returndatacopy\n      revert(0x00, returndatasize)\n    tag_29:\n      pop\n        /* \"contracts/solidity.series/deploy.sol\":2477:2636  function withdraw(uint256 _amount) external {... */\n      pop\n      jump\t// out\n        /* \"#utility.yul\":196:376   */\n    tag_16:\n        /* \"#utility.yul\":255:261   */\n      0x00\n        /* \"#utility.yul\":308:310   */\n      0x20\n        /* \"#utility.yul\":296:305   */\n      dup3\n        /* \"#utility.yul\":287:294   */\n      dup5\n        /* \"#utility.yul\":283:306   */\n      sub\n        /* \"#utility.yul\":279:311   */\n      slt\n        /* \"#utility.yul\":276:328   */\n      iszero\n      tag_33\n      jumpi\n        /* \"#utility.yul\":324:325   */\n      0x00\n        /* \"#utility.yul\":321:322   */\n      dup1\n        /* \"#utility.yul\":314:326   */\n      revert\n        /* \"#utility.yul\":276:328   */\n    tag_33:\n      pop\n        /* \"#utility.yul\":347:370   */\n      calldataload\n      swap2\n        /* \"#utility.yul\":196:376   */\n      swap1\n      pop\n      jump\t// out\n\n    auxdata: 0xa264697066735822122001c2954c184e164a9f5ec60ce577eee9cc82f6fe643bd7f67a4b32196ffdd92164736f6c63430008160033\n}\n",
				"bytecode": {
					"linkReferences": {},
					"object": "608060405234801561000f575f80fd5b505f80546001600160a01b031916331790556101858061002e5f395ff3fe608060405260043610610036575f3560e01c806312065fe0146100415780632e1a7d4d146100605780638da5cb5b14610081575f80fd5b3661003d57005b5f80fd5b34801561004c575f80fd5b506040514781526020015b60405180910390f35b34801561006b575f80fd5b5061007f61007a366004610138565b6100b7565b005b34801561008c575f80fd5b505f5461009f906001600160a01b031681565b6040516001600160a01b039091168152602001610057565b5f546001600160a01b0316331461010a5760405162461bcd60e51b815260206004820152601360248201527221b0b63632b91034b9903737ba1037bbb732b960691b604482015260640160405180910390fd5b604051339082156108fc029083905f818181858888f19350505050158015610134573d5f803e3d5ffd5b5050565b5f60208284031215610148575f80fd5b503591905056fea264697066735822122001c2954c184e164a9f5ec60ce577eee9cc82f6fe643bd7f67a4b32196ffdd92164736f6c63430008160033",
					"opcodes": "PUSH1 0x80 PUSH1 0x40 MSTORE CALLVALUE DUP1 ISZERO PUSH2 0xF JUMPI PUSH0 DUP1 REVERT JUMPDEST POP PUSH0 DUP1 SLOAD PUSH1 0x1 PUSH1 0x1 PUSH1 0xA0 SHL SUB NOT AND CALLER OR SWAP1 SSTORE PUSH2 0x185 DUP1 PUSH2 0x2E PUSH0 CODECOPY PUSH0 RETURN INVALID PUSH1 0x80 PUSH1 0x40 MSTORE PUSH1 0x4 CALLDATASIZE LT PUSH2 0x36 JUMPI PUSH0 CALLDATALOAD PUSH1 0xE0 SHR DUP1 PUSH4 0x12065FE0 EQ PUSH2 0x41 JUMPI DUP1 PUSH4 0x2E1A7D4D EQ PUSH2 0x60 JUMPI DUP1 PUSH4 0x8DA5CB5B EQ PUSH2 0x81 JUMPI PUSH0 DUP1 REVERT JUMPDEST CALLDATASIZE PUSH2 0x3D JUMPI STOP JUMPDEST PUSH0 DUP1 REVERT JUMPDEST CALLVALUE DUP1 ISZERO PUSH2 0x4C JUMPI PUSH0 DUP1 REVERT JUMPDEST POP PUSH1 0x40 MLOAD SELFBALANCE DUP2 MSTORE PUSH1 0x20 ADD JUMPDEST PUSH1 0x40 MLOAD DUP1 SWAP2 SUB SWAP1 RETURN JUMPDEST CALLVALUE DUP1 ISZERO PUSH2 0x6B JUMPI PUSH0 DUP1 REVERT JUMPDEST POP PUSH2 0x7F PUSH2 0x7A CALLDATASIZE PUSH1 0x4 PUSH2 0x138 JUMP JUMPDEST PUSH2 0xB7 JUMP JUMPDEST STOP JUMPDEST CALLVALUE DUP1 ISZERO PUSH2 0x8C JUMPI PUSH0 DUP1 REVERT JUMPDEST POP PUSH0 SLOAD PUSH2 0x9F SWAP1 PUSH1 0x1 PUSH1 0x1 PUSH1 0xA0 SHL SUB AND DUP2 JUMP JUMPDEST PUSH1 0x40 MLOAD PUSH1 0x1 PUSH1 0x1 PUSH1 0xA0 SHL SUB SWAP1 SWAP2 AND DUP2 MSTORE PUSH1 0x20 ADD PUSH2 0x57 JUMP JUMPDEST PUSH0 SLOAD PUSH1 0x1 PUSH1 0x1 PUSH1 0xA0 SHL SUB AND CALLER EQ PUSH2 0x10A JUMPI PUSH1 0x40 MLOAD PUSH3 0x461BCD PUSH1 0xE5 SHL DUP2 MSTORE PUSH1 0x20 PUSH1 0x4 DUP3 ADD MSTORE PUSH1 0x13 PUSH1 0x24 DUP3 ADD MSTORE PUSH19 0x21B0B63632B91034B9903737BA1037BBB732B9 PUSH1 0x69 SHL PUSH1 0x44 DUP3 ADD MSTORE PUSH1 0x64 ADD PUSH1 0x40 MLOAD DUP1 SWAP2 SUB SWAP1 REVERT JUMPDEST PUSH1 0x40 MLOAD CALLER SWAP1 DUP3 ISZERO PUSH2 0x8FC MUL SWAP1 DUP4 SWAP1 PUSH0 DUP2 DUP2 DUP2 DUP6 DUP9 DUP9 CALL SWAP4 POP POP POP POP ISZERO DUP1 ISZERO PUSH2 0x134 JUMPI RETURNDATASIZE PUSH0 DUP1 RETURNDATACOPY RETURNDATASIZE PUSH0 REVERT JUMPDEST POP POP JUMP JUMPDEST PUSH0 PUSH1 0x20 DUP3 DUP5 SUB SLT ISZERO PUSH2 0x148 JUMPI PUSH0 DUP1 REVERT JUMPDEST POP CALLDATALOAD SWAP2 SWAP1 POP JUMP INVALID LOG2 PUSH5 0x6970667358 0x22 SLT KECCAK256 ADD 0xC2 SWAP6 0x4C XOR 0x4E AND 0x4A SWAP16 0x5E 0xC6 0xC 0xE5 PUSH24 0xEEE9CC82F6FE643BD7F67A4B32196FFDD92164736F6C6343 STOP ADDMOD AND STOP CALLER "
				},
				"gasEstimates": {
					"creation": {
						"codeDepositCost": "77800",
						"executionCost": "24361",
						"totalCost": "102161"
					},
					"external": {
						"getBalance()": "145",
						"owner()": "2357",
						"withdraw(uint256)": "infinite"
					}
				},
				"methodIdentifiers": {
					"getBalance()": "12065fe0",
					"owner()": "8da5cb5b",
					"withdraw(uint256)": "2e1a7d4d"
				}
			},
			"storageLayout": {
				"storage": [
					{
						"astId": 172,
						"contract": "contracts/solidity.series/deploy.sol:EtherWaller",
						"label": "owner",
						"offset": 0,
						"slot": "0",
						"type": "t_address_payable"
					}
				],
				"types": {
					"t_address_payable": {
						"encoding": "inplace",
						"label": "address payable",
						"numberOfBytes": "20"
					}
				}
			},
			"userdoc": {
				"kind": "user",
				"methods": {},
				"version": 1
			}
		}
	}
}