{
	"contracts/solidity.series/deploy.sol": {
		"callTestContract": {
			"abi": [
				{
					"inputs": [
						{
							"internalType": "contract TestContract",
							"name": "_test",
							"type": "address"
						}
					],
					"name": "getX",
					"outputs": [
						{
							"internalType": "uint256",
							"name": "",
							"type": "uint256"
						}
					],
					"stateMutability": "view",
					"type": "function"
				},
				{
					"inputs": [
						{
							"internalType": "address",
							"name": "_test",
							"type": "address"
						},
						{
							"internalType": "uint256",
							"name": "_x",
							"type": "uint256"
						}
					],
					"name": "setX",
					"outputs": [],
					"stateMutability": "nonpayable",
					"type": "function"
				},
				{
					"inputs": [
						{
							"internalType": "address",
							"name": "_test",
							"type": "address"
						},
						{
							"internalType": "uint256",
							"name": "_x",
							"type": "uint256"
						}
					],
					"name": "setXandRecieveEther",
					"outputs": [],
					"stateMutability": "payable",
					"type": "function"
				}
			],
			"devdoc": {
				"kind": "dev",
				"methods": {},
				"version": 1
			},
			"evm": {
				"assembly": "    /* \"contracts/solidity.series/deploy.sol\":2745:3475  contract callTestContract {... */\n  mstore(0x40, 0x80)\n  callvalue\n  dup1\n  iszero\n  tag_1\n  jumpi\n  0x00\n  dup1\n  revert\ntag_1:\n  pop\n  dataSize(sub_0)\n  dup1\n  dataOffset(sub_0)\n  0x00\n  codecopy\n  0x00\n  return\nstop\n\nsub_0: assembly {\n        /* \"contracts/solidity.series/deploy.sol\":2745:3475  contract callTestContract {... */\n      mstore(0x40, 0x80)\n      jumpi(tag_1, lt(calldatasize, 0x04))\n      shr(0xe0, calldataload(0x00))\n      dup1\n      0x315f1f16\n      eq\n      tag_2\n      jumpi\n      dup1\n      0x4a2ad99f\n      eq\n      tag_3\n      jumpi\n      dup1\n      0x7c94c8ca\n      eq\n      tag_4\n      jumpi\n    tag_1:\n      0x00\n      dup1\n      revert\n        /* \"contracts/solidity.series/deploy.sol\":3322:3473  function setXandRecieveEther(address _test, uint256 _x) external payable {... */\n    tag_2:\n      tag_5\n      tag_6\n      calldatasize\n      0x04\n      tag_7\n      jump\t// in\n    tag_6:\n      tag_8\n      jump\t// in\n    tag_5:\n      stop\n        /* \"contracts/solidity.series/deploy.sol\":2841:2936  function setX(address _test, uint256 _x) external {... */\n    tag_3:\n      callvalue\n      dup1\n      iszero\n      tag_9\n      jumpi\n      0x00\n      dup1\n      revert\n    tag_9:\n      pop\n      tag_5\n      tag_11\n      calldatasize\n      0x04\n      tag_7\n      jump\t// in\n    tag_11:\n      tag_12\n      jump\t// in\n        /* \"contracts/solidity.series/deploy.sol\":3057:3182  function getX(TestContract _test) external view returns (uint256) {... */\n    tag_4:\n      callvalue\n      dup1\n      iszero\n      tag_13\n      jumpi\n      0x00\n      dup1\n      revert\n    tag_13:\n      pop\n      tag_14\n      tag_15\n      calldatasize\n      0x04\n      tag_16\n      jump\t// in\n    tag_15:\n      tag_17\n      jump\t// in\n    tag_14:\n      mload(0x40)\n        /* \"#utility.yul\":888:913   */\n      swap1\n      dup2\n      mstore\n        /* \"#utility.yul\":876:878   */\n      0x20\n        /* \"#utility.yul\":861:879   */\n      add\n        /* \"contracts/solidity.series/deploy.sol\":3057:3182  function getX(TestContract _test) external view returns (uint256) {... */\n      mload(0x40)\n      dup1\n      swap2\n      sub\n      swap1\n      return\n        /* \"contracts/solidity.series/deploy.sol\":3322:3473  function setXandRecieveEther(address _test, uint256 _x) external payable {... */\n    tag_8:\n        /* \"contracts/solidity.series/deploy.sol\":3405:3466  TestContract(_test).setXandRecieveEther{value: msg.value}(_x) */\n      mload(0x40)\n      shl(0xe0, 0xae9ad8dd)\n      dup2\n      mstore\n      0x04\n      dup2\n      add\n        /* \"#utility.yul\":888:913   */\n      dup3\n      swap1\n      mstore\n      sub(shl(0xa0, 0x01), 0x01)\n        /* \"contracts/solidity.series/deploy.sol\":3405:3444  TestContract(_test).setXandRecieveEther */\n      dup4\n      and\n      swap1\n      0xae9ad8dd\n      swap1\n        /* \"contracts/solidity.series/deploy.sol\":3452:3461  msg.value */\n      callvalue\n      swap1\n        /* \"#utility.yul\":861:879   */\n      0x24\n      add\n        /* \"contracts/solidity.series/deploy.sol\":3405:3466  TestContract(_test).setXandRecieveEther{value: msg.value}(_x) */\n      0x00\n      mload(0x40)\n      dup1\n      dup4\n      sub\n      dup2\n      dup6\n      dup9\n      dup1\n      extcodesize\n      iszero\n      dup1\n      iszero\n      tag_22\n      jumpi\n      0x00\n      dup1\n      revert\n    tag_22:\n      pop\n      gas\n      call\n      iszero\n      dup1\n      iszero\n      tag_24\n      jumpi\n      returndatasize\n      0x00\n      dup1\n      returndatacopy\n      revert(0x00, returndatasize)\n    tag_24:\n      pop\n      pop\n      pop\n      pop\n      pop\n        /* \"contracts/solidity.series/deploy.sol\":3322:3473  function setXandRecieveEther(address _test, uint256 _x) external payable {... */\n      pop\n      pop\n      jump\t// out\n        /* \"contracts/solidity.series/deploy.sol\":2841:2936  function setX(address _test, uint256 _x) external {... */\n    tag_12:\n        /* \"contracts/solidity.series/deploy.sol\":2901:2929  TestContract(_test).setX(_x) */\n      mload(0x40)\n      shl(0xe1, 0x200c6cd5)\n      dup2\n      mstore\n      0x04\n      dup2\n      add\n        /* \"#utility.yul\":888:913   */\n      dup3\n      swap1\n      mstore\n      sub(shl(0xa0, 0x01), 0x01)\n        /* \"contracts/solidity.series/deploy.sol\":2901:2925  TestContract(_test).setX */\n      dup4\n      and\n      swap1\n      0x4018d9aa\n      swap1\n        /* \"#utility.yul\":861:879   */\n      0x24\n      add\n        /* \"contracts/solidity.series/deploy.sol\":2901:2929  TestContract(_test).setX(_x) */\n      0x00\n      mload(0x40)\n      dup1\n      dup4\n      sub\n      dup2\n      0x00\n      dup8\n      dup1\n      extcodesize\n      iszero\n      dup1\n      iszero\n      tag_27\n      jumpi\n      0x00\n      dup1\n      revert\n    tag_27:\n      pop\n      gas\n      call\n      iszero\n      dup1\n      iszero\n      tag_29\n      jumpi\n      returndatasize\n      0x00\n      dup1\n      returndatacopy\n      revert(0x00, returndatasize)\n    tag_29:\n      pop\n      pop\n      pop\n      pop\n        /* \"contracts/solidity.series/deploy.sol\":2841:2936  function setX(address _test, uint256 _x) external {... */\n      pop\n      pop\n      jump\t// out\n        /* \"contracts/solidity.series/deploy.sol\":3057:3182  function getX(TestContract _test) external view returns (uint256) {... */\n    tag_17:\n        /* \"contracts/solidity.series/deploy.sol\":3114:3121  uint256 */\n      0x00\n        /* \"contracts/solidity.series/deploy.sol\":3133:3142  uint256 x */\n      dup1\n        /* \"contracts/solidity.series/deploy.sol\":3145:3150  _test */\n      dup3\n      sub(shl(0xa0, 0x01), 0x01)\n        /* \"contracts/solidity.series/deploy.sol\":3145:3155  _test.getX */\n      and\n      0x5197c7aa\n        /* \"contracts/solidity.series/deploy.sol\":3145:3157  _test.getX() */\n      mload(0x40)\n      dup2\n      0xffffffff\n      and\n      0xe0\n      shl\n      dup2\n      mstore\n      0x04\n      add\n      0x20\n      mload(0x40)\n      dup1\n      dup4\n      sub\n      dup2\n      dup7\n      gas\n      staticcall\n      iszero\n      dup1\n      iszero\n      tag_32\n      jumpi\n      returndatasize\n      0x00\n      dup1\n      returndatacopy\n      revert(0x00, returndatasize)\n    tag_32:\n      pop\n      pop\n      pop\n      pop\n      mload(0x40)\n      returndatasize\n      not(0x1f)\n      0x1f\n      dup3\n      add\n      and\n      dup3\n      add\n      dup1\n      0x40\n      mstore\n      pop\n      dup2\n      add\n      swap1\n      tag_33\n      swap2\n      swap1\n      tag_34\n      jump\t// in\n    tag_33:\n        /* \"contracts/solidity.series/deploy.sol\":3133:3157  uint256 x = _test.getX() */\n      swap4\n        /* \"contracts/solidity.series/deploy.sol\":3057:3182  function getX(TestContract _test) external view returns (uint256) {... */\n      swap3\n      pop\n      pop\n      pop\n      jump\t// out\n        /* \"#utility.yul\":14:145   */\n    tag_35:\n      sub(shl(0xa0, 0x01), 0x01)\n        /* \"#utility.yul\":89:120   */\n      dup2\n      and\n        /* \"#utility.yul\":79:121   */\n      dup2\n      eq\n        /* \"#utility.yul\":69:139   */\n      tag_38\n      jumpi\n        /* \"#utility.yul\":135:136   */\n      0x00\n        /* \"#utility.yul\":132:133   */\n      dup1\n        /* \"#utility.yul\":125:137   */\n      revert\n        /* \"#utility.yul\":69:139   */\n    tag_38:\n        /* \"#utility.yul\":14:145   */\n      pop\n      jump\t// out\n        /* \"#utility.yul\":150:465   */\n    tag_7:\n        /* \"#utility.yul\":218:224   */\n      0x00\n        /* \"#utility.yul\":226:232   */\n      dup1\n        /* \"#utility.yul\":279:281   */\n      0x40\n        /* \"#utility.yul\":267:276   */\n      dup4\n        /* \"#utility.yul\":258:265   */\n      dup6\n        /* \"#utility.yul\":254:277   */\n      sub\n        /* \"#utility.yul\":250:282   */\n      slt\n        /* \"#utility.yul\":247:299   */\n      iszero\n      tag_40\n      jumpi\n        /* \"#utility.yul\":295:296   */\n      0x00\n        /* \"#utility.yul\":292:293   */\n      dup1\n        /* \"#utility.yul\":285:297   */\n      revert\n        /* \"#utility.yul\":247:299   */\n    tag_40:\n        /* \"#utility.yul\":334:343   */\n      dup3\n        /* \"#utility.yul\":321:344   */\n      calldataload\n        /* \"#utility.yul\":353:384   */\n      tag_41\n        /* \"#utility.yul\":378:383   */\n      dup2\n        /* \"#utility.yul\":353:384   */\n      tag_35\n      jump\t// in\n    tag_41:\n        /* \"#utility.yul\":403:408   */\n      swap5\n        /* \"#utility.yul\":455:457   */\n      0x20\n        /* \"#utility.yul\":440:458   */\n      swap4\n      swap1\n      swap4\n      add\n        /* \"#utility.yul\":427:459   */\n      calldataload\n      swap4\n      pop\n      pop\n      pop\n        /* \"#utility.yul\":150:465   */\n      jump\t// out\n        /* \"#utility.yul\":470:737   */\n    tag_16:\n        /* \"#utility.yul\":549:555   */\n      0x00\n        /* \"#utility.yul\":602:604   */\n      0x20\n        /* \"#utility.yul\":590:599   */\n      dup3\n        /* \"#utility.yul\":581:588   */\n      dup5\n        /* \"#utility.yul\":577:600   */\n      sub\n        /* \"#utility.yul\":573:605   */\n      slt\n        /* \"#utility.yul\":570:622   */\n      iszero\n      tag_43\n      jumpi\n        /* \"#utility.yul\":618:619   */\n      0x00\n        /* \"#utility.yul\":615:616   */\n      dup1\n        /* \"#utility.yul\":608:620   */\n      revert\n        /* \"#utility.yul\":570:622   */\n    tag_43:\n        /* \"#utility.yul\":657:666   */\n      dup2\n        /* \"#utility.yul\":644:667   */\n      calldataload\n        /* \"#utility.yul\":676:707   */\n      tag_33\n        /* \"#utility.yul\":701:706   */\n      dup2\n        /* \"#utility.yul\":676:707   */\n      tag_35\n      jump\t// in\n        /* \"#utility.yul\":924:1108   */\n    tag_34:\n        /* \"#utility.yul\":994:1000   */\n      0x00\n        /* \"#utility.yul\":1047:1049   */\n      0x20\n        /* \"#utility.yul\":1035:1044   */\n      dup3\n        /* \"#utility.yul\":1026:1033   */\n      dup5\n        /* \"#utility.yul\":1022:1045   */\n      sub\n        /* \"#utility.yul\":1018:1050   */\n      slt\n        /* \"#utility.yul\":1015:1067   */\n      iszero\n      tag_47\n      jumpi\n        /* \"#utility.yul\":1063:1064   */\n      0x00\n        /* \"#utility.yul\":1060:1061   */\n      dup1\n        /* \"#utility.yul\":1053:1065   */\n      revert\n        /* \"#utility.yul\":1015:1067   */\n    tag_47:\n      pop\n        /* \"#utility.yul\":1086:1102   */\n      mload\n      swap2\n        /* \"#utility.yul\":924:1108   */\n      swap1\n      pop\n      jump\t// out\n\n    auxdata: 0xa26469706673582212208d8626500dc3a4ac2ca3d3bb6ac10e209ce8901c3411fc808d7c85dfaf420b1d64736f6c63430008160033\n}\n",
				"bytecode": {
					"linkReferences": {},
					"object": "608060405234801561000f575f80fd5b506102638061001d5f395ff3fe608060405260043610610033575f3560e01c8063315f1f16146100375780634a2ad99f1461004c5780637c94c8ca1461006b575b5f80fd5b61004a6100453660046101d1565b61009c565b005b348015610057575f80fd5b5061004a6100663660046101d1565b6100f8565b348015610076575f80fd5b5061008a6100853660046101fb565b610151565b60405190815260200160405180910390f35b60405163ae9ad8dd60e01b8152600481018290526001600160a01b0383169063ae9ad8dd9034906024015f604051808303818588803b1580156100dd575f80fd5b505af11580156100ef573d5f803e3d5ffd5b50505050505050565b60405163200c6cd560e11b8152600481018290526001600160a01b03831690634018d9aa906024015f604051808303815f87803b158015610137575f80fd5b505af1158015610149573d5f803e3d5ffd5b505050505050565b5f80826001600160a01b0316635197c7aa6040518163ffffffff1660e01b8152600401602060405180830381865afa15801561018f573d5f803e3d5ffd5b505050506040513d601f19601f820116820180604052508101906101b39190610216565b9392505050565b6001600160a01b03811681146101ce575f80fd5b50565b5f80604083850312156101e2575f80fd5b82356101ed816101ba565b946020939093013593505050565b5f6020828403121561020b575f80fd5b81356101b3816101ba565b5f60208284031215610226575f80fd5b505191905056fea26469706673582212208d8626500dc3a4ac2ca3d3bb6ac10e209ce8901c3411fc808d7c85dfaf420b1d64736f6c63430008160033",
					"opcodes": "PUSH1 0x80 PUSH1 0x40 MSTORE CALLVALUE DUP1 ISZERO PUSH2 0xF JUMPI PUSH0 DUP1 REVERT JUMPDEST POP PUSH2 0x263 DUP1 PUSH2 0x1D PUSH0 CODECOPY PUSH0 RETURN INVALID PUSH1 0x80 PUSH1 0x40 MSTORE PUSH1 0x4 CALLDATASIZE LT PUSH2 0x33 JUMPI PUSH0 CALLDATALOAD PUSH1 0xE0 SHR DUP1 PUSH4 0x315F1F16 EQ PUSH2 0x37 JUMPI DUP1 PUSH4 0x4A2AD99F EQ PUSH2 0x4C JUMPI DUP1 PUSH4 0x7C94C8CA EQ PUSH2 0x6B JUMPI JUMPDEST PUSH0 DUP1 REVERT JUMPDEST PUSH2 0x4A PUSH2 0x45 CALLDATASIZE PUSH1 0x4 PUSH2 0x1D1 JUMP JUMPDEST PUSH2 0x9C JUMP JUMPDEST STOP JUMPDEST CALLVALUE DUP1 ISZERO PUSH2 0x57 JUMPI PUSH0 DUP1 REVERT JUMPDEST POP PUSH2 0x4A PUSH2 0x66 CALLDATASIZE PUSH1 0x4 PUSH2 0x1D1 JUMP JUMPDEST PUSH2 0xF8 JUMP JUMPDEST CALLVALUE DUP1 ISZERO PUSH2 0x76 JUMPI PUSH0 DUP1 REVERT JUMPDEST POP PUSH2 0x8A PUSH2 0x85 CALLDATASIZE PUSH1 0x4 PUSH2 0x1FB JUMP JUMPDEST PUSH2 0x151 JUMP JUMPDEST PUSH1 0x40 MLOAD SWAP1 DUP2 MSTORE PUSH1 0x20 ADD PUSH1 0x40 MLOAD DUP1 SWAP2 SUB SWAP1 RETURN JUMPDEST PUSH1 0x40 MLOAD PUSH4 0xAE9AD8DD PUSH1 0xE0 SHL DUP2 MSTORE PUSH1 0x4 DUP2 ADD DUP3 SWAP1 MSTORE PUSH1 0x1 PUSH1 0x1 PUSH1 0xA0 SHL SUB DUP4 AND SWAP1 PUSH4 0xAE9AD8DD SWAP1 CALLVALUE SWAP1 PUSH1 0x24 ADD PUSH0 PUSH1 0x40 MLOAD DUP1 DUP4 SUB DUP2 DUP6 DUP9 DUP1 EXTCODESIZE ISZERO DUP1 ISZERO PUSH2 0xDD JUMPI PUSH0 DUP1 REVERT JUMPDEST POP GAS CALL ISZERO DUP1 ISZERO PUSH2 0xEF JUMPI RETURNDATASIZE PUSH0 DUP1 RETURNDATACOPY RETURNDATASIZE PUSH0 REVERT JUMPDEST POP POP POP POP POP POP POP JUMP JUMPDEST PUSH1 0x40 MLOAD PUSH4 0x200C6CD5 PUSH1 0xE1 SHL DUP2 MSTORE PUSH1 0x4 DUP2 ADD DUP3 SWAP1 MSTORE PUSH1 0x1 PUSH1 0x1 PUSH1 0xA0 SHL SUB DUP4 AND SWAP1 PUSH4 0x4018D9AA SWAP1 PUSH1 0x24 ADD PUSH0 PUSH1 0x40 MLOAD DUP1 DUP4 SUB DUP2 PUSH0 DUP8 DUP1 EXTCODESIZE ISZERO DUP1 ISZERO PUSH2 0x137 JUMPI PUSH0 DUP1 REVERT JUMPDEST POP GAS CALL ISZERO DUP1 ISZERO PUSH2 0x149 JUMPI RETURNDATASIZE PUSH0 DUP1 RETURNDATACOPY RETURNDATASIZE PUSH0 REVERT JUMPDEST POP POP POP POP POP POP JUMP JUMPDEST PUSH0 DUP1 DUP3 PUSH1 0x1 PUSH1 0x1 PUSH1 0xA0 SHL SUB AND PUSH4 0x5197C7AA PUSH1 0x40 MLOAD DUP2 PUSH4 0xFFFFFFFF AND PUSH1 0xE0 SHL DUP2 MSTORE PUSH1 0x4 ADD PUSH1 0x20 PUSH1 0x40 MLOAD DUP1 DUP4 SUB DUP2 DUP7 GAS STATICCALL ISZERO DUP1 ISZERO PUSH2 0x18F JUMPI RETURNDATASIZE PUSH0 DUP1 RETURNDATACOPY RETURNDATASIZE PUSH0 REVERT JUMPDEST POP POP POP POP PUSH1 0x40 MLOAD RETURNDATASIZE PUSH1 0x1F NOT PUSH1 0x1F DUP3 ADD AND DUP3 ADD DUP1 PUSH1 0x40 MSTORE POP DUP2 ADD SWAP1 PUSH2 0x1B3 SWAP2 SWAP1 PUSH2 0x216 JUMP JUMPDEST SWAP4 SWAP3 POP POP POP JUMP JUMPDEST PUSH1 0x1 PUSH1 0x1 PUSH1 0xA0 SHL SUB DUP2 AND DUP2 EQ PUSH2 0x1CE JUMPI PUSH0 DUP1 REVERT JUMPDEST POP JUMP JUMPDEST PUSH0 DUP1 PUSH1 0x40 DUP4 DUP6 SUB SLT ISZERO PUSH2 0x1E2 JUMPI PUSH0 DUP1 REVERT JUMPDEST DUP3 CALLDATALOAD PUSH2 0x1ED DUP2 PUSH2 0x1BA JUMP JUMPDEST SWAP5 PUSH1 0x20 SWAP4 SWAP1 SWAP4 ADD CALLDATALOAD SWAP4 POP POP POP JUMP JUMPDEST PUSH0 PUSH1 0x20 DUP3 DUP5 SUB SLT ISZERO PUSH2 0x20B JUMPI PUSH0 DUP1 REVERT JUMPDEST DUP2 CALLDATALOAD PUSH2 0x1B3 DUP2 PUSH2 0x1BA JUMP JUMPDEST PUSH0 PUSH1 0x20 DUP3 DUP5 SUB SLT ISZERO PUSH2 0x226 JUMPI PUSH0 DUP1 REVERT JUMPDEST POP MLOAD SWAP2 SWAP1 POP JUMP INVALID LOG2 PUSH5 0x6970667358 0x22 SLT KECCAK256 DUP14 DUP7 0x26 POP 0xD 0xC3 LOG4 0xAC 0x2C LOG3 0xD3 0xBB PUSH11 0xC10E209CE8901C3411FC80 DUP14 PUSH29 0x85DFAF420B1D64736F6C63430008160033000000000000000000000000 "
				},
				"gasEstimates": {
					"creation": {
						"codeDepositCost": "122200",
						"executionCost": "169",
						"totalCost": "122369"
					},
					"external": {
						"getX(address)": "infinite",
						"setX(address,uint256)": "infinite",
						"setXandRecieveEther(address,uint256)": "infinite"
					}
				},
				"methodIdentifiers": {
					"getX(address)": "7c94c8ca",
					"setX(address,uint256)": "4a2ad99f",
					"setXandRecieveEther(address,uint256)": "315f1f16"
				}
			},
			"storageLayout": {
				"storage": [],
				"types": null
			},
			"userdoc": {
				"kind": "user",
				"methods": {},
				"version": 1
			}
		}
	}
}