{
	"contracts/solidity.series/deploy.sol": {
		"VerifySig": {
			"abi": [
				{
					"inputs": [
						{
							"internalType": "bytes32",
							"name": "_messageHash",
							"type": "bytes32"
						}
					],
					"name": "getEthSignedMessageHash",
					"outputs": [
						{
							"internalType": "bytes32",
							"name": "",
							"type": "bytes32"
						}
					],
					"stateMutability": "pure",
					"type": "function"
				},
				{
					"inputs": [
						{
							"internalType": "string",
							"name": "_message",
							"type": "string"
						}
					],
					"name": "getMessageHash",
					"outputs": [
						{
							"internalType": "bytes32",
							"name": "",
							"type": "bytes32"
						}
					],
					"stateMutability": "pure",
					"type": "function"
				},
				{
					"inputs": [
						{
							"internalType": "bytes32",
							"name": "_ethSignedMessageHash",
							"type": "bytes32"
						},
						{
							"internalType": "bytes",
							"name": "_sig",
							"type": "bytes"
						}
					],
					"name": "recover",
					"outputs": [
						{
							"internalType": "address",
							"name": "",
							"type": "address"
						}
					],
					"stateMutability": "pure",
					"type": "function"
				},
				{
					"inputs": [
						{
							"internalType": "address",
							"name": "_signer",
							"type": "address"
						},
						{
							"internalType": "string",
							"name": "_message",
							"type": "string"
						},
						{
							"internalType": "bytes",
							"name": "_sig",
							"type": "bytes"
						}
					],
					"name": "verify",
					"outputs": [
						{
							"internalType": "bool",
							"name": "",
							"type": "bool"
						}
					],
					"stateMutability": "pure",
					"type": "function"
				}
			],
			"devdoc": {
				"kind": "dev",
				"methods": {},
				"version": 1
			},
			"evm": {
				"assembly": "    /* \"contracts/solidity.series/deploy.sol\":6497:7725  contract VerifySig {... */\n  mstore(0x40, 0x80)\n  callvalue\n  dup1\n  iszero\n  tag_1\n  jumpi\n  0x00\n  dup1\n  revert\ntag_1:\n  pop\n  dataSize(sub_0)\n  dup1\n  dataOffset(sub_0)\n  0x00\n  codecopy\n  0x00\n  return\nstop\n\nsub_0: assembly {\n        /* \"contracts/solidity.series/deploy.sol\":6497:7725  contract VerifySig {... */\n      mstore(0x40, 0x80)\n      callvalue\n      dup1\n      iszero\n      tag_1\n      jumpi\n      0x00\n      dup1\n      revert\n    tag_1:\n      pop\n      jumpi(tag_2, lt(calldatasize, 0x04))\n      shr(0xe0, calldataload(0x00))\n      dup1\n      0x19045a25\n      eq\n      tag_3\n      jumpi\n      dup1\n      0x2dd34f0f\n      eq\n      tag_4\n      jumpi\n      dup1\n      0xb446f3b2\n      eq\n      tag_5\n      jumpi\n      dup1\n      0xfa540801\n      eq\n      tag_6\n      jumpi\n    tag_2:\n      0x00\n      dup1\n      revert\n        /* \"contracts/solidity.series/deploy.sol\":7347:7562  function recover(bytes32 _ethSignedMessageHash,bytes memory _sig) public pure returns(address){... */\n    tag_3:\n      tag_7\n      tag_8\n      calldatasize\n      0x04\n      tag_9\n      jump\t// in\n    tag_8:\n      tag_10\n      jump\t// in\n    tag_7:\n      mload(0x40)\n      sub(shl(0xa0, 0x01), 0x01)\n        /* \"#utility.yul\":1426:1458   */\n      swap1\n      swap2\n      and\n        /* \"#utility.yul\":1408:1459   */\n      dup2\n      mstore\n        /* \"#utility.yul\":1396:1398   */\n      0x20\n        /* \"#utility.yul\":1381:1399   */\n      add\n        /* \"contracts/solidity.series/deploy.sol\":7347:7562  function recover(bytes32 _ethSignedMessageHash,bytes memory _sig) public pure returns(address){... */\n    tag_11:\n      mload(0x40)\n      dup1\n      swap2\n      sub\n      swap1\n      return\n        /* \"contracts/solidity.series/deploy.sol\":6522:6861  function verify(... */\n    tag_4:\n      tag_13\n      tag_14\n      calldatasize\n      0x04\n      tag_15\n      jump\t// in\n    tag_14:\n      tag_16\n      jump\t// in\n    tag_13:\n      mload(0x40)\n        /* \"#utility.yul\":2354:2368   */\n      swap1\n      iszero\n        /* \"#utility.yul\":2347:2369   */\n      iszero\n        /* \"#utility.yul\":2329:2370   */\n      dup2\n      mstore\n        /* \"#utility.yul\":2317:2319   */\n      0x20\n        /* \"#utility.yul\":2302:2320   */\n      add\n        /* \"contracts/solidity.series/deploy.sol\":6522:6861  function verify(... */\n      tag_11\n        /* \"#utility.yul\":2189:2376   */\n      jump\n        /* \"contracts/solidity.series/deploy.sol\":6867:7036  function getMessageHash(string memory _message)... */\n    tag_5:\n      tag_19\n      tag_20\n      calldatasize\n      0x04\n      tag_21\n      jump\t// in\n    tag_20:\n      tag_22\n      jump\t// in\n    tag_19:\n      mload(0x40)\n        /* \"#utility.yul\":2853:2878   */\n      swap1\n      dup2\n      mstore\n        /* \"#utility.yul\":2841:2843   */\n      0x20\n        /* \"#utility.yul\":2826:2844   */\n      add\n        /* \"contracts/solidity.series/deploy.sol\":6867:7036  function getMessageHash(string memory _message)... */\n      tag_11\n        /* \"#utility.yul\":2707:2884   */\n      jump\n        /* \"contracts/solidity.series/deploy.sol\":7042:7341  function getEthSignedMessageHash(bytes32 _messageHash)... */\n    tag_6:\n      tag_19\n      tag_26\n      calldatasize\n      0x04\n      tag_27\n      jump\t// in\n    tag_26:\n      pop\n        /* \"contracts/solidity.series/deploy.sol\":7211:7320  abi.encodePacked(... */\n      0x40\n      dup1\n      mload\n        /* \"contracts/solidity.series/deploy.sol\":7142:7149  bytes32 */\n      0x00\n        /* \"contracts/solidity.series/deploy.sol\":7211:7320  abi.encodePacked(... */\n      dup2\n      mstore\n      0x20\n      dup2\n      add\n      swap2\n      dup3\n      swap1\n      mstore\n        /* \"contracts/solidity.series/deploy.sol\":7184:7334  keccak256(... */\n      mload\n      swap1\n      keccak256\n      swap1\n        /* \"contracts/solidity.series/deploy.sol\":7042:7341  function getEthSignedMessageHash(bytes32 _messageHash)... */\n      jump\n        /* \"contracts/solidity.series/deploy.sol\":7347:7562  function recover(bytes32 _ethSignedMessageHash,bytes memory _sig) public pure returns(address){... */\n    tag_10:\n        /* \"contracts/solidity.series/deploy.sol\":7433:7440  address */\n      0x00\n        /* \"contracts/solidity.series/deploy.sol\":7452:7461  bytes32 r */\n      dup1\n        /* \"contracts/solidity.series/deploy.sol\":7463:7472  bytes32 s */\n      0x00\n        /* \"contracts/solidity.series/deploy.sol\":7474:7481  uint8 v */\n      dup1\n        /* \"contracts/solidity.series/deploy.sol\":7485:7497  _split(_sig) */\n      tag_31\n        /* \"contracts/solidity.series/deploy.sol\":7492:7496  _sig */\n      dup6\n        /* \"contracts/solidity.series/deploy.sol\":7485:7491  _split */\n      tag_32\n        /* \"contracts/solidity.series/deploy.sol\":7485:7497  _split(_sig) */\n      jump\t// in\n    tag_31:\n        /* \"contracts/solidity.series/deploy.sol\":7514:7555  ecrecover(_ethSignedMessageHash, v, r, s) */\n      0x40\n      dup1\n      mload\n      0x00\n      dup2\n      mstore\n      0x20\n      dup2\n      add\n      dup1\n      dup4\n      mstore\n        /* \"#utility.yul\":3301:3326   */\n      dup12\n      swap1\n      mstore\n        /* \"#utility.yul\":3374:3378   */\n      0xff\n        /* \"#utility.yul\":3362:3379   */\n      dup4\n      and\n        /* \"#utility.yul\":3342:3360   */\n      swap2\n      dup2\n      add\n        /* \"#utility.yul\":3335:3380   */\n      swap2\n      swap1\n      swap2\n      mstore\n        /* \"#utility.yul\":3396:3414   */\n      0x60\n      dup2\n      add\n        /* \"#utility.yul\":3389:3423   */\n      dup5\n      swap1\n      mstore\n        /* \"#utility.yul\":3439:3457   */\n      0x80\n      dup2\n      add\n        /* \"#utility.yul\":3432:3466   */\n      dup4\n      swap1\n      mstore\n        /* \"contracts/solidity.series/deploy.sol\":7451:7497  (bytes32 r ,bytes32 s, uint8 v) = _split(_sig) */\n      swap3\n      swap6\n      pop\n      swap1\n      swap4\n      pop\n      swap2\n      pop\n        /* \"contracts/solidity.series/deploy.sol\":7514:7555  ecrecover(_ethSignedMessageHash, v, r, s) */\n      0x01\n      swap1\n        /* \"#utility.yul\":3273:3292   */\n      0xa0\n      add\n        /* \"contracts/solidity.series/deploy.sol\":7514:7555  ecrecover(_ethSignedMessageHash, v, r, s) */\n      0x20\n      mload(0x40)\n      0x20\n      dup2\n      sub\n      swap1\n      dup1\n      dup5\n      sub\n      swap1\n      dup6\n      gas\n      staticcall\n      iszero\n      dup1\n      iszero\n      tag_36\n      jumpi\n      returndatasize\n      0x00\n      dup1\n      returndatacopy\n      revert(0x00, returndatasize)\n    tag_36:\n      pop\n      pop\n      mload(add(not(0x1f), mload(0x40)))\n      swap8\n        /* \"contracts/solidity.series/deploy.sol\":7347:7562  function recover(bytes32 _ethSignedMessageHash,bytes memory _sig) public pure returns(address){... */\n      swap7\n      pop\n      pop\n      pop\n      pop\n      pop\n      pop\n      pop\n      jump\t// out\n        /* \"contracts/solidity.series/deploy.sol\":6522:6861  function verify(... */\n    tag_16:\n        /* \"contracts/solidity.series/deploy.sol\":6651:6655  bool */\n      0x00\n        /* \"contracts/solidity.series/deploy.sol\":6667:6686  bytes32 messageHash */\n      dup1\n        /* \"contracts/solidity.series/deploy.sol\":6689:6713  getMessageHash(_message) */\n      tag_38\n        /* \"contracts/solidity.series/deploy.sol\":6704:6712  _message */\n      dup5\n        /* \"contracts/solidity.series/deploy.sol\":6689:6703  getMessageHash */\n      tag_22\n        /* \"contracts/solidity.series/deploy.sol\":6689:6713  getMessageHash(_message) */\n      jump\t// in\n    tag_38:\n        /* \"contracts/solidity.series/deploy.sol\":6667:6713  bytes32 messageHash = getMessageHash(_message) */\n      swap1\n      pop\n        /* \"contracts/solidity.series/deploy.sol\":6723:6751  bytes32 ethSignedMessageHash */\n      0x00\n        /* \"contracts/solidity.series/deploy.sol\":6754:6790  getEthSignedMessageHash(messageHash) */\n      tag_39\n        /* \"contracts/solidity.series/deploy.sol\":7211:7320  abi.encodePacked(... */\n      0x40\n      dup1\n      mload\n        /* \"contracts/solidity.series/deploy.sol\":7142:7149  bytes32 */\n      0x00\n        /* \"contracts/solidity.series/deploy.sol\":7211:7320  abi.encodePacked(... */\n      dup2\n      mstore\n      0x20\n      dup2\n      add\n      swap2\n      dup3\n      swap1\n      mstore\n        /* \"contracts/solidity.series/deploy.sol\":7184:7334  keccak256(... */\n      mload\n      swap1\n      keccak256\n      swap1\n        /* \"contracts/solidity.series/deploy.sol\":7042:7341  function getEthSignedMessageHash(bytes32 _messageHash)... */\n      jump\n        /* \"contracts/solidity.series/deploy.sol\":6754:6790  getEthSignedMessageHash(messageHash) */\n    tag_39:\n        /* \"contracts/solidity.series/deploy.sol\":6723:6790  bytes32 ethSignedMessageHash = getEthSignedMessageHash(messageHash) */\n      swap1\n      pop\n        /* \"contracts/solidity.series/deploy.sol\":6847:6854  _signer */\n      dup6\n      sub(shl(0xa0, 0x01), 0x01)\n        /* \"contracts/solidity.series/deploy.sol\":6808:6854  recover(ethSignedMessageHash, _sig) == _signer */\n      and\n        /* \"contracts/solidity.series/deploy.sol\":6808:6843  recover(ethSignedMessageHash, _sig) */\n      tag_40\n        /* \"contracts/solidity.series/deploy.sol\":6816:6836  ethSignedMessageHash */\n      dup3\n        /* \"contracts/solidity.series/deploy.sol\":6838:6842  _sig */\n      dup7\n        /* \"contracts/solidity.series/deploy.sol\":6808:6815  recover */\n      tag_10\n        /* \"contracts/solidity.series/deploy.sol\":6808:6843  recover(ethSignedMessageHash, _sig) */\n      jump\t// in\n    tag_40:\n      sub(shl(0xa0, 0x01), 0x01)\n        /* \"contracts/solidity.series/deploy.sol\":6808:6854  recover(ethSignedMessageHash, _sig) == _signer */\n      and\n      eq\n      swap7\n        /* \"contracts/solidity.series/deploy.sol\":6522:6861  function verify(... */\n      swap6\n      pop\n      pop\n      pop\n      pop\n      pop\n      pop\n      jump\t// out\n        /* \"contracts/solidity.series/deploy.sol\":6867:7036  function getMessageHash(string memory _message)... */\n    tag_22:\n        /* \"contracts/solidity.series/deploy.sol\":6960:6967  bytes32 */\n      0x00\n        /* \"contracts/solidity.series/deploy.sol\":7018:7026  _message */\n      dup2\n        /* \"contracts/solidity.series/deploy.sol\":7000:7028  abi.encodePacked((_message)) */\n      add(0x20, mload(0x40))\n      tag_42\n      swap2\n      swap1\n      tag_43\n      jump\t// in\n    tag_42:\n      mload(0x40)\n      0x20\n      dup2\n      dup4\n      sub\n      sub\n      dup2\n      mstore\n      swap1\n      0x40\n      mstore\n        /* \"contracts/solidity.series/deploy.sol\":6990:7029  keccak256(abi.encodePacked((_message))) */\n      dup1\n      mload\n      swap1\n      0x20\n      add\n      keccak256\n        /* \"contracts/solidity.series/deploy.sol\":6983:7029  return keccak256(abi.encodePacked((_message))) */\n      swap1\n      pop\n        /* \"contracts/solidity.series/deploy.sol\":6867:7036  function getMessageHash(string memory _message)... */\n      swap2\n      swap1\n      pop\n      jump\t// out\n        /* \"contracts/solidity.series/deploy.sol\":7568:7723  function _split(bytes memory _sig)internal pure returns(bytes32 r,bytes32 s,uint8 v){... */\n    tag_32:\n        /* \"contracts/solidity.series/deploy.sol\":7624:7633  bytes32 r */\n      0x00\n        /* \"contracts/solidity.series/deploy.sol\":7634:7643  bytes32 s */\n      dup1\n        /* \"contracts/solidity.series/deploy.sol\":7644:7651  uint8 v */\n      0x00\n        /* \"contracts/solidity.series/deploy.sol\":7670:7674  _sig */\n      dup4\n        /* \"contracts/solidity.series/deploy.sol\":7670:7681  _sig.length */\n      mload\n        /* \"contracts/solidity.series/deploy.sol\":7685:7687  65 */\n      0x41\n        /* \"contracts/solidity.series/deploy.sol\":7670:7687  _sig.length == 65 */\n      eq\n        /* \"contracts/solidity.series/deploy.sol\":7662:7716  require(_sig.length == 65, \"Invalid signature length\") */\n      tag_46\n      jumpi\n      mload(0x40)\n      shl(0xe5, 0x461bcd)\n      dup2\n      mstore\n        /* \"#utility.yul\":4098:4100   */\n      0x20\n        /* \"contracts/solidity.series/deploy.sol\":7662:7716  require(_sig.length == 65, \"Invalid signature length\") */\n      0x04\n      dup3\n      add\n        /* \"#utility.yul\":4080:4101   */\n      mstore\n        /* \"#utility.yul\":4137:4139   */\n      0x18\n        /* \"#utility.yul\":4117:4135   */\n      0x24\n      dup3\n      add\n        /* \"#utility.yul\":4110:4140   */\n      mstore\n        /* \"#utility.yul\":4176:4202   */\n      0x496e76616c6964207369676e6174757265206c656e6774680000000000000000\n        /* \"#utility.yul\":4156:4174   */\n      0x44\n      dup3\n      add\n        /* \"#utility.yul\":4149:4203   */\n      mstore\n        /* \"#utility.yul\":4220:4238   */\n      0x64\n      add\n        /* \"contracts/solidity.series/deploy.sol\":7662:7716  require(_sig.length == 65, \"Invalid signature length\") */\n      mload(0x40)\n      dup1\n      swap2\n      sub\n      swap1\n      revert\n    tag_46:\n        /* \"contracts/solidity.series/deploy.sol\":7568:7723  function _split(bytes memory _sig)internal pure returns(bytes32 r,bytes32 s,uint8 v){... */\n      swap2\n      swap4\n      swap1\n      swap3\n      pop\n      jump\t// out\n        /* \"#utility.yul\":14:141   */\n    tag_49:\n        /* \"#utility.yul\":75:85   */\n      0x4e487b71\n        /* \"#utility.yul\":70:73   */\n      0xe0\n        /* \"#utility.yul\":66:86   */\n      shl\n        /* \"#utility.yul\":63:64   */\n      0x00\n        /* \"#utility.yul\":56:87   */\n      mstore\n        /* \"#utility.yul\":106:110   */\n      0x41\n        /* \"#utility.yul\":103:104   */\n      0x04\n        /* \"#utility.yul\":96:111   */\n      mstore\n        /* \"#utility.yul\":130:134   */\n      0x24\n        /* \"#utility.yul\":127:128   */\n      0x00\n        /* \"#utility.yul\":120:135   */\n      revert\n        /* \"#utility.yul\":146:864   */\n    tag_50:\n        /* \"#utility.yul\":188:193   */\n      0x00\n        /* \"#utility.yul\":241:244   */\n      dup3\n        /* \"#utility.yul\":234:238   */\n      0x1f\n        /* \"#utility.yul\":226:232   */\n      dup4\n        /* \"#utility.yul\":222:239   */\n      add\n        /* \"#utility.yul\":218:245   */\n      slt\n        /* \"#utility.yul\":208:263   */\n      tag_54\n      jumpi\n        /* \"#utility.yul\":259:260   */\n      0x00\n        /* \"#utility.yul\":256:257   */\n      dup1\n        /* \"#utility.yul\":249:261   */\n      revert\n        /* \"#utility.yul\":208:263   */\n    tag_54:\n        /* \"#utility.yul\":295:301   */\n      dup2\n        /* \"#utility.yul\":282:302   */\n      calldataload\n        /* \"#utility.yul\":321:339   */\n      0xffffffffffffffff\n        /* \"#utility.yul\":358:360   */\n      dup1\n        /* \"#utility.yul\":354:356   */\n      dup3\n        /* \"#utility.yul\":351:361   */\n      gt\n        /* \"#utility.yul\":348:384   */\n      iszero\n      tag_56\n      jumpi\n        /* \"#utility.yul\":364:382   */\n      tag_56\n      tag_49\n      jump\t// in\n    tag_56:\n        /* \"#utility.yul\":439:441   */\n      0x40\n        /* \"#utility.yul\":433:442   */\n      mload\n        /* \"#utility.yul\":407:409   */\n      0x1f\n        /* \"#utility.yul\":493:506   */\n      dup4\n      add\n      not(0x1f)\n        /* \"#utility.yul\":489:511   */\n      swap1\n      dup2\n      and\n        /* \"#utility.yul\":513:515   */\n      0x3f\n        /* \"#utility.yul\":485:516   */\n      add\n        /* \"#utility.yul\":481:521   */\n      and\n        /* \"#utility.yul\":469:522   */\n      dup2\n      add\n      swap1\n        /* \"#utility.yul\":537:555   */\n      dup3\n      dup3\n      gt\n        /* \"#utility.yul\":557:579   */\n      dup2\n      dup4\n      lt\n        /* \"#utility.yul\":534:580   */\n      or\n        /* \"#utility.yul\":531:603   */\n      iszero\n      tag_58\n      jumpi\n        /* \"#utility.yul\":583:601   */\n      tag_58\n      tag_49\n      jump\t// in\n    tag_58:\n        /* \"#utility.yul\":623:633   */\n      dup2\n        /* \"#utility.yul\":619:621   */\n      0x40\n        /* \"#utility.yul\":612:634   */\n      mstore\n        /* \"#utility.yul\":658:660   */\n      dup4\n        /* \"#utility.yul\":650:656   */\n      dup2\n        /* \"#utility.yul\":643:661   */\n      mstore\n        /* \"#utility.yul\":704:707   */\n      dup7\n        /* \"#utility.yul\":697:701   */\n      0x20\n        /* \"#utility.yul\":692:694   */\n      dup6\n        /* \"#utility.yul\":684:690   */\n      dup9\n        /* \"#utility.yul\":680:695   */\n      add\n        /* \"#utility.yul\":676:702   */\n      add\n        /* \"#utility.yul\":673:708   */\n      gt\n        /* \"#utility.yul\":670:725   */\n      iszero\n      tag_59\n      jumpi\n        /* \"#utility.yul\":721:722   */\n      0x00\n        /* \"#utility.yul\":718:719   */\n      dup1\n        /* \"#utility.yul\":711:723   */\n      revert\n        /* \"#utility.yul\":670:725   */\n    tag_59:\n        /* \"#utility.yul\":785:787   */\n      dup4\n        /* \"#utility.yul\":778:782   */\n      0x20\n        /* \"#utility.yul\":770:776   */\n      dup8\n        /* \"#utility.yul\":766:783   */\n      add\n        /* \"#utility.yul\":759:763   */\n      0x20\n        /* \"#utility.yul\":751:757   */\n      dup4\n        /* \"#utility.yul\":747:764   */\n      add\n        /* \"#utility.yul\":734:788   */\n      calldatacopy\n        /* \"#utility.yul\":832:833   */\n      0x00\n        /* \"#utility.yul\":825:829   */\n      0x20\n        /* \"#utility.yul\":820:822   */\n      dup6\n        /* \"#utility.yul\":812:818   */\n      dup4\n        /* \"#utility.yul\":808:823   */\n      add\n        /* \"#utility.yul\":804:830   */\n      add\n        /* \"#utility.yul\":797:834   */\n      mstore\n        /* \"#utility.yul\":852:858   */\n      dup1\n        /* \"#utility.yul\":843:858   */\n      swap5\n      pop\n      pop\n      pop\n      pop\n      pop\n        /* \"#utility.yul\":146:864   */\n      swap3\n      swap2\n      pop\n      pop\n      jump\t// out\n        /* \"#utility.yul\":869:1257   */\n    tag_9:\n        /* \"#utility.yul\":946:952   */\n      0x00\n        /* \"#utility.yul\":954:960   */\n      dup1\n        /* \"#utility.yul\":1007:1009   */\n      0x40\n        /* \"#utility.yul\":995:1004   */\n      dup4\n        /* \"#utility.yul\":986:993   */\n      dup6\n        /* \"#utility.yul\":982:1005   */\n      sub\n        /* \"#utility.yul\":978:1010   */\n      slt\n        /* \"#utility.yul\":975:1027   */\n      iszero\n      tag_61\n      jumpi\n        /* \"#utility.yul\":1023:1024   */\n      0x00\n        /* \"#utility.yul\":1020:1021   */\n      dup1\n        /* \"#utility.yul\":1013:1025   */\n      revert\n        /* \"#utility.yul\":975:1027   */\n    tag_61:\n        /* \"#utility.yul\":1059:1068   */\n      dup3\n        /* \"#utility.yul\":1046:1069   */\n      calldataload\n        /* \"#utility.yul\":1036:1069   */\n      swap2\n      pop\n        /* \"#utility.yul\":1120:1122   */\n      0x20\n        /* \"#utility.yul\":1109:1118   */\n      dup4\n        /* \"#utility.yul\":1105:1123   */\n      add\n        /* \"#utility.yul\":1092:1124   */\n      calldataload\n        /* \"#utility.yul\":1147:1165   */\n      0xffffffffffffffff\n        /* \"#utility.yul\":1139:1145   */\n      dup2\n        /* \"#utility.yul\":1136:1166   */\n      gt\n        /* \"#utility.yul\":1133:1183   */\n      iszero\n      tag_62\n      jumpi\n        /* \"#utility.yul\":1179:1180   */\n      0x00\n        /* \"#utility.yul\":1176:1177   */\n      dup1\n        /* \"#utility.yul\":1169:1181   */\n      revert\n        /* \"#utility.yul\":1133:1183   */\n    tag_62:\n        /* \"#utility.yul\":1202:1251   */\n      tag_63\n        /* \"#utility.yul\":1243:1250   */\n      dup6\n        /* \"#utility.yul\":1234:1240   */\n      dup3\n        /* \"#utility.yul\":1223:1232   */\n      dup7\n        /* \"#utility.yul\":1219:1241   */\n      add\n        /* \"#utility.yul\":1202:1251   */\n      tag_50\n      jump\t// in\n    tag_63:\n        /* \"#utility.yul\":1192:1251   */\n      swap2\n      pop\n      pop\n        /* \"#utility.yul\":869:1257   */\n      swap3\n      pop\n      swap3\n      swap1\n      pop\n      jump\t// out\n        /* \"#utility.yul\":1470:2184   */\n    tag_15:\n        /* \"#utility.yul\":1566:1572   */\n      0x00\n        /* \"#utility.yul\":1574:1580   */\n      dup1\n        /* \"#utility.yul\":1582:1588   */\n      0x00\n        /* \"#utility.yul\":1635:1637   */\n      0x60\n        /* \"#utility.yul\":1623:1632   */\n      dup5\n        /* \"#utility.yul\":1614:1621   */\n      dup7\n        /* \"#utility.yul\":1610:1633   */\n      sub\n        /* \"#utility.yul\":1606:1638   */\n      slt\n        /* \"#utility.yul\":1603:1655   */\n      iszero\n      tag_66\n      jumpi\n        /* \"#utility.yul\":1651:1652   */\n      0x00\n        /* \"#utility.yul\":1648:1649   */\n      dup1\n        /* \"#utility.yul\":1641:1653   */\n      revert\n        /* \"#utility.yul\":1603:1655   */\n    tag_66:\n        /* \"#utility.yul\":1677:1700   */\n      dup4\n      calldataload\n      sub(shl(0xa0, 0x01), 0x01)\n        /* \"#utility.yul\":1729:1760   */\n      dup2\n      and\n        /* \"#utility.yul\":1719:1761   */\n      dup2\n      eq\n        /* \"#utility.yul\":1709:1779   */\n      tag_67\n      jumpi\n        /* \"#utility.yul\":1775:1776   */\n      0x00\n        /* \"#utility.yul\":1772:1773   */\n      dup1\n        /* \"#utility.yul\":1765:1777   */\n      revert\n        /* \"#utility.yul\":1709:1779   */\n    tag_67:\n        /* \"#utility.yul\":1798:1803   */\n      swap3\n      pop\n        /* \"#utility.yul\":1854:1856   */\n      0x20\n        /* \"#utility.yul\":1839:1857   */\n      dup5\n      add\n        /* \"#utility.yul\":1826:1858   */\n      calldataload\n        /* \"#utility.yul\":1877:1895   */\n      0xffffffffffffffff\n        /* \"#utility.yul\":1907:1921   */\n      dup1\n      dup3\n      gt\n        /* \"#utility.yul\":1904:1938   */\n      iszero\n      tag_68\n      jumpi\n        /* \"#utility.yul\":1934:1935   */\n      0x00\n        /* \"#utility.yul\":1931:1932   */\n      dup1\n        /* \"#utility.yul\":1924:1936   */\n      revert\n        /* \"#utility.yul\":1904:1938   */\n    tag_68:\n        /* \"#utility.yul\":1957:2006   */\n      tag_69\n        /* \"#utility.yul\":1998:2005   */\n      dup8\n        /* \"#utility.yul\":1989:1995   */\n      dup4\n        /* \"#utility.yul\":1978:1987   */\n      dup9\n        /* \"#utility.yul\":1974:1996   */\n      add\n        /* \"#utility.yul\":1957:2006   */\n      tag_50\n      jump\t// in\n    tag_69:\n        /* \"#utility.yul\":1947:2006   */\n      swap4\n      pop\n        /* \"#utility.yul\":2059:2061   */\n      0x40\n        /* \"#utility.yul\":2048:2057   */\n      dup7\n        /* \"#utility.yul\":2044:2062   */\n      add\n        /* \"#utility.yul\":2031:2063   */\n      calldataload\n        /* \"#utility.yul\":2015:2063   */\n      swap2\n      pop\n        /* \"#utility.yul\":2088:2090   */\n      dup1\n        /* \"#utility.yul\":2078:2086   */\n      dup3\n        /* \"#utility.yul\":2075:2091   */\n      gt\n        /* \"#utility.yul\":2072:2108   */\n      iszero\n      tag_70\n      jumpi\n        /* \"#utility.yul\":2104:2105   */\n      0x00\n        /* \"#utility.yul\":2101:2102   */\n      dup1\n        /* \"#utility.yul\":2094:2106   */\n      revert\n        /* \"#utility.yul\":2072:2108   */\n    tag_70:\n      pop\n        /* \"#utility.yul\":2127:2178   */\n      tag_71\n        /* \"#utility.yul\":2170:2177   */\n      dup7\n        /* \"#utility.yul\":2159:2167   */\n      dup3\n        /* \"#utility.yul\":2148:2157   */\n      dup8\n        /* \"#utility.yul\":2144:2168   */\n      add\n        /* \"#utility.yul\":2127:2178   */\n      tag_50\n      jump\t// in\n    tag_71:\n        /* \"#utility.yul\":2117:2178   */\n      swap2\n      pop\n      pop\n        /* \"#utility.yul\":1470:2184   */\n      swap3\n      pop\n      swap3\n      pop\n      swap3\n      jump\t// out\n        /* \"#utility.yul\":2381:2702   */\n    tag_21:\n        /* \"#utility.yul\":2450:2456   */\n      0x00\n        /* \"#utility.yul\":2503:2505   */\n      0x20\n        /* \"#utility.yul\":2491:2500   */\n      dup3\n        /* \"#utility.yul\":2482:2489   */\n      dup5\n        /* \"#utility.yul\":2478:2501   */\n      sub\n        /* \"#utility.yul\":2474:2506   */\n      slt\n        /* \"#utility.yul\":2471:2523   */\n      iszero\n      tag_74\n      jumpi\n        /* \"#utility.yul\":2519:2520   */\n      0x00\n        /* \"#utility.yul\":2516:2517   */\n      dup1\n        /* \"#utility.yul\":2509:2521   */\n      revert\n        /* \"#utility.yul\":2471:2523   */\n    tag_74:\n        /* \"#utility.yul\":2559:2568   */\n      dup2\n        /* \"#utility.yul\":2546:2569   */\n      calldataload\n        /* \"#utility.yul\":2592:2610   */\n      0xffffffffffffffff\n        /* \"#utility.yul\":2584:2590   */\n      dup2\n        /* \"#utility.yul\":2581:2611   */\n      gt\n        /* \"#utility.yul\":2578:2628   */\n      iszero\n      tag_75\n      jumpi\n        /* \"#utility.yul\":2624:2625   */\n      0x00\n        /* \"#utility.yul\":2621:2622   */\n      dup1\n        /* \"#utility.yul\":2614:2626   */\n      revert\n        /* \"#utility.yul\":2578:2628   */\n    tag_75:\n        /* \"#utility.yul\":2647:2696   */\n      tag_76\n        /* \"#utility.yul\":2688:2695   */\n      dup5\n        /* \"#utility.yul\":2679:2685   */\n      dup3\n        /* \"#utility.yul\":2668:2677   */\n      dup6\n        /* \"#utility.yul\":2664:2686   */\n      add\n        /* \"#utility.yul\":2647:2696   */\n      tag_50\n      jump\t// in\n    tag_76:\n        /* \"#utility.yul\":2637:2696   */\n      swap5\n        /* \"#utility.yul\":2381:2702   */\n      swap4\n      pop\n      pop\n      pop\n      pop\n      jump\t// out\n        /* \"#utility.yul\":2889:3069   */\n    tag_27:\n        /* \"#utility.yul\":2948:2954   */\n      0x00\n        /* \"#utility.yul\":3001:3003   */\n      0x20\n        /* \"#utility.yul\":2989:2998   */\n      dup3\n        /* \"#utility.yul\":2980:2987   */\n      dup5\n        /* \"#utility.yul\":2976:2999   */\n      sub\n        /* \"#utility.yul\":2972:3004   */\n      slt\n        /* \"#utility.yul\":2969:3021   */\n      iszero\n      tag_79\n      jumpi\n        /* \"#utility.yul\":3017:3018   */\n      0x00\n        /* \"#utility.yul\":3014:3015   */\n      dup1\n        /* \"#utility.yul\":3007:3019   */\n      revert\n        /* \"#utility.yul\":2969:3021   */\n    tag_79:\n      pop\n        /* \"#utility.yul\":3040:3063   */\n      calldataload\n      swap2\n        /* \"#utility.yul\":2889:3069   */\n      swap1\n      pop\n      jump\t// out\n        /* \"#utility.yul\":3477:3891   */\n    tag_43:\n        /* \"#utility.yul\":3608:3611   */\n      0x00\n        /* \"#utility.yul\":3646:3652   */\n      dup3\n        /* \"#utility.yul\":3640:3653   */\n      mload\n        /* \"#utility.yul\":3671:3672   */\n      0x00\n        /* \"#utility.yul\":3681:3810   */\n    tag_82:\n        /* \"#utility.yul\":3695:3701   */\n      dup2\n        /* \"#utility.yul\":3692:3693   */\n      dup2\n        /* \"#utility.yul\":3689:3702   */\n      lt\n        /* \"#utility.yul\":3681:3810   */\n      iszero\n      tag_84\n      jumpi\n        /* \"#utility.yul\":3793:3797   */\n      0x20\n        /* \"#utility.yul\":3777:3791   */\n      dup2\n      dup7\n      add\n        /* \"#utility.yul\":3773:3798   */\n      dup2\n      add\n        /* \"#utility.yul\":3767:3799   */\n      mload\n        /* \"#utility.yul\":3754:3765   */\n      dup6\n      dup4\n      add\n        /* \"#utility.yul\":3747:3800   */\n      mstore\n        /* \"#utility.yul\":3710:3722   */\n      add\n        /* \"#utility.yul\":3681:3810   */\n      jump(tag_82)\n    tag_84:\n      pop\n        /* \"#utility.yul\":3865:3866   */\n      0x00\n        /* \"#utility.yul\":3829:3845   */\n      swap3\n      add\n        /* \"#utility.yul\":3854:3867   */\n      swap2\n      dup3\n      mstore\n      pop\n        /* \"#utility.yul\":3829:3845   */\n      swap2\n        /* \"#utility.yul\":3477:3891   */\n      swap1\n      pop\n      jump\t// out\n\n    auxdata: 0xa2646970667358221220c4dc14962ddac98c35057f42f3dd2ffe2be54a3367e59af964cd46fc5f3e289364736f6c63430008160033\n}\n",
				"bytecode": {
					"linkReferences": {},
					"object": "608060405234801561000f575f80fd5b5061044e8061001d5f395ff3fe608060405234801561000f575f80fd5b506004361061004a575f3560e01c806319045a251461004e5780632dd34f0f1461007e578063b446f3b2146100a1578063fa540801146100c2575b5f80fd5b61006161005c3660046102db565b6100e6565b6040516001600160a01b0390911681526020015b60405180910390f35b61009161008c36600461031f565b610160565b6040519015158152602001610075565b6100b46100af36600461039b565b6101b0565b604051908152602001610075565b6100b46100d03660046103d5565b50604080515f8152602081019182905251902090565b5f805f806100f3856101df565b604080515f8152602081018083528b905260ff8316918101919091526060810184905260808101839052929550909350915060019060a0016020604051602081039080840390855afa15801561014b573d5f803e3d5ffd5b5050604051601f190151979650505050505050565b5f8061016b846101b0565b90505f610186604080515f8152602081019182905251902090565b9050856001600160a01b031661019c82866100e6565b6001600160a01b0316149695505050505050565b5f816040516020016101c291906103ec565b604051602081830303815290604052805190602001209050919050565b5f805f83516041146102375760405162461bcd60e51b815260206004820152601860248201527f496e76616c6964207369676e6174757265206c656e6774680000000000000000604482015260640160405180910390fd5b9193909250565b634e487b7160e01b5f52604160045260245ffd5b5f82601f830112610261575f80fd5b813567ffffffffffffffff8082111561027c5761027c61023e565b604051601f8301601f19908116603f011681019082821181831017156102a4576102a461023e565b816040528381528660208588010111156102bc575f80fd5b836020870160208301375f602085830101528094505050505092915050565b5f80604083850312156102ec575f80fd5b82359150602083013567ffffffffffffffff811115610309575f80fd5b61031585828601610252565b9150509250929050565b5f805f60608486031215610331575f80fd5b83356001600160a01b0381168114610347575f80fd5b9250602084013567ffffffffffffffff80821115610363575f80fd5b61036f87838801610252565b93506040860135915080821115610384575f80fd5b5061039186828701610252565b9150509250925092565b5f602082840312156103ab575f80fd5b813567ffffffffffffffff8111156103c1575f80fd5b6103cd84828501610252565b949350505050565b5f602082840312156103e5575f80fd5b5035919050565b5f82515f5b8181101561040b57602081860181015185830152016103f1565b505f92019182525091905056fea2646970667358221220c4dc14962ddac98c35057f42f3dd2ffe2be54a3367e59af964cd46fc5f3e289364736f6c63430008160033",
					"opcodes": "PUSH1 0x80 PUSH1 0x40 MSTORE CALLVALUE DUP1 ISZERO PUSH2 0xF JUMPI PUSH0 DUP1 REVERT JUMPDEST POP PUSH2 0x44E DUP1 PUSH2 0x1D PUSH0 CODECOPY PUSH0 RETURN INVALID PUSH1 0x80 PUSH1 0x40 MSTORE CALLVALUE DUP1 ISZERO PUSH2 0xF JUMPI PUSH0 DUP1 REVERT JUMPDEST POP PUSH1 0x4 CALLDATASIZE LT PUSH2 0x4A JUMPI PUSH0 CALLDATALOAD PUSH1 0xE0 SHR DUP1 PUSH4 0x19045A25 EQ PUSH2 0x4E JUMPI DUP1 PUSH4 0x2DD34F0F EQ PUSH2 0x7E JUMPI DUP1 PUSH4 0xB446F3B2 EQ PUSH2 0xA1 JUMPI DUP1 PUSH4 0xFA540801 EQ PUSH2 0xC2 JUMPI JUMPDEST PUSH0 DUP1 REVERT JUMPDEST PUSH2 0x61 PUSH2 0x5C CALLDATASIZE PUSH1 0x4 PUSH2 0x2DB JUMP JUMPDEST PUSH2 0xE6 JUMP JUMPDEST PUSH1 0x40 MLOAD PUSH1 0x1 PUSH1 0x1 PUSH1 0xA0 SHL SUB SWAP1 SWAP2 AND DUP2 MSTORE PUSH1 0x20 ADD JUMPDEST PUSH1 0x40 MLOAD DUP1 SWAP2 SUB SWAP1 RETURN JUMPDEST PUSH2 0x91 PUSH2 0x8C CALLDATASIZE PUSH1 0x4 PUSH2 0x31F JUMP JUMPDEST PUSH2 0x160 JUMP JUMPDEST PUSH1 0x40 MLOAD SWAP1 ISZERO ISZERO DUP2 MSTORE PUSH1 0x20 ADD PUSH2 0x75 JUMP JUMPDEST PUSH2 0xB4 PUSH2 0xAF CALLDATASIZE PUSH1 0x4 PUSH2 0x39B JUMP JUMPDEST PUSH2 0x1B0 JUMP JUMPDEST PUSH1 0x40 MLOAD SWAP1 DUP2 MSTORE PUSH1 0x20 ADD PUSH2 0x75 JUMP JUMPDEST PUSH2 0xB4 PUSH2 0xD0 CALLDATASIZE PUSH1 0x4 PUSH2 0x3D5 JUMP JUMPDEST POP PUSH1 0x40 DUP1 MLOAD PUSH0 DUP2 MSTORE PUSH1 0x20 DUP2 ADD SWAP2 DUP3 SWAP1 MSTORE MLOAD SWAP1 KECCAK256 SWAP1 JUMP JUMPDEST PUSH0 DUP1 PUSH0 DUP1 PUSH2 0xF3 DUP6 PUSH2 0x1DF JUMP JUMPDEST PUSH1 0x40 DUP1 MLOAD PUSH0 DUP2 MSTORE PUSH1 0x20 DUP2 ADD DUP1 DUP4 MSTORE DUP12 SWAP1 MSTORE PUSH1 0xFF DUP4 AND SWAP2 DUP2 ADD SWAP2 SWAP1 SWAP2 MSTORE PUSH1 0x60 DUP2 ADD DUP5 SWAP1 MSTORE PUSH1 0x80 DUP2 ADD DUP4 SWAP1 MSTORE SWAP3 SWAP6 POP SWAP1 SWAP4 POP SWAP2 POP PUSH1 0x1 SWAP1 PUSH1 0xA0 ADD PUSH1 0x20 PUSH1 0x40 MLOAD PUSH1 0x20 DUP2 SUB SWAP1 DUP1 DUP5 SUB SWAP1 DUP6 GAS STATICCALL ISZERO DUP1 ISZERO PUSH2 0x14B JUMPI RETURNDATASIZE PUSH0 DUP1 RETURNDATACOPY RETURNDATASIZE PUSH0 REVERT JUMPDEST POP POP PUSH1 0x40 MLOAD PUSH1 0x1F NOT ADD MLOAD SWAP8 SWAP7 POP POP POP POP POP POP POP JUMP JUMPDEST PUSH0 DUP1 PUSH2 0x16B DUP5 PUSH2 0x1B0 JUMP JUMPDEST SWAP1 POP PUSH0 PUSH2 0x186 PUSH1 0x40 DUP1 MLOAD PUSH0 DUP2 MSTORE PUSH1 0x20 DUP2 ADD SWAP2 DUP3 SWAP1 MSTORE MLOAD SWAP1 KECCAK256 SWAP1 JUMP JUMPDEST SWAP1 POP DUP6 PUSH1 0x1 PUSH1 0x1 PUSH1 0xA0 SHL SUB AND PUSH2 0x19C DUP3 DUP7 PUSH2 0xE6 JUMP JUMPDEST PUSH1 0x1 PUSH1 0x1 PUSH1 0xA0 SHL SUB AND EQ SWAP7 SWAP6 POP POP POP POP POP POP JUMP JUMPDEST PUSH0 DUP2 PUSH1 0x40 MLOAD PUSH1 0x20 ADD PUSH2 0x1C2 SWAP2 SWAP1 PUSH2 0x3EC JUMP JUMPDEST PUSH1 0x40 MLOAD PUSH1 0x20 DUP2 DUP4 SUB SUB DUP2 MSTORE SWAP1 PUSH1 0x40 MSTORE DUP1 MLOAD SWAP1 PUSH1 0x20 ADD KECCAK256 SWAP1 POP SWAP2 SWAP1 POP JUMP JUMPDEST PUSH0 DUP1 PUSH0 DUP4 MLOAD PUSH1 0x41 EQ PUSH2 0x237 JUMPI PUSH1 0x40 MLOAD PUSH3 0x461BCD PUSH1 0xE5 SHL DUP2 MSTORE PUSH1 0x20 PUSH1 0x4 DUP3 ADD MSTORE PUSH1 0x18 PUSH1 0x24 DUP3 ADD MSTORE PUSH32 0x496E76616C6964207369676E6174757265206C656E6774680000000000000000 PUSH1 0x44 DUP3 ADD MSTORE PUSH1 0x64 ADD PUSH1 0x40 MLOAD DUP1 SWAP2 SUB SWAP1 REVERT JUMPDEST SWAP2 SWAP4 SWAP1 SWAP3 POP JUMP JUMPDEST PUSH4 0x4E487B71 PUSH1 0xE0 SHL PUSH0 MSTORE PUSH1 0x41 PUSH1 0x4 MSTORE PUSH1 0x24 PUSH0 REVERT JUMPDEST PUSH0 DUP3 PUSH1 0x1F DUP4 ADD SLT PUSH2 0x261 JUMPI PUSH0 DUP1 REVERT JUMPDEST DUP2 CALLDATALOAD PUSH8 0xFFFFFFFFFFFFFFFF DUP1 DUP3 GT ISZERO PUSH2 0x27C JUMPI PUSH2 0x27C PUSH2 0x23E JUMP JUMPDEST PUSH1 0x40 MLOAD PUSH1 0x1F DUP4 ADD PUSH1 0x1F NOT SWAP1 DUP2 AND PUSH1 0x3F ADD AND DUP2 ADD SWAP1 DUP3 DUP3 GT DUP2 DUP4 LT OR ISZERO PUSH2 0x2A4 JUMPI PUSH2 0x2A4 PUSH2 0x23E JUMP JUMPDEST DUP2 PUSH1 0x40 MSTORE DUP4 DUP2 MSTORE DUP7 PUSH1 0x20 DUP6 DUP9 ADD ADD GT ISZERO PUSH2 0x2BC JUMPI PUSH0 DUP1 REVERT JUMPDEST DUP4 PUSH1 0x20 DUP8 ADD PUSH1 0x20 DUP4 ADD CALLDATACOPY PUSH0 PUSH1 0x20 DUP6 DUP4 ADD ADD MSTORE DUP1 SWAP5 POP POP POP POP POP SWAP3 SWAP2 POP POP JUMP JUMPDEST PUSH0 DUP1 PUSH1 0x40 DUP4 DUP6 SUB SLT ISZERO PUSH2 0x2EC JUMPI PUSH0 DUP1 REVERT JUMPDEST DUP3 CALLDATALOAD SWAP2 POP PUSH1 0x20 DUP4 ADD CALLDATALOAD PUSH8 0xFFFFFFFFFFFFFFFF DUP2 GT ISZERO PUSH2 0x309 JUMPI PUSH0 DUP1 REVERT JUMPDEST PUSH2 0x315 DUP6 DUP3 DUP7 ADD PUSH2 0x252 JUMP JUMPDEST SWAP2 POP POP SWAP3 POP SWAP3 SWAP1 POP JUMP JUMPDEST PUSH0 DUP1 PUSH0 PUSH1 0x60 DUP5 DUP7 SUB SLT ISZERO PUSH2 0x331 JUMPI PUSH0 DUP1 REVERT JUMPDEST DUP4 CALLDATALOAD PUSH1 0x1 PUSH1 0x1 PUSH1 0xA0 SHL SUB DUP2 AND DUP2 EQ PUSH2 0x347 JUMPI PUSH0 DUP1 REVERT JUMPDEST SWAP3 POP PUSH1 0x20 DUP5 ADD CALLDATALOAD PUSH8 0xFFFFFFFFFFFFFFFF DUP1 DUP3 GT ISZERO PUSH2 0x363 JUMPI PUSH0 DUP1 REVERT JUMPDEST PUSH2 0x36F DUP8 DUP4 DUP9 ADD PUSH2 0x252 JUMP JUMPDEST SWAP4 POP PUSH1 0x40 DUP7 ADD CALLDATALOAD SWAP2 POP DUP1 DUP3 GT ISZERO PUSH2 0x384 JUMPI PUSH0 DUP1 REVERT JUMPDEST POP PUSH2 0x391 DUP7 DUP3 DUP8 ADD PUSH2 0x252 JUMP JUMPDEST SWAP2 POP POP SWAP3 POP SWAP3 POP SWAP3 JUMP JUMPDEST PUSH0 PUSH1 0x20 DUP3 DUP5 SUB SLT ISZERO PUSH2 0x3AB JUMPI PUSH0 DUP1 REVERT JUMPDEST DUP2 CALLDATALOAD PUSH8 0xFFFFFFFFFFFFFFFF DUP2 GT ISZERO PUSH2 0x3C1 JUMPI PUSH0 DUP1 REVERT JUMPDEST PUSH2 0x3CD DUP5 DUP3 DUP6 ADD PUSH2 0x252 JUMP JUMPDEST SWAP5 SWAP4 POP POP POP POP JUMP JUMPDEST PUSH0 PUSH1 0x20 DUP3 DUP5 SUB SLT ISZERO PUSH2 0x3E5 JUMPI PUSH0 DUP1 REVERT JUMPDEST POP CALLDATALOAD SWAP2 SWAP1 POP JUMP JUMPDEST PUSH0 DUP3 MLOAD PUSH0 JUMPDEST DUP2 DUP2 LT ISZERO PUSH2 0x40B JUMPI PUSH1 0x20 DUP2 DUP7 ADD DUP2 ADD MLOAD DUP6 DUP4 ADD MSTORE ADD PUSH2 0x3F1 JUMP JUMPDEST POP PUSH0 SWAP3 ADD SWAP2 DUP3 MSTORE POP SWAP2 SWAP1 POP JUMP INVALID LOG2 PUSH5 0x6970667358 0x22 SLT KECCAK256 0xC4 0xDC EQ SWAP7 0x2D 0xDA 0xC9 DUP13 CALLDATALOAD SDIV PUSH32 0x42F3DD2FFE2BE54A3367E59AF964CD46FC5F3E289364736F6C63430008160033 "
				},
				"gasEstimates": {
					"creation": {
						"codeDepositCost": "220400",
						"executionCost": "261",
						"totalCost": "220661"
					},
					"external": {
						"getEthSignedMessageHash(bytes32)": "390",
						"getMessageHash(string)": "infinite",
						"recover(bytes32,bytes)": "infinite",
						"verify(address,string,bytes)": "infinite"
					},
					"internal": {
						"_split(bytes memory)": "infinite"
					}
				},
				"methodIdentifiers": {
					"getEthSignedMessageHash(bytes32)": "fa540801",
					"getMessageHash(string)": "b446f3b2",
					"recover(bytes32,bytes)": "19045a25",
					"verify(address,string,bytes)": "2dd34f0f"
				}
			},
			"storageLayout": {
				"storage": [],
				"types": null
			},
			"userdoc": {
				"kind": "user",
				"methods": {},
				"version": 1
			}
		}
	}
}