{
	"contracts/solidity.series/Counter.sol": {
		"Array": {
			"abi": [
				{
					"inputs": [],
					"name": "examples",
					"outputs": [],
					"stateMutability": "nonpayable",
					"type": "function"
				},
				{
					"inputs": [
						{
							"internalType": "uint256",
							"name": "",
							"type": "uint256"
						}
					],
					"name": "nums",
					"outputs": [
						{
							"internalType": "uint256",
							"name": "",
							"type": "uint256"
						}
					],
					"stateMutability": "view",
					"type": "function"
				},
				{
					"inputs": [
						{
							"internalType": "uint256",
							"name": "",
							"type": "uint256"
						}
					],
					"name": "numsFixed",
					"outputs": [
						{
							"internalType": "uint256",
							"name": "",
							"type": "uint256"
						}
					],
					"stateMutability": "view",
					"type": "function"
				},
				{
					"inputs": [],
					"name": "returnArray",
					"outputs": [
						{
							"internalType": "uint256[]",
							"name": "",
							"type": "uint256[]"
						}
					],
					"stateMutability": "view",
					"type": "function"
				}
			],
			"devdoc": {
				"kind": "dev",
				"methods": {},
				"version": 1
			},
			"evm": {
				"assembly": "    /* \"contracts/solidity.series/Counter.sol\":3510:3546  uint256[] public nums = [1, 2, 3, 4] */\n  0x0100\n    /* \"contracts/solidity.series/Counter.sol\":3489:4347  contract Array {... */\n  0x40\n    /* \"contracts/solidity.series/Counter.sol\":3510:3546  uint256[] public nums = [1, 2, 3, 4] */\n  mstore\n    /* \"contracts/solidity.series/Counter.sol\":3535:3536  1 */\n  0x01\n    /* \"contracts/solidity.series/Counter.sol\":3489:4347  contract Array {... */\n  0x80\n    /* \"contracts/solidity.series/Counter.sol\":3510:3546  uint256[] public nums = [1, 2, 3, 4] */\n  swap1\n  dup2\n  mstore\n    /* \"contracts/solidity.series/Counter.sol\":3538:3539  2 */\n  0x02\n    /* \"contracts/solidity.series/Counter.sol\":3510:3546  uint256[] public nums = [1, 2, 3, 4] */\n  0xa0\n  mstore\n    /* \"contracts/solidity.series/Counter.sol\":3541:3542  3 */\n  0x03\n    /* \"contracts/solidity.series/Counter.sol\":3510:3546  uint256[] public nums = [1, 2, 3, 4] */\n  0xc0\n  mstore\n    /* \"contracts/solidity.series/Counter.sol\":3544:3545  4 */\n  0x04\n    /* \"contracts/solidity.series/Counter.sol\":3510:3546  uint256[] public nums = [1, 2, 3, 4] */\n  0xe0\n  dup2\n  swap1\n  mstore\n  tag_1\n  swap2\n  0x00\n  swap2\n  tag_2\n  jump\t// in\ntag_1:\n  pop\n    /* \"contracts/solidity.series/Counter.sol\":3552:3591  uint256[3] public numsFixed = [4, 5, 6] */\n  0x40\n  dup1\n  mload\n  0x60\n  dup2\n  add\n  dup3\n  mstore\n    /* \"contracts/solidity.series/Counter.sol\":3583:3584  4 */\n  0x04\n    /* \"contracts/solidity.series/Counter.sol\":3552:3591  uint256[3] public numsFixed = [4, 5, 6] */\n  dup2\n  mstore\n    /* \"contracts/solidity.series/Counter.sol\":3586:3587  5 */\n  0x05\n    /* \"contracts/solidity.series/Counter.sol\":3552:3591  uint256[3] public numsFixed = [4, 5, 6] */\n  0x20\n  dup3\n  add\n  mstore\n    /* \"contracts/solidity.series/Counter.sol\":3589:3590  6 */\n  0x06\n    /* \"contracts/solidity.series/Counter.sol\":3552:3591  uint256[3] public numsFixed = [4, 5, 6] */\n  swap2\n  dup2\n  add\n  swap2\n  swap1\n  swap2\n  mstore\n  tag_3\n  swap1\n  0x01\n  swap1\n  0x03\n  tag_4\n  jump\t// in\ntag_3:\n  pop\n    /* \"contracts/solidity.series/Counter.sol\":3489:4347  contract Array {... */\n  callvalue\n  dup1\n  iszero\n  tag_5\n  jumpi\n  0x00\n  dup1\n  revert\ntag_5:\n  pop\n  jump(tag_6)\ntag_2:\n  dup3\n  dup1\n  sload\n  dup3\n  dup3\n  sstore\n  swap1\n  0x00\n  mstore\n  keccak256(0x00, 0x20)\n  swap1\n  dup2\n  add\n  swap3\n  dup3\n  iszero\n  tag_9\n  jumpi\n  swap2\n  0x20\n  mul\n  dup3\n  add\ntag_8:\n  dup3\n  dup2\n  gt\n  iszero\n  tag_9\n  jumpi\n  dup3\n  mload\n  dup3\n  swap1\n  0xff\n  and\n  swap1\n  sstore\n  swap2\n  0x20\n  add\n  swap2\n  swap1\n  0x01\n  add\n  swap1\n  jump(tag_8)\ntag_9:\n  pop\n  tag_10\n  swap3\n  swap2\n  pop\n  tag_11\n  jump\t// in\ntag_10:\n  pop\n  swap1\n  jump\t// out\ntag_4:\n  dup3\n  0x03\n  dup2\n  add\n  swap3\n  dup3\n  iszero\n  tag_9\n  jumpi\n  swap2\n  0x20\n  mul\n  dup3\n  add\n  dup3\n  dup2\n  gt\n  iszero\n  tag_9\n  jumpi\n  dup3\n  mload\n  dup3\n  swap1\n  0xff\n  and\n  swap1\n  sstore\n  swap2\n  0x20\n  add\n  swap2\n  swap1\n  0x01\n  add\n  swap1\n  jump(tag_8)\ntag_11:\ntag_16:\n  dup1\n  dup3\n  gt\n  iszero\n  tag_10\n  jumpi\n  0x00\n  dup2\n  sstore\n  0x01\n  add\n  jump(tag_16)\ntag_6:\n  dataSize(sub_0)\n  dup1\n  dataOffset(sub_0)\n  0x00\n  codecopy\n  0x00\n  return\nstop\n\nsub_0: assembly {\n        /* \"contracts/solidity.series/Counter.sol\":3489:4347  contract Array {... */\n      mstore(0x40, 0x80)\n      callvalue\n      dup1\n      iszero\n      tag_1\n      jumpi\n      0x00\n      dup1\n      revert\n    tag_1:\n      pop\n      jumpi(tag_2, lt(calldatasize, 0x04))\n      shr(0xe0, calldataload(0x00))\n      dup1\n      0x335d00c2\n      eq\n      tag_3\n      jumpi\n      dup1\n      0x3cac14c8\n      eq\n      tag_4\n      jumpi\n      dup1\n      0x44395769\n      eq\n      tag_5\n      jumpi\n      dup1\n      0xfd1ee54c\n      eq\n      tag_6\n      jumpi\n    tag_2:\n      0x00\n      dup1\n      revert\n        /* \"contracts/solidity.series/Counter.sol\":3598:4085  function examples() external {... */\n    tag_3:\n      tag_7\n      tag_8\n      jump\t// in\n    tag_7:\n      stop\n        /* \"contracts/solidity.series/Counter.sol\":4091:4345  function returnArray() external view returns (uint256[] memory) {... */\n    tag_4:\n      tag_9\n      tag_10\n      jump\t// in\n    tag_9:\n      mload(0x40)\n      tag_11\n      swap2\n      swap1\n      tag_12\n      jump\t// in\n    tag_11:\n      mload(0x40)\n      dup1\n      swap2\n      sub\n      swap1\n      return\n        /* \"contracts/solidity.series/Counter.sol\":3552:3591  uint256[3] public numsFixed = [4, 5, 6] */\n    tag_5:\n      tag_13\n      tag_14\n      calldatasize\n      0x04\n      tag_15\n      jump\t// in\n    tag_14:\n      tag_16\n      jump\t// in\n    tag_13:\n      mload(0x40)\n        /* \"#utility.yul\":982:1007   */\n      swap1\n      dup2\n      mstore\n        /* \"#utility.yul\":970:972   */\n      0x20\n        /* \"#utility.yul\":955:973   */\n      add\n        /* \"contracts/solidity.series/Counter.sol\":3552:3591  uint256[3] public numsFixed = [4, 5, 6] */\n      tag_11\n        /* \"#utility.yul\":836:1013   */\n      jump\n        /* \"contracts/solidity.series/Counter.sol\":3510:3546  uint256[] public nums = [1, 2, 3, 4] */\n    tag_6:\n      tag_13\n      tag_20\n      calldatasize\n      0x04\n      tag_15\n      jump\t// in\n    tag_20:\n      tag_21\n      jump\t// in\n        /* \"contracts/solidity.series/Counter.sol\":3598:4085  function examples() external {... */\n    tag_8:\n        /* \"contracts/solidity.series/Counter.sol\":3637:3641  nums */\n      0x00\n        /* \"contracts/solidity.series/Counter.sol\":3637:3649  nums.push(4) */\n      dup1\n      sload\n      0x01\n      dup2\n      add\n      dup3\n      sstore\n      dup2\n      dup1\n      mstore\n        /* \"contracts/solidity.series/Counter.sol\":3647:3648  4 */\n      0x04\n        /* \"contracts/solidity.series/Counter.sol\":3637:3649  nums.push(4) */\n      0x290decd9548b62a8d60345a988386fc84ba6bc95484008f6362f93160ef3e563\n      swap1\n      swap2\n      add\n      sstore\n        /* \"contracts/solidity.series/Counter.sol\":3709:3716  nums[2] */\n      dup1\n      sload\n        /* \"contracts/solidity.series/Counter.sol\":3719:3720  7 */\n      0x07\n      swap2\n        /* \"contracts/solidity.series/Counter.sol\":3637:3641  nums */\n      swap1\n        /* \"contracts/solidity.series/Counter.sol\":3714:3715  2 */\n      0x02\n      swap1\n        /* \"contracts/solidity.series/Counter.sol\":3709:3716  nums[2] */\n      dup2\n      lt\n      tag_26\n      jumpi\n      tag_26\n      tag_27\n      jump\t// in\n    tag_26:\n      swap1\n      0x00\n      mstore\n      keccak256(0x00, 0x20)\n      add\n        /* \"contracts/solidity.series/Counter.sol\":3709:3720  nums[2] = 7 */\n      dup2\n      swap1\n      sstore\n      pop\n        /* \"contracts/solidity.series/Counter.sol\":3737:3741  nums */\n      0x00\n        /* \"contracts/solidity.series/Counter.sol\":3742:3743  3 */\n      0x03\n        /* \"contracts/solidity.series/Counter.sol\":3737:3744  nums[3] */\n      dup2\n      sload\n      dup2\n      lt\n      tag_30\n      jumpi\n      tag_30\n      tag_27\n      jump\t// in\n    tag_30:\n      swap1\n      0x00\n      mstore\n      keccak256(0x00, 0x20)\n      add\n        /* \"contracts/solidity.series/Counter.sol\":3730:3744  delete nums[3] */\n      0x00\n      swap1\n      sstore\n        /* \"contracts/solidity.series/Counter.sol\":3817:3821  nums */\n      0x00\n        /* \"contracts/solidity.series/Counter.sol\":3817:3827  nums.pop() */\n      dup1\n      sload\n      dup1\n      tag_33\n      jumpi\n      tag_33\n      tag_34\n      jump\t// in\n    tag_33:\n      0x00\n      dup3\n      dup2\n      mstore\n      0x20\n      dup1\n      dup3\n      keccak256\n      not(0x00)\n      swap1\n      dup5\n      add\n      dup2\n      add\n      dup4\n      swap1\n      sstore\n      swap1\n      swap3\n      add\n      swap1\n      swap3\n      sstore\n        /* \"contracts/solidity.series/Counter.sol\":4011:4027  new uint256[](5) */\n      0x40\n      dup1\n      mload\n        /* \"contracts/solidity.series/Counter.sol\":4025:4026  5 */\n      0x05\n        /* \"contracts/solidity.series/Counter.sol\":4011:4027  new uint256[](5) */\n      dup1\n      dup3\n      mstore\n      0xc0\n      dup3\n      add\n      swap1\n      swap3\n      mstore\n      swap2\n      dup3\n      add\n      0xa0\n      dup1\n      calldatasize\n      dup4\n      calldatacopy\n      add\n      swap1\n      pop\n      pop\n        /* \"contracts/solidity.series/Counter.sol\":3990:4027  uint256[] memory a = new uint256[](5) */\n      swap1\n      pop\n        /* \"contracts/solidity.series/Counter.sol\":4077:4078  1 */\n      0x01\n        /* \"contracts/solidity.series/Counter.sol\":4070:4071  a */\n      dup2\n        /* \"contracts/solidity.series/Counter.sol\":4072:4073  1 */\n      0x01\n        /* \"contracts/solidity.series/Counter.sol\":4070:4074  a[1] */\n      dup2\n      mload\n      dup2\n      lt\n      tag_41\n      jumpi\n      tag_41\n      tag_27\n      jump\t// in\n    tag_41:\n      0x20\n      mul\n      0x20\n      add\n      add\n        /* \"contracts/solidity.series/Counter.sol\":4070:4078  a[1] = 1 */\n      dup2\n      dup2\n      mstore\n      pop\n      pop\n        /* \"contracts/solidity.series/Counter.sol\":3627:4085  {... */\n      pop\n        /* \"contracts/solidity.series/Counter.sol\":3598:4085  function examples() external {... */\n      jump\t// out\n        /* \"contracts/solidity.series/Counter.sol\":4091:4345  function returnArray() external view returns (uint256[] memory) {... */\n    tag_10:\n        /* \"contracts/solidity.series/Counter.sol\":4137:4153  uint256[] memory */\n      0x60\n        /* \"contracts/solidity.series/Counter.sol\":4172:4176  nums */\n      0x00\n        /* \"contracts/solidity.series/Counter.sol\":4165:4176  return nums */\n      dup1\n      sload\n      dup1\n      0x20\n      mul\n      0x20\n      add\n      mload(0x40)\n      swap1\n      dup2\n      add\n      0x40\n      mstore\n      dup1\n      swap3\n      swap2\n      swap1\n      dup2\n      dup2\n      mstore\n      0x20\n      add\n      dup3\n      dup1\n      sload\n      dup1\n      iszero\n      tag_43\n      jumpi\n      0x20\n      mul\n      dup3\n      add\n      swap2\n      swap1\n      0x00\n      mstore\n      keccak256(0x00, 0x20)\n      swap1\n    tag_44:\n      dup2\n      sload\n      dup2\n      mstore\n      0x20\n      add\n      swap1\n      0x01\n      add\n      swap1\n      dup1\n      dup4\n      gt\n      tag_44\n      jumpi\n    tag_43:\n      pop\n      pop\n      pop\n      pop\n      pop\n      swap1\n      pop\n        /* \"contracts/solidity.series/Counter.sol\":4091:4345  function returnArray() external view returns (uint256[] memory) {... */\n      swap1\n      jump\t// out\n        /* \"contracts/solidity.series/Counter.sol\":3552:3591  uint256[3] public numsFixed = [4, 5, 6] */\n    tag_16:\n      0x01\n      dup2\n      0x03\n      dup2\n      lt\n      tag_45\n      jumpi\n      0x00\n      dup1\n      revert\n    tag_45:\n      add\n      sload\n      swap1\n      pop\n      dup2\n      jump\t// out\n        /* \"contracts/solidity.series/Counter.sol\":3510:3546  uint256[] public nums = [1, 2, 3, 4] */\n    tag_21:\n      0x00\n      dup2\n      dup2\n      sload\n      dup2\n      lt\n      tag_47\n      jumpi\n      0x00\n      dup1\n      revert\n    tag_47:\n      0x00\n      swap2\n      dup3\n      mstore\n      0x20\n      swap1\n      swap2\n      keccak256\n      add\n      sload\n      swap1\n      pop\n      dup2\n      jump\t// out\n        /* \"#utility.yul\":14:646   */\n    tag_12:\n        /* \"#utility.yul\":185:187   */\n      0x20\n        /* \"#utility.yul\":237:258   */\n      dup1\n      dup3\n      mstore\n        /* \"#utility.yul\":307:320   */\n      dup3\n      mload\n        /* \"#utility.yul\":210:228   */\n      dup3\n      dup3\n      add\n        /* \"#utility.yul\":329:351   */\n      dup2\n      swap1\n      mstore\n        /* \"#utility.yul\":156:160   */\n      0x00\n      swap2\n        /* \"#utility.yul\":185:187   */\n      swap1\n        /* \"#utility.yul\":408:423   */\n      dup5\n      dup3\n      add\n      swap1\n        /* \"#utility.yul\":382:384   */\n      0x40\n        /* \"#utility.yul\":367:385   */\n      dup6\n      add\n      swap1\n        /* \"#utility.yul\":156:160   */\n      dup5\n        /* \"#utility.yul\":451:620   */\n    tag_51:\n        /* \"#utility.yul\":465:471   */\n      dup2\n        /* \"#utility.yul\":462:463   */\n      dup2\n        /* \"#utility.yul\":459:472   */\n      lt\n        /* \"#utility.yul\":451:620   */\n      iszero\n      tag_53\n      jumpi\n        /* \"#utility.yul\":526:539   */\n      dup4\n      mload\n        /* \"#utility.yul\":514:540   */\n      dup4\n      mstore\n        /* \"#utility.yul\":595:610   */\n      swap3\n      dup5\n      add\n      swap3\n        /* \"#utility.yul\":560:572   */\n      swap2\n      dup5\n      add\n      swap2\n        /* \"#utility.yul\":487:488   */\n      0x01\n        /* \"#utility.yul\":480:489   */\n      add\n        /* \"#utility.yul\":451:620   */\n      jump(tag_51)\n    tag_53:\n      pop\n        /* \"#utility.yul\":637:640   */\n      swap1\n      swap7\n        /* \"#utility.yul\":14:646   */\n      swap6\n      pop\n      pop\n      pop\n      pop\n      pop\n      pop\n      jump\t// out\n        /* \"#utility.yul\":651:831   */\n    tag_15:\n        /* \"#utility.yul\":710:716   */\n      0x00\n        /* \"#utility.yul\":763:765   */\n      0x20\n        /* \"#utility.yul\":751:760   */\n      dup3\n        /* \"#utility.yul\":742:749   */\n      dup5\n        /* \"#utility.yul\":738:761   */\n      sub\n        /* \"#utility.yul\":734:766   */\n      slt\n        /* \"#utility.yul\":731:783   */\n      iszero\n      tag_55\n      jumpi\n        /* \"#utility.yul\":779:780   */\n      0x00\n        /* \"#utility.yul\":776:777   */\n      dup1\n        /* \"#utility.yul\":769:781   */\n      revert\n        /* \"#utility.yul\":731:783   */\n    tag_55:\n      pop\n        /* \"#utility.yul\":802:825   */\n      calldataload\n      swap2\n        /* \"#utility.yul\":651:831   */\n      swap1\n      pop\n      jump\t// out\n        /* \"#utility.yul\":1018:1145   */\n    tag_27:\n        /* \"#utility.yul\":1079:1089   */\n      0x4e487b71\n        /* \"#utility.yul\":1074:1077   */\n      0xe0\n        /* \"#utility.yul\":1070:1090   */\n      shl\n        /* \"#utility.yul\":1067:1068   */\n      0x00\n        /* \"#utility.yul\":1060:1091   */\n      mstore\n        /* \"#utility.yul\":1110:1114   */\n      0x32\n        /* \"#utility.yul\":1107:1108   */\n      0x04\n        /* \"#utility.yul\":1100:1115   */\n      mstore\n        /* \"#utility.yul\":1134:1138   */\n      0x24\n        /* \"#utility.yul\":1131:1132   */\n      0x00\n        /* \"#utility.yul\":1124:1139   */\n      revert\n        /* \"#utility.yul\":1150:1277   */\n    tag_34:\n        /* \"#utility.yul\":1211:1221   */\n      0x4e487b71\n        /* \"#utility.yul\":1206:1209   */\n      0xe0\n        /* \"#utility.yul\":1202:1222   */\n      shl\n        /* \"#utility.yul\":1199:1200   */\n      0x00\n        /* \"#utility.yul\":1192:1223   */\n      mstore\n        /* \"#utility.yul\":1242:1246   */\n      0x31\n        /* \"#utility.yul\":1239:1240   */\n      0x04\n        /* \"#utility.yul\":1232:1247   */\n      mstore\n        /* \"#utility.yul\":1266:1270   */\n      0x24\n        /* \"#utility.yul\":1263:1264   */\n      0x00\n        /* \"#utility.yul\":1256:1271   */\n      revert\n\n    auxdata: 0xa2646970667358221220706c064e70e93d32ec8f3e959b3685045a2ebbb3eb1c350ddf5eee543d54359364736f6c63430008160033\n}\n",
				"bytecode": {
					"linkReferences": {},
					"object": "61010060405260016080908152600260a052600360c052600460e0819052610028915f91610067565b506040805160608101825260048152600560208201526006918101919091526100559060019060036100b5565b50348015610061575f80fd5b506100fb565b828054828255905f5260205f209081019282156100a5579160200282015b828111156100a5578251829060ff16905591602001919060010190610085565b506100b19291506100e7565b5090565b82600381019282156100a557916020028201828111156100a5578251829060ff16905591602001919060010190610085565b5b808211156100b1575f81556001016100e8565b6102cb806101085f395ff3fe608060405234801561000f575f80fd5b506004361061004a575f3560e01c8063335d00c21461004e5780633cac14c8146100585780634439576914610076578063fd1ee54c14610097575b5f80fd5b6100566100aa565b005b61006061018a565b60405161006d9190610213565b60405180910390f35b610089610084366004610256565b6101df565b60405190815260200161006d565b6100896100a5366004610256565b6101f5565b5f805460018101825581805260047f290decd9548b62a8d60345a988386fc84ba6bc95484008f6362f93160ef3e5639091015580546007919060029081106100f4576100f461026d565b905f5260205f2001819055505f6003815481106101135761011361026d565b905f5260205f20015f90555f80548061012e5761012e610281565b5f82815260208082205f19908401810183905590920190925560408051600580825260c0820190925291820160a08036833701905050905060018160018151811061017b5761017b61026d565b60200260200101818152505050565b60605f8054806020026020016040519081016040528092919081815260200182805480156101d557602002820191905f5260205f20905b8154815260200190600101908083116101c1575b5050505050905090565b600181600381106101ee575f80fd5b0154905081565b5f8181548110610203575f80fd5b5f91825260209091200154905081565b602080825282518282018190525f9190848201906040850190845b8181101561024a5783518352928401929184019160010161022e565b50909695505050505050565b5f60208284031215610266575f80fd5b5035919050565b634e487b7160e01b5f52603260045260245ffd5b634e487b7160e01b5f52603160045260245ffdfea2646970667358221220706c064e70e93d32ec8f3e959b3685045a2ebbb3eb1c350ddf5eee543d54359364736f6c63430008160033",
					"opcodes": "PUSH2 0x100 PUSH1 0x40 MSTORE PUSH1 0x1 PUSH1 0x80 SWAP1 DUP2 MSTORE PUSH1 0x2 PUSH1 0xA0 MSTORE PUSH1 0x3 PUSH1 0xC0 MSTORE PUSH1 0x4 PUSH1 0xE0 DUP2 SWAP1 MSTORE PUSH2 0x28 SWAP2 PUSH0 SWAP2 PUSH2 0x67 JUMP JUMPDEST POP PUSH1 0x40 DUP1 MLOAD PUSH1 0x60 DUP2 ADD DUP3 MSTORE PUSH1 0x4 DUP2 MSTORE PUSH1 0x5 PUSH1 0x20 DUP3 ADD MSTORE PUSH1 0x6 SWAP2 DUP2 ADD SWAP2 SWAP1 SWAP2 MSTORE PUSH2 0x55 SWAP1 PUSH1 0x1 SWAP1 PUSH1 0x3 PUSH2 0xB5 JUMP JUMPDEST POP CALLVALUE DUP1 ISZERO PUSH2 0x61 JUMPI PUSH0 DUP1 REVERT JUMPDEST POP PUSH2 0xFB JUMP JUMPDEST DUP3 DUP1 SLOAD DUP3 DUP3 SSTORE SWAP1 PUSH0 MSTORE PUSH1 0x20 PUSH0 KECCAK256 SWAP1 DUP2 ADD SWAP3 DUP3 ISZERO PUSH2 0xA5 JUMPI SWAP2 PUSH1 0x20 MUL DUP3 ADD JUMPDEST DUP3 DUP2 GT ISZERO PUSH2 0xA5 JUMPI DUP3 MLOAD DUP3 SWAP1 PUSH1 0xFF AND SWAP1 SSTORE SWAP2 PUSH1 0x20 ADD SWAP2 SWAP1 PUSH1 0x1 ADD SWAP1 PUSH2 0x85 JUMP JUMPDEST POP PUSH2 0xB1 SWAP3 SWAP2 POP PUSH2 0xE7 JUMP JUMPDEST POP SWAP1 JUMP JUMPDEST DUP3 PUSH1 0x3 DUP2 ADD SWAP3 DUP3 ISZERO PUSH2 0xA5 JUMPI SWAP2 PUSH1 0x20 MUL DUP3 ADD DUP3 DUP2 GT ISZERO PUSH2 0xA5 JUMPI DUP3 MLOAD DUP3 SWAP1 PUSH1 0xFF AND SWAP1 SSTORE SWAP2 PUSH1 0x20 ADD SWAP2 SWAP1 PUSH1 0x1 ADD SWAP1 PUSH2 0x85 JUMP JUMPDEST JUMPDEST DUP1 DUP3 GT ISZERO PUSH2 0xB1 JUMPI PUSH0 DUP2 SSTORE PUSH1 0x1 ADD PUSH2 0xE8 JUMP JUMPDEST PUSH2 0x2CB DUP1 PUSH2 0x108 PUSH0 CODECOPY PUSH0 RETURN INVALID PUSH1 0x80 PUSH1 0x40 MSTORE CALLVALUE DUP1 ISZERO PUSH2 0xF JUMPI PUSH0 DUP1 REVERT JUMPDEST POP PUSH1 0x4 CALLDATASIZE LT PUSH2 0x4A JUMPI PUSH0 CALLDATALOAD PUSH1 0xE0 SHR DUP1 PUSH4 0x335D00C2 EQ PUSH2 0x4E JUMPI DUP1 PUSH4 0x3CAC14C8 EQ PUSH2 0x58 JUMPI DUP1 PUSH4 0x44395769 EQ PUSH2 0x76 JUMPI DUP1 PUSH4 0xFD1EE54C EQ PUSH2 0x97 JUMPI JUMPDEST PUSH0 DUP1 REVERT JUMPDEST PUSH2 0x56 PUSH2 0xAA JUMP JUMPDEST STOP JUMPDEST PUSH2 0x60 PUSH2 0x18A JUMP JUMPDEST PUSH1 0x40 MLOAD PUSH2 0x6D SWAP2 SWAP1 PUSH2 0x213 JUMP JUMPDEST PUSH1 0x40 MLOAD DUP1 SWAP2 SUB SWAP1 RETURN JUMPDEST PUSH2 0x89 PUSH2 0x84 CALLDATASIZE PUSH1 0x4 PUSH2 0x256 JUMP JUMPDEST PUSH2 0x1DF JUMP JUMPDEST PUSH1 0x40 MLOAD SWAP1 DUP2 MSTORE PUSH1 0x20 ADD PUSH2 0x6D JUMP JUMPDEST PUSH2 0x89 PUSH2 0xA5 CALLDATASIZE PUSH1 0x4 PUSH2 0x256 JUMP JUMPDEST PUSH2 0x1F5 JUMP JUMPDEST PUSH0 DUP1 SLOAD PUSH1 0x1 DUP2 ADD DUP3 SSTORE DUP2 DUP1 MSTORE PUSH1 0x4 PUSH32 0x290DECD9548B62A8D60345A988386FC84BA6BC95484008F6362F93160EF3E563 SWAP1 SWAP2 ADD SSTORE DUP1 SLOAD PUSH1 0x7 SWAP2 SWAP1 PUSH1 0x2 SWAP1 DUP2 LT PUSH2 0xF4 JUMPI PUSH2 0xF4 PUSH2 0x26D JUMP JUMPDEST SWAP1 PUSH0 MSTORE PUSH1 0x20 PUSH0 KECCAK256 ADD DUP2 SWAP1 SSTORE POP PUSH0 PUSH1 0x3 DUP2 SLOAD DUP2 LT PUSH2 0x113 JUMPI PUSH2 0x113 PUSH2 0x26D JUMP JUMPDEST SWAP1 PUSH0 MSTORE PUSH1 0x20 PUSH0 KECCAK256 ADD PUSH0 SWAP1 SSTORE PUSH0 DUP1 SLOAD DUP1 PUSH2 0x12E JUMPI PUSH2 0x12E PUSH2 0x281 JUMP JUMPDEST PUSH0 DUP3 DUP2 MSTORE PUSH1 0x20 DUP1 DUP3 KECCAK256 PUSH0 NOT SWAP1 DUP5 ADD DUP2 ADD DUP4 SWAP1 SSTORE SWAP1 SWAP3 ADD SWAP1 SWAP3 SSTORE PUSH1 0x40 DUP1 MLOAD PUSH1 0x5 DUP1 DUP3 MSTORE PUSH1 0xC0 DUP3 ADD SWAP1 SWAP3 MSTORE SWAP2 DUP3 ADD PUSH1 0xA0 DUP1 CALLDATASIZE DUP4 CALLDATACOPY ADD SWAP1 POP POP SWAP1 POP PUSH1 0x1 DUP2 PUSH1 0x1 DUP2 MLOAD DUP2 LT PUSH2 0x17B JUMPI PUSH2 0x17B PUSH2 0x26D JUMP JUMPDEST PUSH1 0x20 MUL PUSH1 0x20 ADD ADD DUP2 DUP2 MSTORE POP POP POP JUMP JUMPDEST PUSH1 0x60 PUSH0 DUP1 SLOAD DUP1 PUSH1 0x20 MUL PUSH1 0x20 ADD PUSH1 0x40 MLOAD SWAP1 DUP2 ADD PUSH1 0x40 MSTORE DUP1 SWAP3 SWAP2 SWAP1 DUP2 DUP2 MSTORE PUSH1 0x20 ADD DUP3 DUP1 SLOAD DUP1 ISZERO PUSH2 0x1D5 JUMPI PUSH1 0x20 MUL DUP3 ADD SWAP2 SWAP1 PUSH0 MSTORE PUSH1 0x20 PUSH0 KECCAK256 SWAP1 JUMPDEST DUP2 SLOAD DUP2 MSTORE PUSH1 0x20 ADD SWAP1 PUSH1 0x1 ADD SWAP1 DUP1 DUP4 GT PUSH2 0x1C1 JUMPI JUMPDEST POP POP POP POP POP SWAP1 POP SWAP1 JUMP JUMPDEST PUSH1 0x1 DUP2 PUSH1 0x3 DUP2 LT PUSH2 0x1EE JUMPI PUSH0 DUP1 REVERT JUMPDEST ADD SLOAD SWAP1 POP DUP2 JUMP JUMPDEST PUSH0 DUP2 DUP2 SLOAD DUP2 LT PUSH2 0x203 JUMPI PUSH0 DUP1 REVERT JUMPDEST PUSH0 SWAP2 DUP3 MSTORE PUSH1 0x20 SWAP1 SWAP2 KECCAK256 ADD SLOAD SWAP1 POP DUP2 JUMP JUMPDEST PUSH1 0x20 DUP1 DUP3 MSTORE DUP3 MLOAD DUP3 DUP3 ADD DUP2 SWAP1 MSTORE PUSH0 SWAP2 SWAP1 DUP5 DUP3 ADD SWAP1 PUSH1 0x40 DUP6 ADD SWAP1 DUP5 JUMPDEST DUP2 DUP2 LT ISZERO PUSH2 0x24A JUMPI DUP4 MLOAD DUP4 MSTORE SWAP3 DUP5 ADD SWAP3 SWAP2 DUP5 ADD SWAP2 PUSH1 0x1 ADD PUSH2 0x22E JUMP JUMPDEST POP SWAP1 SWAP7 SWAP6 POP POP POP POP POP POP JUMP JUMPDEST PUSH0 PUSH1 0x20 DUP3 DUP5 SUB SLT ISZERO PUSH2 0x266 JUMPI PUSH0 DUP1 REVERT JUMPDEST POP CALLDATALOAD SWAP2 SWAP1 POP JUMP JUMPDEST PUSH4 0x4E487B71 PUSH1 0xE0 SHL PUSH0 MSTORE PUSH1 0x32 PUSH1 0x4 MSTORE PUSH1 0x24 PUSH0 REVERT JUMPDEST PUSH4 0x4E487B71 PUSH1 0xE0 SHL PUSH0 MSTORE PUSH1 0x31 PUSH1 0x4 MSTORE PUSH1 0x24 PUSH0 REVERT INVALID LOG2 PUSH5 0x6970667358 0x22 SLT KECCAK256 PUSH17 0x6C064E70E93D32EC8F3E959B3685045A2E 0xBB 0xB3 0xEB SHR CALLDATALOAD 0xD 0xDF 0x5E 0xEE SLOAD RETURNDATASIZE SLOAD CALLDATALOAD SWAP4 PUSH5 0x736F6C6343 STOP ADDMOD AND STOP CALLER "
				},
				"gasEstimates": {
					"creation": {
						"codeDepositCost": "143000",
						"executionCost": "infinite",
						"totalCost": "infinite"
					},
					"external": {
						"examples()": "107445",
						"nums(uint256)": "4615",
						"numsFixed(uint256)": "2438",
						"returnArray()": "infinite"
					}
				},
				"methodIdentifiers": {
					"examples()": "335d00c2",
					"nums(uint256)": "fd1ee54c",
					"numsFixed(uint256)": "44395769",
					"returnArray()": "3cac14c8"
				}
			},
			"storageLayout": {
				"storage": [
					{
						"astId": 301,
						"contract": "contracts/solidity.series/Counter.sol:Array",
						"label": "nums",
						"offset": 0,
						"slot": "0",
						"type": "t_array(t_uint256)dyn_storage"
					},
					{
						"astId": 309,
						"contract": "contracts/solidity.series/Counter.sol:Array",
						"label": "numsFixed",
						"offset": 0,
						"slot": "1",
						"type": "t_array(t_uint256)3_storage"
					}
				],
				"types": {
					"t_array(t_uint256)3_storage": {
						"base": "t_uint256",
						"encoding": "inplace",
						"label": "uint256[3]",
						"numberOfBytes": "96"
					},
					"t_array(t_uint256)dyn_storage": {
						"base": "t_uint256",
						"encoding": "dynamic_array",
						"label": "uint256[]",
						"numberOfBytes": "32"
					},
					"t_uint256": {
						"encoding": "inplace",
						"label": "uint256",
						"numberOfBytes": "32"
					}
				}
			},
			"userdoc": {
				"kind": "user",
				"methods": {},
				"version": 1
			}
		}
	}
}