{
	"contracts/solidity.series/Counter.sol": {
		"client": {
			"abi": [
				{
					"inputs": [
						{
							"internalType": "address",
							"name": "_obj",
							"type": "address"
						}
					],
					"name": "setObject",
					"outputs": [],
					"stateMutability": "nonpayable",
					"type": "function"
				},
				{
					"inputs": [],
					"name": "useExistingAddressOfContract",
					"outputs": [
						{
							"internalType": "uint256",
							"name": "",
							"type": "uint256"
						}
					],
					"stateMutability": "nonpayable",
					"type": "function"
				},
				{
					"inputs": [],
					"name": "useTheNewKeyWord",
					"outputs": [
						{
							"internalType": "uint256",
							"name": "",
							"type": "uint256"
						}
					],
					"stateMutability": "nonpayable",
					"type": "function"
				}
			],
			"devdoc": {
				"kind": "dev",
				"methods": {},
				"version": 1
			},
			"evm": {
				"assembly": "    /* \"contracts/solidity.series/Counter.sol\":7710:8177  contract client {... */\n  mstore(0x40, 0x80)\n  callvalue\n  dup1\n  iszero\n  tag_1\n  jumpi\n  0x00\n  dup1\n  revert\ntag_1:\n  pop\n  dataSize(sub_0)\n  dup1\n  dataOffset(sub_0)\n  0x00\n  codecopy\n  0x00\n  return\nstop\n\nsub_0: assembly {\n        /* \"contracts/solidity.series/Counter.sol\":7710:8177  contract client {... */\n      mstore(0x40, 0x80)\n      callvalue\n      dup1\n      iszero\n      tag_1\n      jumpi\n      0x00\n      dup1\n      revert\n    tag_1:\n      pop\n      jumpi(tag_2, lt(calldatasize, 0x04))\n      shr(0xe0, calldataload(0x00))\n      dup1\n      0xa730b53c\n      eq\n      tag_3\n      jumpi\n      dup1\n      0xf0851c50\n      eq\n      tag_4\n      jumpi\n      dup1\n      0xfe2d69f9\n      eq\n      tag_5\n      jumpi\n    tag_2:\n      0x00\n      dup1\n      revert\n        /* \"contracts/solidity.series/Counter.sol\":7826:7992  function useTheNewKeyWord() public returns (uint256) {... */\n    tag_3:\n      tag_6\n      tag_7\n      jump\t// in\n    tag_6:\n      mload(0x40)\n        /* \"#utility.yul\":160:185   */\n      swap1\n      dup2\n      mstore\n        /* \"#utility.yul\":148:150   */\n      0x20\n        /* \"#utility.yul\":133:151   */\n      add\n        /* \"contracts/solidity.series/Counter.sol\":7826:7992  function useTheNewKeyWord() public returns (uint256) {... */\n      mload(0x40)\n      dup1\n      swap2\n      sub\n      swap1\n      return\n        /* \"contracts/solidity.series/Counter.sol\":7998:8175  function useExistingAddressOfContract() public returns (uint256) {... */\n    tag_4:\n      tag_6\n      tag_11\n      jump\t// in\n        /* \"contracts/solidity.series/Counter.sol\":7751:7820  function setObject(address _obj) external {... */\n    tag_5:\n      tag_13\n      tag_14\n      calldatasize\n      0x04\n      tag_15\n      jump\t// in\n    tag_14:\n        /* \"contracts/solidity.series/Counter.sol\":7803:7806  obj */\n      0x00\n        /* \"contracts/solidity.series/Counter.sol\":7803:7813  obj = _obj */\n      dup1\n      sload\n      not(sub(shl(0xa0, 0x01), 0x01))\n      and\n      sub(shl(0xa0, 0x01), 0x01)\n      swap3\n      swap1\n      swap3\n      and\n      swap2\n      swap1\n      swap2\n      or\n      swap1\n      sstore\n        /* \"contracts/solidity.series/Counter.sol\":7751:7820  function setObject(address _obj) external {... */\n      jump\n    tag_13:\n      stop\n        /* \"contracts/solidity.series/Counter.sol\":7826:7992  function useTheNewKeyWord() public returns (uint256) {... */\n    tag_7:\n        /* \"contracts/solidity.series/Counter.sol\":7870:7877  uint256 */\n      0x00\n        /* \"contracts/solidity.series/Counter.sol\":7889:7905  Helloworld myobj */\n      dup1\n        /* \"contracts/solidity.series/Counter.sol\":7908:7924  new Helloworld() */\n      mload(0x40)\n      tag_18\n      swap1\n      tag_19\n      jump\t// in\n    tag_18:\n      mload(0x40)\n      dup1\n      swap2\n      sub\n      swap1\n      0x00\n      create\n      dup1\n      iszero\n      dup1\n      iszero\n      tag_20\n      jumpi\n      returndatasize\n      0x00\n      dup1\n      returndatacopy\n      revert(0x00, returndatasize)\n    tag_20:\n      pop\n        /* \"contracts/solidity.series/Counter.sol\":7934:7952  myobj.SetValue(10) */\n      mload(0x40)\n      shl(0xe1, 0x76c58383)\n      dup2\n      mstore\n        /* \"contracts/solidity.series/Counter.sol\":7949:7951  10 */\n      0x0a\n        /* \"contracts/solidity.series/Counter.sol\":7934:7952  myobj.SetValue(10) */\n      0x04\n      dup3\n      add\n        /* \"#utility.yul\":160:185   */\n      mstore\n        /* \"contracts/solidity.series/Counter.sol\":7889:7924  Helloworld myobj = new Helloworld() */\n      swap1\n      swap2\n      pop\n      sub(shl(0xa0, 0x01), 0x01)\n        /* \"contracts/solidity.series/Counter.sol\":7934:7948  myobj.SetValue */\n      dup3\n      and\n      swap1\n      0xed8b0706\n      swap1\n        /* \"#utility.yul\":133:151   */\n      0x24\n      add\n        /* \"contracts/solidity.series/Counter.sol\":7934:7952  myobj.SetValue(10) */\n    tag_21:\n      0x00\n      mload(0x40)\n      dup1\n      dup4\n      sub\n      dup2\n      0x00\n      dup8\n      dup1\n      extcodesize\n      iszero\n      dup1\n      iszero\n      tag_23\n      jumpi\n      0x00\n      dup1\n      revert\n    tag_23:\n      pop\n      gas\n      call\n      iszero\n      dup1\n      iszero\n      tag_25\n      jumpi\n      returndatasize\n      0x00\n      dup1\n      returndatacopy\n      revert(0x00, returndatasize)\n    tag_25:\n      pop\n      pop\n      pop\n      pop\n        /* \"contracts/solidity.series/Counter.sol\":7969:7974  myobj */\n      dup1\n      sub(shl(0xa0, 0x01), 0x01)\n        /* \"contracts/solidity.series/Counter.sol\":7969:7983  myobj.GetValue */\n      and\n      0x725f4fa7\n        /* \"contracts/solidity.series/Counter.sol\":7969:7985  myobj.GetValue() */\n      mload(0x40)\n      dup2\n      0xffffffff\n      and\n      0xe0\n      shl\n      dup2\n      mstore\n      0x04\n      add\n      0x20\n      mload(0x40)\n      dup1\n      dup4\n      sub\n      dup2\n      dup7\n      gas\n      staticcall\n      iszero\n      dup1\n      iszero\n      tag_27\n      jumpi\n      returndatasize\n      0x00\n      dup1\n      returndatacopy\n      revert(0x00, returndatasize)\n    tag_27:\n      pop\n      pop\n      pop\n      pop\n      mload(0x40)\n      returndatasize\n      not(0x1f)\n      0x1f\n      dup3\n      add\n      and\n      dup3\n      add\n      dup1\n      0x40\n      mstore\n      pop\n      dup2\n      add\n      swap1\n      tag_28\n      swap2\n      swap1\n      tag_29\n      jump\t// in\n    tag_28:\n        /* \"contracts/solidity.series/Counter.sol\":7962:7985  return myobj.GetValue() */\n      swap2\n      pop\n      pop\n        /* \"contracts/solidity.series/Counter.sol\":7826:7992  function useTheNewKeyWord() public returns (uint256) {... */\n      swap1\n      jump\t// out\n        /* \"contracts/solidity.series/Counter.sol\":7998:8175  function useExistingAddressOfContract() public returns (uint256) {... */\n    tag_11:\n        /* \"contracts/solidity.series/Counter.sol\":8054:8061  uint256 */\n      0x00\n        /* \"contracts/solidity.series/Counter.sol\":8103:8106  obj */\n      dup1\n      sload\n        /* \"contracts/solidity.series/Counter.sol\":8117:8135  myobj.SetValue(10) */\n      mload(0x40)\n      shl(0xe1, 0x76c58383)\n      dup2\n      mstore\n        /* \"contracts/solidity.series/Counter.sol\":8132:8134  10 */\n      0x0a\n        /* \"contracts/solidity.series/Counter.sol\":8117:8135  myobj.SetValue(10) */\n      0x04\n      dup3\n      add\n        /* \"#utility.yul\":160:185   */\n      mstore\n      sub(shl(0xa0, 0x01), 0x01)\n        /* \"contracts/solidity.series/Counter.sol\":8103:8106  obj */\n      swap1\n      swap2\n      and\n      swap1\n      dup2\n      swap1\n        /* \"contracts/solidity.series/Counter.sol\":8117:8131  myobj.SetValue */\n      0xed8b0706\n      swap1\n        /* \"#utility.yul\":133:151   */\n      0x24\n      add\n        /* \"contracts/solidity.series/Counter.sol\":8117:8135  myobj.SetValue(10) */\n      tag_21\n        /* \"#utility.yul\":14:191   */\n      jump\n    tag_19:\n      dataSize(sub_0)\n      dup1\n      dataOffset(sub_0)\n      dup4\n      codecopy\n      add\n      swap1\n      jump\t// out\n        /* \"#utility.yul\":196:482   */\n    tag_15:\n        /* \"#utility.yul\":255:261   */\n      0x00\n        /* \"#utility.yul\":308:310   */\n      0x20\n        /* \"#utility.yul\":296:305   */\n      dup3\n        /* \"#utility.yul\":287:294   */\n      dup5\n        /* \"#utility.yul\":283:306   */\n      sub\n        /* \"#utility.yul\":279:311   */\n      slt\n        /* \"#utility.yul\":276:328   */\n      iszero\n      tag_42\n      jumpi\n        /* \"#utility.yul\":324:325   */\n      0x00\n        /* \"#utility.yul\":321:322   */\n      dup1\n        /* \"#utility.yul\":314:326   */\n      revert\n        /* \"#utility.yul\":276:328   */\n    tag_42:\n        /* \"#utility.yul\":350:373   */\n      dup2\n      calldataload\n      sub(shl(0xa0, 0x01), 0x01)\n        /* \"#utility.yul\":402:433   */\n      dup2\n      and\n        /* \"#utility.yul\":392:434   */\n      dup2\n      eq\n        /* \"#utility.yul\":382:452   */\n      tag_43\n      jumpi\n        /* \"#utility.yul\":448:449   */\n      0x00\n        /* \"#utility.yul\":445:446   */\n      dup1\n        /* \"#utility.yul\":438:450   */\n      revert\n        /* \"#utility.yul\":382:452   */\n    tag_43:\n        /* \"#utility.yul\":471:476   */\n      swap4\n        /* \"#utility.yul\":196:482   */\n      swap3\n      pop\n      pop\n      pop\n      jump\t// out\n        /* \"#utility.yul\":678:862   */\n    tag_29:\n        /* \"#utility.yul\":748:754   */\n      0x00\n        /* \"#utility.yul\":801:803   */\n      0x20\n        /* \"#utility.yul\":789:798   */\n      dup3\n        /* \"#utility.yul\":780:787   */\n      dup5\n        /* \"#utility.yul\":776:799   */\n      sub\n        /* \"#utility.yul\":772:804   */\n      slt\n        /* \"#utility.yul\":769:821   */\n      iszero\n      tag_46\n      jumpi\n        /* \"#utility.yul\":817:818   */\n      0x00\n        /* \"#utility.yul\":814:815   */\n      dup1\n        /* \"#utility.yul\":807:819   */\n      revert\n        /* \"#utility.yul\":769:821   */\n    tag_46:\n      pop\n        /* \"#utility.yul\":840:856   */\n      mload\n      swap2\n        /* \"#utility.yul\":678:862   */\n      swap1\n      pop\n      jump\t// out\n    stop\n\n    sub_0: assembly {\n            /* \"contracts/solidity.series/Counter.sol\":7483:7708  contract Helloworld {... */\n          mstore(0x40, 0x80)\n          callvalue\n          dup1\n          iszero\n          tag_1\n          jumpi\n          0x00\n          dup1\n          revert\n        tag_1:\n          pop\n          dataSize(sub_0)\n          dup1\n          dataOffset(sub_0)\n          0x00\n          codecopy\n          0x00\n          return\n        stop\n\n        sub_0: assembly {\n                /* \"contracts/solidity.series/Counter.sol\":7483:7708  contract Helloworld {... */\n              mstore(0x40, 0x80)\n              callvalue\n              dup1\n              iszero\n              tag_1\n              jumpi\n              0x00\n              dup1\n              revert\n            tag_1:\n              pop\n              jumpi(tag_2, lt(calldatasize, 0x04))\n              shr(0xe0, calldataload(0x00))\n              dup1\n              0x725f4fa7\n              eq\n              tag_3\n              jumpi\n              dup1\n              0xed8b0706\n              eq\n              tag_4\n              jumpi\n            tag_2:\n              0x00\n              dup1\n              revert\n                /* \"contracts/solidity.series/Counter.sol\":7541:7624  function GetValue() public view returns (uint256) {... */\n            tag_3:\n                /* \"contracts/solidity.series/Counter.sol\":7582:7589  uint256 */\n              0x00\n                /* \"contracts/solidity.series/Counter.sol\":7608:7617  simpleInt */\n              sload\n                /* \"contracts/solidity.series/Counter.sol\":7541:7624  function GetValue() public view returns (uint256) {... */\n              mload(0x40)\n                /* \"#utility.yul\":160:185   */\n              swap1\n              dup2\n              mstore\n                /* \"#utility.yul\":148:150   */\n              0x20\n                /* \"#utility.yul\":133:151   */\n              add\n                /* \"contracts/solidity.series/Counter.sol\":7541:7624  function GetValue() public view returns (uint256) {... */\n              mload(0x40)\n              dup1\n              swap2\n              sub\n              swap1\n              return\n                /* \"contracts/solidity.series/Counter.sol\":7630:7706  function SetValue(uint256 _value) public {... */\n            tag_4:\n              tag_9\n              tag_10\n              calldatasize\n              0x04\n              tag_11\n              jump\t// in\n            tag_10:\n                /* \"contracts/solidity.series/Counter.sol\":7681:7690  simpleInt */\n              0x00\n                /* \"contracts/solidity.series/Counter.sol\":7681:7699  simpleInt = _value */\n              sstore\n                /* \"contracts/solidity.series/Counter.sol\":7630:7706  function SetValue(uint256 _value) public {... */\n              jump\n            tag_9:\n              stop\n                /* \"#utility.yul\":196:376   */\n            tag_11:\n                /* \"#utility.yul\":255:261   */\n              0x00\n                /* \"#utility.yul\":308:310   */\n              0x20\n                /* \"#utility.yul\":296:305   */\n              dup3\n                /* \"#utility.yul\":287:294   */\n              dup5\n                /* \"#utility.yul\":283:306   */\n              sub\n                /* \"#utility.yul\":279:311   */\n              slt\n                /* \"#utility.yul\":276:328   */\n              iszero\n              tag_18\n              jumpi\n                /* \"#utility.yul\":324:325   */\n              0x00\n                /* \"#utility.yul\":321:322   */\n              dup1\n                /* \"#utility.yul\":314:326   */\n              revert\n                /* \"#utility.yul\":276:328   */\n            tag_18:\n              pop\n                /* \"#utility.yul\":347:370   */\n              calldataload\n              swap2\n                /* \"#utility.yul\":196:376   */\n              swap1\n              pop\n              jump\t// out\n\n            auxdata: 0xa26469706673582212200845184d2a82fc942a32186ed2867a0252c2b51db03a733588d4bce80c4842b964736f6c63430008160033\n        }\n    }\n\n    auxdata: 0xa26469706673582212206d50b4ee2d3fcdf5feabe562829b98e8f04ad94df67941489dcaf2900895144564736f6c63430008160033\n}\n",
				"bytecode": {
					"linkReferences": {},
					"object": "608060405234801561000f575f80fd5b506102f68061001d5f395ff3fe608060405234801561000f575f80fd5b506004361061003f575f3560e01c8063a730b53c14610043578063f0851c501461005d578063fe2d69f914610065575b5f80fd5b61004b610096565b60405190815260200160405180910390f35b61004b61017d565b6100946100733660046101bc565b5f80546001600160a01b0319166001600160a01b0392909216919091179055565b005b5f806040516100a4906101b0565b604051809103905ff0801580156100bd573d5f803e3d5ffd5b506040516376c5838360e11b8152600a60048201529091506001600160a01b0382169063ed8b0706906024015b5f604051808303815f87803b158015610101575f80fd5b505af1158015610113573d5f803e3d5ffd5b50505050806001600160a01b031663725f4fa76040518163ffffffff1660e01b8152600401602060405180830381865afa158015610153573d5f803e3d5ffd5b505050506040513d601f19601f8201168201806040525081019061017791906101e9565b91505090565b5f80546040516376c5838360e11b8152600a60048201526001600160a01b0390911690819063ed8b0706906024016100ea565b60c08061020183390190565b5f602082840312156101cc575f80fd5b81356001600160a01b03811681146101e2575f80fd5b9392505050565b5f602082840312156101f9575f80fd5b505191905056fe6080604052348015600e575f80fd5b5060a58061001b5f395ff3fe6080604052348015600e575f80fd5b50600436106030575f3560e01c8063725f4fa7146034578063ed8b0706146048575b5f80fd5b5f5460405190815260200160405180910390f35b605760533660046059565b5f55565b005b5f602082840312156068575f80fd5b503591905056fea26469706673582212200845184d2a82fc942a32186ed2867a0252c2b51db03a733588d4bce80c4842b964736f6c63430008160033a26469706673582212206d50b4ee2d3fcdf5feabe562829b98e8f04ad94df67941489dcaf2900895144564736f6c63430008160033",
					"opcodes": "PUSH1 0x80 PUSH1 0x40 MSTORE CALLVALUE DUP1 ISZERO PUSH2 0xF JUMPI PUSH0 DUP1 REVERT JUMPDEST POP PUSH2 0x2F6 DUP1 PUSH2 0x1D PUSH0 CODECOPY PUSH0 RETURN INVALID PUSH1 0x80 PUSH1 0x40 MSTORE CALLVALUE DUP1 ISZERO PUSH2 0xF JUMPI PUSH0 DUP1 REVERT JUMPDEST POP PUSH1 0x4 CALLDATASIZE LT PUSH2 0x3F JUMPI PUSH0 CALLDATALOAD PUSH1 0xE0 SHR DUP1 PUSH4 0xA730B53C EQ PUSH2 0x43 JUMPI DUP1 PUSH4 0xF0851C50 EQ PUSH2 0x5D JUMPI DUP1 PUSH4 0xFE2D69F9 EQ PUSH2 0x65 JUMPI JUMPDEST PUSH0 DUP1 REVERT JUMPDEST PUSH2 0x4B PUSH2 0x96 JUMP JUMPDEST PUSH1 0x40 MLOAD SWAP1 DUP2 MSTORE PUSH1 0x20 ADD PUSH1 0x40 MLOAD DUP1 SWAP2 SUB SWAP1 RETURN JUMPDEST PUSH2 0x4B PUSH2 0x17D JUMP JUMPDEST PUSH2 0x94 PUSH2 0x73 CALLDATASIZE PUSH1 0x4 PUSH2 0x1BC JUMP JUMPDEST PUSH0 DUP1 SLOAD PUSH1 0x1 PUSH1 0x1 PUSH1 0xA0 SHL SUB NOT AND PUSH1 0x1 PUSH1 0x1 PUSH1 0xA0 SHL SUB SWAP3 SWAP1 SWAP3 AND SWAP2 SWAP1 SWAP2 OR SWAP1 SSTORE JUMP JUMPDEST STOP JUMPDEST PUSH0 DUP1 PUSH1 0x40 MLOAD PUSH2 0xA4 SWAP1 PUSH2 0x1B0 JUMP JUMPDEST PUSH1 0x40 MLOAD DUP1 SWAP2 SUB SWAP1 PUSH0 CREATE DUP1 ISZERO DUP1 ISZERO PUSH2 0xBD JUMPI RETURNDATASIZE PUSH0 DUP1 RETURNDATACOPY RETURNDATASIZE PUSH0 REVERT JUMPDEST POP PUSH1 0x40 MLOAD PUSH4 0x76C58383 PUSH1 0xE1 SHL DUP2 MSTORE PUSH1 0xA PUSH1 0x4 DUP3 ADD MSTORE SWAP1 SWAP2 POP PUSH1 0x1 PUSH1 0x1 PUSH1 0xA0 SHL SUB DUP3 AND SWAP1 PUSH4 0xED8B0706 SWAP1 PUSH1 0x24 ADD JUMPDEST PUSH0 PUSH1 0x40 MLOAD DUP1 DUP4 SUB DUP2 PUSH0 DUP8 DUP1 EXTCODESIZE ISZERO DUP1 ISZERO PUSH2 0x101 JUMPI PUSH0 DUP1 REVERT JUMPDEST POP GAS CALL ISZERO DUP1 ISZERO PUSH2 0x113 JUMPI RETURNDATASIZE PUSH0 DUP1 RETURNDATACOPY RETURNDATASIZE PUSH0 REVERT JUMPDEST POP POP POP POP DUP1 PUSH1 0x1 PUSH1 0x1 PUSH1 0xA0 SHL SUB AND PUSH4 0x725F4FA7 PUSH1 0x40 MLOAD DUP2 PUSH4 0xFFFFFFFF AND PUSH1 0xE0 SHL DUP2 MSTORE PUSH1 0x4 ADD PUSH1 0x20 PUSH1 0x40 MLOAD DUP1 DUP4 SUB DUP2 DUP7 GAS STATICCALL ISZERO DUP1 ISZERO PUSH2 0x153 JUMPI RETURNDATASIZE PUSH0 DUP1 RETURNDATACOPY RETURNDATASIZE PUSH0 REVERT JUMPDEST POP POP POP POP PUSH1 0x40 MLOAD RETURNDATASIZE PUSH1 0x1F NOT PUSH1 0x1F DUP3 ADD AND DUP3 ADD DUP1 PUSH1 0x40 MSTORE POP DUP2 ADD SWAP1 PUSH2 0x177 SWAP2 SWAP1 PUSH2 0x1E9 JUMP JUMPDEST SWAP2 POP POP SWAP1 JUMP JUMPDEST PUSH0 DUP1 SLOAD PUSH1 0x40 MLOAD PUSH4 0x76C58383 PUSH1 0xE1 SHL DUP2 MSTORE PUSH1 0xA PUSH1 0x4 DUP3 ADD MSTORE PUSH1 0x1 PUSH1 0x1 PUSH1 0xA0 SHL SUB SWAP1 SWAP2 AND SWAP1 DUP2 SWAP1 PUSH4 0xED8B0706 SWAP1 PUSH1 0x24 ADD PUSH2 0xEA JUMP JUMPDEST PUSH1 0xC0 DUP1 PUSH2 0x201 DUP4 CODECOPY ADD SWAP1 JUMP JUMPDEST PUSH0 PUSH1 0x20 DUP3 DUP5 SUB SLT ISZERO PUSH2 0x1CC JUMPI PUSH0 DUP1 REVERT JUMPDEST DUP2 CALLDATALOAD PUSH1 0x1 PUSH1 0x1 PUSH1 0xA0 SHL SUB DUP2 AND DUP2 EQ PUSH2 0x1E2 JUMPI PUSH0 DUP1 REVERT JUMPDEST SWAP4 SWAP3 POP POP POP JUMP JUMPDEST PUSH0 PUSH1 0x20 DUP3 DUP5 SUB SLT ISZERO PUSH2 0x1F9 JUMPI PUSH0 DUP1 REVERT JUMPDEST POP MLOAD SWAP2 SWAP1 POP JUMP INVALID PUSH1 0x80 PUSH1 0x40 MSTORE CALLVALUE DUP1 ISZERO PUSH1 0xE JUMPI PUSH0 DUP1 REVERT JUMPDEST POP PUSH1 0xA5 DUP1 PUSH2 0x1B PUSH0 CODECOPY PUSH0 RETURN INVALID PUSH1 0x80 PUSH1 0x40 MSTORE CALLVALUE DUP1 ISZERO PUSH1 0xE JUMPI PUSH0 DUP1 REVERT JUMPDEST POP PUSH1 0x4 CALLDATASIZE LT PUSH1 0x30 JUMPI PUSH0 CALLDATALOAD PUSH1 0xE0 SHR DUP1 PUSH4 0x725F4FA7 EQ PUSH1 0x34 JUMPI DUP1 PUSH4 0xED8B0706 EQ PUSH1 0x48 JUMPI JUMPDEST PUSH0 DUP1 REVERT JUMPDEST PUSH0 SLOAD PUSH1 0x40 MLOAD SWAP1 DUP2 MSTORE PUSH1 0x20 ADD PUSH1 0x40 MLOAD DUP1 SWAP2 SUB SWAP1 RETURN JUMPDEST PUSH1 0x57 PUSH1 0x53 CALLDATASIZE PUSH1 0x4 PUSH1 0x59 JUMP JUMPDEST PUSH0 SSTORE JUMP JUMPDEST STOP JUMPDEST PUSH0 PUSH1 0x20 DUP3 DUP5 SUB SLT ISZERO PUSH1 0x68 JUMPI PUSH0 DUP1 REVERT JUMPDEST POP CALLDATALOAD SWAP2 SWAP1 POP JUMP INVALID LOG2 PUSH5 0x6970667358 0x22 SLT KECCAK256 ADDMOD GASLIMIT XOR 0x4D 0x2A DUP3 0xFC SWAP5 0x2A ORIGIN XOR PUSH15 0xD2867A0252C2B51DB03A733588D4BC 0xE8 0xC BASEFEE TIMESTAMP 0xB9 PUSH5 0x736F6C6343 STOP ADDMOD AND STOP CALLER LOG2 PUSH5 0x6970667358 0x22 SLT KECCAK256 PUSH14 0x50B4EE2D3FCDF5FEABE562829B98 0xE8 CREATE 0x4A 0xD9 0x4D 0xF6 PUSH26 0x41489DCAF2900895144564736F6C634300081600330000000000 "
				},
				"gasEstimates": {
					"creation": {
						"codeDepositCost": "151600",
						"executionCost": "194",
						"totalCost": "151794"
					},
					"external": {
						"setObject(address)": "24543",
						"useExistingAddressOfContract()": "infinite",
						"useTheNewKeyWord()": "infinite"
					}
				},
				"methodIdentifiers": {
					"setObject(address)": "fe2d69f9",
					"useExistingAddressOfContract()": "f0851c50",
					"useTheNewKeyWord()": "a730b53c"
				}
			},
			"storageLayout": {
				"storage": [
					{
						"astId": 762,
						"contract": "contracts/solidity.series/Counter.sol:client",
						"label": "obj",
						"offset": 0,
						"slot": "0",
						"type": "t_address"
					}
				],
				"types": {
					"t_address": {
						"encoding": "inplace",
						"label": "address",
						"numberOfBytes": "20"
					}
				}
			},
			"userdoc": {
				"kind": "user",
				"methods": {},
				"version": 1
			}
		}
	}
}