{
	"contracts/solidity.series/Counter.sol": {
		"IterableMapping": {
			"abi": [
				{
					"inputs": [
						{
							"internalType": "address",
							"name": "",
							"type": "address"
						}
					],
					"name": "balances",
					"outputs": [
						{
							"internalType": "uint256",
							"name": "",
							"type": "uint256"
						}
					],
					"stateMutability": "view",
					"type": "function"
				},
				{
					"inputs": [],
					"name": "first",
					"outputs": [
						{
							"internalType": "uint256",
							"name": "",
							"type": "uint256"
						}
					],
					"stateMutability": "view",
					"type": "function"
				},
				{
					"inputs": [],
					"name": "getSize",
					"outputs": [
						{
							"internalType": "uint256",
							"name": "",
							"type": "uint256"
						}
					],
					"stateMutability": "view",
					"type": "function"
				},
				{
					"inputs": [
						{
							"internalType": "address",
							"name": "",
							"type": "address"
						}
					],
					"name": "inserted",
					"outputs": [
						{
							"internalType": "bool",
							"name": "",
							"type": "bool"
						}
					],
					"stateMutability": "view",
					"type": "function"
				},
				{
					"inputs": [
						{
							"internalType": "uint256",
							"name": "",
							"type": "uint256"
						}
					],
					"name": "keys",
					"outputs": [
						{
							"internalType": "address",
							"name": "",
							"type": "address"
						}
					],
					"stateMutability": "view",
					"type": "function"
				},
				{
					"inputs": [
						{
							"internalType": "address",
							"name": "_key",
							"type": "address"
						},
						{
							"internalType": "uint256",
							"name": "_val",
							"type": "uint256"
						}
					],
					"name": "set",
					"outputs": [],
					"stateMutability": "nonpayable",
					"type": "function"
				}
			],
			"devdoc": {
				"kind": "dev",
				"methods": {},
				"version": 1
			},
			"evm": {
				"assembly": "    /* \"contracts/solidity.series/Counter.sol\":5619:6157  contract IterableMapping {... */\n  mstore(0x40, 0x80)\n  callvalue\n  dup1\n  iszero\n  tag_1\n  jumpi\n  0x00\n  dup1\n  revert\ntag_1:\n  pop\n  dataSize(sub_0)\n  dup1\n  dataOffset(sub_0)\n  0x00\n  codecopy\n  0x00\n  return\nstop\n\nsub_0: assembly {\n        /* \"contracts/solidity.series/Counter.sol\":5619:6157  contract IterableMapping {... */\n      mstore(0x40, 0x80)\n      callvalue\n      dup1\n      iszero\n      tag_1\n      jumpi\n      0x00\n      dup1\n      revert\n    tag_1:\n      pop\n      jumpi(tag_2, lt(calldatasize, 0x04))\n      shr(0xe0, calldataload(0x00))\n      dup1\n      0x0cb6aaf1\n      eq\n      tag_3\n      jumpi\n      dup1\n      0x27e235e3\n      eq\n      tag_4\n      jumpi\n      dup1\n      0x3825d828\n      eq\n      tag_5\n      jumpi\n      dup1\n      0x3df4ddf4\n      eq\n      tag_6\n      jumpi\n      dup1\n      0x7cd380f1\n      eq\n      tag_7\n      jumpi\n      dup1\n      0xde8fa431\n      eq\n      tag_8\n      jumpi\n    tag_2:\n      0x00\n      dup1\n      revert\n        /* \"contracts/solidity.series/Counter.sol\":5745:5766  address[] public keys */\n    tag_3:\n      tag_9\n      tag_10\n      calldatasize\n      0x04\n      tag_11\n      jump\t// in\n    tag_10:\n      tag_12\n      jump\t// in\n    tag_9:\n      mload(0x40)\n      sub(shl(0xa0, 0x01), 0x01)\n        /* \"#utility.yul\":363:395   */\n      swap1\n      swap2\n      and\n        /* \"#utility.yul\":345:396   */\n      dup2\n      mstore\n        /* \"#utility.yul\":333:335   */\n      0x20\n        /* \"#utility.yul\":318:336   */\n      add\n        /* \"contracts/solidity.series/Counter.sol\":5745:5766  address[] public keys */\n    tag_13:\n      mload(0x40)\n      dup1\n      swap2\n      sub\n      swap1\n      return\n        /* \"contracts/solidity.series/Counter.sol\":5650:5693  mapping(address => uint256) public balances */\n    tag_4:\n      tag_15\n      tag_16\n      calldatasize\n      0x04\n      tag_17\n      jump\t// in\n    tag_16:\n      0x00\n      0x20\n      dup2\n      swap1\n      mstore\n      swap1\n      dup2\n      mstore\n      0x40\n      swap1\n      keccak256\n      sload\n      dup2\n      jump\n    tag_15:\n      mload(0x40)\n        /* \"#utility.yul\":922:947   */\n      swap1\n      dup2\n      mstore\n        /* \"#utility.yul\":910:912   */\n      0x20\n        /* \"#utility.yul\":895:913   */\n      add\n        /* \"contracts/solidity.series/Counter.sol\":5650:5693  mapping(address => uint256) public balances */\n      tag_13\n        /* \"#utility.yul\":776:953   */\n      jump\n        /* \"contracts/solidity.series/Counter.sol\":5773:5967  function set(address _key, uint256 _val) external {... */\n    tag_5:\n      tag_21\n      tag_22\n      calldatasize\n      0x04\n      tag_23\n      jump\t// in\n    tag_22:\n      tag_24\n      jump\t// in\n    tag_21:\n      stop\n        /* \"contracts/solidity.series/Counter.sol\":6065:6155  function first() external view returns (uint256) {... */\n    tag_6:\n      tag_15\n      tag_26\n      jump\t// in\n        /* \"contracts/solidity.series/Counter.sol\":5699:5739  mapping(address => bool) public inserted */\n    tag_7:\n      tag_28\n      tag_29\n      calldatasize\n      0x04\n      tag_17\n      jump\t// in\n    tag_29:\n      mstore(0x20, 0x01)\n      0x00\n      swap1\n      dup2\n      mstore\n      0x40\n      swap1\n      keccak256\n      sload\n      0xff\n      and\n      dup2\n      jump\n    tag_28:\n      mload(0x40)\n        /* \"#utility.yul\":1382:1396   */\n      swap1\n      iszero\n        /* \"#utility.yul\":1375:1397   */\n      iszero\n        /* \"#utility.yul\":1357:1398   */\n      dup2\n      mstore\n        /* \"#utility.yul\":1345:1347   */\n      0x20\n        /* \"#utility.yul\":1330:1348   */\n      add\n        /* \"contracts/solidity.series/Counter.sol\":5699:5739  mapping(address => bool) public inserted */\n      tag_13\n        /* \"#utility.yul\":1217:1404   */\n      jump\n        /* \"contracts/solidity.series/Counter.sol\":5973:6059  function getSize() external view returns (uint256) {... */\n    tag_8:\n        /* \"contracts/solidity.series/Counter.sol\":6041:6045  keys */\n      0x02\n        /* \"contracts/solidity.series/Counter.sol\":6041:6052  keys.length */\n      sload\n        /* \"contracts/solidity.series/Counter.sol\":5973:6059  function getSize() external view returns (uint256) {... */\n      jump(tag_15)\n        /* \"contracts/solidity.series/Counter.sol\":5745:5766  address[] public keys */\n    tag_12:\n      0x02\n      dup2\n      dup2\n      sload\n      dup2\n      lt\n      tag_36\n      jumpi\n      0x00\n      dup1\n      revert\n    tag_36:\n      0x00\n      swap2\n      dup3\n      mstore\n      0x20\n      swap1\n      swap2\n      keccak256\n      add\n      sload\n      sub(shl(0xa0, 0x01), 0x01)\n      and\n      swap1\n      pop\n      dup2\n      jump\t// out\n        /* \"contracts/solidity.series/Counter.sol\":5773:5967  function set(address _key, uint256 _val) external {... */\n    tag_24:\n      sub(shl(0xa0, 0x01), 0x01)\n        /* \"contracts/solidity.series/Counter.sol\":5833:5847  balances[_key] */\n      dup3\n      and\n        /* \"contracts/solidity.series/Counter.sol\":5833:5841  balances */\n      0x00\n        /* \"contracts/solidity.series/Counter.sol\":5833:5847  balances[_key] */\n      swap1\n      dup2\n      mstore\n      0x20\n      dup2\n      dup2\n      mstore\n      0x40\n      dup1\n      dup4\n      keccak256\n        /* \"contracts/solidity.series/Counter.sol\":5833:5854  balances[_key] = _val */\n      dup5\n      swap1\n      sstore\n        /* \"contracts/solidity.series/Counter.sol\":5870:5878  inserted */\n      0x01\n        /* \"contracts/solidity.series/Counter.sol\":5870:5884  inserted[_key] */\n      swap1\n      swap2\n      mstore\n      swap1\n      keccak256\n      sload\n      0xff\n      and\n        /* \"contracts/solidity.series/Counter.sol\":5865:5961  if (!inserted[_key]) {... */\n      tag_39\n      jumpi\n      sub(shl(0xa0, 0x01), 0x01)\n        /* \"contracts/solidity.series/Counter.sol\":5900:5914  inserted[_key] */\n      dup3\n      and\n      0x00\n      dup2\n      dup2\n      mstore\n        /* \"contracts/solidity.series/Counter.sol\":5917:5921  true */\n      0x01\n        /* \"contracts/solidity.series/Counter.sol\":5900:5914  inserted[_key] */\n      0x20\n      dup2\n      swap1\n      mstore\n      0x40\n      dup3\n      keccak256\n        /* \"contracts/solidity.series/Counter.sol\":5900:5921  inserted[_key] = true */\n      dup1\n      sload\n      not(0xff)\n      and\n      dup3\n      or\n      swap1\n      sstore\n        /* \"contracts/solidity.series/Counter.sol\":5935:5939  keys */\n      0x02\n        /* \"contracts/solidity.series/Counter.sol\":5935:5950  keys.push(_key) */\n      dup1\n      sload\n      swap2\n      dup3\n      add\n      dup2\n      sstore\n      swap1\n      swap2\n      mstore\n      0x405787fa12a823e0f2b7631cc41b3ba8828b3321ca811111fa75cd3aa3bb5ace\n      add\n      dup1\n      sload\n      not(sub(shl(0xa0, 0x01), 0x01))\n      and\n      swap1\n      swap2\n      or\n      swap1\n      sstore\n        /* \"contracts/solidity.series/Counter.sol\":5865:5961  if (!inserted[_key]) {... */\n    tag_39:\n        /* \"contracts/solidity.series/Counter.sol\":5773:5967  function set(address _key, uint256 _val) external {... */\n      pop\n      pop\n      jump\t// out\n        /* \"contracts/solidity.series/Counter.sol\":6065:6155  function first() external view returns (uint256) {... */\n    tag_26:\n        /* \"contracts/solidity.series/Counter.sol\":6105:6112  uint256 */\n      0x00\n        /* \"contracts/solidity.series/Counter.sol\":6131:6139  balances */\n      dup1\n        /* \"contracts/solidity.series/Counter.sol\":6131:6148  balances[keys[0]] */\n      0x00\n        /* \"contracts/solidity.series/Counter.sol\":6140:6144  keys */\n      0x02\n        /* \"contracts/solidity.series/Counter.sol\":6145:6146  0 */\n      0x00\n        /* \"contracts/solidity.series/Counter.sol\":6140:6147  keys[0] */\n      dup2\n      sload\n      dup2\n      lt\n      tag_43\n      jumpi\n      tag_43\n      tag_44\n      jump\t// in\n    tag_43:\n      0x00\n      swap2\n      dup3\n      mstore\n      0x20\n      dup1\n      dup4\n      keccak256\n      swap1\n      swap2\n      add\n      sload\n      sub(shl(0xa0, 0x01), 0x01)\n      and\n        /* \"contracts/solidity.series/Counter.sol\":6131:6148  balances[keys[0]] */\n      dup4\n      mstore\n      dup3\n      add\n      swap3\n      swap1\n      swap3\n      mstore\n      0x40\n      add\n      swap1\n      keccak256\n      sload\n      swap2\n        /* \"contracts/solidity.series/Counter.sol\":6065:6155  function first() external view returns (uint256) {... */\n      swap1\n      pop\n      jump\t// out\n        /* \"#utility.yul\":14:194   */\n    tag_11:\n        /* \"#utility.yul\":73:79   */\n      0x00\n        /* \"#utility.yul\":126:128   */\n      0x20\n        /* \"#utility.yul\":114:123   */\n      dup3\n        /* \"#utility.yul\":105:112   */\n      dup5\n        /* \"#utility.yul\":101:124   */\n      sub\n        /* \"#utility.yul\":97:129   */\n      slt\n        /* \"#utility.yul\":94:146   */\n      iszero\n      tag_50\n      jumpi\n        /* \"#utility.yul\":142:143   */\n      0x00\n        /* \"#utility.yul\":139:140   */\n      dup1\n        /* \"#utility.yul\":132:144   */\n      revert\n        /* \"#utility.yul\":94:146   */\n    tag_50:\n      pop\n        /* \"#utility.yul\":165:188   */\n      calldataload\n      swap2\n        /* \"#utility.yul\":14:194   */\n      swap1\n      pop\n      jump\t// out\n        /* \"#utility.yul\":407:580   */\n    tag_47:\n        /* \"#utility.yul\":475:495   */\n      dup1\n      calldataload\n      sub(shl(0xa0, 0x01), 0x01)\n        /* \"#utility.yul\":524:555   */\n      dup2\n      and\n        /* \"#utility.yul\":514:556   */\n      dup2\n      eq\n        /* \"#utility.yul\":504:574   */\n      tag_53\n      jumpi\n        /* \"#utility.yul\":570:571   */\n      0x00\n        /* \"#utility.yul\":567:568   */\n      dup1\n        /* \"#utility.yul\":560:572   */\n      revert\n        /* \"#utility.yul\":504:574   */\n    tag_53:\n        /* \"#utility.yul\":407:580   */\n      swap2\n      swap1\n      pop\n      jump\t// out\n        /* \"#utility.yul\":585:771   */\n    tag_17:\n        /* \"#utility.yul\":644:650   */\n      0x00\n        /* \"#utility.yul\":697:699   */\n      0x20\n        /* \"#utility.yul\":685:694   */\n      dup3\n        /* \"#utility.yul\":676:683   */\n      dup5\n        /* \"#utility.yul\":672:695   */\n      sub\n        /* \"#utility.yul\":668:700   */\n      slt\n        /* \"#utility.yul\":665:717   */\n      iszero\n      tag_55\n      jumpi\n        /* \"#utility.yul\":713:714   */\n      0x00\n        /* \"#utility.yul\":710:711   */\n      dup1\n        /* \"#utility.yul\":703:715   */\n      revert\n        /* \"#utility.yul\":665:717   */\n    tag_55:\n        /* \"#utility.yul\":736:765   */\n      tag_56\n        /* \"#utility.yul\":755:764   */\n      dup3\n        /* \"#utility.yul\":736:765   */\n      tag_47\n      jump\t// in\n    tag_56:\n        /* \"#utility.yul\":726:765   */\n      swap4\n        /* \"#utility.yul\":585:771   */\n      swap3\n      pop\n      pop\n      pop\n      jump\t// out\n        /* \"#utility.yul\":958:1212   */\n    tag_23:\n        /* \"#utility.yul\":1026:1032   */\n      0x00\n        /* \"#utility.yul\":1034:1040   */\n      dup1\n        /* \"#utility.yul\":1087:1089   */\n      0x40\n        /* \"#utility.yul\":1075:1084   */\n      dup4\n        /* \"#utility.yul\":1066:1073   */\n      dup6\n        /* \"#utility.yul\":1062:1085   */\n      sub\n        /* \"#utility.yul\":1058:1090   */\n      slt\n        /* \"#utility.yul\":1055:1107   */\n      iszero\n      tag_59\n      jumpi\n        /* \"#utility.yul\":1103:1104   */\n      0x00\n        /* \"#utility.yul\":1100:1101   */\n      dup1\n        /* \"#utility.yul\":1093:1105   */\n      revert\n        /* \"#utility.yul\":1055:1107   */\n    tag_59:\n        /* \"#utility.yul\":1126:1155   */\n      tag_60\n        /* \"#utility.yul\":1145:1154   */\n      dup4\n        /* \"#utility.yul\":1126:1155   */\n      tag_47\n      jump\t// in\n    tag_60:\n        /* \"#utility.yul\":1116:1155   */\n      swap5\n        /* \"#utility.yul\":1202:1204   */\n      0x20\n        /* \"#utility.yul\":1187:1205   */\n      swap4\n      swap1\n      swap4\n      add\n        /* \"#utility.yul\":1174:1206   */\n      calldataload\n      swap4\n      pop\n      pop\n      pop\n        /* \"#utility.yul\":958:1212   */\n      jump\t// out\n        /* \"#utility.yul\":1409:1536   */\n    tag_44:\n        /* \"#utility.yul\":1470:1480   */\n      0x4e487b71\n        /* \"#utility.yul\":1465:1468   */\n      0xe0\n        /* \"#utility.yul\":1461:1481   */\n      shl\n        /* \"#utility.yul\":1458:1459   */\n      0x00\n        /* \"#utility.yul\":1451:1482   */\n      mstore\n        /* \"#utility.yul\":1501:1505   */\n      0x32\n        /* \"#utility.yul\":1498:1499   */\n      0x04\n        /* \"#utility.yul\":1491:1506   */\n      mstore\n        /* \"#utility.yul\":1525:1529   */\n      0x24\n        /* \"#utility.yul\":1522:1523   */\n      0x00\n        /* \"#utility.yul\":1515:1530   */\n      revert\n\n    auxdata: 0xa2646970667358221220eb0a545e3aaded8385d164dabd93331284ec0d2545650107ba65f371c28f426064736f6c63430008160033\n}\n",
				"bytecode": {
					"linkReferences": {},
					"object": "608060405234801561000f575f80fd5b506102d48061001d5f395ff3fe608060405234801561000f575f80fd5b5060043610610060575f3560e01c80630cb6aaf11461006457806327e235e3146100945780633825d828146100c15780633df4ddf4146100d65780637cd380f1146100de578063de8fa43114610110575b5f80fd5b610077610072366004610210565b610118565b6040516001600160a01b0390911681526020015b60405180910390f35b6100b36100a2366004610242565b5f6020819052908152604090205481565b60405190815260200161008b565b6100d46100cf366004610262565b610140565b005b6100b36101d1565b6101006100ec366004610242565b60016020525f908152604090205460ff1681565b604051901515815260200161008b565b6002546100b3565b60028181548110610127575f80fd5b5f918252602090912001546001600160a01b0316905081565b6001600160a01b0382165f90815260208181526040808320849055600190915290205460ff166101cd576001600160a01b0382165f8181526001602081905260408220805460ff1916821790556002805491820181559091527f405787fa12a823e0f2b7631cc41b3ba8828b3321ca811111fa75cd3aa3bb5ace0180546001600160a01b03191690911790555b5050565b5f805f60025f815481106101e7576101e761028a565b5f9182526020808320909101546001600160a01b03168352820192909252604001902054919050565b5f60208284031215610220575f80fd5b5035919050565b80356001600160a01b038116811461023d575f80fd5b919050565b5f60208284031215610252575f80fd5b61025b82610227565b9392505050565b5f8060408385031215610273575f80fd5b61027c83610227565b946020939093013593505050565b634e487b7160e01b5f52603260045260245ffdfea2646970667358221220eb0a545e3aaded8385d164dabd93331284ec0d2545650107ba65f371c28f426064736f6c63430008160033",
					"opcodes": "PUSH1 0x80 PUSH1 0x40 MSTORE CALLVALUE DUP1 ISZERO PUSH2 0xF JUMPI PUSH0 DUP1 REVERT JUMPDEST POP PUSH2 0x2D4 DUP1 PUSH2 0x1D PUSH0 CODECOPY PUSH0 RETURN INVALID PUSH1 0x80 PUSH1 0x40 MSTORE CALLVALUE DUP1 ISZERO PUSH2 0xF JUMPI PUSH0 DUP1 REVERT JUMPDEST POP PUSH1 0x4 CALLDATASIZE LT PUSH2 0x60 JUMPI PUSH0 CALLDATALOAD PUSH1 0xE0 SHR DUP1 PUSH4 0xCB6AAF1 EQ PUSH2 0x64 JUMPI DUP1 PUSH4 0x27E235E3 EQ PUSH2 0x94 JUMPI DUP1 PUSH4 0x3825D828 EQ PUSH2 0xC1 JUMPI DUP1 PUSH4 0x3DF4DDF4 EQ PUSH2 0xD6 JUMPI DUP1 PUSH4 0x7CD380F1 EQ PUSH2 0xDE JUMPI DUP1 PUSH4 0xDE8FA431 EQ PUSH2 0x110 JUMPI JUMPDEST PUSH0 DUP1 REVERT JUMPDEST PUSH2 0x77 PUSH2 0x72 CALLDATASIZE PUSH1 0x4 PUSH2 0x210 JUMP JUMPDEST PUSH2 0x118 JUMP JUMPDEST PUSH1 0x40 MLOAD PUSH1 0x1 PUSH1 0x1 PUSH1 0xA0 SHL SUB SWAP1 SWAP2 AND DUP2 MSTORE PUSH1 0x20 ADD JUMPDEST PUSH1 0x40 MLOAD DUP1 SWAP2 SUB SWAP1 RETURN JUMPDEST PUSH2 0xB3 PUSH2 0xA2 CALLDATASIZE PUSH1 0x4 PUSH2 0x242 JUMP JUMPDEST PUSH0 PUSH1 0x20 DUP2 SWAP1 MSTORE SWAP1 DUP2 MSTORE PUSH1 0x40 SWAP1 KECCAK256 SLOAD DUP2 JUMP JUMPDEST PUSH1 0x40 MLOAD SWAP1 DUP2 MSTORE PUSH1 0x20 ADD PUSH2 0x8B JUMP JUMPDEST PUSH2 0xD4 PUSH2 0xCF CALLDATASIZE PUSH1 0x4 PUSH2 0x262 JUMP JUMPDEST PUSH2 0x140 JUMP JUMPDEST STOP JUMPDEST PUSH2 0xB3 PUSH2 0x1D1 JUMP JUMPDEST PUSH2 0x100 PUSH2 0xEC CALLDATASIZE PUSH1 0x4 PUSH2 0x242 JUMP JUMPDEST PUSH1 0x1 PUSH1 0x20 MSTORE PUSH0 SWAP1 DUP2 MSTORE PUSH1 0x40 SWAP1 KECCAK256 SLOAD PUSH1 0xFF AND DUP2 JUMP JUMPDEST PUSH1 0x40 MLOAD SWAP1 ISZERO ISZERO DUP2 MSTORE PUSH1 0x20 ADD PUSH2 0x8B JUMP JUMPDEST PUSH1 0x2 SLOAD PUSH2 0xB3 JUMP JUMPDEST PUSH1 0x2 DUP2 DUP2 SLOAD DUP2 LT PUSH2 0x127 JUMPI PUSH0 DUP1 REVERT JUMPDEST PUSH0 SWAP2 DUP3 MSTORE PUSH1 0x20 SWAP1 SWAP2 KECCAK256 ADD SLOAD PUSH1 0x1 PUSH1 0x1 PUSH1 0xA0 SHL SUB AND SWAP1 POP DUP2 JUMP JUMPDEST PUSH1 0x1 PUSH1 0x1 PUSH1 0xA0 SHL SUB DUP3 AND PUSH0 SWAP1 DUP2 MSTORE PUSH1 0x20 DUP2 DUP2 MSTORE PUSH1 0x40 DUP1 DUP4 KECCAK256 DUP5 SWAP1 SSTORE PUSH1 0x1 SWAP1 SWAP2 MSTORE SWAP1 KECCAK256 SLOAD PUSH1 0xFF AND PUSH2 0x1CD JUMPI PUSH1 0x1 PUSH1 0x1 PUSH1 0xA0 SHL SUB DUP3 AND PUSH0 DUP2 DUP2 MSTORE PUSH1 0x1 PUSH1 0x20 DUP2 SWAP1 MSTORE PUSH1 0x40 DUP3 KECCAK256 DUP1 SLOAD PUSH1 0xFF NOT AND DUP3 OR SWAP1 SSTORE PUSH1 0x2 DUP1 SLOAD SWAP2 DUP3 ADD DUP2 SSTORE SWAP1 SWAP2 MSTORE PUSH32 0x405787FA12A823E0F2B7631CC41B3BA8828B3321CA811111FA75CD3AA3BB5ACE ADD DUP1 SLOAD PUSH1 0x1 PUSH1 0x1 PUSH1 0xA0 SHL SUB NOT AND SWAP1 SWAP2 OR SWAP1 SSTORE JUMPDEST POP POP JUMP JUMPDEST PUSH0 DUP1 PUSH0 PUSH1 0x2 PUSH0 DUP2 SLOAD DUP2 LT PUSH2 0x1E7 JUMPI PUSH2 0x1E7 PUSH2 0x28A JUMP JUMPDEST PUSH0 SWAP2 DUP3 MSTORE PUSH1 0x20 DUP1 DUP4 KECCAK256 SWAP1 SWAP2 ADD SLOAD PUSH1 0x1 PUSH1 0x1 PUSH1 0xA0 SHL SUB AND DUP4 MSTORE DUP3 ADD SWAP3 SWAP1 SWAP3 MSTORE PUSH1 0x40 ADD SWAP1 KECCAK256 SLOAD SWAP2 SWAP1 POP JUMP JUMPDEST PUSH0 PUSH1 0x20 DUP3 DUP5 SUB SLT ISZERO PUSH2 0x220 JUMPI PUSH0 DUP1 REVERT JUMPDEST POP CALLDATALOAD SWAP2 SWAP1 POP JUMP JUMPDEST DUP1 CALLDATALOAD PUSH1 0x1 PUSH1 0x1 PUSH1 0xA0 SHL SUB DUP2 AND DUP2 EQ PUSH2 0x23D JUMPI PUSH0 DUP1 REVERT JUMPDEST SWAP2 SWAP1 POP JUMP JUMPDEST PUSH0 PUSH1 0x20 DUP3 DUP5 SUB SLT ISZERO PUSH2 0x252 JUMPI PUSH0 DUP1 REVERT JUMPDEST PUSH2 0x25B DUP3 PUSH2 0x227 JUMP JUMPDEST SWAP4 SWAP3 POP POP POP JUMP JUMPDEST PUSH0 DUP1 PUSH1 0x40 DUP4 DUP6 SUB SLT ISZERO PUSH2 0x273 JUMPI PUSH0 DUP1 REVERT JUMPDEST PUSH2 0x27C DUP4 PUSH2 0x227 JUMP JUMPDEST SWAP5 PUSH1 0x20 SWAP4 SWAP1 SWAP4 ADD CALLDATALOAD SWAP4 POP POP POP JUMP JUMPDEST PUSH4 0x4E487B71 PUSH1 0xE0 SHL PUSH0 MSTORE PUSH1 0x32 PUSH1 0x4 MSTORE PUSH1 0x24 PUSH0 REVERT INVALID LOG2 PUSH5 0x6970667358 0x22 SLT KECCAK256 0xEB EXP SLOAD 0x5E GASPRICE 0xAD 0xED DUP4 DUP6 0xD1 PUSH5 0xDABD933312 DUP5 0xEC 0xD 0x25 GASLIMIT PUSH6 0x107BA65F371 0xC2 DUP16 TIMESTAMP PUSH1 0x64 PUSH20 0x6F6C634300081600330000000000000000000000 "
				},
				"gasEstimates": {
					"creation": {
						"codeDepositCost": "144800",
						"executionCost": "188",
						"totalCost": "144988"
					},
					"external": {
						"balances(address)": "2519",
						"first()": "6745",
						"getSize()": "2379",
						"inserted(address)": "2594",
						"keys(uint256)": "4578",
						"set(address,uint256)": "97510"
					}
				},
				"methodIdentifiers": {
					"balances(address)": "27e235e3",
					"first()": "3df4ddf4",
					"getSize()": "de8fa431",
					"inserted(address)": "7cd380f1",
					"keys(uint256)": "0cb6aaf1",
					"set(address,uint256)": "3825d828"
				}
			},
			"storageLayout": {
				"storage": [
					{
						"astId": 530,
						"contract": "contracts/solidity.series/Counter.sol:IterableMapping",
						"label": "balances",
						"offset": 0,
						"slot": "0",
						"type": "t_mapping(t_address,t_uint256)"
					},
					{
						"astId": 534,
						"contract": "contracts/solidity.series/Counter.sol:IterableMapping",
						"label": "inserted",
						"offset": 0,
						"slot": "1",
						"type": "t_mapping(t_address,t_bool)"
					},
					{
						"astId": 537,
						"contract": "contracts/solidity.series/Counter.sol:IterableMapping",
						"label": "keys",
						"offset": 0,
						"slot": "2",
						"type": "t_array(t_address)dyn_storage"
					}
				],
				"types": {
					"t_address": {
						"encoding": "inplace",
						"label": "address",
						"numberOfBytes": "20"
					},
					"t_array(t_address)dyn_storage": {
						"base": "t_address",
						"encoding": "dynamic_array",
						"label": "address[]",
						"numberOfBytes": "32"
					},
					"t_bool": {
						"encoding": "inplace",
						"label": "bool",
						"numberOfBytes": "1"
					},
					"t_mapping(t_address,t_bool)": {
						"encoding": "mapping",
						"key": "t_address",
						"label": "mapping(address => bool)",
						"numberOfBytes": "32",
						"value": "t_bool"
					},
					"t_mapping(t_address,t_uint256)": {
						"encoding": "mapping",
						"key": "t_address",
						"label": "mapping(address => uint256)",
						"numberOfBytes": "32",
						"value": "t_uint256"
					},
					"t_uint256": {
						"encoding": "inplace",
						"label": "uint256",
						"numberOfBytes": "32"
					}
				}
			},
			"userdoc": {
				"kind": "user",
				"methods": {},
				"version": 1
			}
		}
	}
}