{
	"contracts/solidity.series/Counter.sol": {
		"FunctionOutputs": {
			"abi": [
				{
					"inputs": [],
					"name": "assigned",
					"outputs": [
						{
							"internalType": "uint256",
							"name": "x",
							"type": "uint256"
						},
						{
							"internalType": "bool",
							"name": "b",
							"type": "bool"
						}
					],
					"stateMutability": "pure",
					"type": "function"
				},
				{
					"inputs": [],
					"name": "named",
					"outputs": [
						{
							"internalType": "uint256",
							"name": "x",
							"type": "uint256"
						},
						{
							"internalType": "bool",
							"name": "b",
							"type": "bool"
						}
					],
					"stateMutability": "pure",
					"type": "function"
				},
				{
					"inputs": [],
					"name": "returnMany",
					"outputs": [
						{
							"internalType": "uint256",
							"name": "",
							"type": "uint256"
						},
						{
							"internalType": "bool",
							"name": "",
							"type": "bool"
						}
					],
					"stateMutability": "pure",
					"type": "function"
				}
			],
			"devdoc": {
				"kind": "dev",
				"methods": {},
				"version": 1
			},
			"evm": {
				"assembly": "    /* \"contracts/solidity.series/Counter.sol\":2813:3333  contract FunctionOutputs {... */\n  mstore(0x40, 0x80)\n  callvalue\n  dup1\n  iszero\n  tag_1\n  jumpi\n  0x00\n  dup1\n  revert\ntag_1:\n  pop\n  dataSize(sub_0)\n  dup1\n  dataOffset(sub_0)\n  0x00\n  codecopy\n  0x00\n  return\nstop\n\nsub_0: assembly {\n        /* \"contracts/solidity.series/Counter.sol\":2813:3333  contract FunctionOutputs {... */\n      mstore(0x40, 0x80)\n      callvalue\n      dup1\n      iszero\n      tag_1\n      jumpi\n      0x00\n      dup1\n      revert\n    tag_1:\n      pop\n      jumpi(tag_2, lt(calldatasize, 0x04))\n      shr(0xe0, calldataload(0x00))\n      dup1\n      0x45f907a8\n      eq\n      tag_3\n      jumpi\n      dup1\n      0x86887544\n      eq\n      tag_3\n      jumpi\n      dup1\n      0xadb4d990\n      eq\n      tag_3\n      jumpi\n    tag_2:\n      0x00\n      dup1\n      revert\n        /* \"contracts/solidity.series/Counter.sol\":2941:3031  function named() public pure returns (uint256 x, bool b) {... */\n    tag_3:\n      0x40\n      dup1\n      mload\n        /* \"contracts/solidity.series/Counter.sol\":3016:3017  1 */\n      0x01\n        /* \"#utility.yul\":182:207   */\n      dup1\n      dup3\n      mstore\n        /* \"#utility.yul\":238:240   */\n      0x20\n        /* \"#utility.yul\":223:241   */\n      dup3\n      add\n        /* \"#utility.yul\":216:266   */\n      mstore\n        /* \"contracts/solidity.series/Counter.sol\":2941:3031  function named() public pure returns (uint256 x, bool b) {... */\n      dup2\n      mload\n      swap1\n      dup2\n      swap1\n      sub\n      swap1\n      swap2\n      add\n      swap1\n      return\n\n    auxdata: 0xa2646970667358221220736f0315fb9370182fba6e1b9f04be6298c895c0ea0687dee98e6eb466d6031964736f6c63430008160033\n}\n",
				"bytecode": {
					"linkReferences": {},
					"object": "6080604052348015600e575f80fd5b50608e8061001b5f395ff3fe6080604052348015600e575f80fd5b5060043610603a575f3560e01c806345f907a814603e5780638688754414603e578063adb4d99014603e575b5f80fd5b604080516001808252602082015281519081900390910190f3fea2646970667358221220736f0315fb9370182fba6e1b9f04be6298c895c0ea0687dee98e6eb466d6031964736f6c63430008160033",
					"opcodes": "PUSH1 0x80 PUSH1 0x40 MSTORE CALLVALUE DUP1 ISZERO PUSH1 0xE JUMPI PUSH0 DUP1 REVERT JUMPDEST POP PUSH1 0x8E DUP1 PUSH2 0x1B PUSH0 CODECOPY PUSH0 RETURN INVALID PUSH1 0x80 PUSH1 0x40 MSTORE CALLVALUE DUP1 ISZERO PUSH1 0xE JUMPI PUSH0 DUP1 REVERT JUMPDEST POP PUSH1 0x4 CALLDATASIZE LT PUSH1 0x3A JUMPI PUSH0 CALLDATALOAD PUSH1 0xE0 SHR DUP1 PUSH4 0x45F907A8 EQ PUSH1 0x3E JUMPI DUP1 PUSH4 0x86887544 EQ PUSH1 0x3E JUMPI DUP1 PUSH4 0xADB4D990 EQ PUSH1 0x3E JUMPI JUMPDEST PUSH0 DUP1 REVERT JUMPDEST PUSH1 0x40 DUP1 MLOAD PUSH1 0x1 DUP1 DUP3 MSTORE PUSH1 0x20 DUP3 ADD MSTORE DUP2 MLOAD SWAP1 DUP2 SWAP1 SUB SWAP1 SWAP2 ADD SWAP1 RETURN INVALID LOG2 PUSH5 0x6970667358 0x22 SLT KECCAK256 PUSH20 0x6F0315FB9370182FBA6E1B9F04BE6298C895C0EA MOD DUP8 0xDE 0xE9 DUP15 PUSH15 0xB466D6031964736F6C634300081600 CALLER "
				},
				"gasEstimates": {
					"creation": {
						"codeDepositCost": "28400",
						"executionCost": "79",
						"totalCost": "28479"
					},
					"external": {
						"assigned()": "213",
						"named()": "169",
						"returnMany()": "191"
					}
				},
				"methodIdentifiers": {
					"assigned()": "adb4d990",
					"named()": "45f907a8",
					"returnMany()": "86887544"
				}
			},
			"storageLayout": {
				"storage": [],
				"types": null
			},
			"userdoc": {
				"kind": "user",
				"methods": {},
				"version": 1
			}
		}
	}
}