{
	"contracts/solidity.series/Counter.sol": {
		"ArrayShift": {
			"abi": [
				{
					"inputs": [],
					"name": "example",
					"outputs": [],
					"stateMutability": "nonpayable",
					"type": "function"
				},
				{
					"inputs": [
						{
							"internalType": "uint256",
							"name": "",
							"type": "uint256"
						}
					],
					"name": "plane",
					"outputs": [
						{
							"internalType": "uint256",
							"name": "",
							"type": "uint256"
						}
					],
					"stateMutability": "view",
					"type": "function"
				},
				{
					"inputs": [
						{
							"internalType": "uint256",
							"name": "_index",
							"type": "uint256"
						}
					],
					"name": "remove",
					"outputs": [],
					"stateMutability": "nonpayable",
					"type": "function"
				}
			],
			"devdoc": {
				"kind": "dev",
				"methods": {},
				"version": 1
			},
			"evm": {
				"assembly": "    /* \"contracts/solidity.series/Counter.sol\":4349:4746  contract ArrayShift {... */\n  mstore(0x40, 0x80)\n  callvalue\n  dup1\n  iszero\n  tag_1\n  jumpi\n  0x00\n  dup1\n  revert\ntag_1:\n  pop\n  dataSize(sub_0)\n  dup1\n  dataOffset(sub_0)\n  0x00\n  codecopy\n  0x00\n  return\nstop\n\nsub_0: assembly {\n        /* \"contracts/solidity.series/Counter.sol\":4349:4746  contract ArrayShift {... */\n      mstore(0x40, 0x80)\n      callvalue\n      dup1\n      iszero\n      tag_1\n      jumpi\n      0x00\n      dup1\n      revert\n    tag_1:\n      pop\n      jumpi(tag_2, lt(calldatasize, 0x04))\n      shr(0xe0, calldataload(0x00))\n      dup1\n      0x4cc82215\n      eq\n      tag_3\n      jumpi\n      dup1\n      0x54353f2f\n      eq\n      tag_4\n      jumpi\n      dup1\n      0xd2269f9a\n      eq\n      tag_5\n      jumpi\n    tag_2:\n      0x00\n      dup1\n      revert\n        /* \"contracts/solidity.series/Counter.sol\":4506:4744  function remove(uint256 _index) public {... */\n    tag_3:\n      tag_6\n      tag_7\n      calldatasize\n      0x04\n      tag_8\n      jump\t// in\n    tag_7:\n      tag_9\n      jump\t// in\n    tag_6:\n      stop\n        /* \"contracts/solidity.series/Counter.sol\":4404:4500  function example() public {... */\n    tag_4:\n      tag_6\n      tag_11\n      jump\t// in\n        /* \"contracts/solidity.series/Counter.sol\":4375:4397  uint256[] public plane */\n    tag_5:\n      tag_12\n      tag_13\n      calldatasize\n      0x04\n      tag_8\n      jump\t// in\n    tag_13:\n      tag_14\n      jump\t// in\n    tag_12:\n      mload(0x40)\n        /* \"#utility.yul\":345:370   */\n      swap1\n      dup2\n      mstore\n        /* \"#utility.yul\":333:335   */\n      0x20\n        /* \"#utility.yul\":318:336   */\n      add\n        /* \"contracts/solidity.series/Counter.sol\":4375:4397  uint256[] public plane */\n      mload(0x40)\n      dup1\n      swap2\n      sub\n      swap1\n      return\n        /* \"contracts/solidity.series/Counter.sol\":4506:4744  function remove(uint256 _index) public {... */\n    tag_9:\n        /* \"contracts/solidity.series/Counter.sol\":4572:4577  plane */\n      0x00\n        /* \"contracts/solidity.series/Counter.sol\":4572:4584  plane.length */\n      sload\n        /* \"contracts/solidity.series/Counter.sol\":4563:4584  _index < plane.length */\n      dup2\n      lt\n        /* \"contracts/solidity.series/Counter.sol\":4555:4607  require(_index < plane.length, \"Index out of bound\") */\n      tag_18\n      jumpi\n      mload(0x40)\n      shl(0xe5, 0x461bcd)\n      dup2\n      mstore\n        /* \"#utility.yul\":583:585   */\n      0x20\n        /* \"contracts/solidity.series/Counter.sol\":4555:4607  require(_index < plane.length, \"Index out of bound\") */\n      0x04\n      dup3\n      add\n        /* \"#utility.yul\":565:586   */\n      mstore\n        /* \"#utility.yul\":622:624   */\n      0x12\n        /* \"#utility.yul\":602:620   */\n      0x24\n      dup3\n      add\n        /* \"#utility.yul\":595:625   */\n      mstore\n      shl(0x72, 0x125b99195e081bdd5d081bd988189bdd5b99)\n        /* \"#utility.yul\":641:659   */\n      0x44\n      dup3\n      add\n        /* \"#utility.yul\":634:682   */\n      mstore\n        /* \"#utility.yul\":699:717   */\n      0x64\n      add\n        /* \"contracts/solidity.series/Counter.sol\":4555:4607  require(_index < plane.length, \"Index out of bound\") */\n      mload(0x40)\n      dup1\n      swap2\n      sub\n      swap1\n      revert\n    tag_18:\n        /* \"contracts/solidity.series/Counter.sol\":4634:4640  _index */\n      dup1\n        /* \"contracts/solidity.series/Counter.sol\":4617:4717  for (uint256 i = _index; i < plane.length - 1; i++) {... */\n    tag_21:\n        /* \"contracts/solidity.series/Counter.sol\":4646:4651  plane */\n      0x00\n        /* \"contracts/solidity.series/Counter.sol\":4646:4658  plane.length */\n      sload\n        /* \"contracts/solidity.series/Counter.sol\":4646:4662  plane.length - 1 */\n      tag_24\n      swap1\n        /* \"contracts/solidity.series/Counter.sol\":4661:4662  1 */\n      0x01\n      swap1\n        /* \"contracts/solidity.series/Counter.sol\":4646:4662  plane.length - 1 */\n      tag_25\n      jump\t// in\n    tag_24:\n        /* \"contracts/solidity.series/Counter.sol\":4642:4643  i */\n      dup2\n        /* \"contracts/solidity.series/Counter.sol\":4642:4662  i < plane.length - 1 */\n      lt\n        /* \"contracts/solidity.series/Counter.sol\":4617:4717  for (uint256 i = _index; i < plane.length - 1; i++) {... */\n      iszero\n      tag_22\n      jumpi\n        /* \"contracts/solidity.series/Counter.sol\":4694:4699  plane */\n      0x00\n        /* \"contracts/solidity.series/Counter.sol\":4700:4705  i + 1 */\n      tag_26\n        /* \"contracts/solidity.series/Counter.sol\":4700:4701  i */\n      dup3\n        /* \"contracts/solidity.series/Counter.sol\":4704:4705  1 */\n      0x01\n        /* \"contracts/solidity.series/Counter.sol\":4700:4705  i + 1 */\n      tag_27\n      jump\t// in\n    tag_26:\n        /* \"contracts/solidity.series/Counter.sol\":4694:4706  plane[i + 1] */\n      dup2\n      sload\n      dup2\n      lt\n      tag_29\n      jumpi\n      tag_29\n      tag_30\n      jump\t// in\n    tag_29:\n      swap1\n      0x00\n      mstore\n      keccak256(0x00, 0x20)\n      add\n      sload\n        /* \"contracts/solidity.series/Counter.sol\":4683:4688  plane */\n      0x00\n        /* \"contracts/solidity.series/Counter.sol\":4689:4690  i */\n      dup3\n        /* \"contracts/solidity.series/Counter.sol\":4683:4691  plane[i] */\n      dup2\n      sload\n      dup2\n      lt\n      tag_33\n      jumpi\n      tag_33\n      tag_30\n      jump\t// in\n    tag_33:\n      0x00\n      swap2\n      dup3\n      mstore\n      0x20\n      swap1\n      swap2\n      keccak256\n      add\n        /* \"contracts/solidity.series/Counter.sol\":4683:4706  plane[i] = plane[i + 1] */\n      sstore\n        /* \"contracts/solidity.series/Counter.sol\":4664:4667  i++ */\n      0x01\n      add\n        /* \"contracts/solidity.series/Counter.sol\":4617:4717  for (uint256 i = _index; i < plane.length - 1; i++) {... */\n      jump(tag_21)\n    tag_22:\n      pop\n        /* \"contracts/solidity.series/Counter.sol\":4726:4731  plane */\n      0x00\n        /* \"contracts/solidity.series/Counter.sol\":4726:4737  plane.pop() */\n      dup1\n      sload\n      dup1\n      tag_36\n      jumpi\n      tag_36\n      tag_37\n      jump\t// in\n    tag_36:\n      0x01\n      swap1\n      sub\n      dup2\n      dup2\n      swap1\n      0x00\n      mstore\n      keccak256(0x00, 0x20)\n      add\n      0x00\n      swap1\n      sstore\n      swap1\n      sstore\n        /* \"contracts/solidity.series/Counter.sol\":4506:4744  function remove(uint256 _index) public {... */\n      pop\n      jump\t// out\n        /* \"contracts/solidity.series/Counter.sol\":4404:4500  function example() public {... */\n    tag_11:\n        /* \"contracts/solidity.series/Counter.sol\":4440:4457  plane = [1, 2, 3] */\n      0x40\n      dup1\n      mload\n      0x60\n      dup2\n      add\n      dup3\n      mstore\n        /* \"contracts/solidity.series/Counter.sol\":4449:4450  1 */\n      0x01\n        /* \"contracts/solidity.series/Counter.sol\":4440:4457  plane = [1, 2, 3] */\n      dup2\n      mstore\n        /* \"contracts/solidity.series/Counter.sol\":4452:4453  2 */\n      0x02\n        /* \"contracts/solidity.series/Counter.sol\":4440:4457  plane = [1, 2, 3] */\n      0x20\n      dup3\n      add\n      mstore\n        /* \"contracts/solidity.series/Counter.sol\":4455:4456  3 */\n      0x03\n        /* \"contracts/solidity.series/Counter.sol\":4440:4457  plane = [1, 2, 3] */\n      swap2\n      dup2\n      add\n      dup3\n      swap1\n      mstore\n      tag_40\n      swap2\n      0x00\n      swap2\n      swap1\n      tag_41\n      jump\t// in\n    tag_40:\n      pop\n        /* \"contracts/solidity.series/Counter.sol\":4474:4479  plane */\n      0x00\n        /* \"contracts/solidity.series/Counter.sol\":4480:4481  1 */\n      0x01\n        /* \"contracts/solidity.series/Counter.sol\":4474:4482  plane[1] */\n      dup2\n      sload\n      dup2\n      lt\n      tag_43\n      jumpi\n      tag_43\n      tag_30\n      jump\t// in\n    tag_43:\n      0x00\n      swap2\n      dup3\n      mstore\n      0x20\n      dup3\n      keccak256\n      add\n        /* \"contracts/solidity.series/Counter.sol\":4467:4482  delete plane[1] */\n      sstore\n        /* \"contracts/solidity.series/Counter.sol\":4404:4500  function example() public {... */\n      jump\t// out\n        /* \"contracts/solidity.series/Counter.sol\":4375:4397  uint256[] public plane */\n    tag_14:\n      0x00\n      dup2\n      dup2\n      sload\n      dup2\n      lt\n      tag_45\n      jumpi\n      0x00\n      dup1\n      revert\n    tag_45:\n      0x00\n      swap2\n      dup3\n      mstore\n      0x20\n      swap1\n      swap2\n      keccak256\n      add\n      sload\n      swap1\n      pop\n      dup2\n      jump\t// out\n    tag_41:\n      dup3\n      dup1\n      sload\n      dup3\n      dup3\n      sstore\n      swap1\n      0x00\n      mstore\n      keccak256(0x00, 0x20)\n      swap1\n      dup2\n      add\n      swap3\n      dup3\n      iszero\n      tag_49\n      jumpi\n      swap2\n      0x20\n      mul\n      dup3\n      add\n    tag_48:\n      dup3\n      dup2\n      gt\n      iszero\n      tag_49\n      jumpi\n      dup3\n      mload\n      dup3\n      swap1\n      0xff\n      and\n      swap1\n      sstore\n      swap2\n      0x20\n      add\n      swap2\n      swap1\n      0x01\n      add\n      swap1\n      jump(tag_48)\n    tag_49:\n      pop\n      tag_50\n      swap3\n      swap2\n      pop\n      tag_51\n      jump\t// in\n    tag_50:\n      pop\n      swap1\n      jump\t// out\n    tag_51:\n    tag_52:\n      dup1\n      dup3\n      gt\n      iszero\n      tag_50\n      jumpi\n      0x00\n      dup2\n      sstore\n      0x01\n      add\n      jump(tag_52)\n        /* \"#utility.yul\":14:194   */\n    tag_8:\n        /* \"#utility.yul\":73:79   */\n      0x00\n        /* \"#utility.yul\":126:128   */\n      0x20\n        /* \"#utility.yul\":114:123   */\n      dup3\n        /* \"#utility.yul\":105:112   */\n      dup5\n        /* \"#utility.yul\":101:124   */\n      sub\n        /* \"#utility.yul\":97:129   */\n      slt\n        /* \"#utility.yul\":94:146   */\n      iszero\n      tag_57\n      jumpi\n        /* \"#utility.yul\":142:143   */\n      0x00\n        /* \"#utility.yul\":139:140   */\n      dup1\n        /* \"#utility.yul\":132:144   */\n      revert\n        /* \"#utility.yul\":94:146   */\n    tag_57:\n      pop\n        /* \"#utility.yul\":165:188   */\n      calldataload\n      swap2\n        /* \"#utility.yul\":14:194   */\n      swap1\n      pop\n      jump\t// out\n        /* \"#utility.yul\":728:855   */\n    tag_54:\n        /* \"#utility.yul\":789:799   */\n      0x4e487b71\n        /* \"#utility.yul\":784:787   */\n      0xe0\n        /* \"#utility.yul\":780:800   */\n      shl\n        /* \"#utility.yul\":777:778   */\n      0x00\n        /* \"#utility.yul\":770:801   */\n      mstore\n        /* \"#utility.yul\":820:824   */\n      0x11\n        /* \"#utility.yul\":817:818   */\n      0x04\n        /* \"#utility.yul\":810:825   */\n      mstore\n        /* \"#utility.yul\":844:848   */\n      0x24\n        /* \"#utility.yul\":841:842   */\n      0x00\n        /* \"#utility.yul\":834:849   */\n      revert\n        /* \"#utility.yul\":860:988   */\n    tag_25:\n        /* \"#utility.yul\":927:936   */\n      dup2\n      dup2\n      sub\n        /* \"#utility.yul\":948:959   */\n      dup2\n      dup2\n      gt\n        /* \"#utility.yul\":945:982   */\n      iszero\n      tag_63\n      jumpi\n        /* \"#utility.yul\":962:980   */\n      tag_63\n      tag_54\n      jump\t// in\n    tag_63:\n        /* \"#utility.yul\":860:988   */\n      swap3\n      swap2\n      pop\n      pop\n      jump\t// out\n        /* \"#utility.yul\":993:1118   */\n    tag_27:\n        /* \"#utility.yul\":1058:1067   */\n      dup1\n      dup3\n      add\n        /* \"#utility.yul\":1079:1089   */\n      dup1\n      dup3\n      gt\n        /* \"#utility.yul\":1076:1112   */\n      iszero\n      tag_63\n      jumpi\n        /* \"#utility.yul\":1092:1110   */\n      tag_63\n      tag_54\n      jump\t// in\n        /* \"#utility.yul\":1123:1250   */\n    tag_30:\n        /* \"#utility.yul\":1184:1194   */\n      0x4e487b71\n        /* \"#utility.yul\":1179:1182   */\n      0xe0\n        /* \"#utility.yul\":1175:1195   */\n      shl\n        /* \"#utility.yul\":1172:1173   */\n      0x00\n        /* \"#utility.yul\":1165:1196   */\n      mstore\n        /* \"#utility.yul\":1215:1219   */\n      0x32\n        /* \"#utility.yul\":1212:1213   */\n      0x04\n        /* \"#utility.yul\":1205:1220   */\n      mstore\n        /* \"#utility.yul\":1239:1243   */\n      0x24\n        /* \"#utility.yul\":1236:1237   */\n      0x00\n        /* \"#utility.yul\":1229:1244   */\n      revert\n        /* \"#utility.yul\":1255:1382   */\n    tag_37:\n        /* \"#utility.yul\":1316:1326   */\n      0x4e487b71\n        /* \"#utility.yul\":1311:1314   */\n      0xe0\n        /* \"#utility.yul\":1307:1327   */\n      shl\n        /* \"#utility.yul\":1304:1305   */\n      0x00\n        /* \"#utility.yul\":1297:1328   */\n      mstore\n        /* \"#utility.yul\":1347:1351   */\n      0x31\n        /* \"#utility.yul\":1344:1345   */\n      0x04\n        /* \"#utility.yul\":1337:1352   */\n      mstore\n        /* \"#utility.yul\":1371:1375   */\n      0x24\n        /* \"#utility.yul\":1368:1369   */\n      0x00\n        /* \"#utility.yul\":1361:1376   */\n      revert\n\n    auxdata: 0xa2646970667358221220c48ecbf2f183e57dff278b9878e7c31c6a1f22570ca7d28fbc877bb24d25ccc464736f6c63430008160033\n}\n",
				"bytecode": {
					"linkReferences": {},
					"object": "608060405234801561000f575f80fd5b506102d48061001d5f395ff3fe608060405234801561000f575f80fd5b506004361061003f575f3560e01c80634cc822151461004357806354353f2f14610058578063d2269f9a14610060575b5f80fd5b61005661005136600461021f565b610085565b005b610056610156565b61007361006e36600461021f565b61019f565b60405190815260200160405180910390f35b5f5481106100ce5760405162461bcd60e51b8152602060048201526012602482015271125b99195e081bdd5d081bd988189bdd5b9960721b604482015260640160405180910390fd5b805b5f546100de9060019061024a565b81101561012f575f6100f1826001610263565b8154811061010157610101610276565b905f5260205f2001545f828154811061011c5761011c610276565b5f918252602090912001556001016100d0565b505f8054806101405761014061028a565b600190038181905f5260205f20015f9055905550565b604080516060810182526001815260026020820152600391810182905261017f915f91906101bd565b505f60018154811061019357610193610276565b5f918252602082200155565b5f81815481106101ad575f80fd5b5f91825260209091200154905081565b828054828255905f5260205f209081019282156101fb579160200282015b828111156101fb578251829060ff169055916020019190600101906101db565b5061020792915061020b565b5090565b5b80821115610207575f815560010161020c565b5f6020828403121561022f575f80fd5b5035919050565b634e487b7160e01b5f52601160045260245ffd5b8181038181111561025d5761025d610236565b92915050565b8082018082111561025d5761025d610236565b634e487b7160e01b5f52603260045260245ffd5b634e487b7160e01b5f52603160045260245ffdfea2646970667358221220c48ecbf2f183e57dff278b9878e7c31c6a1f22570ca7d28fbc877bb24d25ccc464736f6c63430008160033",
					"opcodes": "PUSH1 0x80 PUSH1 0x40 MSTORE CALLVALUE DUP1 ISZERO PUSH2 0xF JUMPI PUSH0 DUP1 REVERT JUMPDEST POP PUSH2 0x2D4 DUP1 PUSH2 0x1D PUSH0 CODECOPY PUSH0 RETURN INVALID PUSH1 0x80 PUSH1 0x40 MSTORE CALLVALUE DUP1 ISZERO PUSH2 0xF JUMPI PUSH0 DUP1 REVERT JUMPDEST POP PUSH1 0x4 CALLDATASIZE LT PUSH2 0x3F JUMPI PUSH0 CALLDATALOAD PUSH1 0xE0 SHR DUP1 PUSH4 0x4CC82215 EQ PUSH2 0x43 JUMPI DUP1 PUSH4 0x54353F2F EQ PUSH2 0x58 JUMPI DUP1 PUSH4 0xD2269F9A EQ PUSH2 0x60 JUMPI JUMPDEST PUSH0 DUP1 REVERT JUMPDEST PUSH2 0x56 PUSH2 0x51 CALLDATASIZE PUSH1 0x4 PUSH2 0x21F JUMP JUMPDEST PUSH2 0x85 JUMP JUMPDEST STOP JUMPDEST PUSH2 0x56 PUSH2 0x156 JUMP JUMPDEST PUSH2 0x73 PUSH2 0x6E CALLDATASIZE PUSH1 0x4 PUSH2 0x21F JUMP JUMPDEST PUSH2 0x19F JUMP JUMPDEST PUSH1 0x40 MLOAD SWAP1 DUP2 MSTORE PUSH1 0x20 ADD PUSH1 0x40 MLOAD DUP1 SWAP2 SUB SWAP1 RETURN JUMPDEST PUSH0 SLOAD DUP2 LT PUSH2 0xCE JUMPI PUSH1 0x40 MLOAD PUSH3 0x461BCD PUSH1 0xE5 SHL DUP2 MSTORE PUSH1 0x20 PUSH1 0x4 DUP3 ADD MSTORE PUSH1 0x12 PUSH1 0x24 DUP3 ADD MSTORE PUSH18 0x125B99195E081BDD5D081BD988189BDD5B99 PUSH1 0x72 SHL PUSH1 0x44 DUP3 ADD MSTORE PUSH1 0x64 ADD PUSH1 0x40 MLOAD DUP1 SWAP2 SUB SWAP1 REVERT JUMPDEST DUP1 JUMPDEST PUSH0 SLOAD PUSH2 0xDE SWAP1 PUSH1 0x1 SWAP1 PUSH2 0x24A JUMP JUMPDEST DUP2 LT ISZERO PUSH2 0x12F JUMPI PUSH0 PUSH2 0xF1 DUP3 PUSH1 0x1 PUSH2 0x263 JUMP JUMPDEST DUP2 SLOAD DUP2 LT PUSH2 0x101 JUMPI PUSH2 0x101 PUSH2 0x276 JUMP JUMPDEST SWAP1 PUSH0 MSTORE PUSH1 0x20 PUSH0 KECCAK256 ADD SLOAD PUSH0 DUP3 DUP2 SLOAD DUP2 LT PUSH2 0x11C JUMPI PUSH2 0x11C PUSH2 0x276 JUMP JUMPDEST PUSH0 SWAP2 DUP3 MSTORE PUSH1 0x20 SWAP1 SWAP2 KECCAK256 ADD SSTORE PUSH1 0x1 ADD PUSH2 0xD0 JUMP JUMPDEST POP PUSH0 DUP1 SLOAD DUP1 PUSH2 0x140 JUMPI PUSH2 0x140 PUSH2 0x28A JUMP JUMPDEST PUSH1 0x1 SWAP1 SUB DUP2 DUP2 SWAP1 PUSH0 MSTORE PUSH1 0x20 PUSH0 KECCAK256 ADD PUSH0 SWAP1 SSTORE SWAP1 SSTORE POP JUMP JUMPDEST PUSH1 0x40 DUP1 MLOAD PUSH1 0x60 DUP2 ADD DUP3 MSTORE PUSH1 0x1 DUP2 MSTORE PUSH1 0x2 PUSH1 0x20 DUP3 ADD MSTORE PUSH1 0x3 SWAP2 DUP2 ADD DUP3 SWAP1 MSTORE PUSH2 0x17F SWAP2 PUSH0 SWAP2 SWAP1 PUSH2 0x1BD JUMP JUMPDEST POP PUSH0 PUSH1 0x1 DUP2 SLOAD DUP2 LT PUSH2 0x193 JUMPI PUSH2 0x193 PUSH2 0x276 JUMP JUMPDEST PUSH0 SWAP2 DUP3 MSTORE PUSH1 0x20 DUP3 KECCAK256 ADD SSTORE JUMP JUMPDEST PUSH0 DUP2 DUP2 SLOAD DUP2 LT PUSH2 0x1AD JUMPI PUSH0 DUP1 REVERT JUMPDEST PUSH0 SWAP2 DUP3 MSTORE PUSH1 0x20 SWAP1 SWAP2 KECCAK256 ADD SLOAD SWAP1 POP DUP2 JUMP JUMPDEST DUP3 DUP1 SLOAD DUP3 DUP3 SSTORE SWAP1 PUSH0 MSTORE PUSH1 0x20 PUSH0 KECCAK256 SWAP1 DUP2 ADD SWAP3 DUP3 ISZERO PUSH2 0x1FB JUMPI SWAP2 PUSH1 0x20 MUL DUP3 ADD JUMPDEST DUP3 DUP2 GT ISZERO PUSH2 0x1FB JUMPI DUP3 MLOAD DUP3 SWAP1 PUSH1 0xFF AND SWAP1 SSTORE SWAP2 PUSH1 0x20 ADD SWAP2 SWAP1 PUSH1 0x1 ADD SWAP1 PUSH2 0x1DB JUMP JUMPDEST POP PUSH2 0x207 SWAP3 SWAP2 POP PUSH2 0x20B JUMP JUMPDEST POP SWAP1 JUMP JUMPDEST JUMPDEST DUP1 DUP3 GT ISZERO PUSH2 0x207 JUMPI PUSH0 DUP2 SSTORE PUSH1 0x1 ADD PUSH2 0x20C JUMP JUMPDEST PUSH0 PUSH1 0x20 DUP3 DUP5 SUB SLT ISZERO PUSH2 0x22F JUMPI PUSH0 DUP1 REVERT JUMPDEST POP CALLDATALOAD SWAP2 SWAP1 POP JUMP JUMPDEST PUSH4 0x4E487B71 PUSH1 0xE0 SHL PUSH0 MSTORE PUSH1 0x11 PUSH1 0x4 MSTORE PUSH1 0x24 PUSH0 REVERT JUMPDEST DUP2 DUP2 SUB DUP2 DUP2 GT ISZERO PUSH2 0x25D JUMPI PUSH2 0x25D PUSH2 0x236 JUMP JUMPDEST SWAP3 SWAP2 POP POP JUMP JUMPDEST DUP1 DUP3 ADD DUP1 DUP3 GT ISZERO PUSH2 0x25D JUMPI PUSH2 0x25D PUSH2 0x236 JUMP JUMPDEST PUSH4 0x4E487B71 PUSH1 0xE0 SHL PUSH0 MSTORE PUSH1 0x32 PUSH1 0x4 MSTORE PUSH1 0x24 PUSH0 REVERT JUMPDEST PUSH4 0x4E487B71 PUSH1 0xE0 SHL PUSH0 MSTORE PUSH1 0x31 PUSH1 0x4 MSTORE PUSH1 0x24 PUSH0 REVERT INVALID LOG2 PUSH5 0x6970667358 0x22 SLT KECCAK256 0xC4 DUP15 0xCB CALLCODE CALL DUP4 0xE5 PUSH30 0xFF278B9878E7C31C6A1F22570CA7D28FBC877BB24D25CCC464736F6C6343 STOP ADDMOD AND STOP CALLER "
				},
				"gasEstimates": {
					"creation": {
						"codeDepositCost": "144800",
						"executionCost": "188",
						"totalCost": "144988"
					},
					"external": {
						"example()": "infinite",
						"plane(uint256)": "4581",
						"remove(uint256)": "infinite"
					}
				},
				"methodIdentifiers": {
					"example()": "54353f2f",
					"plane(uint256)": "d2269f9a",
					"remove(uint256)": "4cc82215"
				}
			},
			"storageLayout": {
				"storage": [
					{
						"astId": 369,
						"contract": "contracts/solidity.series/Counter.sol:ArrayShift",
						"label": "plane",
						"offset": 0,
						"slot": "0",
						"type": "t_array(t_uint256)dyn_storage"
					}
				],
				"types": {
					"t_array(t_uint256)dyn_storage": {
						"base": "t_uint256",
						"encoding": "dynamic_array",
						"label": "uint256[]",
						"numberOfBytes": "32"
					},
					"t_uint256": {
						"encoding": "inplace",
						"label": "uint256",
						"numberOfBytes": "32"
					}
				}
			},
			"userdoc": {
				"kind": "user",
				"methods": {},
				"version": 1
			}
		}
	}
}