{
	"contracts/solidity.series/Counter.sol": {
		"ArrayReplaceLast": {
			"abi": [
				{
					"inputs": [
						{
							"internalType": "uint256",
							"name": "",
							"type": "uint256"
						}
					],
					"name": "array",
					"outputs": [
						{
							"internalType": "uint256",
							"name": "",
							"type": "uint256"
						}
					],
					"stateMutability": "view",
					"type": "function"
				},
				{
					"inputs": [
						{
							"internalType": "uint256",
							"name": "_index",
							"type": "uint256"
						}
					],
					"name": "replace",
					"outputs": [],
					"stateMutability": "nonpayable",
					"type": "function"
				},
				{
					"inputs": [],
					"name": "test",
					"outputs": [
						{
							"internalType": "uint256[]",
							"name": "",
							"type": "uint256[]"
						}
					],
					"stateMutability": "nonpayable",
					"type": "function"
				}
			],
			"devdoc": {
				"kind": "dev",
				"methods": {},
				"version": 1
			},
			"evm": {
				"assembly": "    /* \"contracts/solidity.series/Counter.sol\":4748:5050  contract ArrayReplaceLast{... */\n  mstore(0x40, 0x80)\n  callvalue\n  dup1\n  iszero\n  tag_1\n  jumpi\n  0x00\n  dup1\n  revert\ntag_1:\n  pop\n  dataSize(sub_0)\n  dup1\n  dataOffset(sub_0)\n  0x00\n  codecopy\n  0x00\n  return\nstop\n\nsub_0: assembly {\n        /* \"contracts/solidity.series/Counter.sol\":4748:5050  contract ArrayReplaceLast{... */\n      mstore(0x40, 0x80)\n      callvalue\n      dup1\n      iszero\n      tag_1\n      jumpi\n      0x00\n      dup1\n      revert\n    tag_1:\n      pop\n      jumpi(tag_2, lt(calldatasize, 0x04))\n      shr(0xe0, calldataload(0x00))\n      dup1\n      0x38d94193\n      eq\n      tag_3\n      jumpi\n      dup1\n      0xd0c1d7fc\n      eq\n      tag_4\n      jumpi\n      dup1\n      0xf8a8fd6d\n      eq\n      tag_5\n      jumpi\n    tag_2:\n      0x00\n      dup1\n      revert\n        /* \"contracts/solidity.series/Counter.sol\":4779:4798  uint[] public array */\n    tag_3:\n      tag_6\n      tag_7\n      calldatasize\n      0x04\n      tag_8\n      jump\t// in\n    tag_7:\n      tag_9\n      jump\t// in\n    tag_6:\n      mload(0x40)\n        /* \"#utility.yul\":345:370   */\n      swap1\n      dup2\n      mstore\n        /* \"#utility.yul\":333:335   */\n      0x20\n        /* \"#utility.yul\":318:336   */\n      add\n        /* \"contracts/solidity.series/Counter.sol\":4779:4798  uint[] public array */\n    tag_10:\n      mload(0x40)\n      dup1\n      swap2\n      sub\n      swap1\n      return\n        /* \"contracts/solidity.series/Counter.sol\":4804:4917  function replace(uint _index) public{... */\n    tag_4:\n      tag_12\n      tag_13\n      calldatasize\n      0x04\n      tag_8\n      jump\t// in\n    tag_13:\n      tag_14\n      jump\t// in\n    tag_12:\n      stop\n        /* \"contracts/solidity.series/Counter.sol\":4922:5048  function test() external returns(uint[] memory){... */\n    tag_5:\n      tag_15\n      tag_16\n      jump\t// in\n    tag_15:\n      mload(0x40)\n      tag_10\n      swap2\n      swap1\n      tag_18\n      jump\t// in\n        /* \"contracts/solidity.series/Counter.sol\":4779:4798  uint[] public array */\n    tag_9:\n      0x00\n      dup2\n      dup2\n      sload\n      dup2\n      lt\n      tag_19\n      jumpi\n      0x00\n      dup1\n      revert\n    tag_19:\n      0x00\n      swap2\n      dup3\n      mstore\n      0x20\n      swap1\n      swap2\n      keccak256\n      add\n      sload\n      swap1\n      pop\n      dup2\n      jump\t// out\n        /* \"contracts/solidity.series/Counter.sol\":4804:4917  function replace(uint _index) public{... */\n    tag_14:\n        /* \"contracts/solidity.series/Counter.sol\":4866:4871  array */\n      0x00\n        /* \"contracts/solidity.series/Counter.sol\":4872:4884  array.length */\n      dup1\n      sload\n        /* \"contracts/solidity.series/Counter.sol\":4872:4888  array.length - 1 */\n      tag_22\n      swap1\n        /* \"contracts/solidity.series/Counter.sol\":4887:4888  1 */\n      0x01\n      swap1\n        /* \"contracts/solidity.series/Counter.sol\":4872:4888  array.length - 1 */\n      tag_23\n      jump\t// in\n    tag_22:\n        /* \"contracts/solidity.series/Counter.sol\":4866:4889  array[array.length - 1] */\n      dup2\n      sload\n      dup2\n      lt\n      tag_25\n      jumpi\n      tag_25\n      tag_26\n      jump\t// in\n    tag_25:\n      swap1\n      0x00\n      mstore\n      keccak256(0x00, 0x20)\n      add\n      sload\n        /* \"contracts/solidity.series/Counter.sol\":4850:4855  array */\n      0x00\n        /* \"contracts/solidity.series/Counter.sol\":4856:4862  _index */\n      dup3\n        /* \"contracts/solidity.series/Counter.sol\":4850:4863  array[_index] */\n      dup2\n      sload\n      dup2\n      lt\n      tag_29\n      jumpi\n      tag_29\n      tag_26\n      jump\t// in\n    tag_29:\n      swap1\n      0x00\n      mstore\n      keccak256(0x00, 0x20)\n      add\n        /* \"contracts/solidity.series/Counter.sol\":4850:4889  array[_index] = array[array.length - 1] */\n      dup2\n      swap1\n      sstore\n      pop\n        /* \"contracts/solidity.series/Counter.sol\":4899:4904  array */\n      0x00\n        /* \"contracts/solidity.series/Counter.sol\":4899:4910  array.pop() */\n      dup1\n      sload\n      dup1\n      tag_32\n      jumpi\n      tag_32\n      tag_33\n      jump\t// in\n    tag_32:\n      0x01\n      swap1\n      sub\n      dup2\n      dup2\n      swap1\n      0x00\n      mstore\n      keccak256(0x00, 0x20)\n      add\n      0x00\n      swap1\n      sstore\n      swap1\n      sstore\n        /* \"contracts/solidity.series/Counter.sol\":4804:4917  function replace(uint _index) public{... */\n      pop\n      jump\t// out\n        /* \"contracts/solidity.series/Counter.sol\":4922:5048  function test() external returns(uint[] memory){... */\n    tag_16:\n        /* \"contracts/solidity.series/Counter.sol\":4979:4998  array = [1,2,3,4,5] */\n      0x40\n      dup1\n      mload\n      0xa0\n      dup2\n      add\n      dup3\n      mstore\n        /* \"contracts/solidity.series/Counter.sol\":4988:4989  1 */\n      0x01\n        /* \"contracts/solidity.series/Counter.sol\":4979:4998  array = [1,2,3,4,5] */\n      dup2\n      mstore\n        /* \"contracts/solidity.series/Counter.sol\":4990:4991  2 */\n      0x02\n        /* \"contracts/solidity.series/Counter.sol\":4979:4998  array = [1,2,3,4,5] */\n      0x20\n      dup3\n      add\n      mstore\n        /* \"contracts/solidity.series/Counter.sol\":4992:4993  3 */\n      0x03\n        /* \"contracts/solidity.series/Counter.sol\":4979:4998  array = [1,2,3,4,5] */\n      swap2\n      dup2\n      add\n      swap2\n      swap1\n      swap2\n      mstore\n        /* \"contracts/solidity.series/Counter.sol\":4994:4995  4 */\n      0x04\n        /* \"contracts/solidity.series/Counter.sol\":4955:4968  uint[] memory */\n      0x60\n        /* \"contracts/solidity.series/Counter.sol\":4979:4998  array = [1,2,3,4,5] */\n      dup3\n      dup2\n      add\n      swap2\n      swap1\n      swap2\n      mstore\n        /* \"contracts/solidity.series/Counter.sol\":4996:4997  5 */\n      0x05\n        /* \"contracts/solidity.series/Counter.sol\":4979:4998  array = [1,2,3,4,5] */\n      0x80\n      dup4\n      add\n      dup2\n      swap1\n      mstore\n        /* \"contracts/solidity.series/Counter.sol\":4955:4968  uint[] memory */\n      swap1\n      swap2\n        /* \"contracts/solidity.series/Counter.sol\":4979:4998  array = [1,2,3,4,5] */\n      tag_36\n      swap2\n      0x00\n      swap2\n      swap1\n      tag_37\n      jump\t// in\n    tag_36:\n      pop\n        /* \"contracts/solidity.series/Counter.sol\":5008:5018  replace(1) */\n      tag_38\n        /* \"contracts/solidity.series/Counter.sol\":5016:5017  1 */\n      0x01\n        /* \"contracts/solidity.series/Counter.sol\":5008:5015  replace */\n      tag_14\n        /* \"contracts/solidity.series/Counter.sol\":5008:5018  replace(1) */\n      jump\t// in\n    tag_38:\n        /* \"contracts/solidity.series/Counter.sol\":5035:5040  array */\n      0x00\n        /* \"contracts/solidity.series/Counter.sol\":5028:5041  return(array) */\n      dup1\n      sload\n      dup1\n      0x20\n      mul\n      0x20\n      add\n      mload(0x40)\n      swap1\n      dup2\n      add\n      0x40\n      mstore\n      dup1\n      swap3\n      swap2\n      swap1\n      dup2\n      dup2\n      mstore\n      0x20\n      add\n      dup3\n      dup1\n      sload\n      dup1\n      iszero\n      tag_39\n      jumpi\n      0x20\n      mul\n      dup3\n      add\n      swap2\n      swap1\n      0x00\n      mstore\n      keccak256(0x00, 0x20)\n      swap1\n    tag_40:\n      dup2\n      sload\n      dup2\n      mstore\n      0x20\n      add\n      swap1\n      0x01\n      add\n      swap1\n      dup1\n      dup4\n      gt\n      tag_40\n      jumpi\n    tag_39:\n      pop\n      pop\n      pop\n      pop\n      pop\n      swap1\n      pop\n        /* \"contracts/solidity.series/Counter.sol\":4922:5048  function test() external returns(uint[] memory){... */\n      swap1\n      jump\t// out\n    tag_37:\n      dup3\n      dup1\n      sload\n      dup3\n      dup3\n      sstore\n      swap1\n      0x00\n      mstore\n      keccak256(0x00, 0x20)\n      swap1\n      dup2\n      add\n      swap3\n      dup3\n      iszero\n      tag_43\n      jumpi\n      swap2\n      0x20\n      mul\n      dup3\n      add\n    tag_42:\n      dup3\n      dup2\n      gt\n      iszero\n      tag_43\n      jumpi\n      dup3\n      mload\n      dup3\n      swap1\n      0xff\n      and\n      swap1\n      sstore\n      swap2\n      0x20\n      add\n      swap2\n      swap1\n      0x01\n      add\n      swap1\n      jump(tag_42)\n    tag_43:\n      pop\n      tag_44\n      swap3\n      swap2\n      pop\n      tag_45\n      jump\t// in\n    tag_44:\n      pop\n      swap1\n      jump\t// out\n    tag_45:\n    tag_46:\n      dup1\n      dup3\n      gt\n      iszero\n      tag_44\n      jumpi\n      0x00\n      dup2\n      sstore\n      0x01\n      add\n      jump(tag_46)\n        /* \"#utility.yul\":14:194   */\n    tag_8:\n        /* \"#utility.yul\":73:79   */\n      0x00\n        /* \"#utility.yul\":126:128   */\n      0x20\n        /* \"#utility.yul\":114:123   */\n      dup3\n        /* \"#utility.yul\":105:112   */\n      dup5\n        /* \"#utility.yul\":101:124   */\n      sub\n        /* \"#utility.yul\":97:129   */\n      slt\n        /* \"#utility.yul\":94:146   */\n      iszero\n      tag_50\n      jumpi\n        /* \"#utility.yul\":142:143   */\n      0x00\n        /* \"#utility.yul\":139:140   */\n      dup1\n        /* \"#utility.yul\":132:144   */\n      revert\n        /* \"#utility.yul\":94:146   */\n    tag_50:\n      pop\n        /* \"#utility.yul\":165:188   */\n      calldataload\n      swap2\n        /* \"#utility.yul\":14:194   */\n      swap1\n      pop\n      jump\t// out\n        /* \"#utility.yul\":381:1013   */\n    tag_18:\n        /* \"#utility.yul\":552:554   */\n      0x20\n        /* \"#utility.yul\":604:625   */\n      dup1\n      dup3\n      mstore\n        /* \"#utility.yul\":674:687   */\n      dup3\n      mload\n        /* \"#utility.yul\":577:595   */\n      dup3\n      dup3\n      add\n        /* \"#utility.yul\":696:718   */\n      dup2\n      swap1\n      mstore\n        /* \"#utility.yul\":523:527   */\n      0x00\n      swap2\n        /* \"#utility.yul\":552:554   */\n      swap1\n        /* \"#utility.yul\":775:790   */\n      dup5\n      dup3\n      add\n      swap1\n        /* \"#utility.yul\":749:751   */\n      0x40\n        /* \"#utility.yul\":734:752   */\n      dup6\n      add\n      swap1\n        /* \"#utility.yul\":523:527   */\n      dup5\n        /* \"#utility.yul\":818:987   */\n    tag_53:\n        /* \"#utility.yul\":832:838   */\n      dup2\n        /* \"#utility.yul\":829:830   */\n      dup2\n        /* \"#utility.yul\":826:839   */\n      lt\n        /* \"#utility.yul\":818:987   */\n      iszero\n      tag_55\n      jumpi\n        /* \"#utility.yul\":893:906   */\n      dup4\n      mload\n        /* \"#utility.yul\":881:907   */\n      dup4\n      mstore\n        /* \"#utility.yul\":962:977   */\n      swap3\n      dup5\n      add\n      swap3\n        /* \"#utility.yul\":927:939   */\n      swap2\n      dup5\n      add\n      swap2\n        /* \"#utility.yul\":854:855   */\n      0x01\n        /* \"#utility.yul\":847:856   */\n      add\n        /* \"#utility.yul\":818:987   */\n      jump(tag_53)\n    tag_55:\n      pop\n        /* \"#utility.yul\":1004:1007   */\n      swap1\n      swap7\n        /* \"#utility.yul\":381:1013   */\n      swap6\n      pop\n      pop\n      pop\n      pop\n      pop\n      pop\n      jump\t// out\n        /* \"#utility.yul\":1018:1243   */\n    tag_23:\n        /* \"#utility.yul\":1085:1094   */\n      dup2\n      dup2\n      sub\n        /* \"#utility.yul\":1106:1117   */\n      dup2\n      dup2\n      gt\n        /* \"#utility.yul\":1103:1237   */\n      iszero\n      tag_57\n      jumpi\n        /* \"#utility.yul\":1159:1169   */\n      0x4e487b71\n        /* \"#utility.yul\":1154:1157   */\n      0xe0\n        /* \"#utility.yul\":1150:1170   */\n      shl\n        /* \"#utility.yul\":1147:1148   */\n      0x00\n        /* \"#utility.yul\":1140:1171   */\n      mstore\n        /* \"#utility.yul\":1194:1198   */\n      0x11\n        /* \"#utility.yul\":1191:1192   */\n      0x04\n        /* \"#utility.yul\":1184:1199   */\n      mstore\n        /* \"#utility.yul\":1222:1226   */\n      0x24\n        /* \"#utility.yul\":1219:1220   */\n      0x00\n        /* \"#utility.yul\":1212:1227   */\n      revert\n        /* \"#utility.yul\":1103:1237   */\n    tag_57:\n        /* \"#utility.yul\":1018:1243   */\n      swap3\n      swap2\n      pop\n      pop\n      jump\t// out\n        /* \"#utility.yul\":1248:1375   */\n    tag_26:\n        /* \"#utility.yul\":1309:1319   */\n      0x4e487b71\n        /* \"#utility.yul\":1304:1307   */\n      0xe0\n        /* \"#utility.yul\":1300:1320   */\n      shl\n        /* \"#utility.yul\":1297:1298   */\n      0x00\n        /* \"#utility.yul\":1290:1321   */\n      mstore\n        /* \"#utility.yul\":1340:1344   */\n      0x32\n        /* \"#utility.yul\":1337:1338   */\n      0x04\n        /* \"#utility.yul\":1330:1345   */\n      mstore\n        /* \"#utility.yul\":1364:1368   */\n      0x24\n        /* \"#utility.yul\":1361:1362   */\n      0x00\n        /* \"#utility.yul\":1354:1369   */\n      revert\n        /* \"#utility.yul\":1380:1507   */\n    tag_33:\n        /* \"#utility.yul\":1441:1451   */\n      0x4e487b71\n        /* \"#utility.yul\":1436:1439   */\n      0xe0\n        /* \"#utility.yul\":1432:1452   */\n      shl\n        /* \"#utility.yul\":1429:1430   */\n      0x00\n        /* \"#utility.yul\":1422:1453   */\n      mstore\n        /* \"#utility.yul\":1472:1476   */\n      0x31\n        /* \"#utility.yul\":1469:1470   */\n      0x04\n        /* \"#utility.yul\":1462:1477   */\n      mstore\n        /* \"#utility.yul\":1496:1500   */\n      0x24\n        /* \"#utility.yul\":1493:1494   */\n      0x00\n        /* \"#utility.yul\":1486:1501   */\n      revert\n\n    auxdata: 0xa26469706673582212201151b5d261d2f7aabfe6a3d85186e090609d39934162927ce96a7ac9a6f7b1fd64736f6c63430008170033\n}\n",
				"bytecode": {
					"linkReferences": {},
					"object": "608060405234801561000f575f80fd5b506102fa8061001d5f395ff3fe608060405234801561000f575f80fd5b506004361061003f575f3560e01c806338d9419314610043578063d0c1d7fc14610069578063f8a8fd6d1461007e575b5f80fd5b61005661005136600461021d565b610093565b6040519081526020015b60405180910390f35b61007c61007736600461021d565b6100b1565b005b61008661011d565b6040516100609190610234565b5f81815481106100a1575f80fd5b5f91825260209091200154905081565b5f80546100c090600190610277565b815481106100d0576100d061029c565b905f5260205f2001545f82815481106100eb576100eb61029c565b905f5260205f2001819055505f805480610107576101076102b0565b600190038181905f5260205f20015f9055905550565b6040805160a08101825260018152600260208201526003918101919091526004606082810191909152600560808301819052909161015d915f91906101bb565b5061016860016100b1565b5f8054806020026020016040519081016040528092919081815260200182805480156101b157602002820191905f5260205f20905b81548152602001906001019080831161019d575b5050505050905090565b828054828255905f5260205f209081019282156101f9579160200282015b828111156101f9578251829060ff169055916020019190600101906101d9565b50610205929150610209565b5090565b5b80821115610205575f815560010161020a565b5f6020828403121561022d575f80fd5b5035919050565b602080825282518282018190525f9190848201906040850190845b8181101561026b5783518352928401929184019160010161024f565b50909695505050505050565b8181038181111561029657634e487b7160e01b5f52601160045260245ffd5b92915050565b634e487b7160e01b5f52603260045260245ffd5b634e487b7160e01b5f52603160045260245ffdfea26469706673582212201151b5d261d2f7aabfe6a3d85186e090609d39934162927ce96a7ac9a6f7b1fd64736f6c63430008170033",
					"opcodes": "PUSH1 0x80 PUSH1 0x40 MSTORE CALLVALUE DUP1 ISZERO PUSH2 0xF JUMPI PUSH0 DUP1 REVERT JUMPDEST POP PUSH2 0x2FA DUP1 PUSH2 0x1D PUSH0 CODECOPY PUSH0 RETURN INVALID PUSH1 0x80 PUSH1 0x40 MSTORE CALLVALUE DUP1 ISZERO PUSH2 0xF JUMPI PUSH0 DUP1 REVERT JUMPDEST POP PUSH1 0x4 CALLDATASIZE LT PUSH2 0x3F JUMPI PUSH0 CALLDATALOAD PUSH1 0xE0 SHR DUP1 PUSH4 0x38D94193 EQ PUSH2 0x43 JUMPI DUP1 PUSH4 0xD0C1D7FC EQ PUSH2 0x69 JUMPI DUP1 PUSH4 0xF8A8FD6D EQ PUSH2 0x7E JUMPI JUMPDEST PUSH0 DUP1 REVERT JUMPDEST PUSH2 0x56 PUSH2 0x51 CALLDATASIZE PUSH1 0x4 PUSH2 0x21D JUMP JUMPDEST PUSH2 0x93 JUMP JUMPDEST PUSH1 0x40 MLOAD SWAP1 DUP2 MSTORE PUSH1 0x20 ADD JUMPDEST PUSH1 0x40 MLOAD DUP1 SWAP2 SUB SWAP1 RETURN JUMPDEST PUSH2 0x7C PUSH2 0x77 CALLDATASIZE PUSH1 0x4 PUSH2 0x21D JUMP JUMPDEST PUSH2 0xB1 JUMP JUMPDEST STOP JUMPDEST PUSH2 0x86 PUSH2 0x11D JUMP JUMPDEST PUSH1 0x40 MLOAD PUSH2 0x60 SWAP2 SWAP1 PUSH2 0x234 JUMP JUMPDEST PUSH0 DUP2 DUP2 SLOAD DUP2 LT PUSH2 0xA1 JUMPI PUSH0 DUP1 REVERT JUMPDEST PUSH0 SWAP2 DUP3 MSTORE PUSH1 0x20 SWAP1 SWAP2 KECCAK256 ADD SLOAD SWAP1 POP DUP2 JUMP JUMPDEST PUSH0 DUP1 SLOAD PUSH2 0xC0 SWAP1 PUSH1 0x1 SWAP1 PUSH2 0x277 JUMP JUMPDEST DUP2 SLOAD DUP2 LT PUSH2 0xD0 JUMPI PUSH2 0xD0 PUSH2 0x29C JUMP JUMPDEST SWAP1 PUSH0 MSTORE PUSH1 0x20 PUSH0 KECCAK256 ADD SLOAD PUSH0 DUP3 DUP2 SLOAD DUP2 LT PUSH2 0xEB JUMPI PUSH2 0xEB PUSH2 0x29C JUMP JUMPDEST SWAP1 PUSH0 MSTORE PUSH1 0x20 PUSH0 KECCAK256 ADD DUP2 SWAP1 SSTORE POP PUSH0 DUP1 SLOAD DUP1 PUSH2 0x107 JUMPI PUSH2 0x107 PUSH2 0x2B0 JUMP JUMPDEST PUSH1 0x1 SWAP1 SUB DUP2 DUP2 SWAP1 PUSH0 MSTORE PUSH1 0x20 PUSH0 KECCAK256 ADD PUSH0 SWAP1 SSTORE SWAP1 SSTORE POP JUMP JUMPDEST PUSH1 0x40 DUP1 MLOAD PUSH1 0xA0 DUP2 ADD DUP3 MSTORE PUSH1 0x1 DUP2 MSTORE PUSH1 0x2 PUSH1 0x20 DUP3 ADD MSTORE PUSH1 0x3 SWAP2 DUP2 ADD SWAP2 SWAP1 SWAP2 MSTORE PUSH1 0x4 PUSH1 0x60 DUP3 DUP2 ADD SWAP2 SWAP1 SWAP2 MSTORE PUSH1 0x5 PUSH1 0x80 DUP4 ADD DUP2 SWAP1 MSTORE SWAP1 SWAP2 PUSH2 0x15D SWAP2 PUSH0 SWAP2 SWAP1 PUSH2 0x1BB JUMP JUMPDEST POP PUSH2 0x168 PUSH1 0x1 PUSH2 0xB1 JUMP JUMPDEST PUSH0 DUP1 SLOAD DUP1 PUSH1 0x20 MUL PUSH1 0x20 ADD PUSH1 0x40 MLOAD SWAP1 DUP2 ADD PUSH1 0x40 MSTORE DUP1 SWAP3 SWAP2 SWAP1 DUP2 DUP2 MSTORE PUSH1 0x20 ADD DUP3 DUP1 SLOAD DUP1 ISZERO PUSH2 0x1B1 JUMPI PUSH1 0x20 MUL DUP3 ADD SWAP2 SWAP1 PUSH0 MSTORE PUSH1 0x20 PUSH0 KECCAK256 SWAP1 JUMPDEST DUP2 SLOAD DUP2 MSTORE PUSH1 0x20 ADD SWAP1 PUSH1 0x1 ADD SWAP1 DUP1 DUP4 GT PUSH2 0x19D JUMPI JUMPDEST POP POP POP POP POP SWAP1 POP SWAP1 JUMP JUMPDEST DUP3 DUP1 SLOAD DUP3 DUP3 SSTORE SWAP1 PUSH0 MSTORE PUSH1 0x20 PUSH0 KECCAK256 SWAP1 DUP2 ADD SWAP3 DUP3 ISZERO PUSH2 0x1F9 JUMPI SWAP2 PUSH1 0x20 MUL DUP3 ADD JUMPDEST DUP3 DUP2 GT ISZERO PUSH2 0x1F9 JUMPI DUP3 MLOAD DUP3 SWAP1 PUSH1 0xFF AND SWAP1 SSTORE SWAP2 PUSH1 0x20 ADD SWAP2 SWAP1 PUSH1 0x1 ADD SWAP1 PUSH2 0x1D9 JUMP JUMPDEST POP PUSH2 0x205 SWAP3 SWAP2 POP PUSH2 0x209 JUMP JUMPDEST POP SWAP1 JUMP JUMPDEST JUMPDEST DUP1 DUP3 GT ISZERO PUSH2 0x205 JUMPI PUSH0 DUP2 SSTORE PUSH1 0x1 ADD PUSH2 0x20A JUMP JUMPDEST PUSH0 PUSH1 0x20 DUP3 DUP5 SUB SLT ISZERO PUSH2 0x22D JUMPI PUSH0 DUP1 REVERT JUMPDEST POP CALLDATALOAD SWAP2 SWAP1 POP JUMP JUMPDEST PUSH1 0x20 DUP1 DUP3 MSTORE DUP3 MLOAD DUP3 DUP3 ADD DUP2 SWAP1 MSTORE PUSH0 SWAP2 SWAP1 DUP5 DUP3 ADD SWAP1 PUSH1 0x40 DUP6 ADD SWAP1 DUP5 JUMPDEST DUP2 DUP2 LT ISZERO PUSH2 0x26B JUMPI DUP4 MLOAD DUP4 MSTORE SWAP3 DUP5 ADD SWAP3 SWAP2 DUP5 ADD SWAP2 PUSH1 0x1 ADD PUSH2 0x24F JUMP JUMPDEST POP SWAP1 SWAP7 SWAP6 POP POP POP POP POP POP JUMP JUMPDEST DUP2 DUP2 SUB DUP2 DUP2 GT ISZERO PUSH2 0x296 JUMPI PUSH4 0x4E487B71 PUSH1 0xE0 SHL PUSH0 MSTORE PUSH1 0x11 PUSH1 0x4 MSTORE PUSH1 0x24 PUSH0 REVERT JUMPDEST SWAP3 SWAP2 POP POP JUMP JUMPDEST PUSH4 0x4E487B71 PUSH1 0xE0 SHL PUSH0 MSTORE PUSH1 0x32 PUSH1 0x4 MSTORE PUSH1 0x24 PUSH0 REVERT JUMPDEST PUSH4 0x4E487B71 PUSH1 0xE0 SHL PUSH0 MSTORE PUSH1 0x31 PUSH1 0x4 MSTORE PUSH1 0x24 PUSH0 REVERT INVALID LOG2 PUSH5 0x6970667358 0x22 SLT KECCAK256 GT MLOAD 0xB5 0xD2 PUSH2 0xD2F7 0xAA 0xBF 0xE6 LOG3 0xD8 MLOAD DUP7 0xE0 SWAP1 PUSH1 0x9D CODECOPY SWAP4 COINBASE PUSH3 0x927CE9 PUSH11 0x7AC9A6F7B1FD64736F6C63 NUMBER STOP ADDMOD OR STOP CALLER "
				},
				"gasEstimates": {
					"creation": {
						"codeDepositCost": "152400",
						"executionCost": "194",
						"totalCost": "152594"
					},
					"external": {
						"array(uint256)": "4538",
						"replace(uint256)": "60264",
						"test()": "infinite"
					}
				},
				"methodIdentifiers": {
					"array(uint256)": "38d94193",
					"replace(uint256)": "d0c1d7fc",
					"test()": "f8a8fd6d"
				}
			},
			"storageLayout": {
				"storage": [
					{
						"astId": 433,
						"contract": "contracts/solidity.series/Counter.sol:ArrayReplaceLast",
						"label": "array",
						"offset": 0,
						"slot": "0",
						"type": "t_array(t_uint256)dyn_storage"
					}
				],
				"types": {
					"t_array(t_uint256)dyn_storage": {
						"base": "t_uint256",
						"encoding": "dynamic_array",
						"label": "uint256[]",
						"numberOfBytes": "32"
					},
					"t_uint256": {
						"encoding": "inplace",
						"label": "uint256",
						"numberOfBytes": "32"
					}
				}
			},
			"userdoc": {
				"kind": "user",
				"methods": {},
				"version": 1
			}
		}
	}
}