{
	"contracts/solidity.series/Counter.sol": {
		"Enum": {
			"abi": [
				{
					"inputs": [],
					"name": "get",
					"outputs": [
						{
							"internalType": "enum Enum.Status",
							"name": "",
							"type": "uint8"
						}
					],
					"stateMutability": "view",
					"type": "function"
				},
				{
					"inputs": [
						{
							"internalType": "uint256",
							"name": "",
							"type": "uint256"
						}
					],
					"name": "orders",
					"outputs": [
						{
							"internalType": "address",
							"name": "buyer",
							"type": "address"
						},
						{
							"internalType": "enum Enum.Status",
							"name": "status",
							"type": "uint8"
						}
					],
					"stateMutability": "view",
					"type": "function"
				},
				{
					"inputs": [],
					"name": "reset",
					"outputs": [],
					"stateMutability": "nonpayable",
					"type": "function"
				},
				{
					"inputs": [
						{
							"internalType": "enum Enum.Status",
							"name": "_status",
							"type": "uint8"
						}
					],
					"name": "set",
					"outputs": [],
					"stateMutability": "nonpayable",
					"type": "function"
				},
				{
					"inputs": [],
					"name": "ship",
					"outputs": [],
					"stateMutability": "nonpayable",
					"type": "function"
				},
				{
					"inputs": [],
					"name": "status",
					"outputs": [
						{
							"internalType": "enum Enum.Status",
							"name": "",
							"type": "uint8"
						}
					],
					"stateMutability": "view",
					"type": "function"
				}
			],
			"devdoc": {
				"kind": "dev",
				"methods": {},
				"version": 1
			},
			"evm": {
				"assembly": "    /* \"contracts/solidity.series/Counter.sol\":6690:7366  contract Enum {... */\n  mstore(0x40, 0x80)\n  callvalue\n  dup1\n  iszero\n  tag_1\n  jumpi\n  0x00\n  dup1\n  revert\ntag_1:\n  pop\n  dataSize(sub_0)\n  dup1\n  dataOffset(sub_0)\n  0x00\n  codecopy\n  0x00\n  return\nstop\n\nsub_0: assembly {\n        /* \"contracts/solidity.series/Counter.sol\":6690:7366  contract Enum {... */\n      mstore(0x40, 0x80)\n      callvalue\n      dup1\n      iszero\n      tag_1\n      jumpi\n      0x00\n      dup1\n      revert\n    tag_1:\n      pop\n      jumpi(tag_2, lt(calldatasize, 0x04))\n      shr(0xe0, calldataload(0x00))\n      dup1\n      0x200d2ed2\n      eq\n      tag_3\n      jumpi\n      dup1\n      0x24b8ba5f\n      eq\n      tag_4\n      jumpi\n      dup1\n      0x6d4ce63c\n      eq\n      tag_5\n      jumpi\n      dup1\n      0xa85c38ef\n      eq\n      tag_6\n      jumpi\n      dup1\n      0xb6bef7b3\n      eq\n      tag_7\n      jumpi\n      dup1\n      0xd826f88f\n      eq\n      tag_8\n      jumpi\n    tag_2:\n      0x00\n      dup1\n      revert\n        /* \"contracts/solidity.series/Counter.sol\":6837:6857  Status public status */\n    tag_3:\n      sload(0x00)\n      tag_9\n      swap1\n      0xff\n      and\n      dup2\n      jump\n    tag_9:\n      mload(0x40)\n      tag_11\n      swap2\n      swap1\n      tag_12\n      jump\t// in\n    tag_11:\n      mload(0x40)\n      dup1\n      swap2\n      sub\n      swap1\n      return\n        /* \"contracts/solidity.series/Counter.sol\":7042:7113  function set(Status _status) external {... */\n    tag_4:\n      tag_13\n      tag_14\n      calldatasize\n      0x04\n      tag_15\n      jump\t// in\n    tag_14:\n      tag_16\n      jump\t// in\n    tag_13:\n      stop\n        /* \"contracts/solidity.series/Counter.sol\":6963:7036  function get() public  view returns(Status){... */\n    tag_5:\n        /* \"contracts/solidity.series/Counter.sol\":6999:7005  Status */\n      0x00\n        /* \"contracts/solidity.series/Counter.sol\":7023:7029  status */\n      sload\n      0xff\n      and\n        /* \"contracts/solidity.series/Counter.sol\":6963:7036  function get() public  view returns(Status){... */\n      jump(tag_9)\n        /* \"contracts/solidity.series/Counter.sol\":6935:6956  Order[] public orders */\n    tag_6:\n      tag_20\n      tag_21\n      calldatasize\n      0x04\n      tag_22\n      jump\t// in\n    tag_21:\n      tag_23\n      jump\t// in\n    tag_20:\n      mload(0x40)\n      tag_11\n      swap3\n      swap2\n      swap1\n      tag_25\n      jump\t// in\n        /* \"contracts/solidity.series/Counter.sol\":7119:7182  function ship()external {... */\n    tag_7:\n      tag_13\n        /* \"contracts/solidity.series/Counter.sol\":7153:7159  status */\n      0x00\n        /* \"contracts/solidity.series/Counter.sol\":7153:7175  status = Status.Shiped */\n      dup1\n      sload\n      not(0xff)\n      and\n        /* \"contracts/solidity.series/Counter.sol\":7162:7175  Status.Shiped */\n      0x02\n        /* \"contracts/solidity.series/Counter.sol\":7153:7175  status = Status.Shiped */\n      or\n      swap1\n      sstore\n        /* \"contracts/solidity.series/Counter.sol\":7119:7182  function ship()external {... */\n      jump\n        /* \"contracts/solidity.series/Counter.sol\":7188:7364  function reset() external {... */\n    tag_8:\n      tag_13\n        /* \"contracts/solidity.series/Counter.sol\":7231:7237  status */\n      0x00\n        /* \"contracts/solidity.series/Counter.sol\":7224:7237  delete status */\n      dup1\n      sload\n      not(0xff)\n      and\n      swap1\n      sstore\n        /* \"contracts/solidity.series/Counter.sol\":7188:7364  function reset() external {... */\n      jump\n        /* \"contracts/solidity.series/Counter.sol\":7042:7113  function set(Status _status) external {... */\n    tag_16:\n        /* \"contracts/solidity.series/Counter.sol\":7090:7096  status */\n      0x00\n        /* \"contracts/solidity.series/Counter.sol\":7090:7106  status = _status */\n      dup1\n      sload\n        /* \"contracts/solidity.series/Counter.sol\":7099:7106  _status */\n      dup3\n      swap2\n        /* \"contracts/solidity.series/Counter.sol\":7090:7096  status */\n      swap1\n      not(0xff)\n        /* \"contracts/solidity.series/Counter.sol\":7090:7106  status = _status */\n      and\n      0x01\n        /* \"contracts/solidity.series/Counter.sol\":7099:7106  _status */\n      dup4\n        /* \"contracts/solidity.series/Counter.sol\":7090:7106  status = _status */\n      0x05\n      dup2\n      gt\n      iszero\n      tag_32\n      jumpi\n      tag_32\n      tag_33\n      jump\t// in\n    tag_32:\n      mul\n      or\n      swap1\n      sstore\n      pop\n        /* \"contracts/solidity.series/Counter.sol\":7042:7113  function set(Status _status) external {... */\n      pop\n      jump\t// out\n        /* \"contracts/solidity.series/Counter.sol\":6935:6956  Order[] public orders */\n    tag_23:\n      0x01\n      dup2\n      dup2\n      sload\n      dup2\n      lt\n      tag_35\n      jumpi\n      0x00\n      dup1\n      revert\n    tag_35:\n      0x00\n      swap2\n      dup3\n      mstore\n      0x20\n      swap1\n      swap2\n      keccak256\n      add\n      sload\n      sub(shl(0xa0, 0x01), 0x01)\n      dup2\n      and\n      swap2\n      pop\n      shl(0xa0, 0x01)\n      swap1\n      div\n      0xff\n      and\n      dup3\n      jump\t// out\n        /* \"#utility.yul\":14:141   */\n    tag_33:\n        /* \"#utility.yul\":75:85   */\n      0x4e487b71\n        /* \"#utility.yul\":70:73   */\n      0xe0\n        /* \"#utility.yul\":66:86   */\n      shl\n        /* \"#utility.yul\":63:64   */\n      0x00\n        /* \"#utility.yul\":56:87   */\n      mstore\n        /* \"#utility.yul\":106:110   */\n      0x21\n        /* \"#utility.yul\":103:104   */\n      0x04\n        /* \"#utility.yul\":96:111   */\n      mstore\n        /* \"#utility.yul\":130:134   */\n      0x24\n        /* \"#utility.yul\":127:128   */\n      0x00\n        /* \"#utility.yul\":120:135   */\n      revert\n        /* \"#utility.yul\":146:380   */\n    tag_41:\n        /* \"#utility.yul\":224:225   */\n      0x06\n        /* \"#utility.yul\":217:222   */\n      dup2\n        /* \"#utility.yul\":214:226   */\n      lt\n        /* \"#utility.yul\":204:347   */\n      tag_45\n      jumpi\n        /* \"#utility.yul\":269:279   */\n      0x4e487b71\n        /* \"#utility.yul\":264:267   */\n      0xe0\n        /* \"#utility.yul\":260:280   */\n      shl\n        /* \"#utility.yul\":257:258   */\n      0x00\n        /* \"#utility.yul\":250:281   */\n      mstore\n        /* \"#utility.yul\":304:308   */\n      0x21\n        /* \"#utility.yul\":301:302   */\n      0x04\n        /* \"#utility.yul\":294:309   */\n      mstore\n        /* \"#utility.yul\":332:336   */\n      0x24\n        /* \"#utility.yul\":329:330   */\n      0x00\n        /* \"#utility.yul\":322:337   */\n      revert\n        /* \"#utility.yul\":204:347   */\n    tag_45:\n        /* \"#utility.yul\":356:374   */\n      swap1\n      mstore\n        /* \"#utility.yul\":146:380   */\n      jump\t// out\n        /* \"#utility.yul\":385:586   */\n    tag_12:\n        /* \"#utility.yul\":527:529   */\n      0x20\n        /* \"#utility.yul\":512:530   */\n      dup2\n      add\n        /* \"#utility.yul\":539:580   */\n      tag_47\n        /* \"#utility.yul\":516:525   */\n      dup3\n        /* \"#utility.yul\":562:568   */\n      dup5\n        /* \"#utility.yul\":539:580   */\n      tag_41\n      jump\t// in\n    tag_47:\n        /* \"#utility.yul\":385:586   */\n      swap3\n      swap2\n      pop\n      pop\n      jump\t// out\n        /* \"#utility.yul\":591:857   */\n    tag_15:\n        /* \"#utility.yul\":660:666   */\n      0x00\n        /* \"#utility.yul\":713:715   */\n      0x20\n        /* \"#utility.yul\":701:710   */\n      dup3\n        /* \"#utility.yul\":692:699   */\n      dup5\n        /* \"#utility.yul\":688:711   */\n      sub\n        /* \"#utility.yul\":684:716   */\n      slt\n        /* \"#utility.yul\":681:733   */\n      iszero\n      tag_49\n      jumpi\n        /* \"#utility.yul\":729:730   */\n      0x00\n        /* \"#utility.yul\":726:727   */\n      dup1\n        /* \"#utility.yul\":719:731   */\n      revert\n        /* \"#utility.yul\":681:733   */\n    tag_49:\n        /* \"#utility.yul\":768:777   */\n      dup2\n        /* \"#utility.yul\":755:778   */\n      calldataload\n        /* \"#utility.yul\":807:808   */\n      0x06\n        /* \"#utility.yul\":800:805   */\n      dup2\n        /* \"#utility.yul\":797:809   */\n      lt\n        /* \"#utility.yul\":787:827   */\n      tag_50\n      jumpi\n        /* \"#utility.yul\":823:824   */\n      0x00\n        /* \"#utility.yul\":820:821   */\n      dup1\n        /* \"#utility.yul\":813:825   */\n      revert\n        /* \"#utility.yul\":787:827   */\n    tag_50:\n        /* \"#utility.yul\":846:851   */\n      swap4\n        /* \"#utility.yul\":591:857   */\n      swap3\n      pop\n      pop\n      pop\n      jump\t// out\n        /* \"#utility.yul\":862:1042   */\n    tag_22:\n        /* \"#utility.yul\":921:927   */\n      0x00\n        /* \"#utility.yul\":974:976   */\n      0x20\n        /* \"#utility.yul\":962:971   */\n      dup3\n        /* \"#utility.yul\":953:960   */\n      dup5\n        /* \"#utility.yul\":949:972   */\n      sub\n        /* \"#utility.yul\":945:977   */\n      slt\n        /* \"#utility.yul\":942:994   */\n      iszero\n      tag_52\n      jumpi\n        /* \"#utility.yul\":990:991   */\n      0x00\n        /* \"#utility.yul\":987:988   */\n      dup1\n        /* \"#utility.yul\":980:992   */\n      revert\n        /* \"#utility.yul\":942:994   */\n    tag_52:\n      pop\n        /* \"#utility.yul\":1013:1036   */\n      calldataload\n      swap2\n        /* \"#utility.yul\":862:1042   */\n      swap1\n      pop\n      jump\t// out\n        /* \"#utility.yul\":1047:1345   */\n    tag_25:\n      sub(shl(0xa0, 0x01), 0x01)\n        /* \"#utility.yul\":1247:1279   */\n      dup4\n      and\n        /* \"#utility.yul\":1229:1280   */\n      dup2\n      mstore\n        /* \"#utility.yul\":1217:1219   */\n      0x40\n        /* \"#utility.yul\":1202:1220   */\n      dup2\n      add\n        /* \"#utility.yul\":1289:1339   */\n      tag_50\n        /* \"#utility.yul\":1335:1337   */\n      0x20\n        /* \"#utility.yul\":1320:1338   */\n      dup4\n      add\n        /* \"#utility.yul\":1312:1318   */\n      dup5\n        /* \"#utility.yul\":1289:1339   */\n      tag_41\n      jump\t// in\n\n    auxdata: 0xa2646970667358221220c3a7b7895201e23edb0254a00ec3747fed818926c2fc3cf0045d05d0ba2bdb2a64736f6c63430008170033\n}\n",
				"bytecode": {
					"linkReferences": {},
					"object": "608060405234801561000f575f80fd5b506102158061001d5f395ff3fe608060405234801561000f575f80fd5b5060043610610060575f3560e01c8063200d2ed21461006457806324b8ba5f146100865780636d4ce63c1461009b578063a85c38ef146100a5578063b6bef7b3146100c6578063d826f88f146100d7575b5f80fd5b5f546100709060ff1681565b60405161007d9190610172565b60405180910390f35b610099610094366004610186565b6100e5565b005b5f5460ff16610070565b6100b86100b33660046101ab565b61010b565b60405161007d9291906101c2565b6100995f805460ff19166002179055565b6100995f805460ff19169055565b5f805482919060ff191660018360058111156101035761010361013e565b021790555050565b6001818154811061011a575f80fd5b5f918252602090912001546001600160a01b0381169150600160a01b900460ff1682565b634e487b7160e01b5f52602160045260245ffd5b6006811061016e57634e487b7160e01b5f52602160045260245ffd5b9052565b602081016101808284610152565b92915050565b5f60208284031215610196575f80fd5b8135600681106101a4575f80fd5b9392505050565b5f602082840312156101bb575f80fd5b5035919050565b6001600160a01b0383168152604081016101a4602083018461015256fea2646970667358221220c3a7b7895201e23edb0254a00ec3747fed818926c2fc3cf0045d05d0ba2bdb2a64736f6c63430008170033",
					"opcodes": "PUSH1 0x80 PUSH1 0x40 MSTORE CALLVALUE DUP1 ISZERO PUSH2 0xF JUMPI PUSH0 DUP1 REVERT JUMPDEST POP PUSH2 0x215 DUP1 PUSH2 0x1D PUSH0 CODECOPY PUSH0 RETURN INVALID PUSH1 0x80 PUSH1 0x40 MSTORE CALLVALUE DUP1 ISZERO PUSH2 0xF JUMPI PUSH0 DUP1 REVERT JUMPDEST POP PUSH1 0x4 CALLDATASIZE LT PUSH2 0x60 JUMPI PUSH0 CALLDATALOAD PUSH1 0xE0 SHR DUP1 PUSH4 0x200D2ED2 EQ PUSH2 0x64 JUMPI DUP1 PUSH4 0x24B8BA5F EQ PUSH2 0x86 JUMPI DUP1 PUSH4 0x6D4CE63C EQ PUSH2 0x9B JUMPI DUP1 PUSH4 0xA85C38EF EQ PUSH2 0xA5 JUMPI DUP1 PUSH4 0xB6BEF7B3 EQ PUSH2 0xC6 JUMPI DUP1 PUSH4 0xD826F88F EQ PUSH2 0xD7 JUMPI JUMPDEST PUSH0 DUP1 REVERT JUMPDEST PUSH0 SLOAD PUSH2 0x70 SWAP1 PUSH1 0xFF AND DUP2 JUMP JUMPDEST PUSH1 0x40 MLOAD PUSH2 0x7D SWAP2 SWAP1 PUSH2 0x172 JUMP JUMPDEST PUSH1 0x40 MLOAD DUP1 SWAP2 SUB SWAP1 RETURN JUMPDEST PUSH2 0x99 PUSH2 0x94 CALLDATASIZE PUSH1 0x4 PUSH2 0x186 JUMP JUMPDEST PUSH2 0xE5 JUMP JUMPDEST STOP JUMPDEST PUSH0 SLOAD PUSH1 0xFF AND PUSH2 0x70 JUMP JUMPDEST PUSH2 0xB8 PUSH2 0xB3 CALLDATASIZE PUSH1 0x4 PUSH2 0x1AB JUMP JUMPDEST PUSH2 0x10B JUMP JUMPDEST PUSH1 0x40 MLOAD PUSH2 0x7D SWAP3 SWAP2 SWAP1 PUSH2 0x1C2 JUMP JUMPDEST PUSH2 0x99 PUSH0 DUP1 SLOAD PUSH1 0xFF NOT AND PUSH1 0x2 OR SWAP1 SSTORE JUMP JUMPDEST PUSH2 0x99 PUSH0 DUP1 SLOAD PUSH1 0xFF NOT AND SWAP1 SSTORE JUMP JUMPDEST PUSH0 DUP1 SLOAD DUP3 SWAP2 SWAP1 PUSH1 0xFF NOT AND PUSH1 0x1 DUP4 PUSH1 0x5 DUP2 GT ISZERO PUSH2 0x103 JUMPI PUSH2 0x103 PUSH2 0x13E JUMP JUMPDEST MUL OR SWAP1 SSTORE POP POP JUMP JUMPDEST PUSH1 0x1 DUP2 DUP2 SLOAD DUP2 LT PUSH2 0x11A JUMPI PUSH0 DUP1 REVERT JUMPDEST PUSH0 SWAP2 DUP3 MSTORE PUSH1 0x20 SWAP1 SWAP2 KECCAK256 ADD SLOAD PUSH1 0x1 PUSH1 0x1 PUSH1 0xA0 SHL SUB DUP2 AND SWAP2 POP PUSH1 0x1 PUSH1 0xA0 SHL SWAP1 DIV PUSH1 0xFF AND DUP3 JUMP JUMPDEST PUSH4 0x4E487B71 PUSH1 0xE0 SHL PUSH0 MSTORE PUSH1 0x21 PUSH1 0x4 MSTORE PUSH1 0x24 PUSH0 REVERT JUMPDEST PUSH1 0x6 DUP2 LT PUSH2 0x16E JUMPI PUSH4 0x4E487B71 PUSH1 0xE0 SHL PUSH0 MSTORE PUSH1 0x21 PUSH1 0x4 MSTORE PUSH1 0x24 PUSH0 REVERT JUMPDEST SWAP1 MSTORE JUMP JUMPDEST PUSH1 0x20 DUP2 ADD PUSH2 0x180 DUP3 DUP5 PUSH2 0x152 JUMP JUMPDEST SWAP3 SWAP2 POP POP JUMP JUMPDEST PUSH0 PUSH1 0x20 DUP3 DUP5 SUB SLT ISZERO PUSH2 0x196 JUMPI PUSH0 DUP1 REVERT JUMPDEST DUP2 CALLDATALOAD PUSH1 0x6 DUP2 LT PUSH2 0x1A4 JUMPI PUSH0 DUP1 REVERT JUMPDEST SWAP4 SWAP3 POP POP POP JUMP JUMPDEST PUSH0 PUSH1 0x20 DUP3 DUP5 SUB SLT ISZERO PUSH2 0x1BB JUMPI PUSH0 DUP1 REVERT JUMPDEST POP CALLDATALOAD SWAP2 SWAP1 POP JUMP JUMPDEST PUSH1 0x1 PUSH1 0x1 PUSH1 0xA0 SHL SUB DUP4 AND DUP2 MSTORE PUSH1 0x40 DUP2 ADD PUSH2 0x1A4 PUSH1 0x20 DUP4 ADD DUP5 PUSH2 0x152 JUMP INVALID LOG2 PUSH5 0x6970667358 0x22 SLT KECCAK256 0xC3 0xA7 0xB7 DUP10 MSTORE ADD 0xE2 RETURNDATACOPY 0xDB MUL SLOAD LOG0 0xE 0xC3 PUSH21 0x7FED818926C2FC3CF0045D05D0BA2BDB2A64736F6C PUSH4 0x43000817 STOP CALLER "
				},
				"gasEstimates": {
					"creation": {
						"codeDepositCost": "106600",
						"executionCost": "151",
						"totalCost": "106751"
					},
					"external": {
						"get()": "2399",
						"orders(uint256)": "4782",
						"reset()": "24436",
						"set(uint8)": "24517",
						"ship()": "24420",
						"status()": "2361"
					}
				},
				"methodIdentifiers": {
					"get()": "6d4ce63c",
					"orders(uint256)": "a85c38ef",
					"reset()": "d826f88f",
					"set(uint8)": "24b8ba5f",
					"ship()": "b6bef7b3",
					"status()": "200d2ed2"
				}
			},
			"storageLayout": {
				"storage": [
					{
						"astId": 692,
						"contract": "contracts/solidity.series/Counter.sol:Enum",
						"label": "status",
						"offset": 0,
						"slot": "0",
						"type": "t_enum(Status)689"
					},
					{
						"astId": 702,
						"contract": "contracts/solidity.series/Counter.sol:Enum",
						"label": "orders",
						"offset": 0,
						"slot": "1",
						"type": "t_array(t_struct(Order)698_storage)dyn_storage"
					}
				],
				"types": {
					"t_address": {
						"encoding": "inplace",
						"label": "address",
						"numberOfBytes": "20"
					},
					"t_array(t_struct(Order)698_storage)dyn_storage": {
						"base": "t_struct(Order)698_storage",
						"encoding": "dynamic_array",
						"label": "struct Enum.Order[]",
						"numberOfBytes": "32"
					},
					"t_enum(Status)689": {
						"encoding": "inplace",
						"label": "enum Enum.Status",
						"numberOfBytes": "1"
					},
					"t_struct(Order)698_storage": {
						"encoding": "inplace",
						"label": "struct Enum.Order",
						"members": [
							{
								"astId": 694,
								"contract": "contracts/solidity.series/Counter.sol:Enum",
								"label": "buyer",
								"offset": 0,
								"slot": "0",
								"type": "t_address"
							},
							{
								"astId": 697,
								"contract": "contracts/solidity.series/Counter.sol:Enum",
								"label": "status",
								"offset": 20,
								"slot": "0",
								"type": "t_enum(Status)689"
							}
						],
						"numberOfBytes": "32"
					}
				}
			},
			"userdoc": {
				"kind": "user",
				"methods": {},
				"version": 1
			}
		}
	}
}