{
	"contracts/solidity.series/Counter.sol": {
		"FunctionOutputs": {
			"abi": [
				{
					"inputs": [],
					"name": "assigned",
					"outputs": [
						{
							"internalType": "uint256",
							"name": "x",
							"type": "uint256"
						},
						{
							"internalType": "bool",
							"name": "b",
							"type": "bool"
						}
					],
					"stateMutability": "pure",
					"type": "function"
				},
				{
					"inputs": [],
					"name": "named",
					"outputs": [
						{
							"internalType": "uint256",
							"name": "x",
							"type": "uint256"
						},
						{
							"internalType": "bool",
							"name": "b",
							"type": "bool"
						}
					],
					"stateMutability": "pure",
					"type": "function"
				},
				{
					"inputs": [],
					"name": "returnMany",
					"outputs": [
						{
							"internalType": "uint256",
							"name": "",
							"type": "uint256"
						},
						{
							"internalType": "bool",
							"name": "",
							"type": "bool"
						}
					],
					"stateMutability": "pure",
					"type": "function"
				}
			],
			"devdoc": {
				"kind": "dev",
				"methods": {},
				"version": 1
			},
			"evm": {
				"assembly": "    /* \"contracts/solidity.series/Counter.sol\":2811:3369  contract FunctionOutputs{... */\n  mstore(0x40, 0x80)\n  callvalue\n  dup1\n  iszero\n  tag_1\n  jumpi\n  0x00\n  dup1\n  revert\ntag_1:\n  pop\n  dataSize(sub_0)\n  dup1\n  dataOffset(sub_0)\n  0x00\n  codecopy\n  0x00\n  return\nstop\n\nsub_0: assembly {\n        /* \"contracts/solidity.series/Counter.sol\":2811:3369  contract FunctionOutputs{... */\n      mstore(0x40, 0x80)\n      callvalue\n      dup1\n      iszero\n      tag_1\n      jumpi\n      0x00\n      dup1\n      revert\n    tag_1:\n      pop\n      jumpi(tag_2, lt(calldatasize, 0x04))\n      shr(0xe0, calldataload(0x00))\n      dup1\n      0x45f907a8\n      eq\n      tag_3\n      jumpi\n      dup1\n      0x86887544\n      eq\n      tag_3\n      jumpi\n      dup1\n      0xadb4d990\n      eq\n      tag_3\n      jumpi\n    tag_2:\n      0x00\n      dup1\n      revert\n        /* \"contracts/solidity.series/Counter.sol\":2946:3036  function named()public pure returns (uint x,bool b){... */\n    tag_3:\n      0x40\n      dup1\n      mload\n        /* \"contracts/solidity.series/Counter.sol\":3018:3019  1 */\n      0x01\n        /* \"#utility.yul\":182:207   */\n      dup1\n      dup3\n      mstore\n        /* \"#utility.yul\":238:240   */\n      0x20\n        /* \"#utility.yul\":223:241   */\n      dup3\n      add\n        /* \"#utility.yul\":216:266   */\n      mstore\n        /* \"contracts/solidity.series/Counter.sol\":2946:3036  function named()public pure returns (uint x,bool b){... */\n      dup2\n      mload\n      swap1\n      dup2\n      swap1\n      sub\n      swap1\n      swap2\n      add\n      swap1\n      return\n\n    auxdata: 0xa2646970667358221220d2e89393bac9e06ca0319c09ef69af81d979b6d1a7810948bd066311e7baec7064736f6c63430008170033\n}\n",
				"bytecode": {
					"linkReferences": {},
					"object": "6080604052348015600e575f80fd5b50608e8061001b5f395ff3fe6080604052348015600e575f80fd5b5060043610603a575f3560e01c806345f907a814603e5780638688754414603e578063adb4d99014603e575b5f80fd5b604080516001808252602082015281519081900390910190f3fea2646970667358221220d2e89393bac9e06ca0319c09ef69af81d979b6d1a7810948bd066311e7baec7064736f6c63430008170033",
					"opcodes": "PUSH1 0x80 PUSH1 0x40 MSTORE CALLVALUE DUP1 ISZERO PUSH1 0xE JUMPI PUSH0 DUP1 REVERT JUMPDEST POP PUSH1 0x8E DUP1 PUSH2 0x1B PUSH0 CODECOPY PUSH0 RETURN INVALID PUSH1 0x80 PUSH1 0x40 MSTORE CALLVALUE DUP1 ISZERO PUSH1 0xE JUMPI PUSH0 DUP1 REVERT JUMPDEST POP PUSH1 0x4 CALLDATASIZE LT PUSH1 0x3A JUMPI PUSH0 CALLDATALOAD PUSH1 0xE0 SHR DUP1 PUSH4 0x45F907A8 EQ PUSH1 0x3E JUMPI DUP1 PUSH4 0x86887544 EQ PUSH1 0x3E JUMPI DUP1 PUSH4 0xADB4D990 EQ PUSH1 0x3E JUMPI JUMPDEST PUSH0 DUP1 REVERT JUMPDEST PUSH1 0x40 DUP1 MLOAD PUSH1 0x1 DUP1 DUP3 MSTORE PUSH1 0x20 DUP3 ADD MSTORE DUP2 MLOAD SWAP1 DUP2 SWAP1 SUB SWAP1 SWAP2 ADD SWAP1 RETURN INVALID LOG2 PUSH5 0x6970667358 0x22 SLT KECCAK256 0xD2 0xE8 SWAP4 SWAP4 0xBA 0xC9 0xE0 PUSH13 0xA0319C09EF69AF81D979B6D1A7 DUP2 MULMOD BASEFEE 0xBD MOD PUSH4 0x11E7BAEC PUSH17 0x64736F6C63430008170033000000000000 "
				},
				"gasEstimates": {
					"creation": {
						"codeDepositCost": "28400",
						"executionCost": "79",
						"totalCost": "28479"
					},
					"external": {
						"assigned()": "213",
						"named()": "169",
						"returnMany()": "191"
					}
				},
				"methodIdentifiers": {
					"assigned()": "adb4d990",
					"named()": "45f907a8",
					"returnMany()": "86887544"
				}
			},
			"storageLayout": {
				"storage": [],
				"types": null
			},
			"userdoc": {
				"kind": "user",
				"methods": {},
				"version": 1
			}
		}
	}
}