{
	"contracts/solidity.series/Counter.sol": {
		"Counter": {
			"abi": [
				{
					"inputs": [
						{
							"internalType": "address",
							"name": "caller",
							"type": "address"
						},
						{
							"internalType": "uint256",
							"name": "i",
							"type": "uint256"
						}
					],
					"name": "MyError",
					"type": "error"
				},
				{
					"inputs": [],
					"name": "count",
					"outputs": [
						{
							"internalType": "uint256",
							"name": "",
							"type": "uint256"
						}
					],
					"stateMutability": "view",
					"type": "function"
				},
				{
					"inputs": [],
					"name": "dec",
					"outputs": [],
					"stateMutability": "nonpayable",
					"type": "function"
				},
				{
					"inputs": [],
					"name": "inc",
					"outputs": [],
					"stateMutability": "nonpayable",
					"type": "function"
				},
				{
					"inputs": [],
					"name": "num",
					"outputs": [
						{
							"internalType": "uint256",
							"name": "",
							"type": "uint256"
						}
					],
					"stateMutability": "view",
					"type": "function"
				},
				{
					"inputs": [
						{
							"internalType": "uint256",
							"name": "n",
							"type": "uint256"
						}
					],
					"name": "sum",
					"outputs": [
						{
							"internalType": "uint256",
							"name": "",
							"type": "uint256"
						}
					],
					"stateMutability": "pure",
					"type": "function"
				},
				{
					"inputs": [],
					"name": "testAssert",
					"outputs": [],
					"stateMutability": "view",
					"type": "function"
				},
				{
					"inputs": [
						{
							"internalType": "uint256",
							"name": "e",
							"type": "uint256"
						}
					],
					"name": "testCustomError",
					"outputs": [],
					"stateMutability": "view",
					"type": "function"
				},
				{
					"inputs": [
						{
							"internalType": "uint256",
							"name": "i",
							"type": "uint256"
						}
					],
					"name": "testRequire",
					"outputs": [],
					"stateMutability": "pure",
					"type": "function"
				},
				{
					"inputs": [
						{
							"internalType": "uint256",
							"name": "i",
							"type": "uint256"
						}
					],
					"name": "testRevert",
					"outputs": [],
					"stateMutability": "pure",
					"type": "function"
				}
			],
			"devdoc": {
				"kind": "dev",
				"methods": {},
				"version": 1
			},
			"evm": {
				"assembly": "    /* \"contracts/solidity.series/Counter.sol\":57:1447  contract Counter {... */\n  mstore(0x40, 0x80)\n    /* \"contracts/solidity.series/Counter.sol\":1129:1132  123 */\n  0x7b\n    /* \"contracts/solidity.series/Counter.sol\":1108:1132  uint256 public num = 123 */\n  0x01\n  sstore\n    /* \"contracts/solidity.series/Counter.sol\":57:1447  contract Counter {... */\n  callvalue\n  dup1\n  iszero\n  tag_1\n  jumpi\n  0x00\n  dup1\n  revert\ntag_1:\n  pop\n  dataSize(sub_0)\n  dup1\n  dataOffset(sub_0)\n  0x00\n  codecopy\n  0x00\n  return\nstop\n\nsub_0: assembly {\n        /* \"contracts/solidity.series/Counter.sol\":57:1447  contract Counter {... */\n      mstore(0x40, 0x80)\n      callvalue\n      dup1\n      iszero\n      tag_1\n      jumpi\n      0x00\n      dup1\n      revert\n    tag_1:\n      pop\n      jumpi(tag_2, lt(calldatasize, 0x04))\n      shr(0xe0, calldataload(0x00))\n      dup1\n      0x371303c0\n      gt\n      tag_12\n      jumpi\n      dup1\n      0x371303c0\n      eq\n      tag_7\n      jumpi\n      dup1\n      0x4e70b1dc\n      eq\n      tag_8\n      jumpi\n      dup1\n      0x75f7286c\n      eq\n      tag_9\n      jumpi\n      dup1\n      0xb3bcfa82\n      eq\n      tag_10\n      jumpi\n      dup1\n      0xb8bd717f\n      eq\n      tag_5\n      jumpi\n      0x00\n      dup1\n      revert\n    tag_12:\n      dup1\n      0x06661abd\n      eq\n      tag_3\n      jumpi\n      dup1\n      0x188b85b4\n      eq\n      tag_4\n      jumpi\n      dup1\n      0x20987767\n      eq\n      tag_5\n      jumpi\n      dup1\n      0x2b813bc0\n      eq\n      tag_6\n      jumpi\n    tag_2:\n      0x00\n      dup1\n      revert\n        /* \"contracts/solidity.series/Counter.sol\":80:100  uint256 public count */\n    tag_3:\n      tag_13\n      sload(0x00)\n      dup2\n      jump\n    tag_13:\n      mload(0x40)\n        /* \"#utility.yul\":160:185   */\n      swap1\n      dup2\n      mstore\n        /* \"#utility.yul\":148:150   */\n      0x20\n        /* \"#utility.yul\":133:151   */\n      add\n        /* \"contracts/solidity.series/Counter.sol\":80:100  uint256 public count */\n      mload(0x40)\n      dup1\n      swap2\n      sub\n      swap1\n      return\n        /* \"contracts/solidity.series/Counter.sol\":221:394  function sum(uint256 n) external pure returns (uint256) {... */\n    tag_4:\n      tag_13\n      tag_18\n      calldatasize\n      0x04\n      tag_19\n      jump\t// in\n    tag_18:\n      tag_20\n      jump\t// in\n        /* \"contracts/solidity.series/Counter.sol\":927:1102  function testRevert(uint256 i) public pure {... */\n    tag_5:\n      tag_22\n      tag_23\n      calldatasize\n      0x04\n      tag_19\n      jump\t// in\n    tag_23:\n      tag_24\n      jump\t// in\n    tag_22:\n      stop\n        /* \"contracts/solidity.series/Counter.sol\":1139:1262  function testAssert() public view {... */\n    tag_6:\n      tag_22\n      tag_26\n      jump\t// in\n        /* \"contracts/solidity.series/Counter.sol\":107:158  function inc() external {... */\n    tag_7:\n      tag_22\n      tag_28\n      jump\t// in\n        /* \"contracts/solidity.series/Counter.sol\":1108:1132  uint256 public num = 123 */\n    tag_8:\n      tag_13\n      sload(0x01)\n      dup2\n      jump\n        /* \"contracts/solidity.series/Counter.sol\":1315:1445  function testCustomError(uint256 e) public view {... */\n    tag_9:\n      tag_22\n      tag_33\n      calldatasize\n      0x04\n      tag_19\n      jump\t// in\n    tag_33:\n      tag_34\n      jump\t// in\n        /* \"contracts/solidity.series/Counter.sol\":164:215  function dec() external {... */\n    tag_10:\n      tag_22\n      tag_36\n      jump\t// in\n        /* \"contracts/solidity.series/Counter.sol\":221:394  function sum(uint256 n) external pure returns (uint256) {... */\n    tag_20:\n        /* \"contracts/solidity.series/Counter.sol\":268:275  uint256 */\n      0x00\n      dup1\n        /* \"contracts/solidity.series/Counter.sol\":323:324  1 */\n      0x01\n        /* \"contracts/solidity.series/Counter.sol\":306:370  for (uint256 i = 1; i <= n; i++) {... */\n    tag_41:\n        /* \"contracts/solidity.series/Counter.sol\":331:332  n */\n      dup4\n        /* \"contracts/solidity.series/Counter.sol\":326:327  i */\n      dup2\n        /* \"contracts/solidity.series/Counter.sol\":326:332  i <= n */\n      gt\n        /* \"contracts/solidity.series/Counter.sol\":306:370  for (uint256 i = 1; i <= n; i++) {... */\n      tag_42\n      jumpi\n        /* \"contracts/solidity.series/Counter.sol\":353:359  s += 1 */\n      tag_44\n        /* \"contracts/solidity.series/Counter.sol\":358:359  1 */\n      0x01\n        /* \"contracts/solidity.series/Counter.sol\":353:359  s += 1 */\n      dup4\n      tag_45\n      jump\t// in\n    tag_44:\n      swap2\n      pop\n        /* \"contracts/solidity.series/Counter.sol\":334:337  i++ */\n      dup1\n      tag_46\n      dup2\n      tag_47\n      jump\t// in\n    tag_46:\n      swap2\n      pop\n      pop\n        /* \"contracts/solidity.series/Counter.sol\":306:370  for (uint256 i = 1; i <= n; i++) {... */\n      jump(tag_41)\n    tag_42:\n      pop\n        /* \"contracts/solidity.series/Counter.sol\":386:387  s */\n      swap3\n        /* \"contracts/solidity.series/Counter.sol\":221:394  function sum(uint256 n) external pure returns (uint256) {... */\n      swap2\n      pop\n      pop\n      jump\t// out\n        /* \"contracts/solidity.series/Counter.sol\":927:1102  function testRevert(uint256 i) public pure {... */\n    tag_24:\n        /* \"contracts/solidity.series/Counter.sol\":988:990  10 */\n      0x0a\n        /* \"contracts/solidity.series/Counter.sol\":984:985  i */\n      dup2\n        /* \"contracts/solidity.series/Counter.sol\":984:990  i > 10 */\n      gt\n        /* \"contracts/solidity.series/Counter.sol\":980:1096  if (i > 10) {... */\n      iszero\n      tag_49\n      jumpi\n        /* \"contracts/solidity.series/Counter.sol\":1006:1022  revert(\"i > 10\") */\n      mload(0x40)\n      shl(0xe5, 0x461bcd)\n      dup2\n      mstore\n        /* \"#utility.yul\":985:987   */\n      0x20\n        /* \"contracts/solidity.series/Counter.sol\":1006:1022  revert(\"i > 10\") */\n      0x04\n      dup3\n      add\n        /* \"#utility.yul\":967:988   */\n      mstore\n        /* \"#utility.yul\":1024:1025   */\n      0x06\n        /* \"#utility.yul\":1004:1022   */\n      0x24\n      dup3\n      add\n        /* \"#utility.yul\":997:1026   */\n      mstore\n      shl(0xd4, 0x069203e20313)\n        /* \"#utility.yul\":1042:1060   */\n      0x44\n      dup3\n      add\n        /* \"#utility.yul\":1035:1071   */\n      mstore\n        /* \"#utility.yul\":1088:1106   */\n      0x64\n      add\n        /* \"contracts/solidity.series/Counter.sol\":1006:1022  revert(\"i > 10\") */\n    tag_50:\n      mload(0x40)\n      dup1\n      swap2\n      sub\n      swap1\n      revert\n        /* \"contracts/solidity.series/Counter.sol\":980:1096  if (i > 10) {... */\n    tag_49:\n        /* \"contracts/solidity.series/Counter.sol\":927:1102  function testRevert(uint256 i) public pure {... */\n      pop\n      jump\t// out\n        /* \"contracts/solidity.series/Counter.sol\":1139:1262  function testAssert() public view {... */\n    tag_26:\n        /* \"contracts/solidity.series/Counter.sol\":1190:1193  num */\n      sload(0x01)\n        /* \"contracts/solidity.series/Counter.sol\":1197:1200  123 */\n      0x7b\n        /* \"contracts/solidity.series/Counter.sol\":1190:1200  num == 123 */\n      eq\n        /* \"contracts/solidity.series/Counter.sol\":1183:1201  assert(num == 123) */\n      tag_54\n      jumpi\n      tag_54\n      tag_55\n      jump\t// in\n    tag_54:\n        /* \"contracts/solidity.series/Counter.sol\":1139:1262  function testAssert() public view {... */\n      jump\t// out\n        /* \"contracts/solidity.series/Counter.sol\":107:158  function inc() external {... */\n    tag_28:\n        /* \"contracts/solidity.series/Counter.sol\":150:151  1 */\n      0x01\n        /* \"contracts/solidity.series/Counter.sol\":141:146  count */\n      0x00\n      dup1\n        /* \"contracts/solidity.series/Counter.sol\":141:151  count += 1 */\n      dup3\n      dup3\n      sload\n      tag_57\n      swap2\n      swap1\n      tag_45\n      jump\t// in\n    tag_57:\n      swap1\n      swap2\n      sstore\n      pop\n      pop\n        /* \"contracts/solidity.series/Counter.sol\":107:158  function inc() external {... */\n      jump\t// out\n        /* \"contracts/solidity.series/Counter.sol\":1315:1445  function testCustomError(uint256 e) public view {... */\n    tag_34:\n        /* \"contracts/solidity.series/Counter.sol\":1381:1383  10 */\n      0x0a\n        /* \"contracts/solidity.series/Counter.sol\":1377:1378  e */\n      dup2\n        /* \"contracts/solidity.series/Counter.sol\":1377:1383  e > 10 */\n      gt\n        /* \"contracts/solidity.series/Counter.sol\":1373:1439  if (e > 10) {... */\n      iszero\n      tag_49\n      jumpi\n        /* \"contracts/solidity.series/Counter.sol\":1406:1428  MyError(msg.sender, e) */\n      mload(0x40)\n      shl(0xe3, 0x1c473377)\n      dup2\n      mstore\n        /* \"contracts/solidity.series/Counter.sol\":1414:1424  msg.sender */\n      caller\n        /* \"contracts/solidity.series/Counter.sol\":1406:1428  MyError(msg.sender, e) */\n      0x04\n      dup3\n      add\n        /* \"#utility.yul\":1423:1474   */\n      mstore\n        /* \"#utility.yul\":1490:1508   */\n      0x24\n      dup2\n      add\n        /* \"#utility.yul\":1483:1517   */\n      dup3\n      swap1\n      mstore\n        /* \"#utility.yul\":1396:1414   */\n      0x44\n      add\n        /* \"contracts/solidity.series/Counter.sol\":1406:1428  MyError(msg.sender, e) */\n      tag_50\n        /* \"#utility.yul\":1249:1523   */\n      jump\n        /* \"contracts/solidity.series/Counter.sol\":164:215  function dec() external {... */\n    tag_36:\n        /* \"contracts/solidity.series/Counter.sol\":207:208  1 */\n      0x01\n        /* \"contracts/solidity.series/Counter.sol\":198:203  count */\n      0x00\n      dup1\n        /* \"contracts/solidity.series/Counter.sol\":198:208  count -= 1 */\n      dup3\n      dup3\n      sload\n      tag_57\n      swap2\n      swap1\n      tag_64\n      jump\t// in\n        /* \"#utility.yul\":196:376   */\n    tag_19:\n        /* \"#utility.yul\":255:261   */\n      0x00\n        /* \"#utility.yul\":308:310   */\n      0x20\n        /* \"#utility.yul\":296:305   */\n      dup3\n        /* \"#utility.yul\":287:294   */\n      dup5\n        /* \"#utility.yul\":283:306   */\n      sub\n        /* \"#utility.yul\":279:311   */\n      slt\n        /* \"#utility.yul\":276:328   */\n      iszero\n      tag_72\n      jumpi\n        /* \"#utility.yul\":324:325   */\n      0x00\n        /* \"#utility.yul\":321:322   */\n      dup1\n        /* \"#utility.yul\":314:326   */\n      revert\n        /* \"#utility.yul\":276:328   */\n    tag_72:\n      pop\n        /* \"#utility.yul\":347:370   */\n      calldataload\n      swap2\n        /* \"#utility.yul\":196:376   */\n      swap1\n      pop\n      jump\t// out\n        /* \"#utility.yul\":381:508   */\n    tag_68:\n        /* \"#utility.yul\":442:452   */\n      0x4e487b71\n        /* \"#utility.yul\":437:440   */\n      0xe0\n        /* \"#utility.yul\":433:453   */\n      shl\n        /* \"#utility.yul\":430:431   */\n      0x00\n        /* \"#utility.yul\":423:454   */\n      mstore\n        /* \"#utility.yul\":473:477   */\n      0x11\n        /* \"#utility.yul\":470:471   */\n      0x04\n        /* \"#utility.yul\":463:478   */\n      mstore\n        /* \"#utility.yul\":497:501   */\n      0x24\n        /* \"#utility.yul\":494:495   */\n      0x00\n        /* \"#utility.yul\":487:502   */\n      revert\n        /* \"#utility.yul\":513:638   */\n    tag_45:\n        /* \"#utility.yul\":578:587   */\n      dup1\n      dup3\n      add\n        /* \"#utility.yul\":599:609   */\n      dup1\n      dup3\n      gt\n        /* \"#utility.yul\":596:632   */\n      iszero\n      tag_76\n      jumpi\n        /* \"#utility.yul\":612:630   */\n      tag_76\n      tag_68\n      jump\t// in\n    tag_76:\n        /* \"#utility.yul\":513:638   */\n      swap3\n      swap2\n      pop\n      pop\n      jump\t// out\n        /* \"#utility.yul\":643:778   */\n    tag_47:\n        /* \"#utility.yul\":682:685   */\n      0x00\n        /* \"#utility.yul\":703:720   */\n      0x01\n      dup3\n      add\n        /* \"#utility.yul\":700:743   */\n      tag_79\n      jumpi\n        /* \"#utility.yul\":723:741   */\n      tag_79\n      tag_68\n      jump\t// in\n    tag_79:\n      pop\n        /* \"#utility.yul\":770:771   */\n      0x01\n        /* \"#utility.yul\":759:772   */\n      add\n      swap1\n        /* \"#utility.yul\":643:778   */\n      jump\t// out\n        /* \"#utility.yul\":1117:1244   */\n    tag_55:\n        /* \"#utility.yul\":1178:1188   */\n      0x4e487b71\n        /* \"#utility.yul\":1173:1176   */\n      0xe0\n        /* \"#utility.yul\":1169:1189   */\n      shl\n        /* \"#utility.yul\":1166:1167   */\n      0x00\n        /* \"#utility.yul\":1159:1190   */\n      mstore\n        /* \"#utility.yul\":1209:1213   */\n      0x01\n        /* \"#utility.yul\":1206:1207   */\n      0x04\n        /* \"#utility.yul\":1199:1214   */\n      mstore\n        /* \"#utility.yul\":1233:1237   */\n      0x24\n        /* \"#utility.yul\":1230:1231   */\n      0x00\n        /* \"#utility.yul\":1223:1238   */\n      revert\n        /* \"#utility.yul\":1528:1656   */\n    tag_64:\n        /* \"#utility.yul\":1595:1604   */\n      dup2\n      dup2\n      sub\n        /* \"#utility.yul\":1616:1627   */\n      dup2\n      dup2\n      gt\n        /* \"#utility.yul\":1613:1650   */\n      iszero\n      tag_76\n      jumpi\n        /* \"#utility.yul\":1630:1648   */\n      tag_76\n      tag_68\n      jump\t// in\n\n    auxdata: 0xa2646970667358221220a5cc230fe1781208816f8a3d103aea5af033c7c9b3f3e691598dedfb01b4ce3064736f6c63430008170033\n}\n",
				"bytecode": {
					"linkReferences": {},
					"object": "6080604052607b600155348015610014575f80fd5b5061029f806100225f395ff3fe608060405234801561000f575f80fd5b5060043610610090575f3560e01c8063371303c011610063578063371303c0146100de5780634e70b1dc146100e657806375f7286c146100ef578063b3bcfa8214610102578063b8bd717f146100c1575f80fd5b806306661abd14610094578063188b85b4146100ae57806320987767146100c15780632b813bc0146100d6575b5f80fd5b61009c5f5481565b60405190815260200160405180910390f35b61009c6100bc3660046101e6565b61010a565b6100d46100cf3660046101e6565b61013c565b005b6100d461017e565b6100d4610192565b61009c60015481565b6100d46100fd3660046101e6565b6101aa565b6100d46101d5565b5f8060015b83811161013557610121600183610211565b91508061012d8161022a565b91505061010f565b5092915050565b600a81111561017b5760405162461bcd60e51b8152602060048201526006602482015265069203e2031360d41b60448201526064015b60405180910390fd5b50565b600154607b1461019057610190610242565b565b60015f808282546101a39190610211565b9091555050565b600a81111561017b57604051631c47337760e31b815233600482015260248101829052604401610172565b60015f808282546101a39190610256565b5f602082840312156101f6575f80fd5b5035919050565b634e487b7160e01b5f52601160045260245ffd5b80820180821115610224576102246101fd565b92915050565b5f6001820161023b5761023b6101fd565b5060010190565b634e487b7160e01b5f52600160045260245ffd5b81810381811115610224576102246101fd56fea2646970667358221220a5cc230fe1781208816f8a3d103aea5af033c7c9b3f3e691598dedfb01b4ce3064736f6c63430008170033",
					"opcodes": "PUSH1 0x80 PUSH1 0x40 MSTORE PUSH1 0x7B PUSH1 0x1 SSTORE CALLVALUE DUP1 ISZERO PUSH2 0x14 JUMPI PUSH0 DUP1 REVERT JUMPDEST POP PUSH2 0x29F DUP1 PUSH2 0x22 PUSH0 CODECOPY PUSH0 RETURN INVALID PUSH1 0x80 PUSH1 0x40 MSTORE CALLVALUE DUP1 ISZERO PUSH2 0xF JUMPI PUSH0 DUP1 REVERT JUMPDEST POP PUSH1 0x4 CALLDATASIZE LT PUSH2 0x90 JUMPI PUSH0 CALLDATALOAD PUSH1 0xE0 SHR DUP1 PUSH4 0x371303C0 GT PUSH2 0x63 JUMPI DUP1 PUSH4 0x371303C0 EQ PUSH2 0xDE JUMPI DUP1 PUSH4 0x4E70B1DC EQ PUSH2 0xE6 JUMPI DUP1 PUSH4 0x75F7286C EQ PUSH2 0xEF JUMPI DUP1 PUSH4 0xB3BCFA82 EQ PUSH2 0x102 JUMPI DUP1 PUSH4 0xB8BD717F EQ PUSH2 0xC1 JUMPI PUSH0 DUP1 REVERT JUMPDEST DUP1 PUSH4 0x6661ABD EQ PUSH2 0x94 JUMPI DUP1 PUSH4 0x188B85B4 EQ PUSH2 0xAE JUMPI DUP1 PUSH4 0x20987767 EQ PUSH2 0xC1 JUMPI DUP1 PUSH4 0x2B813BC0 EQ PUSH2 0xD6 JUMPI JUMPDEST PUSH0 DUP1 REVERT JUMPDEST PUSH2 0x9C PUSH0 SLOAD DUP2 JUMP JUMPDEST PUSH1 0x40 MLOAD SWAP1 DUP2 MSTORE PUSH1 0x20 ADD PUSH1 0x40 MLOAD DUP1 SWAP2 SUB SWAP1 RETURN JUMPDEST PUSH2 0x9C PUSH2 0xBC CALLDATASIZE PUSH1 0x4 PUSH2 0x1E6 JUMP JUMPDEST PUSH2 0x10A JUMP JUMPDEST PUSH2 0xD4 PUSH2 0xCF CALLDATASIZE PUSH1 0x4 PUSH2 0x1E6 JUMP JUMPDEST PUSH2 0x13C JUMP JUMPDEST STOP JUMPDEST PUSH2 0xD4 PUSH2 0x17E JUMP JUMPDEST PUSH2 0xD4 PUSH2 0x192 JUMP JUMPDEST PUSH2 0x9C PUSH1 0x1 SLOAD DUP2 JUMP JUMPDEST PUSH2 0xD4 PUSH2 0xFD CALLDATASIZE PUSH1 0x4 PUSH2 0x1E6 JUMP JUMPDEST PUSH2 0x1AA JUMP JUMPDEST PUSH2 0xD4 PUSH2 0x1D5 JUMP JUMPDEST PUSH0 DUP1 PUSH1 0x1 JUMPDEST DUP4 DUP2 GT PUSH2 0x135 JUMPI PUSH2 0x121 PUSH1 0x1 DUP4 PUSH2 0x211 JUMP JUMPDEST SWAP2 POP DUP1 PUSH2 0x12D DUP2 PUSH2 0x22A JUMP JUMPDEST SWAP2 POP POP PUSH2 0x10F JUMP JUMPDEST POP SWAP3 SWAP2 POP POP JUMP JUMPDEST PUSH1 0xA DUP2 GT ISZERO PUSH2 0x17B JUMPI PUSH1 0x40 MLOAD PUSH3 0x461BCD PUSH1 0xE5 SHL DUP2 MSTORE PUSH1 0x20 PUSH1 0x4 DUP3 ADD MSTORE PUSH1 0x6 PUSH1 0x24 DUP3 ADD MSTORE PUSH6 0x69203E20313 PUSH1 0xD4 SHL PUSH1 0x44 DUP3 ADD MSTORE PUSH1 0x64 ADD JUMPDEST PUSH1 0x40 MLOAD DUP1 SWAP2 SUB SWAP1 REVERT JUMPDEST POP JUMP JUMPDEST PUSH1 0x1 SLOAD PUSH1 0x7B EQ PUSH2 0x190 JUMPI PUSH2 0x190 PUSH2 0x242 JUMP JUMPDEST JUMP JUMPDEST PUSH1 0x1 PUSH0 DUP1 DUP3 DUP3 SLOAD PUSH2 0x1A3 SWAP2 SWAP1 PUSH2 0x211 JUMP JUMPDEST SWAP1 SWAP2 SSTORE POP POP JUMP JUMPDEST PUSH1 0xA DUP2 GT ISZERO PUSH2 0x17B JUMPI PUSH1 0x40 MLOAD PUSH4 0x1C473377 PUSH1 0xE3 SHL DUP2 MSTORE CALLER PUSH1 0x4 DUP3 ADD MSTORE PUSH1 0x24 DUP2 ADD DUP3 SWAP1 MSTORE PUSH1 0x44 ADD PUSH2 0x172 JUMP JUMPDEST PUSH1 0x1 PUSH0 DUP1 DUP3 DUP3 SLOAD PUSH2 0x1A3 SWAP2 SWAP1 PUSH2 0x256 JUMP JUMPDEST PUSH0 PUSH1 0x20 DUP3 DUP5 SUB SLT ISZERO PUSH2 0x1F6 JUMPI PUSH0 DUP1 REVERT JUMPDEST POP CALLDATALOAD SWAP2 SWAP1 POP JUMP JUMPDEST PUSH4 0x4E487B71 PUSH1 0xE0 SHL PUSH0 MSTORE PUSH1 0x11 PUSH1 0x4 MSTORE PUSH1 0x24 PUSH0 REVERT JUMPDEST DUP1 DUP3 ADD DUP1 DUP3 GT ISZERO PUSH2 0x224 JUMPI PUSH2 0x224 PUSH2 0x1FD JUMP JUMPDEST SWAP3 SWAP2 POP POP JUMP JUMPDEST PUSH0 PUSH1 0x1 DUP3 ADD PUSH2 0x23B JUMPI PUSH2 0x23B PUSH2 0x1FD JUMP JUMPDEST POP PUSH1 0x1 ADD SWAP1 JUMP JUMPDEST PUSH4 0x4E487B71 PUSH1 0xE0 SHL PUSH0 MSTORE PUSH1 0x1 PUSH1 0x4 MSTORE PUSH1 0x24 PUSH0 REVERT JUMPDEST DUP2 DUP2 SUB DUP2 DUP2 GT ISZERO PUSH2 0x224 JUMPI PUSH2 0x224 PUSH2 0x1FD JUMP INVALID LOG2 PUSH5 0x6970667358 0x22 SLT KECCAK256 0xA5 0xCC 0x23 0xF 0xE1 PUSH25 0x1208816F8A3D103AEA5AF033C7C9B3F3E691598DEDFB01B4CE ADDRESS PUSH5 0x736F6C6343 STOP ADDMOD OR STOP CALLER "
				},
				"gasEstimates": {
					"creation": {
						"codeDepositCost": "134200",
						"executionCost": "22281",
						"totalCost": "156481"
					},
					"external": {
						"count()": "2282",
						"dec()": "24508",
						"inc()": "24442",
						"num()": "2304",
						"sum(uint256)": "infinite",
						"testAssert()": "2366",
						"testCustomError(uint256)": "380",
						"testRequire(uint256)": "435",
						"testRevert(uint256)": "392"
					}
				},
				"methodIdentifiers": {
					"count()": "06661abd",
					"dec()": "b3bcfa82",
					"inc()": "371303c0",
					"num()": "4e70b1dc",
					"sum(uint256)": "188b85b4",
					"testAssert()": "2b813bc0",
					"testCustomError(uint256)": "75f7286c",
					"testRequire(uint256)": "b8bd717f",
					"testRevert(uint256)": "20987767"
				}
			},
			"storageLayout": {
				"storage": [
					{
						"astId": 3,
						"contract": "contracts/solidity.series/Counter.sol:Counter",
						"label": "count",
						"offset": 0,
						"slot": "0",
						"type": "t_uint256"
					},
					{
						"astId": 79,
						"contract": "contracts/solidity.series/Counter.sol:Counter",
						"label": "num",
						"offset": 0,
						"slot": "1",
						"type": "t_uint256"
					}
				],
				"types": {
					"t_uint256": {
						"encoding": "inplace",
						"label": "uint256",
						"numberOfBytes": "32"
					}
				}
			},
			"userdoc": {
				"kind": "user",
				"methods": {},
				"version": 1
			}
		}
	}
}