{
	"contracts/solidity.series/Counter.sol": {
		"FunctionModifier": {
			"abi": [
				{
					"inputs": [],
					"name": "count",
					"outputs": [
						{
							"internalType": "uint256",
							"name": "",
							"type": "uint256"
						}
					],
					"stateMutability": "view",
					"type": "function"
				},
				{
					"inputs": [],
					"name": "dec",
					"outputs": [],
					"stateMutability": "nonpayable",
					"type": "function"
				},
				{
					"inputs": [],
					"name": "inc",
					"outputs": [],
					"stateMutability": "nonpayable",
					"type": "function"
				},
				{
					"inputs": [
						{
							"internalType": "uint256",
							"name": "_x",
							"type": "uint256"
						}
					],
					"name": "incBy",
					"outputs": [],
					"stateMutability": "nonpayable",
					"type": "function"
				},
				{
					"inputs": [],
					"name": "paused",
					"outputs": [
						{
							"internalType": "bool",
							"name": "",
							"type": "bool"
						}
					],
					"stateMutability": "view",
					"type": "function"
				},
				{
					"inputs": [
						{
							"internalType": "bool",
							"name": "_paused",
							"type": "bool"
						}
					],
					"name": "setPause",
					"outputs": [],
					"stateMutability": "nonpayable",
					"type": "function"
				}
			],
			"devdoc": {
				"kind": "dev",
				"methods": {},
				"version": 1
			},
			"evm": {
				"assembly": "    /* \"contracts/solidity.series/Counter.sol\":1542:2108  contract FunctionModifier {... */\n  mstore(0x40, 0x80)\n  callvalue\n  dup1\n  iszero\n  tag_1\n  jumpi\n  0x00\n  dup1\n  revert\ntag_1:\n  pop\n  dataSize(sub_0)\n  dup1\n  dataOffset(sub_0)\n  0x00\n  codecopy\n  0x00\n  return\nstop\n\nsub_0: assembly {\n        /* \"contracts/solidity.series/Counter.sol\":1542:2108  contract FunctionModifier {... */\n      mstore(0x40, 0x80)\n      callvalue\n      dup1\n      iszero\n      tag_1\n      jumpi\n      0x00\n      dup1\n      revert\n    tag_1:\n      pop\n      jumpi(tag_2, lt(calldatasize, 0x04))\n      shr(0xe0, calldataload(0x00))\n      dup1\n      0x06661abd\n      eq\n      tag_3\n      jumpi\n      dup1\n      0x371303c0\n      eq\n      tag_4\n      jumpi\n      dup1\n      0x5c975abb\n      eq\n      tag_5\n      jumpi\n      dup1\n      0x70119d06\n      eq\n      tag_6\n      jumpi\n      dup1\n      0xb3bcfa82\n      eq\n      tag_7\n      jumpi\n      dup1\n      0xbedb86fb\n      eq\n      tag_8\n      jumpi\n    tag_2:\n      0x00\n      dup1\n      revert\n        /* \"contracts/solidity.series/Counter.sol\":1598:1618  uint256 public count */\n    tag_3:\n      tag_9\n      sload(0x01)\n      dup2\n      jump\n    tag_9:\n      mload(0x40)\n        /* \"#utility.yul\":160:185   */\n      swap1\n      dup2\n      mstore\n        /* \"#utility.yul\":148:150   */\n      0x20\n        /* \"#utility.yul\":133:151   */\n      add\n        /* \"contracts/solidity.series/Counter.sol\":1598:1618  uint256 public count */\n    tag_11:\n      mload(0x40)\n      dup1\n      swap2\n      sub\n      swap1\n      return\n        /* \"contracts/solidity.series/Counter.sol\":1790:1855  function inc() external whenNotPaused {... */\n    tag_4:\n      tag_13\n      tag_14\n      jump\t// in\n    tag_13:\n      stop\n        /* \"contracts/solidity.series/Counter.sol\":1574:1592  bool public paused */\n    tag_5:\n      sload(0x00)\n      tag_15\n      swap1\n      0xff\n      and\n      dup2\n      jump\n    tag_15:\n      mload(0x40)\n        /* \"#utility.yul\":361:375   */\n      swap1\n      iszero\n        /* \"#utility.yul\":354:376   */\n      iszero\n        /* \"#utility.yul\":336:377   */\n      dup2\n      mstore\n        /* \"#utility.yul\":324:326   */\n      0x20\n        /* \"#utility.yul\":309:327   */\n      add\n        /* \"contracts/solidity.series/Counter.sol\":1574:1592  bool public paused */\n      tag_11\n        /* \"#utility.yul\":196:383   */\n      jump\n        /* \"contracts/solidity.series/Counter.sol\":2020:2106  function incBy(uint256 _x) external whenNotPaused cap(_x) {... */\n    tag_6:\n      tag_13\n      tag_20\n      calldatasize\n      0x04\n      tag_21\n      jump\t// in\n    tag_20:\n      tag_22\n      jump\t// in\n        /* \"contracts/solidity.series/Counter.sol\":1861:1926  function dec() external whenNotPaused {... */\n    tag_7:\n      tag_13\n      tag_24\n      jump\t// in\n        /* \"contracts/solidity.series/Counter.sol\":1625:1699  function setPause(bool _paused) external {... */\n    tag_8:\n      tag_13\n      tag_26\n      calldatasize\n      0x04\n      tag_27\n      jump\t// in\n    tag_26:\n        /* \"contracts/solidity.series/Counter.sol\":1676:1682  paused */\n      0x00\n        /* \"contracts/solidity.series/Counter.sol\":1676:1692  paused = _paused */\n      dup1\n      sload\n      not(0xff)\n      and\n      swap2\n      iszero\n      iszero\n      swap2\n      swap1\n      swap2\n      or\n      swap1\n      sstore\n        /* \"contracts/solidity.series/Counter.sol\":1625:1699  function setPause(bool _paused) external {... */\n      jump\n        /* \"contracts/solidity.series/Counter.sol\":1790:1855  function inc() external whenNotPaused {... */\n    tag_14:\n        /* \"contracts/solidity.series/Counter.sol\":1749:1755  paused */\n      and(0xff, sload(0x00))\n        /* \"contracts/solidity.series/Counter.sol\":1748:1755  !paused */\n      iszero\n        /* \"contracts/solidity.series/Counter.sol\":1740:1766  require(!paused, \"paused\") */\n      tag_30\n      jumpi\n      mload(0x40)\n      shl(0xe5, 0x461bcd)\n      dup2\n      mstore\n      0x04\n      add\n      tag_31\n      swap1\n      tag_32\n      jump\t// in\n    tag_31:\n      mload(0x40)\n      dup1\n      swap2\n      sub\n      swap1\n      revert\n    tag_30:\n        /* \"contracts/solidity.series/Counter.sol\":1847:1848  1 */\n      0x01\n        /* \"contracts/solidity.series/Counter.sol\":1838:1843  count */\n      dup1\n      0x00\n        /* \"contracts/solidity.series/Counter.sol\":1838:1848  count += 1 */\n      dup3\n      dup3\n      sload\n      tag_34\n      swap2\n      swap1\n      tag_35\n      jump\t// in\n    tag_34:\n      swap1\n      swap2\n      sstore\n      pop\n      pop\n        /* \"contracts/solidity.series/Counter.sol\":1790:1855  function inc() external whenNotPaused {... */\n      jump\t// out\n        /* \"contracts/solidity.series/Counter.sol\":2020:2106  function incBy(uint256 _x) external whenNotPaused cap(_x) {... */\n    tag_22:\n        /* \"contracts/solidity.series/Counter.sol\":1749:1755  paused */\n      and(0xff, sload(0x00))\n        /* \"contracts/solidity.series/Counter.sol\":1748:1755  !paused */\n      iszero\n        /* \"contracts/solidity.series/Counter.sol\":1740:1766  require(!paused, \"paused\") */\n      tag_37\n      jumpi\n      mload(0x40)\n      shl(0xe5, 0x461bcd)\n      dup2\n      mstore\n      0x04\n      add\n      tag_31\n      swap1\n      tag_32\n      jump\t// in\n    tag_37:\n        /* \"contracts/solidity.series/Counter.sol\":2074:2076  _x */\n      dup1\n        /* \"contracts/solidity.series/Counter.sol\":1980:1983  100 */\n      0x64\n        /* \"contracts/solidity.series/Counter.sol\":1975:1977  _x */\n      dup2\n        /* \"contracts/solidity.series/Counter.sol\":1975:1983  _x < 100 */\n      lt\n        /* \"contracts/solidity.series/Counter.sol\":1967:1996  require(_x < 100, \"X >= 100\") */\n      tag_40\n      jumpi\n      mload(0x40)\n      shl(0xe5, 0x461bcd)\n      dup2\n      mstore\n        /* \"#utility.yul\":1649:1651   */\n      0x20\n        /* \"contracts/solidity.series/Counter.sol\":1967:1996  require(_x < 100, \"X >= 100\") */\n      0x04\n      dup3\n      add\n        /* \"#utility.yul\":1631:1652   */\n      mstore\n        /* \"#utility.yul\":1688:1689   */\n      0x08\n        /* \"#utility.yul\":1668:1686   */\n      0x24\n      dup3\n      add\n        /* \"#utility.yul\":1661:1690   */\n      mstore\n      shl(0xc4, 0x058203e3d2031303)\n        /* \"#utility.yul\":1706:1724   */\n      0x44\n      dup3\n      add\n        /* \"#utility.yul\":1699:1737   */\n      mstore\n        /* \"#utility.yul\":1754:1772   */\n      0x64\n      add\n        /* \"contracts/solidity.series/Counter.sol\":1967:1996  require(_x < 100, \"X >= 100\") */\n      tag_31\n        /* \"#utility.yul\":1447:1778   */\n      jump\n        /* \"contracts/solidity.series/Counter.sol\":1967:1996  require(_x < 100, \"X >= 100\") */\n    tag_40:\n        /* \"contracts/solidity.series/Counter.sol\":2097:2099  _x */\n      dup2\n        /* \"contracts/solidity.series/Counter.sol\":2088:2093  count */\n      0x01\n      0x00\n        /* \"contracts/solidity.series/Counter.sol\":2088:2099  count += _x */\n      dup3\n      dup3\n      sload\n      tag_44\n      swap2\n      swap1\n      tag_35\n      jump\t// in\n    tag_44:\n      swap1\n      swap2\n      sstore\n      pop\n      pop\n      pop\n      pop\n        /* \"contracts/solidity.series/Counter.sol\":2020:2106  function incBy(uint256 _x) external whenNotPaused cap(_x) {... */\n      jump\t// out\n        /* \"contracts/solidity.series/Counter.sol\":1861:1926  function dec() external whenNotPaused {... */\n    tag_24:\n        /* \"contracts/solidity.series/Counter.sol\":1749:1755  paused */\n      and(0xff, sload(0x00))\n        /* \"contracts/solidity.series/Counter.sol\":1748:1755  !paused */\n      iszero\n        /* \"contracts/solidity.series/Counter.sol\":1740:1766  require(!paused, \"paused\") */\n      tag_46\n      jumpi\n      mload(0x40)\n      shl(0xe5, 0x461bcd)\n      dup2\n      mstore\n      0x04\n      add\n      tag_31\n      swap1\n      tag_32\n      jump\t// in\n    tag_46:\n        /* \"contracts/solidity.series/Counter.sol\":1918:1919  1 */\n      0x01\n        /* \"contracts/solidity.series/Counter.sol\":1909:1914  count */\n      dup1\n      0x00\n        /* \"contracts/solidity.series/Counter.sol\":1909:1919  count -= 1 */\n      dup3\n      dup3\n      sload\n      tag_34\n      swap2\n      swap1\n      tag_50\n      jump\t// in\n        /* \"#utility.yul\":388:568   */\n    tag_21:\n        /* \"#utility.yul\":447:453   */\n      0x00\n        /* \"#utility.yul\":500:502   */\n      0x20\n        /* \"#utility.yul\":488:497   */\n      dup3\n        /* \"#utility.yul\":479:486   */\n      dup5\n        /* \"#utility.yul\":475:498   */\n      sub\n        /* \"#utility.yul\":471:503   */\n      slt\n        /* \"#utility.yul\":468:520   */\n      iszero\n      tag_57\n      jumpi\n        /* \"#utility.yul\":516:517   */\n      0x00\n        /* \"#utility.yul\":513:514   */\n      dup1\n        /* \"#utility.yul\":506:518   */\n      revert\n        /* \"#utility.yul\":468:520   */\n    tag_57:\n      pop\n        /* \"#utility.yul\":539:562   */\n      calldataload\n      swap2\n        /* \"#utility.yul\":388:568   */\n      swap1\n      pop\n      jump\t// out\n        /* \"#utility.yul\":573:846   */\n    tag_27:\n        /* \"#utility.yul\":629:635   */\n      0x00\n        /* \"#utility.yul\":682:684   */\n      0x20\n        /* \"#utility.yul\":670:679   */\n      dup3\n        /* \"#utility.yul\":661:668   */\n      dup5\n        /* \"#utility.yul\":657:680   */\n      sub\n        /* \"#utility.yul\":653:685   */\n      slt\n        /* \"#utility.yul\":650:702   */\n      iszero\n      tag_59\n      jumpi\n        /* \"#utility.yul\":698:699   */\n      0x00\n        /* \"#utility.yul\":695:696   */\n      dup1\n        /* \"#utility.yul\":688:700   */\n      revert\n        /* \"#utility.yul\":650:702   */\n    tag_59:\n        /* \"#utility.yul\":737:746   */\n      dup2\n        /* \"#utility.yul\":724:747   */\n      calldataload\n        /* \"#utility.yul\":790:795   */\n      dup1\n        /* \"#utility.yul\":783:796   */\n      iszero\n        /* \"#utility.yul\":776:797   */\n      iszero\n        /* \"#utility.yul\":769:774   */\n      dup2\n        /* \"#utility.yul\":766:798   */\n      eq\n        /* \"#utility.yul\":756:816   */\n      tag_60\n      jumpi\n        /* \"#utility.yul\":812:813   */\n      0x00\n        /* \"#utility.yul\":809:810   */\n      dup1\n        /* \"#utility.yul\":802:814   */\n      revert\n        /* \"#utility.yul\":756:816   */\n    tag_60:\n        /* \"#utility.yul\":835:840   */\n      swap4\n        /* \"#utility.yul\":573:846   */\n      swap3\n      pop\n      pop\n      pop\n      jump\t// out\n        /* \"#utility.yul\":851:1180   */\n    tag_32:\n        /* \"#utility.yul\":1053:1055   */\n      0x20\n        /* \"#utility.yul\":1035:1056   */\n      dup1\n      dup3\n      mstore\n        /* \"#utility.yul\":1092:1093   */\n      0x06\n        /* \"#utility.yul\":1072:1090   */\n      swap1\n      dup3\n      add\n        /* \"#utility.yul\":1065:1094   */\n      mstore\n      shl(0xd2, 0x1c185d5cd959)\n        /* \"#utility.yul\":1125:1127   */\n      0x40\n        /* \"#utility.yul\":1110:1128   */\n      dup3\n      add\n        /* \"#utility.yul\":1103:1139   */\n      mstore\n        /* \"#utility.yul\":1171:1173   */\n      0x60\n        /* \"#utility.yul\":1156:1174   */\n      add\n      swap1\n        /* \"#utility.yul\":851:1180   */\n      jump\t// out\n        /* \"#utility.yul\":1185:1312   */\n    tag_52:\n        /* \"#utility.yul\":1246:1256   */\n      0x4e487b71\n        /* \"#utility.yul\":1241:1244   */\n      0xe0\n        /* \"#utility.yul\":1237:1257   */\n      shl\n        /* \"#utility.yul\":1234:1235   */\n      0x00\n        /* \"#utility.yul\":1227:1258   */\n      mstore\n        /* \"#utility.yul\":1277:1281   */\n      0x11\n        /* \"#utility.yul\":1274:1275   */\n      0x04\n        /* \"#utility.yul\":1267:1282   */\n      mstore\n        /* \"#utility.yul\":1301:1305   */\n      0x24\n        /* \"#utility.yul\":1298:1299   */\n      0x00\n        /* \"#utility.yul\":1291:1306   */\n      revert\n        /* \"#utility.yul\":1317:1442   */\n    tag_35:\n        /* \"#utility.yul\":1382:1391   */\n      dup1\n      dup3\n      add\n        /* \"#utility.yul\":1403:1413   */\n      dup1\n      dup3\n      gt\n        /* \"#utility.yul\":1400:1436   */\n      iszero\n      tag_65\n      jumpi\n        /* \"#utility.yul\":1416:1434   */\n      tag_65\n      tag_52\n      jump\t// in\n    tag_65:\n        /* \"#utility.yul\":1317:1442   */\n      swap3\n      swap2\n      pop\n      pop\n      jump\t// out\n        /* \"#utility.yul\":1783:1911   */\n    tag_50:\n        /* \"#utility.yul\":1850:1859   */\n      dup2\n      dup2\n      sub\n        /* \"#utility.yul\":1871:1882   */\n      dup2\n      dup2\n      gt\n        /* \"#utility.yul\":1868:1905   */\n      iszero\n      tag_65\n      jumpi\n        /* \"#utility.yul\":1885:1903   */\n      tag_65\n      tag_52\n      jump\t// in\n\n    auxdata: 0xa264697066735822122093e4985c5aea191157dacdcd46fb72f831056badc831e278f727f79cc5f2b9d464736f6c63430008170033\n}\n",
				"bytecode": {
					"linkReferences": {},
					"object": "608060405234801561000f575f80fd5b506102a28061001d5f395ff3fe608060405234801561000f575f80fd5b5060043610610060575f3560e01c806306661abd14610064578063371303c0146100805780635c975abb1461008a57806370119d06146100a6578063b3bcfa82146100b9578063bedb86fb146100c1575b5f80fd5b61006d60015481565b6040519081526020015b60405180910390f35b6100886100e1565b005b5f546100969060ff1681565b6040519015158152602001610077565b6100886100b43660046101cf565b610124565b61008861019c565b6100886100cf3660046101e6565b5f805460ff1916911515919091179055565b5f5460ff161561010c5760405162461bcd60e51b81526004016101039061020c565b60405180910390fd5b6001805f82825461011d9190610240565b9091555050565b5f5460ff16156101465760405162461bcd60e51b81526004016101039061020c565b80606481106101825760405162461bcd60e51b8152602060048201526008602482015267058203e3d203130360c41b6044820152606401610103565b8160015f8282546101939190610240565b90915550505050565b5f5460ff16156101be5760405162461bcd60e51b81526004016101039061020c565b6001805f82825461011d9190610259565b5f602082840312156101df575f80fd5b5035919050565b5f602082840312156101f6575f80fd5b81358015158114610205575f80fd5b9392505050565b6020808252600690820152651c185d5cd95960d21b604082015260600190565b634e487b7160e01b5f52601160045260245ffd5b808201808211156102535761025361022c565b92915050565b818103818111156102535761025361022c56fea264697066735822122093e4985c5aea191157dacdcd46fb72f831056badc831e278f727f79cc5f2b9d464736f6c63430008170033",
					"opcodes": "PUSH1 0x80 PUSH1 0x40 MSTORE CALLVALUE DUP1 ISZERO PUSH2 0xF JUMPI PUSH0 DUP1 REVERT JUMPDEST POP PUSH2 0x2A2 DUP1 PUSH2 0x1D PUSH0 CODECOPY PUSH0 RETURN INVALID PUSH1 0x80 PUSH1 0x40 MSTORE CALLVALUE DUP1 ISZERO PUSH2 0xF JUMPI PUSH0 DUP1 REVERT JUMPDEST POP PUSH1 0x4 CALLDATASIZE LT PUSH2 0x60 JUMPI PUSH0 CALLDATALOAD PUSH1 0xE0 SHR DUP1 PUSH4 0x6661ABD EQ PUSH2 0x64 JUMPI DUP1 PUSH4 0x371303C0 EQ PUSH2 0x80 JUMPI DUP1 PUSH4 0x5C975ABB EQ PUSH2 0x8A JUMPI DUP1 PUSH4 0x70119D06 EQ PUSH2 0xA6 JUMPI DUP1 PUSH4 0xB3BCFA82 EQ PUSH2 0xB9 JUMPI DUP1 PUSH4 0xBEDB86FB EQ PUSH2 0xC1 JUMPI JUMPDEST PUSH0 DUP1 REVERT JUMPDEST PUSH2 0x6D PUSH1 0x1 SLOAD DUP2 JUMP JUMPDEST PUSH1 0x40 MLOAD SWAP1 DUP2 MSTORE PUSH1 0x20 ADD JUMPDEST PUSH1 0x40 MLOAD DUP1 SWAP2 SUB SWAP1 RETURN JUMPDEST PUSH2 0x88 PUSH2 0xE1 JUMP JUMPDEST STOP JUMPDEST PUSH0 SLOAD PUSH2 0x96 SWAP1 PUSH1 0xFF AND DUP2 JUMP JUMPDEST PUSH1 0x40 MLOAD SWAP1 ISZERO ISZERO DUP2 MSTORE PUSH1 0x20 ADD PUSH2 0x77 JUMP JUMPDEST PUSH2 0x88 PUSH2 0xB4 CALLDATASIZE PUSH1 0x4 PUSH2 0x1CF JUMP JUMPDEST PUSH2 0x124 JUMP JUMPDEST PUSH2 0x88 PUSH2 0x19C JUMP JUMPDEST PUSH2 0x88 PUSH2 0xCF CALLDATASIZE PUSH1 0x4 PUSH2 0x1E6 JUMP JUMPDEST PUSH0 DUP1 SLOAD PUSH1 0xFF NOT AND SWAP2 ISZERO ISZERO SWAP2 SWAP1 SWAP2 OR SWAP1 SSTORE JUMP JUMPDEST PUSH0 SLOAD PUSH1 0xFF AND ISZERO PUSH2 0x10C JUMPI PUSH1 0x40 MLOAD PUSH3 0x461BCD PUSH1 0xE5 SHL DUP2 MSTORE PUSH1 0x4 ADD PUSH2 0x103 SWAP1 PUSH2 0x20C JUMP JUMPDEST PUSH1 0x40 MLOAD DUP1 SWAP2 SUB SWAP1 REVERT JUMPDEST PUSH1 0x1 DUP1 PUSH0 DUP3 DUP3 SLOAD PUSH2 0x11D SWAP2 SWAP1 PUSH2 0x240 JUMP JUMPDEST SWAP1 SWAP2 SSTORE POP POP JUMP JUMPDEST PUSH0 SLOAD PUSH1 0xFF AND ISZERO PUSH2 0x146 JUMPI PUSH1 0x40 MLOAD PUSH3 0x461BCD PUSH1 0xE5 SHL DUP2 MSTORE PUSH1 0x4 ADD PUSH2 0x103 SWAP1 PUSH2 0x20C JUMP JUMPDEST DUP1 PUSH1 0x64 DUP2 LT PUSH2 0x182 JUMPI PUSH1 0x40 MLOAD PUSH3 0x461BCD PUSH1 0xE5 SHL DUP2 MSTORE PUSH1 0x20 PUSH1 0x4 DUP3 ADD MSTORE PUSH1 0x8 PUSH1 0x24 DUP3 ADD MSTORE PUSH8 0x58203E3D2031303 PUSH1 0xC4 SHL PUSH1 0x44 DUP3 ADD MSTORE PUSH1 0x64 ADD PUSH2 0x103 JUMP JUMPDEST DUP2 PUSH1 0x1 PUSH0 DUP3 DUP3 SLOAD PUSH2 0x193 SWAP2 SWAP1 PUSH2 0x240 JUMP JUMPDEST SWAP1 SWAP2 SSTORE POP POP POP POP JUMP JUMPDEST PUSH0 SLOAD PUSH1 0xFF AND ISZERO PUSH2 0x1BE JUMPI PUSH1 0x40 MLOAD PUSH3 0x461BCD PUSH1 0xE5 SHL DUP2 MSTORE PUSH1 0x4 ADD PUSH2 0x103 SWAP1 PUSH2 0x20C JUMP JUMPDEST PUSH1 0x1 DUP1 PUSH0 DUP3 DUP3 SLOAD PUSH2 0x11D SWAP2 SWAP1 PUSH2 0x259 JUMP JUMPDEST PUSH0 PUSH1 0x20 DUP3 DUP5 SUB SLT ISZERO PUSH2 0x1DF JUMPI PUSH0 DUP1 REVERT JUMPDEST POP CALLDATALOAD SWAP2 SWAP1 POP JUMP JUMPDEST PUSH0 PUSH1 0x20 DUP3 DUP5 SUB SLT ISZERO PUSH2 0x1F6 JUMPI PUSH0 DUP1 REVERT JUMPDEST DUP2 CALLDATALOAD DUP1 ISZERO ISZERO DUP2 EQ PUSH2 0x205 JUMPI PUSH0 DUP1 REVERT JUMPDEST SWAP4 SWAP3 POP POP POP JUMP JUMPDEST PUSH1 0x20 DUP1 DUP3 MSTORE PUSH1 0x6 SWAP1 DUP3 ADD MSTORE PUSH6 0x1C185D5CD959 PUSH1 0xD2 SHL PUSH1 0x40 DUP3 ADD MSTORE PUSH1 0x60 ADD SWAP1 JUMP JUMPDEST PUSH4 0x4E487B71 PUSH1 0xE0 SHL PUSH0 MSTORE PUSH1 0x11 PUSH1 0x4 MSTORE PUSH1 0x24 PUSH0 REVERT JUMPDEST DUP1 DUP3 ADD DUP1 DUP3 GT ISZERO PUSH2 0x253 JUMPI PUSH2 0x253 PUSH2 0x22C JUMP JUMPDEST SWAP3 SWAP2 POP POP JUMP JUMPDEST DUP2 DUP2 SUB DUP2 DUP2 GT ISZERO PUSH2 0x253 JUMPI PUSH2 0x253 PUSH2 0x22C JUMP INVALID LOG2 PUSH5 0x6970667358 0x22 SLT KECCAK256 SWAP4 0xE4 SWAP9 0x5C GAS 0xEA NOT GT JUMPI 0xDA 0xCD 0xCD CHAINID 0xFB PUSH19 0xF831056BADC831E278F727F79CC5F2B9D46473 PUSH16 0x6C634300081700330000000000000000 "
				},
				"gasEstimates": {
					"creation": {
						"codeDepositCost": "134800",
						"executionCost": "181",
						"totalCost": "134981"
					},
					"external": {
						"count()": "2261",
						"dec()": "26633",
						"inc()": "26567",
						"incBy(uint256)": "26717",
						"paused()": "2330",
						"setPause(bool)": "24567"
					}
				},
				"methodIdentifiers": {
					"count()": "06661abd",
					"dec()": "b3bcfa82",
					"inc()": "371303c0",
					"incBy(uint256)": "70119d06",
					"paused()": "5c975abb",
					"setPause(bool)": "bedb86fb"
				}
			},
			"storageLayout": {
				"storage": [
					{
						"astId": 115,
						"contract": "contracts/solidity.series/Counter.sol:FunctionModifier",
						"label": "paused",
						"offset": 0,
						"slot": "0",
						"type": "t_bool"
					},
					{
						"astId": 117,
						"contract": "contracts/solidity.series/Counter.sol:FunctionModifier",
						"label": "count",
						"offset": 0,
						"slot": "1",
						"type": "t_uint256"
					}
				],
				"types": {
					"t_bool": {
						"encoding": "inplace",
						"label": "bool",
						"numberOfBytes": "1"
					},
					"t_uint256": {
						"encoding": "inplace",
						"label": "uint256",
						"numberOfBytes": "32"
					}
				}
			},
			"userdoc": {
				"kind": "user",
				"methods": {},
				"version": 1
			}
		}
	}
}