{
	"contracts/Inbox.sol": {
		"Message": {
			"abi": [
				{
					"inputs": [
						{
							"internalType": "string",
							"name": "_edited",
							"type": "string"
						}
					],
					"name": "EditText",
					"outputs": [
						{
							"internalType": "string",
							"name": "",
							"type": "string"
						}
					],
					"stateMutability": "nonpayable",
					"type": "function"
				},
				{
					"inputs": [],
					"name": "greet",
					"outputs": [
						{
							"internalType": "string",
							"name": "",
							"type": "string"
						}
					],
					"stateMutability": "view",
					"type": "function"
				},
				{
					"inputs": [
						{
							"internalType": "string",
							"name": "_text",
							"type": "string"
						}
					],
					"name": "sayHello",
					"outputs": [
						{
							"internalType": "string",
							"name": "",
							"type": "string"
						}
					],
					"stateMutability": "pure",
					"type": "function"
				},
				{
					"inputs": [],
					"name": "text",
					"outputs": [
						{
							"internalType": "string",
							"name": "",
							"type": "string"
						}
					],
					"stateMutability": "view",
					"type": "function"
				}
			],
			"devdoc": {
				"kind": "dev",
				"methods": {},
				"version": 1
			},
			"evm": {
				"assembly": "    /* \"contracts/Inbox.sol\":425:457  string public greet = 'greeting' */\n  0xc0\n    /* \"contracts/Inbox.sol\":377:703  contract Message {... */\n  0x40\n    /* \"contracts/Inbox.sol\":425:457  string public greet = 'greeting' */\n  mstore\n  0x08\n    /* \"contracts/Inbox.sol\":377:703  contract Message {... */\n  0x80\n    /* \"contracts/Inbox.sol\":425:457  string public greet = 'greeting' */\n  swap1\n  dup2\n  mstore\n  mstore(0xa0, shl(0xc0, 0x6772656574696e67))\n  0x01\n  swap1\n  tag_1\n  swap1\n  dup3\n  tag_2\n  jump\t// in\ntag_1:\n  pop\n    /* \"contracts/Inbox.sol\":377:703  contract Message {... */\n  callvalue\n  dup1\n  iszero\n  tag_3\n  jumpi\n  0x00\n  dup1\n  revert\ntag_3:\n  pop\n  jump(tag_10)\n    /* \"#utility.yul\":14:141   */\ntag_5:\n    /* \"#utility.yul\":75:85   */\n  0x4e487b71\n    /* \"#utility.yul\":70:73   */\n  0xe0\n    /* \"#utility.yul\":66:86   */\n  shl\n    /* \"#utility.yul\":63:64   */\n  0x00\n    /* \"#utility.yul\":56:87   */\n  mstore\n    /* \"#utility.yul\":106:110   */\n  0x41\n    /* \"#utility.yul\":103:104   */\n  0x04\n    /* \"#utility.yul\":96:111   */\n  mstore\n    /* \"#utility.yul\":130:134   */\n  0x24\n    /* \"#utility.yul\":127:128   */\n  0x00\n    /* \"#utility.yul\":120:135   */\n  revert\n    /* \"#utility.yul\":146:526   */\ntag_6:\n    /* \"#utility.yul\":225:226   */\n  0x01\n    /* \"#utility.yul\":221:233   */\n  dup2\n  dup2\n  shr\n  swap1\n    /* \"#utility.yul\":268:280   */\n  dup3\n  and\n  dup1\n    /* \"#utility.yul\":289:350   */\n  tag_13\n  jumpi\n    /* \"#utility.yul\":343:347   */\n  0x7f\n    /* \"#utility.yul\":335:341   */\n  dup3\n    /* \"#utility.yul\":331:348   */\n  and\n    /* \"#utility.yul\":321:348   */\n  swap2\n  pop\n    /* \"#utility.yul\":289:350   */\ntag_13:\n    /* \"#utility.yul\":396:398   */\n  0x20\n    /* \"#utility.yul\":388:394   */\n  dup3\n    /* \"#utility.yul\":385:399   */\n  lt\n    /* \"#utility.yul\":365:383   */\n  dup2\n    /* \"#utility.yul\":362:400   */\n  sub\n    /* \"#utility.yul\":359:520   */\n  tag_14\n  jumpi\n    /* \"#utility.yul\":442:452   */\n  0x4e487b71\n    /* \"#utility.yul\":437:440   */\n  0xe0\n    /* \"#utility.yul\":433:453   */\n  shl\n    /* \"#utility.yul\":430:431   */\n  0x00\n    /* \"#utility.yul\":423:454   */\n  mstore\n    /* \"#utility.yul\":477:481   */\n  0x22\n    /* \"#utility.yul\":474:475   */\n  0x04\n    /* \"#utility.yul\":467:482   */\n  mstore\n    /* \"#utility.yul\":505:509   */\n  0x24\n    /* \"#utility.yul\":502:503   */\n  0x00\n    /* \"#utility.yul\":495:510   */\n  revert\n    /* \"#utility.yul\":359:520   */\ntag_14:\n  pop\n    /* \"#utility.yul\":146:526   */\n  swap2\n  swap1\n  pop\n  jump\t// out\n    /* \"#utility.yul\":657:1175   */\ntag_8:\n    /* \"#utility.yul\":759:761   */\n  0x1f\n    /* \"#utility.yul\":754:757   */\n  dup3\n    /* \"#utility.yul\":751:762   */\n  gt\n    /* \"#utility.yul\":748:1169   */\n  iszero\n  tag_17\n  jumpi\n    /* \"#utility.yul\":795:800   */\n  dup1\n    /* \"#utility.yul\":792:793   */\n  0x00\n    /* \"#utility.yul\":785:801   */\n  mstore\n    /* \"#utility.yul\":839:843   */\n  0x20\n    /* \"#utility.yul\":836:837   */\n  0x00\n    /* \"#utility.yul\":826:844   */\n  keccak256\n    /* \"#utility.yul\":909:911   */\n  0x1f\n    /* \"#utility.yul\":897:907   */\n  dup5\n    /* \"#utility.yul\":893:912   */\n  add\n    /* \"#utility.yul\":890:891   */\n  0x05\n    /* \"#utility.yul\":886:913   */\n  shr\n    /* \"#utility.yul\":880:884   */\n  dup2\n    /* \"#utility.yul\":876:914   */\n  add\n    /* \"#utility.yul\":945:949   */\n  0x20\n    /* \"#utility.yul\":933:943   */\n  dup6\n    /* \"#utility.yul\":930:950   */\n  lt\n    /* \"#utility.yul\":927:974   */\n  iszero\n  tag_18\n  jumpi\n  pop\n    /* \"#utility.yul\":968:972   */\n  dup1\n    /* \"#utility.yul\":927:974   */\ntag_18:\n    /* \"#utility.yul\":1023:1025   */\n  0x1f\n    /* \"#utility.yul\":1018:1021   */\n  dup5\n    /* \"#utility.yul\":1014:1026   */\n  add\n    /* \"#utility.yul\":1011:1012   */\n  0x05\n    /* \"#utility.yul\":1007:1027   */\n  shr\n    /* \"#utility.yul\":1001:1005   */\n  dup3\n    /* \"#utility.yul\":997:1028   */\n  add\n    /* \"#utility.yul\":987:1028   */\n  swap2\n  pop\n    /* \"#utility.yul\":1078:1159   */\ntag_19:\n    /* \"#utility.yul\":1096:1098   */\n  dup2\n    /* \"#utility.yul\":1089:1094   */\n  dup2\n    /* \"#utility.yul\":1086:1099   */\n  lt\n    /* \"#utility.yul\":1078:1159   */\n  iszero\n  tag_21\n  jumpi\n    /* \"#utility.yul\":1155:1156   */\n  0x00\n    /* \"#utility.yul\":1141:1157   */\n  dup2\n  sstore\n    /* \"#utility.yul\":1122:1123   */\n  0x01\n    /* \"#utility.yul\":1111:1124   */\n  add\n    /* \"#utility.yul\":1078:1159   */\n  jump(tag_19)\ntag_21:\n    /* \"#utility.yul\":1082:1085   */\n  pop\n  pop\n    /* \"#utility.yul\":748:1169   */\ntag_17:\n    /* \"#utility.yul\":657:1175   */\n  pop\n  pop\n  pop\n  jump\t// out\n    /* \"#utility.yul\":1351:2696   */\ntag_2:\n    /* \"#utility.yul\":1471:1481   */\n  dup2\n  mload\n  sub(shl(0x40, 0x01), 0x01)\n    /* \"#utility.yul\":1493:1523   */\n  dup2\n  gt\n    /* \"#utility.yul\":1490:1546   */\n  iszero\n  tag_25\n  jumpi\n    /* \"#utility.yul\":1526:1544   */\n  tag_25\n  tag_5\n  jump\t// in\ntag_25:\n    /* \"#utility.yul\":1555:1652   */\n  tag_26\n    /* \"#utility.yul\":1645:1651   */\n  dup2\n    /* \"#utility.yul\":1605:1643   */\n  tag_27\n    /* \"#utility.yul\":1637:1641   */\n  dup5\n    /* \"#utility.yul\":1631:1642   */\n  sload\n    /* \"#utility.yul\":1605:1643   */\n  tag_6\n  jump\t// in\ntag_27:\n    /* \"#utility.yul\":1599:1603   */\n  dup5\n    /* \"#utility.yul\":1555:1652   */\n  tag_8\n  jump\t// in\ntag_26:\n    /* \"#utility.yul\":1707:1711   */\n  0x20\n  dup1\n    /* \"#utility.yul\":1764:1766   */\n  0x1f\n    /* \"#utility.yul\":1753:1767   */\n  dup4\n  gt\n    /* \"#utility.yul\":1781:1782   */\n  0x01\n    /* \"#utility.yul\":1776:2439   */\n  dup2\n  eq\n  tag_29\n  jumpi\n    /* \"#utility.yul\":2483:2484   */\n  0x00\n    /* \"#utility.yul\":2500:2506   */\n  dup5\n    /* \"#utility.yul\":2497:2586   */\n  iszero\n  tag_30\n  jumpi\n  pop\n    /* \"#utility.yul\":2552:2571   */\n  dup6\n  dup4\n  add\n    /* \"#utility.yul\":2546:2572   */\n  mload\n    /* \"#utility.yul\":2497:2586   */\ntag_30:\n  not(0x00)\n    /* \"#utility.yul\":1308:1309   */\n  0x03\n    /* \"#utility.yul\":1304:1315   */\n  dup7\n  swap1\n  shl\n    /* \"#utility.yul\":1300:1324   */\n  shr\n    /* \"#utility.yul\":1296:1325   */\n  not\n    /* \"#utility.yul\":1286:1326   */\n  and\n    /* \"#utility.yul\":1332:1333   */\n  0x01\n    /* \"#utility.yul\":1328:1339   */\n  dup6\n  swap1\n  shl\n    /* \"#utility.yul\":1283:1340   */\n  or\n    /* \"#utility.yul\":2599:2680   */\n  dup6\n  sstore\n    /* \"#utility.yul\":1746:2690   */\n  jump(tag_28)\n    /* \"#utility.yul\":1776:2439   */\ntag_29:\n    /* \"#utility.yul\":604:605   */\n  0x00\n    /* \"#utility.yul\":597:611   */\n  dup6\n  dup2\n  mstore\n    /* \"#utility.yul\":641:645   */\n  0x20\n    /* \"#utility.yul\":628:646   */\n  dup2\n  keccak256\n  not(0x1f)\n    /* \"#utility.yul\":1812:1832   */\n  dup7\n  and\n  swap2\n    /* \"#utility.yul\":1930:2166   */\ntag_33:\n    /* \"#utility.yul\":1944:1951   */\n  dup3\n    /* \"#utility.yul\":1941:1942   */\n  dup2\n    /* \"#utility.yul\":1938:1952   */\n  lt\n    /* \"#utility.yul\":1930:2166   */\n  iszero\n  tag_35\n  jumpi\n    /* \"#utility.yul\":2033:2052   */\n  dup9\n  dup7\n  add\n    /* \"#utility.yul\":2027:2053   */\n  mload\n    /* \"#utility.yul\":2012:2054   */\n  dup3\n  sstore\n    /* \"#utility.yul\":2125:2152   */\n  swap5\n  dup5\n  add\n  swap5\n    /* \"#utility.yul\":2093:2094   */\n  0x01\n    /* \"#utility.yul\":2081:2095   */\n  swap1\n  swap2\n  add\n  swap1\n    /* \"#utility.yul\":1960:1979   */\n  dup5\n  add\n    /* \"#utility.yul\":1930:2166   */\n  jump(tag_33)\ntag_35:\n    /* \"#utility.yul\":1934:1937   */\n  pop\n    /* \"#utility.yul\":2194:2200   */\n  dup6\n    /* \"#utility.yul\":2185:2192   */\n  dup3\n    /* \"#utility.yul\":2182:2201   */\n  lt\n    /* \"#utility.yul\":2179:2380   */\n  iszero\n  tag_36\n  jumpi\n    /* \"#utility.yul\":2255:2274   */\n  dup8\n  dup6\n  add\n    /* \"#utility.yul\":2249:2275   */\n  mload\n  not(0x00)\n    /* \"#utility.yul\":2338:2339   */\n  0x03\n    /* \"#utility.yul\":2334:2348   */\n  dup9\n  swap1\n  shl\n    /* \"#utility.yul\":2350:2353   */\n  0xf8\n    /* \"#utility.yul\":2330:2354   */\n  and\n    /* \"#utility.yul\":2326:2363   */\n  shr\n    /* \"#utility.yul\":2322:2364   */\n  not\n    /* \"#utility.yul\":2307:2365   */\n  and\n    /* \"#utility.yul\":2292:2366   */\n  dup2\n  sstore\n    /* \"#utility.yul\":2179:2380   */\ntag_36:\n  pop\n  pop\n    /* \"#utility.yul\":2426:2427   */\n  0x01\n    /* \"#utility.yul\":2417:2423   */\n  dup5\n    /* \"#utility.yul\":2414:2415   */\n  0x01\n    /* \"#utility.yul\":2410:2424   */\n  shl\n    /* \"#utility.yul\":2406:2428   */\n  add\n    /* \"#utility.yul\":2400:2404   */\n  dup6\n    /* \"#utility.yul\":2393:2429   */\n  sstore\n    /* \"#utility.yul\":1746:2690   */\ntag_28:\n  pop\n  pop\n  pop\n  pop\n    /* \"#utility.yul\":1351:2696   */\n  pop\n  pop\n  jump\t// out\ntag_10:\n    /* \"contracts/Inbox.sol\":377:703  contract Message {... */\n  dataSize(sub_0)\n  dup1\n  dataOffset(sub_0)\n  0x00\n  codecopy\n  0x00\n  return\nstop\n\nsub_0: assembly {\n        /* \"contracts/Inbox.sol\":377:703  contract Message {... */\n      mstore(0x40, 0x80)\n      callvalue\n      dup1\n      iszero\n      tag_1\n      jumpi\n      0x00\n      dup1\n      revert\n    tag_1:\n      pop\n      jumpi(tag_2, lt(calldatasize, 0x04))\n      shr(0xe0, calldataload(0x00))\n      dup1\n      0x1f1bd692\n      eq\n      tag_3\n      jumpi\n      dup1\n      0x317cbe7b\n      eq\n      tag_4\n      jumpi\n      dup1\n      0xc3a9b1c5\n      eq\n      tag_5\n      jumpi\n      dup1\n      0xcfae3217\n      eq\n      tag_6\n      jumpi\n    tag_2:\n      0x00\n      dup1\n      revert\n        /* \"contracts/Inbox.sol\":400:419  string public  text */\n    tag_3:\n      tag_7\n      tag_8\n      jump\t// in\n    tag_7:\n      mload(0x40)\n      tag_9\n      swap2\n      swap1\n      tag_10\n      jump\t// in\n    tag_9:\n      mload(0x40)\n      dup1\n      swap2\n      sub\n      swap1\n      return\n        /* \"contracts/Inbox.sol\":576:701  function EditText(string calldata _edited) public  returns(string memory){... */\n    tag_4:\n      tag_7\n      tag_12\n      calldatasize\n      0x04\n      tag_13\n      jump\t// in\n    tag_12:\n      tag_14\n      jump\t// in\n        /* \"contracts/Inbox.sol\":464:570  function sayHello(string calldata _text) public  pure returns (string memory){... */\n    tag_5:\n      tag_7\n      tag_17\n      calldatasize\n      0x04\n      tag_13\n      jump\t// in\n    tag_17:\n      tag_18\n      jump\t// in\n        /* \"contracts/Inbox.sol\":425:457  string public greet = 'greeting' */\n    tag_6:\n      tag_7\n      tag_21\n      jump\t// in\n        /* \"contracts/Inbox.sol\":400:419  string public  text */\n    tag_8:\n      0x00\n      dup1\n      sload\n      tag_23\n      swap1\n      tag_24\n      jump\t// in\n    tag_23:\n      dup1\n      0x1f\n      add\n      0x20\n      dup1\n      swap2\n      div\n      mul\n      0x20\n      add\n      mload(0x40)\n      swap1\n      dup2\n      add\n      0x40\n      mstore\n      dup1\n      swap3\n      swap2\n      swap1\n      dup2\n      dup2\n      mstore\n      0x20\n      add\n      dup3\n      dup1\n      sload\n      tag_25\n      swap1\n      tag_24\n      jump\t// in\n    tag_25:\n      dup1\n      iszero\n      tag_26\n      jumpi\n      dup1\n      0x1f\n      lt\n      tag_27\n      jumpi\n      0x0100\n      dup1\n      dup4\n      sload\n      div\n      mul\n      dup4\n      mstore\n      swap2\n      0x20\n      add\n      swap2\n      jump(tag_26)\n    tag_27:\n      dup3\n      add\n      swap2\n      swap1\n      0x00\n      mstore\n      keccak256(0x00, 0x20)\n      swap1\n    tag_28:\n      dup2\n      sload\n      dup2\n      mstore\n      swap1\n      0x01\n      add\n      swap1\n      0x20\n      add\n      dup1\n      dup4\n      gt\n      tag_28\n      jumpi\n      dup3\n      swap1\n      sub\n      0x1f\n      and\n      dup3\n      add\n      swap2\n    tag_26:\n      pop\n      pop\n      pop\n      pop\n      pop\n      dup2\n      jump\t// out\n        /* \"contracts/Inbox.sol\":576:701  function EditText(string calldata _edited) public  returns(string memory){... */\n    tag_14:\n        /* \"contracts/Inbox.sol\":635:648  string memory */\n      0x60\n        /* \"contracts/Inbox.sol\":659:663  text */\n      0x00\n        /* \"contracts/Inbox.sol\":659:673  text = _edited */\n      tag_30\n        /* \"contracts/Inbox.sol\":666:673  _edited */\n      dup4\n      dup6\n        /* \"contracts/Inbox.sol\":659:663  text */\n      dup4\n        /* \"contracts/Inbox.sol\":659:673  text = _edited */\n      tag_31\n      jump\t// in\n    tag_30:\n      pop\n        /* \"contracts/Inbox.sol\":690:694  text */\n      0x00\n        /* \"contracts/Inbox.sol\":683:694  return text */\n      dup1\n      sload\n      tag_32\n      swap1\n      tag_24\n      jump\t// in\n    tag_32:\n      dup1\n      0x1f\n      add\n      0x20\n      dup1\n      swap2\n      div\n      mul\n      0x20\n      add\n      mload(0x40)\n      swap1\n      dup2\n      add\n      0x40\n      mstore\n      dup1\n      swap3\n      swap2\n      swap1\n      dup2\n      dup2\n      mstore\n      0x20\n      add\n      dup3\n      dup1\n      sload\n      tag_33\n      swap1\n      tag_24\n      jump\t// in\n    tag_33:\n      dup1\n      iszero\n      tag_34\n      jumpi\n      dup1\n      0x1f\n      lt\n      tag_35\n      jumpi\n      0x0100\n      dup1\n      dup4\n      sload\n      div\n      mul\n      dup4\n      mstore\n      swap2\n      0x20\n      add\n      swap2\n      jump(tag_34)\n    tag_35:\n      dup3\n      add\n      swap2\n      swap1\n      0x00\n      mstore\n      keccak256(0x00, 0x20)\n      swap1\n    tag_36:\n      dup2\n      sload\n      dup2\n      mstore\n      swap1\n      0x01\n      add\n      swap1\n      0x20\n      add\n      dup1\n      dup4\n      gt\n      tag_36\n      jumpi\n      dup3\n      swap1\n      sub\n      0x1f\n      and\n      dup3\n      add\n      swap2\n    tag_34:\n      pop\n      pop\n      pop\n      pop\n      pop\n      swap1\n      pop\n        /* \"contracts/Inbox.sol\":576:701  function EditText(string calldata _edited) public  returns(string memory){... */\n      swap3\n      swap2\n      pop\n      pop\n      jump\t// out\n        /* \"contracts/Inbox.sol\":464:570  function sayHello(string calldata _text) public  pure returns (string memory){... */\n    tag_18:\n        /* \"contracts/Inbox.sol\":527:540  string memory */\n      0x60\n        /* \"contracts/Inbox.sol\":558:563  _text */\n      dup3\n      dup3\n        /* \"contracts/Inbox.sol\":551:563  return _text */\n      dup1\n      dup1\n      0x1f\n      add\n      0x20\n      dup1\n      swap2\n      div\n      mul\n      0x20\n      add\n      mload(0x40)\n      swap1\n      dup2\n      add\n      0x40\n      mstore\n      dup1\n      swap4\n      swap3\n      swap2\n      swap1\n      dup2\n      dup2\n      mstore\n      0x20\n      add\n      dup4\n      dup4\n      dup1\n      dup3\n      dup5\n      calldatacopy\n      0x00\n      swap3\n      add\n      swap2\n      swap1\n      swap2\n      mstore\n      pop\n      swap3\n      swap7\n        /* \"contracts/Inbox.sol\":464:570  function sayHello(string calldata _text) public  pure returns (string memory){... */\n      swap6\n      pop\n      pop\n      pop\n      pop\n      pop\n      pop\n      jump\t// out\n        /* \"contracts/Inbox.sol\":425:457  string public greet = 'greeting' */\n    tag_21:\n      0x01\n      dup1\n      sload\n      tag_23\n      swap1\n      tag_24\n      jump\t// in\n        /* \"#utility.yul\":14:562   */\n    tag_10:\n        /* \"#utility.yul\":126:130   */\n      0x00\n        /* \"#utility.yul\":155:157   */\n      0x20\n        /* \"#utility.yul\":184:186   */\n      dup1\n        /* \"#utility.yul\":173:182   */\n      dup4\n        /* \"#utility.yul\":166:187   */\n      mstore\n        /* \"#utility.yul\":216:222   */\n      dup4\n        /* \"#utility.yul\":210:223   */\n      mload\n        /* \"#utility.yul\":259:265   */\n      dup1\n        /* \"#utility.yul\":254:256   */\n      0x20\n        /* \"#utility.yul\":243:252   */\n      dup6\n        /* \"#utility.yul\":239:257   */\n      add\n        /* \"#utility.yul\":232:266   */\n      mstore\n        /* \"#utility.yul\":284:285   */\n      0x00\n        /* \"#utility.yul\":294:434   */\n    tag_49:\n        /* \"#utility.yul\":308:314   */\n      dup2\n        /* \"#utility.yul\":305:306   */\n      dup2\n        /* \"#utility.yul\":302:315   */\n      lt\n        /* \"#utility.yul\":294:434   */\n      iszero\n      tag_51\n      jumpi\n        /* \"#utility.yul\":403:417   */\n      dup6\n      dup2\n      add\n        /* \"#utility.yul\":399:422   */\n      dup4\n      add\n        /* \"#utility.yul\":393:423   */\n      mload\n        /* \"#utility.yul\":369:386   */\n      dup6\n      dup3\n      add\n        /* \"#utility.yul\":388:390   */\n      0x40\n        /* \"#utility.yul\":365:391   */\n      add\n        /* \"#utility.yul\":358:424   */\n      mstore\n        /* \"#utility.yul\":323:333   */\n      dup3\n      add\n        /* \"#utility.yul\":294:434   */\n      jump(tag_49)\n    tag_51:\n        /* \"#utility.yul\":298:301   */\n      pop\n        /* \"#utility.yul\":483:484   */\n      0x00\n        /* \"#utility.yul\":478:480   */\n      0x40\n        /* \"#utility.yul\":469:475   */\n      dup3\n        /* \"#utility.yul\":458:467   */\n      dup7\n        /* \"#utility.yul\":454:476   */\n      add\n        /* \"#utility.yul\":450:481   */\n      add\n        /* \"#utility.yul\":443:485   */\n      mstore\n        /* \"#utility.yul\":553:555   */\n      0x40\n        /* \"#utility.yul\":546:548   */\n      0x1f\n        /* \"#utility.yul\":542:549   */\n      not\n        /* \"#utility.yul\":537:539   */\n      0x1f\n        /* \"#utility.yul\":529:535   */\n      dup4\n        /* \"#utility.yul\":525:540   */\n      add\n        /* \"#utility.yul\":521:550   */\n      and\n        /* \"#utility.yul\":510:519   */\n      dup6\n        /* \"#utility.yul\":506:551   */\n      add\n        /* \"#utility.yul\":502:556   */\n      add\n        /* \"#utility.yul\":494:556   */\n      swap3\n      pop\n      pop\n      pop\n        /* \"#utility.yul\":14:562   */\n      swap3\n      swap2\n      pop\n      pop\n      jump\t// out\n        /* \"#utility.yul\":567:1159   */\n    tag_13:\n        /* \"#utility.yul\":638:644   */\n      0x00\n        /* \"#utility.yul\":646:652   */\n      dup1\n        /* \"#utility.yul\":699:701   */\n      0x20\n        /* \"#utility.yul\":687:696   */\n      dup4\n        /* \"#utility.yul\":678:685   */\n      dup6\n        /* \"#utility.yul\":674:697   */\n      sub\n        /* \"#utility.yul\":670:702   */\n      slt\n        /* \"#utility.yul\":667:719   */\n      iszero\n      tag_53\n      jumpi\n        /* \"#utility.yul\":715:716   */\n      0x00\n        /* \"#utility.yul\":712:713   */\n      dup1\n        /* \"#utility.yul\":705:717   */\n      revert\n        /* \"#utility.yul\":667:719   */\n    tag_53:\n        /* \"#utility.yul\":755:764   */\n      dup3\n        /* \"#utility.yul\":742:765   */\n      calldataload\n        /* \"#utility.yul\":784:802   */\n      0xffffffffffffffff\n        /* \"#utility.yul\":825:827   */\n      dup1\n        /* \"#utility.yul\":817:823   */\n      dup3\n        /* \"#utility.yul\":814:828   */\n      gt\n        /* \"#utility.yul\":811:845   */\n      iszero\n      tag_54\n      jumpi\n        /* \"#utility.yul\":841:842   */\n      0x00\n        /* \"#utility.yul\":838:839   */\n      dup1\n        /* \"#utility.yul\":831:843   */\n      revert\n        /* \"#utility.yul\":811:845   */\n    tag_54:\n        /* \"#utility.yul\":879:885   */\n      dup2\n        /* \"#utility.yul\":868:877   */\n      dup6\n        /* \"#utility.yul\":864:886   */\n      add\n        /* \"#utility.yul\":854:886   */\n      swap2\n      pop\n        /* \"#utility.yul\":924:931   */\n      dup6\n        /* \"#utility.yul\":917:921   */\n      0x1f\n        /* \"#utility.yul\":913:915   */\n      dup4\n        /* \"#utility.yul\":909:922   */\n      add\n        /* \"#utility.yul\":905:932   */\n      slt\n        /* \"#utility.yul\":895:950   */\n      tag_55\n      jumpi\n        /* \"#utility.yul\":946:947   */\n      0x00\n        /* \"#utility.yul\":943:944   */\n      dup1\n        /* \"#utility.yul\":936:948   */\n      revert\n        /* \"#utility.yul\":895:950   */\n    tag_55:\n        /* \"#utility.yul\":986:988   */\n      dup2\n        /* \"#utility.yul\":973:989   */\n      calldataload\n        /* \"#utility.yul\":1012:1014   */\n      dup2\n        /* \"#utility.yul\":1004:1010   */\n      dup2\n        /* \"#utility.yul\":1001:1015   */\n      gt\n        /* \"#utility.yul\":998:1032   */\n      iszero\n      tag_56\n      jumpi\n        /* \"#utility.yul\":1028:1029   */\n      0x00\n        /* \"#utility.yul\":1025:1026   */\n      dup1\n        /* \"#utility.yul\":1018:1030   */\n      revert\n        /* \"#utility.yul\":998:1032   */\n    tag_56:\n        /* \"#utility.yul\":1073:1080   */\n      dup7\n        /* \"#utility.yul\":1068:1070   */\n      0x20\n        /* \"#utility.yul\":1059:1065   */\n      dup3\n        /* \"#utility.yul\":1055:1057   */\n      dup6\n        /* \"#utility.yul\":1051:1066   */\n      add\n        /* \"#utility.yul\":1047:1071   */\n      add\n        /* \"#utility.yul\":1044:1081   */\n      gt\n        /* \"#utility.yul\":1041:1098   */\n      iszero\n      tag_57\n      jumpi\n        /* \"#utility.yul\":1094:1095   */\n      0x00\n        /* \"#utility.yul\":1091:1092   */\n      dup1\n        /* \"#utility.yul\":1084:1096   */\n      revert\n        /* \"#utility.yul\":1041:1098   */\n    tag_57:\n        /* \"#utility.yul\":1125:1127   */\n      0x20\n        /* \"#utility.yul\":1117:1128   */\n      swap3\n      swap1\n      swap3\n      add\n      swap7\n        /* \"#utility.yul\":1147:1153   */\n      swap2\n      swap6\n      pop\n        /* \"#utility.yul\":567:1159   */\n      swap1\n      swap4\n      pop\n      pop\n      pop\n      pop\n      jump\t// out\n        /* \"#utility.yul\":1164:1544   */\n    tag_24:\n        /* \"#utility.yul\":1243:1244   */\n      0x01\n        /* \"#utility.yul\":1239:1251   */\n      dup2\n      dup2\n      shr\n      swap1\n        /* \"#utility.yul\":1286:1298   */\n      dup3\n      and\n      dup1\n        /* \"#utility.yul\":1307:1368   */\n      tag_59\n      jumpi\n        /* \"#utility.yul\":1361:1365   */\n      0x7f\n        /* \"#utility.yul\":1353:1359   */\n      dup3\n        /* \"#utility.yul\":1349:1366   */\n      and\n        /* \"#utility.yul\":1339:1366   */\n      swap2\n      pop\n        /* \"#utility.yul\":1307:1368   */\n    tag_59:\n        /* \"#utility.yul\":1414:1416   */\n      0x20\n        /* \"#utility.yul\":1406:1412   */\n      dup3\n        /* \"#utility.yul\":1403:1417   */\n      lt\n        /* \"#utility.yul\":1383:1401   */\n      dup2\n        /* \"#utility.yul\":1380:1418   */\n      sub\n        /* \"#utility.yul\":1377:1538   */\n      tag_60\n      jumpi\n        /* \"#utility.yul\":1460:1470   */\n      0x4e487b71\n        /* \"#utility.yul\":1455:1458   */\n      0xe0\n        /* \"#utility.yul\":1451:1471   */\n      shl\n        /* \"#utility.yul\":1448:1449   */\n      0x00\n        /* \"#utility.yul\":1441:1472   */\n      mstore\n        /* \"#utility.yul\":1495:1499   */\n      0x22\n        /* \"#utility.yul\":1492:1493   */\n      0x04\n        /* \"#utility.yul\":1485:1500   */\n      mstore\n        /* \"#utility.yul\":1523:1527   */\n      0x24\n        /* \"#utility.yul\":1520:1521   */\n      0x00\n        /* \"#utility.yul\":1513:1528   */\n      revert\n        /* \"#utility.yul\":1377:1538   */\n    tag_60:\n      pop\n        /* \"#utility.yul\":1164:1544   */\n      swap2\n      swap1\n      pop\n      jump\t// out\n        /* \"#utility.yul\":1549:1676   */\n    tag_43:\n        /* \"#utility.yul\":1610:1620   */\n      0x4e487b71\n        /* \"#utility.yul\":1605:1608   */\n      0xe0\n        /* \"#utility.yul\":1601:1621   */\n      shl\n        /* \"#utility.yul\":1598:1599   */\n      0x00\n        /* \"#utility.yul\":1591:1622   */\n      mstore\n        /* \"#utility.yul\":1641:1645   */\n      0x41\n        /* \"#utility.yul\":1638:1639   */\n      0x04\n        /* \"#utility.yul\":1631:1646   */\n      mstore\n        /* \"#utility.yul\":1665:1669   */\n      0x24\n        /* \"#utility.yul\":1662:1663   */\n      0x00\n        /* \"#utility.yul\":1655:1670   */\n      revert\n        /* \"#utility.yul\":1807:2325   */\n    tag_45:\n        /* \"#utility.yul\":1909:1911   */\n      0x1f\n        /* \"#utility.yul\":1904:1907   */\n      dup3\n        /* \"#utility.yul\":1901:1912   */\n      gt\n        /* \"#utility.yul\":1898:2319   */\n      iszero\n      tag_64\n      jumpi\n        /* \"#utility.yul\":1945:1950   */\n      dup1\n        /* \"#utility.yul\":1942:1943   */\n      0x00\n        /* \"#utility.yul\":1935:1951   */\n      mstore\n        /* \"#utility.yul\":1989:1993   */\n      0x20\n        /* \"#utility.yul\":1986:1987   */\n      0x00\n        /* \"#utility.yul\":1976:1994   */\n      keccak256\n        /* \"#utility.yul\":2059:2061   */\n      0x1f\n        /* \"#utility.yul\":2047:2057   */\n      dup5\n        /* \"#utility.yul\":2043:2062   */\n      add\n        /* \"#utility.yul\":2040:2041   */\n      0x05\n        /* \"#utility.yul\":2036:2063   */\n      shr\n        /* \"#utility.yul\":2030:2034   */\n      dup2\n        /* \"#utility.yul\":2026:2064   */\n      add\n        /* \"#utility.yul\":2095:2099   */\n      0x20\n        /* \"#utility.yul\":2083:2093   */\n      dup6\n        /* \"#utility.yul\":2080:2100   */\n      lt\n        /* \"#utility.yul\":2077:2124   */\n      iszero\n      tag_65\n      jumpi\n      pop\n        /* \"#utility.yul\":2118:2122   */\n      dup1\n        /* \"#utility.yul\":2077:2124   */\n    tag_65:\n        /* \"#utility.yul\":2173:2175   */\n      0x1f\n        /* \"#utility.yul\":2168:2171   */\n      dup5\n        /* \"#utility.yul\":2164:2176   */\n      add\n        /* \"#utility.yul\":2161:2162   */\n      0x05\n        /* \"#utility.yul\":2157:2177   */\n      shr\n        /* \"#utility.yul\":2151:2155   */\n      dup3\n        /* \"#utility.yul\":2147:2178   */\n      add\n        /* \"#utility.yul\":2137:2178   */\n      swap2\n      pop\n        /* \"#utility.yul\":2228:2309   */\n    tag_66:\n        /* \"#utility.yul\":2246:2248   */\n      dup2\n        /* \"#utility.yul\":2239:2244   */\n      dup2\n        /* \"#utility.yul\":2236:2249   */\n      lt\n        /* \"#utility.yul\":2228:2309   */\n      iszero\n      tag_68\n      jumpi\n        /* \"#utility.yul\":2305:2306   */\n      0x00\n        /* \"#utility.yul\":2291:2307   */\n      dup2\n      sstore\n        /* \"#utility.yul\":2272:2273   */\n      0x01\n        /* \"#utility.yul\":2261:2274   */\n      add\n        /* \"#utility.yul\":2228:2309   */\n      jump(tag_66)\n    tag_68:\n        /* \"#utility.yul\":2232:2235   */\n      pop\n      pop\n        /* \"#utility.yul\":1898:2319   */\n    tag_64:\n        /* \"#utility.yul\":1807:2325   */\n      pop\n      pop\n      pop\n      jump\t// out\n        /* \"#utility.yul\":2501:3699   */\n    tag_31:\n        /* \"#utility.yul\":2625:2643   */\n      0xffffffffffffffff\n        /* \"#utility.yul\":2620:2623   */\n      dup4\n        /* \"#utility.yul\":2617:2644   */\n      gt\n        /* \"#utility.yul\":2614:2667   */\n      iszero\n      tag_72\n      jumpi\n        /* \"#utility.yul\":2647:2665   */\n      tag_72\n      tag_43\n      jump\t// in\n    tag_72:\n        /* \"#utility.yul\":2676:2770   */\n      tag_73\n        /* \"#utility.yul\":2766:2769   */\n      dup4\n        /* \"#utility.yul\":2726:2764   */\n      tag_74\n        /* \"#utility.yul\":2758:2762   */\n      dup4\n        /* \"#utility.yul\":2752:2763   */\n      sload\n        /* \"#utility.yul\":2726:2764   */\n      tag_24\n      jump\t// in\n    tag_74:\n        /* \"#utility.yul\":2720:2724   */\n      dup4\n        /* \"#utility.yul\":2676:2770   */\n      tag_45\n      jump\t// in\n    tag_73:\n        /* \"#utility.yul\":2796:2797   */\n      0x00\n        /* \"#utility.yul\":2821:2823   */\n      0x1f\n        /* \"#utility.yul\":2816:2819   */\n      dup5\n        /* \"#utility.yul\":2813:2824   */\n      gt\n        /* \"#utility.yul\":2838:2839   */\n      0x01\n        /* \"#utility.yul\":2833:3441   */\n      dup2\n      eq\n      tag_76\n      jumpi\n        /* \"#utility.yul\":3485:3486   */\n      0x00\n        /* \"#utility.yul\":3502:3505   */\n      dup6\n        /* \"#utility.yul\":3499:3592   */\n      iszero\n      tag_77\n      jumpi\n      pop\n        /* \"#utility.yul\":3558:3577   */\n      dup4\n      dup3\n      add\n        /* \"#utility.yul\":3545:3578   */\n      calldataload\n        /* \"#utility.yul\":3499:3592   */\n    tag_77:\n      not(0x00)\n        /* \"#utility.yul\":2458:2459   */\n      0x03\n        /* \"#utility.yul\":2454:2465   */\n      dup8\n      swap1\n      shl\n        /* \"#utility.yul\":2450:2474   */\n      shr\n        /* \"#utility.yul\":2446:2475   */\n      not\n        /* \"#utility.yul\":2436:2476   */\n      and\n        /* \"#utility.yul\":2482:2483   */\n      0x01\n        /* \"#utility.yul\":2478:2489   */\n      dup7\n      swap1\n      shl\n        /* \"#utility.yul\":2433:2490   */\n      or\n        /* \"#utility.yul\":3605:3683   */\n      dup4\n      sstore\n        /* \"#utility.yul\":2806:3693   */\n      jump(tag_68)\n        /* \"#utility.yul\":2833:3441   */\n    tag_76:\n        /* \"#utility.yul\":1754:1755   */\n      0x00\n        /* \"#utility.yul\":1747:1761   */\n      dup4\n      dup2\n      mstore\n        /* \"#utility.yul\":1791:1795   */\n      0x20\n        /* \"#utility.yul\":1778:1796   */\n      dup2\n      keccak256\n      not(0x1f)\n        /* \"#utility.yul\":2869:2886   */\n      dup8\n      and\n      swap2\n        /* \"#utility.yul\":2984:3213   */\n    tag_80:\n        /* \"#utility.yul\":2998:3005   */\n      dup3\n        /* \"#utility.yul\":2995:2996   */\n      dup2\n        /* \"#utility.yul\":2992:3006   */\n      lt\n        /* \"#utility.yul\":2984:3213   */\n      iszero\n      tag_82\n      jumpi\n        /* \"#utility.yul\":3087:3106   */\n      dup7\n      dup6\n      add\n        /* \"#utility.yul\":3074:3107   */\n      calldataload\n        /* \"#utility.yul\":3059:3108   */\n      dup3\n      sstore\n        /* \"#utility.yul\":3194:3198   */\n      0x20\n        /* \"#utility.yul\":3179:3199   */\n      swap5\n      dup6\n      add\n      swap5\n        /* \"#utility.yul\":3147:3148   */\n      0x01\n        /* \"#utility.yul\":3135:3149   */\n      swap1\n      swap3\n      add\n      swap2\n        /* \"#utility.yul\":3014:3026   */\n      add\n        /* \"#utility.yul\":2984:3213   */\n      jump(tag_80)\n    tag_82:\n        /* \"#utility.yul\":2988:2991   */\n      pop\n        /* \"#utility.yul\":3241:3244   */\n      dup7\n        /* \"#utility.yul\":3232:3239   */\n      dup3\n        /* \"#utility.yul\":3229:3245   */\n      lt\n        /* \"#utility.yul\":3226:3385   */\n      iszero\n      tag_83\n      jumpi\n        /* \"#utility.yul\":3365:3366   */\n      0x00\n        /* \"#utility.yul\":3361:3367   */\n      not\n        /* \"#utility.yul\":3355:3358   */\n      0xf8\n        /* \"#utility.yul\":3349:3352   */\n      dup9\n        /* \"#utility.yul\":3346:3347   */\n      0x03\n        /* \"#utility.yul\":3342:3353   */\n      shl\n        /* \"#utility.yul\":3338:3359   */\n      and\n        /* \"#utility.yul\":3334:3368   */\n      shr\n        /* \"#utility.yul\":3330:3369   */\n      not\n        /* \"#utility.yul\":3317:3326   */\n      dup5\n        /* \"#utility.yul\":3312:3315   */\n      dup8\n        /* \"#utility.yul\":3308:3327   */\n      add\n        /* \"#utility.yul\":3295:3328   */\n      calldataload\n        /* \"#utility.yul\":3291:3370   */\n      and\n        /* \"#utility.yul\":3283:3289   */\n      dup2\n        /* \"#utility.yul\":3276:3371   */\n      sstore\n        /* \"#utility.yul\":3226:3385   */\n    tag_83:\n      pop\n      pop\n        /* \"#utility.yul\":3428:3429   */\n      0x01\n        /* \"#utility.yul\":3422:3425   */\n      dup6\n        /* \"#utility.yul\":3419:3420   */\n      0x01\n        /* \"#utility.yul\":3415:3426   */\n      shl\n        /* \"#utility.yul\":3411:3430   */\n      add\n        /* \"#utility.yul\":3405:3409   */\n      dup4\n        /* \"#utility.yul\":3398:3431   */\n      sstore\n        /* \"#utility.yul\":2806:3693   */\n      pop\n      pop\n        /* \"#utility.yul\":2501:3699   */\n      pop\n      pop\n      pop\n      jump\t// out\n\n    auxdata: 0xa264697066735822122001fa0e7b861fdf49602bac108c63e8891de1733c126f8d56afdd3b9df1a7589564736f6c63430008160033\n}\n",
				"bytecode": {
					"linkReferences": {},
					"object": "60c060405260086080908152676772656574696e6760c01b60a05260019061002790826100d1565b50348015610033575f80fd5b50610190565b634e487b7160e01b5f52604160045260245ffd5b600181811c9082168061006157607f821691505b60208210810361007f57634e487b7160e01b5f52602260045260245ffd5b50919050565b601f8211156100cc57805f5260205f20601f840160051c810160208510156100aa5750805b601f840160051c820191505b818110156100c9575f81556001016100b6565b50505b505050565b81516001600160401b038111156100ea576100ea610039565b6100fe816100f8845461004d565b84610085565b602080601f831160018114610131575f841561011a5750858301515b5f19600386901b1c1916600185901b178555610188565b5f85815260208120601f198616915b8281101561015f57888601518255948401946001909101908401610140565b508582101561017c57878501515f19600388901b60f8161c191681555b505060018460011b0185555b505050505050565b6104508061019d5f395ff3fe608060405234801561000f575f80fd5b506004361061004a575f3560e01c80631f1bd6921461004e578063317cbe7b1461006c578063c3a9b1c51461007f578063cfae321714610092575b5f80fd5b61005661009a565b6040516100639190610210565b60405180910390f35b61005661007a36600461025c565b610125565b61005661008d36600461025c565b6101c4565b610056610203565b5f80546100a6906102c8565b80601f01602080910402602001604051908101604052809291908181526020018280546100d2906102c8565b801561011d5780601f106100f45761010080835404028352916020019161011d565b820191905f5260205f20905b81548152906001019060200180831161010057829003601f168201915b505050505081565b60605f610133838583610360565b505f8054610140906102c8565b80601f016020809104026020016040519081016040528092919081815260200182805461016c906102c8565b80156101b75780601f1061018e576101008083540402835291602001916101b7565b820191905f5260205f20905b81548152906001019060200180831161019a57829003601f168201915b5050505050905092915050565b606082828080601f0160208091040260200160405190810160405280939291908181526020018383808284375f92019190915250929695505050505050565b600180546100a6906102c8565b5f602080835283518060208501525f5b8181101561023c57858101830151858201604001528201610220565b505f604082860101526040601f19601f8301168501019250505092915050565b5f806020838503121561026d575f80fd5b823567ffffffffffffffff80821115610284575f80fd5b818501915085601f830112610297575f80fd5b8135818111156102a5575f80fd5b8660208285010111156102b6575f80fd5b60209290920196919550909350505050565b600181811c908216806102dc57607f821691505b6020821081036102fa57634e487b7160e01b5f52602260045260245ffd5b50919050565b634e487b7160e01b5f52604160045260245ffd5b601f82111561035b57805f5260205f20601f840160051c810160208510156103395750805b601f840160051c820191505b81811015610358575f8155600101610345565b50505b505050565b67ffffffffffffffff83111561037857610378610300565b61038c8361038683546102c8565b83610314565b5f601f8411600181146103bd575f85156103a65750838201355b5f19600387901b1c1916600186901b178355610358565b5f83815260208120601f198716915b828110156103ec57868501358255602094850194600190920191016103cc565b5086821015610408575f1960f88860031b161c19848701351681555b505060018560011b018355505050505056fea264697066735822122001fa0e7b861fdf49602bac108c63e8891de1733c126f8d56afdd3b9df1a7589564736f6c63430008160033",
					"opcodes": "PUSH1 0xC0 PUSH1 0x40 MSTORE PUSH1 0x8 PUSH1 0x80 SWAP1 DUP2 MSTORE PUSH8 0x6772656574696E67 PUSH1 0xC0 SHL PUSH1 0xA0 MSTORE PUSH1 0x1 SWAP1 PUSH2 0x27 SWAP1 DUP3 PUSH2 0xD1 JUMP JUMPDEST POP CALLVALUE DUP1 ISZERO PUSH2 0x33 JUMPI PUSH0 DUP1 REVERT JUMPDEST POP PUSH2 0x190 JUMP JUMPDEST PUSH4 0x4E487B71 PUSH1 0xE0 SHL PUSH0 MSTORE PUSH1 0x41 PUSH1 0x4 MSTORE PUSH1 0x24 PUSH0 REVERT JUMPDEST PUSH1 0x1 DUP2 DUP2 SHR SWAP1 DUP3 AND DUP1 PUSH2 0x61 JUMPI PUSH1 0x7F DUP3 AND SWAP2 POP JUMPDEST PUSH1 0x20 DUP3 LT DUP2 SUB PUSH2 0x7F JUMPI PUSH4 0x4E487B71 PUSH1 0xE0 SHL PUSH0 MSTORE PUSH1 0x22 PUSH1 0x4 MSTORE PUSH1 0x24 PUSH0 REVERT JUMPDEST POP SWAP2 SWAP1 POP JUMP JUMPDEST PUSH1 0x1F DUP3 GT ISZERO PUSH2 0xCC JUMPI DUP1 PUSH0 MSTORE PUSH1 0x20 PUSH0 KECCAK256 PUSH1 0x1F DUP5 ADD PUSH1 0x5 SHR DUP2 ADD PUSH1 0x20 DUP6 LT ISZERO PUSH2 0xAA JUMPI POP DUP1 JUMPDEST PUSH1 0x1F DUP5 ADD PUSH1 0x5 SHR DUP3 ADD SWAP2 POP JUMPDEST DUP2 DUP2 LT ISZERO PUSH2 0xC9 JUMPI PUSH0 DUP2 SSTORE PUSH1 0x1 ADD PUSH2 0xB6 JUMP JUMPDEST POP POP JUMPDEST POP POP POP JUMP JUMPDEST DUP2 MLOAD PUSH1 0x1 PUSH1 0x1 PUSH1 0x40 SHL SUB DUP2 GT ISZERO PUSH2 0xEA JUMPI PUSH2 0xEA PUSH2 0x39 JUMP JUMPDEST PUSH2 0xFE DUP2 PUSH2 0xF8 DUP5 SLOAD PUSH2 0x4D JUMP JUMPDEST DUP5 PUSH2 0x85 JUMP JUMPDEST PUSH1 0x20 DUP1 PUSH1 0x1F DUP4 GT PUSH1 0x1 DUP2 EQ PUSH2 0x131 JUMPI PUSH0 DUP5 ISZERO PUSH2 0x11A JUMPI POP DUP6 DUP4 ADD MLOAD JUMPDEST PUSH0 NOT PUSH1 0x3 DUP7 SWAP1 SHL SHR NOT AND PUSH1 0x1 DUP6 SWAP1 SHL OR DUP6 SSTORE PUSH2 0x188 JUMP JUMPDEST PUSH0 DUP6 DUP2 MSTORE PUSH1 0x20 DUP2 KECCAK256 PUSH1 0x1F NOT DUP7 AND SWAP2 JUMPDEST DUP3 DUP2 LT ISZERO PUSH2 0x15F JUMPI DUP9 DUP7 ADD MLOAD DUP3 SSTORE SWAP5 DUP5 ADD SWAP5 PUSH1 0x1 SWAP1 SWAP2 ADD SWAP1 DUP5 ADD PUSH2 0x140 JUMP JUMPDEST POP DUP6 DUP3 LT ISZERO PUSH2 0x17C JUMPI DUP8 DUP6 ADD MLOAD PUSH0 NOT PUSH1 0x3 DUP9 SWAP1 SHL PUSH1 0xF8 AND SHR NOT AND DUP2 SSTORE JUMPDEST POP POP PUSH1 0x1 DUP5 PUSH1 0x1 SHL ADD DUP6 SSTORE JUMPDEST POP POP POP POP POP POP JUMP JUMPDEST PUSH2 0x450 DUP1 PUSH2 0x19D PUSH0 CODECOPY PUSH0 RETURN INVALID PUSH1 0x80 PUSH1 0x40 MSTORE CALLVALUE DUP1 ISZERO PUSH2 0xF JUMPI PUSH0 DUP1 REVERT JUMPDEST POP PUSH1 0x4 CALLDATASIZE LT PUSH2 0x4A JUMPI PUSH0 CALLDATALOAD PUSH1 0xE0 SHR DUP1 PUSH4 0x1F1BD692 EQ PUSH2 0x4E JUMPI DUP1 PUSH4 0x317CBE7B EQ PUSH2 0x6C JUMPI DUP1 PUSH4 0xC3A9B1C5 EQ PUSH2 0x7F JUMPI DUP1 PUSH4 0xCFAE3217 EQ PUSH2 0x92 JUMPI JUMPDEST PUSH0 DUP1 REVERT JUMPDEST PUSH2 0x56 PUSH2 0x9A JUMP JUMPDEST PUSH1 0x40 MLOAD PUSH2 0x63 SWAP2 SWAP1 PUSH2 0x210 JUMP JUMPDEST PUSH1 0x40 MLOAD DUP1 SWAP2 SUB SWAP1 RETURN JUMPDEST PUSH2 0x56 PUSH2 0x7A CALLDATASIZE PUSH1 0x4 PUSH2 0x25C JUMP JUMPDEST PUSH2 0x125 JUMP JUMPDEST PUSH2 0x56 PUSH2 0x8D CALLDATASIZE PUSH1 0x4 PUSH2 0x25C JUMP JUMPDEST PUSH2 0x1C4 JUMP JUMPDEST PUSH2 0x56 PUSH2 0x203 JUMP JUMPDEST PUSH0 DUP1 SLOAD PUSH2 0xA6 SWAP1 PUSH2 0x2C8 JUMP JUMPDEST DUP1 PUSH1 0x1F ADD PUSH1 0x20 DUP1 SWAP2 DIV MUL PUSH1 0x20 ADD PUSH1 0x40 MLOAD SWAP1 DUP2 ADD PUSH1 0x40 MSTORE DUP1 SWAP3 SWAP2 SWAP1 DUP2 DUP2 MSTORE PUSH1 0x20 ADD DUP3 DUP1 SLOAD PUSH2 0xD2 SWAP1 PUSH2 0x2C8 JUMP JUMPDEST DUP1 ISZERO PUSH2 0x11D JUMPI DUP1 PUSH1 0x1F LT PUSH2 0xF4 JUMPI PUSH2 0x100 DUP1 DUP4 SLOAD DIV MUL DUP4 MSTORE SWAP2 PUSH1 0x20 ADD SWAP2 PUSH2 0x11D JUMP JUMPDEST DUP3 ADD SWAP2 SWAP1 PUSH0 MSTORE PUSH1 0x20 PUSH0 KECCAK256 SWAP1 JUMPDEST DUP2 SLOAD DUP2 MSTORE SWAP1 PUSH1 0x1 ADD SWAP1 PUSH1 0x20 ADD DUP1 DUP4 GT PUSH2 0x100 JUMPI DUP3 SWAP1 SUB PUSH1 0x1F AND DUP3 ADD SWAP2 JUMPDEST POP POP POP POP POP DUP2 JUMP JUMPDEST PUSH1 0x60 PUSH0 PUSH2 0x133 DUP4 DUP6 DUP4 PUSH2 0x360 JUMP JUMPDEST POP PUSH0 DUP1 SLOAD PUSH2 0x140 SWAP1 PUSH2 0x2C8 JUMP JUMPDEST DUP1 PUSH1 0x1F ADD PUSH1 0x20 DUP1 SWAP2 DIV MUL PUSH1 0x20 ADD PUSH1 0x40 MLOAD SWAP1 DUP2 ADD PUSH1 0x40 MSTORE DUP1 SWAP3 SWAP2 SWAP1 DUP2 DUP2 MSTORE PUSH1 0x20 ADD DUP3 DUP1 SLOAD PUSH2 0x16C SWAP1 PUSH2 0x2C8 JUMP JUMPDEST DUP1 ISZERO PUSH2 0x1B7 JUMPI DUP1 PUSH1 0x1F LT PUSH2 0x18E JUMPI PUSH2 0x100 DUP1 DUP4 SLOAD DIV MUL DUP4 MSTORE SWAP2 PUSH1 0x20 ADD SWAP2 PUSH2 0x1B7 JUMP JUMPDEST DUP3 ADD SWAP2 SWAP1 PUSH0 MSTORE PUSH1 0x20 PUSH0 KECCAK256 SWAP1 JUMPDEST DUP2 SLOAD DUP2 MSTORE SWAP1 PUSH1 0x1 ADD SWAP1 PUSH1 0x20 ADD DUP1 DUP4 GT PUSH2 0x19A JUMPI DUP3 SWAP1 SUB PUSH1 0x1F AND DUP3 ADD SWAP2 JUMPDEST POP POP POP POP POP SWAP1 POP SWAP3 SWAP2 POP POP JUMP JUMPDEST PUSH1 0x60 DUP3 DUP3 DUP1 DUP1 PUSH1 0x1F ADD PUSH1 0x20 DUP1 SWAP2 DIV MUL PUSH1 0x20 ADD PUSH1 0x40 MLOAD SWAP1 DUP2 ADD PUSH1 0x40 MSTORE DUP1 SWAP4 SWAP3 SWAP2 SWAP1 DUP2 DUP2 MSTORE PUSH1 0x20 ADD DUP4 DUP4 DUP1 DUP3 DUP5 CALLDATACOPY PUSH0 SWAP3 ADD SWAP2 SWAP1 SWAP2 MSTORE POP SWAP3 SWAP7 SWAP6 POP POP POP POP POP POP JUMP JUMPDEST PUSH1 0x1 DUP1 SLOAD PUSH2 0xA6 SWAP1 PUSH2 0x2C8 JUMP JUMPDEST PUSH0 PUSH1 0x20 DUP1 DUP4 MSTORE DUP4 MLOAD DUP1 PUSH1 0x20 DUP6 ADD MSTORE PUSH0 JUMPDEST DUP2 DUP2 LT ISZERO PUSH2 0x23C JUMPI DUP6 DUP2 ADD DUP4 ADD MLOAD DUP6 DUP3 ADD PUSH1 0x40 ADD MSTORE DUP3 ADD PUSH2 0x220 JUMP JUMPDEST POP PUSH0 PUSH1 0x40 DUP3 DUP7 ADD ADD MSTORE PUSH1 0x40 PUSH1 0x1F NOT PUSH1 0x1F DUP4 ADD AND DUP6 ADD ADD SWAP3 POP POP POP SWAP3 SWAP2 POP POP JUMP JUMPDEST PUSH0 DUP1 PUSH1 0x20 DUP4 DUP6 SUB SLT ISZERO PUSH2 0x26D JUMPI PUSH0 DUP1 REVERT JUMPDEST DUP3 CALLDATALOAD PUSH8 0xFFFFFFFFFFFFFFFF DUP1 DUP3 GT ISZERO PUSH2 0x284 JUMPI PUSH0 DUP1 REVERT JUMPDEST DUP2 DUP6 ADD SWAP2 POP DUP6 PUSH1 0x1F DUP4 ADD SLT PUSH2 0x297 JUMPI PUSH0 DUP1 REVERT JUMPDEST DUP2 CALLDATALOAD DUP2 DUP2 GT ISZERO PUSH2 0x2A5 JUMPI PUSH0 DUP1 REVERT JUMPDEST DUP7 PUSH1 0x20 DUP3 DUP6 ADD ADD GT ISZERO PUSH2 0x2B6 JUMPI PUSH0 DUP1 REVERT JUMPDEST PUSH1 0x20 SWAP3 SWAP1 SWAP3 ADD SWAP7 SWAP2 SWAP6 POP SWAP1 SWAP4 POP POP POP POP JUMP JUMPDEST PUSH1 0x1 DUP2 DUP2 SHR SWAP1 DUP3 AND DUP1 PUSH2 0x2DC JUMPI PUSH1 0x7F DUP3 AND SWAP2 POP JUMPDEST PUSH1 0x20 DUP3 LT DUP2 SUB PUSH2 0x2FA JUMPI PUSH4 0x4E487B71 PUSH1 0xE0 SHL PUSH0 MSTORE PUSH1 0x22 PUSH1 0x4 MSTORE PUSH1 0x24 PUSH0 REVERT JUMPDEST POP SWAP2 SWAP1 POP JUMP JUMPDEST PUSH4 0x4E487B71 PUSH1 0xE0 SHL PUSH0 MSTORE PUSH1 0x41 PUSH1 0x4 MSTORE PUSH1 0x24 PUSH0 REVERT JUMPDEST PUSH1 0x1F DUP3 GT ISZERO PUSH2 0x35B JUMPI DUP1 PUSH0 MSTORE PUSH1 0x20 PUSH0 KECCAK256 PUSH1 0x1F DUP5 ADD PUSH1 0x5 SHR DUP2 ADD PUSH1 0x20 DUP6 LT ISZERO PUSH2 0x339 JUMPI POP DUP1 JUMPDEST PUSH1 0x1F DUP5 ADD PUSH1 0x5 SHR DUP3 ADD SWAP2 POP JUMPDEST DUP2 DUP2 LT ISZERO PUSH2 0x358 JUMPI PUSH0 DUP2 SSTORE PUSH1 0x1 ADD PUSH2 0x345 JUMP JUMPDEST POP POP JUMPDEST POP POP POP JUMP JUMPDEST PUSH8 0xFFFFFFFFFFFFFFFF DUP4 GT ISZERO PUSH2 0x378 JUMPI PUSH2 0x378 PUSH2 0x300 JUMP JUMPDEST PUSH2 0x38C DUP4 PUSH2 0x386 DUP4 SLOAD PUSH2 0x2C8 JUMP JUMPDEST DUP4 PUSH2 0x314 JUMP JUMPDEST PUSH0 PUSH1 0x1F DUP5 GT PUSH1 0x1 DUP2 EQ PUSH2 0x3BD JUMPI PUSH0 DUP6 ISZERO PUSH2 0x3A6 JUMPI POP DUP4 DUP3 ADD CALLDATALOAD JUMPDEST PUSH0 NOT PUSH1 0x3 DUP8 SWAP1 SHL SHR NOT AND PUSH1 0x1 DUP7 SWAP1 SHL OR DUP4 SSTORE PUSH2 0x358 JUMP JUMPDEST PUSH0 DUP4 DUP2 MSTORE PUSH1 0x20 DUP2 KECCAK256 PUSH1 0x1F NOT DUP8 AND SWAP2 JUMPDEST DUP3 DUP2 LT ISZERO PUSH2 0x3EC JUMPI DUP7 DUP6 ADD CALLDATALOAD DUP3 SSTORE PUSH1 0x20 SWAP5 DUP6 ADD SWAP5 PUSH1 0x1 SWAP1 SWAP3 ADD SWAP2 ADD PUSH2 0x3CC JUMP JUMPDEST POP DUP7 DUP3 LT ISZERO PUSH2 0x408 JUMPI PUSH0 NOT PUSH1 0xF8 DUP9 PUSH1 0x3 SHL AND SHR NOT DUP5 DUP8 ADD CALLDATALOAD AND DUP2 SSTORE JUMPDEST POP POP PUSH1 0x1 DUP6 PUSH1 0x1 SHL ADD DUP4 SSTORE POP POP POP POP POP JUMP INVALID LOG2 PUSH5 0x6970667358 0x22 SLT KECCAK256 ADD STATICCALL 0xE PUSH28 0x861FDF49602BAC108C63E8891DE1733C126F8D56AFDD3B9DF1A75895 PUSH5 0x736F6C6343 STOP ADDMOD AND STOP CALLER "
				},
				"gasEstimates": {
					"creation": {
						"codeDepositCost": "220800",
						"executionCost": "infinite",
						"totalCost": "infinite"
					},
					"external": {
						"EditText(string)": "infinite",
						"greet()": "infinite",
						"sayHello(string)": "infinite",
						"text()": "infinite"
					}
				},
				"methodIdentifiers": {
					"EditText(string)": "317cbe7b",
					"greet()": "cfae3217",
					"sayHello(string)": "c3a9b1c5",
					"text()": "1f1bd692"
				}
			},
			"storageLayout": {
				"storage": [
					{
						"astId": 30,
						"contract": "contracts/Inbox.sol:Message",
						"label": "text",
						"offset": 0,
						"slot": "0",
						"type": "t_string_storage"
					},
					{
						"astId": 33,
						"contract": "contracts/Inbox.sol:Message",
						"label": "greet",
						"offset": 0,
						"slot": "1",
						"type": "t_string_storage"
					}
				],
				"types": {
					"t_string_storage": {
						"encoding": "bytes",
						"label": "string",
						"numberOfBytes": "32"
					}
				}
			},
			"userdoc": {
				"kind": "user",
				"methods": {},
				"version": 1
			}
		}
	}
}